:100000000C941E170C9446170C9446170C94461724
:100010000C9446170C9446170C9446170C94BA1C73
:100020000C9446170C9446170C9446170C94391CE4
:100030000C9446170C9446170C9446170C944617CC
:100040000C94971B0C9446170C94071C0C94E11B02
:100050000C9446170C944B1E0C9446170C944617A0
:100060000C9446170C94461708000000BE922449D1
:10007000123EABAAAA2ABECDCCCC4C3E00000080DA
:10008000BEABAAAAAA3E00000000BF000000803F4D
:100090000000000000084178D3BB4387D1133D190D
:1000A0000E3CC3BD4282AD2B3E68EC8276BED98F3A
:1000B000E1A93E4C80EFFFBE01C4FF7F3F0000007E
:1000C000000003020302020203020100010001001A
:1000D00003020100030203020302030203020202FD
:1000E00003020302030203020302030203020302E8
:1000F00003020302020202020302030201000100E2
:1001000001000302030203020302030203020202CC
:1001100003020302030203020302030203020302B7
:1001200003020302030202020302010001000100B4
:100130000302030203020302030203020202020299
:100140000302030203020302030203020302030287
:1001500003024D69747375626973686920334139AC
:100160003200000101010100000000000000000059
:100170000000000001010101010101000000000078
:100180000101010101000000000001010101010065
:100190000000000101010101000000000001010157
:1001A0000101000000000003030303030202020236
:1001B0000203030303030202020202030303030315
:1001C0000202020202030303030100000000000117
:1001D0000101010100000000000101010101000016
:1001E0000000000101010101000000000001010107
:1001F00001010000000000010101010100000000F8
:1002000000010101010302020202020303030303CE
:1002100002020202020303030303020202020203B8
:1002200003030101000000000001010101010000C1
:1002300000000001010101010000000000010101B6
:1002400001010000000000010101010100000000A7
:100250000001010101010000000000010101030390
:100260000202020202030303030302020202020368
:10027000030303030202020202030303010101005C
:100280000000000101010101010000000001010165
:100290000101010000000000010101010100000056
:1002A0000000010101010100000000000101010145
:1002B0000100000000000101010101000000000038
:1002C0000101010101000000000001010101010024
:1002D000000000000000000000000000000101011B
:1002E0000101010000000000010101010100000006
:1002F00000000101010101000000000001010101F5
:1003000001000000000001010101010000000000E7
:1003100003030303030202020202030303030302B3
:1003200002020202030303030302020202020303A6
:1003300003030100000000000101010101000000B1
:1003400000000101010101000000000001010101A4
:100350000101000000000101010101010000000095
:100360000001010101010000000000010101010183
:100370000000000000010101010100000000000177
:100380000101010100000000000101010101000064
:100390000000000101010101000000000001010155
:1003A0000101000000000001010101010000000046
:1003B0000001010101010000000000010101010133
:1003C0000000000000010303030302020202020313
:1003D00003030303020202020203030303030302F3
:1003E00002020203030301010100000000000101F9
:1003F00001010100000000000101010101000000F5
:1004000000000101010101000000000001010101E3
:1004100001000000000001010101010000000000D6
:1004200001010101010000000000010101010100C2
:100430000000466F726420535431373000000000D2
:10044000000000000000000002020202020202029C
:100450000202030302020303020203030202030374
:10046000020202020202000000000000010101017C
:100470000101010101010101000001010000010170
:10048000000001010000000000000000000000006A
:100490000202020202020202020203030202030338
:1004A0000202030302020303020202020202020228
:1004B000020202020303030303030101010101011C
:1004C0000000010100000101000001010044534D42
:1004D0002034323061000000000000000000000005
:1004E000000000000000000000000001010000000A
:1004F00000000000000000000000000000000000FC
:1005000000000000000000000001010000000101E7
:1005100000000000000000000000000000000000DB
:1005200000000000000000010100000000000000C9
:1005300000000000000000000000000000000000BB
:1005400000000000000101000000000000000000A9
:10055000000000000000000000000000000000009B
:100560000000000101000000000000000000000089
:10057000000000000000000000000000000000007B
:1005800000010100000000000000474D2037580026
:10059000000000000002020200000002020200004F
:1005A0000002020200000000000000000000000045
:1005B000000000000000000000000000000000003B
:1005C000000000000000000000000000000000002B
:1005D000000000000000000000000000000000001B
:1005E0000000000101010000000000000000000008
:1005F00000000000000000000000000000000000FB
:1006000000000001010100000000000000000000E7
:1006100000000000000000000000000000000000DA
:1006200000000000000000000000000000000000CA
:1006300000000000000000000000010101000000B7
:1006400000000000000000000000000000000000AA
:100650000000000000000000020202000000000094
:10066000000000000000000000000000000000008A
:10067000000000000000000000000000000000007A
:10068000000000000000000000000000000000006A
:100690000000000000000001010100000000000057
:1006A000000000000000000000000000000000004A
:1006B0000000000000000001010100000000000037
:1006C000000000000000000000000000000000002A
:1006D000000000000000000000000000000000001A
:1006E0000000000000000000000000000000010108
:1006F00001000000000000000000000000000000F9
:1007000000000000000000000000000002020200E3
:1007100000000202020000000000000000000000D3
:1007200000000000000000000000000000000000C9
:1007300000000000000000000000000000000000B9
:1007400000000000000000000000000101010000A6
:100750000000000000000000000000000000000099
:100760000000000000000000000000010101000086
:100770000000000000000000000000000000000079
:100780000000000000000000000000000000000069
:100790000000000000000000000000000000000059
:1007A0000000010101000000000000000000000046
:1007B0000000000000000000000000000000000039
:1007C0000202020000000000000000000000000023
:1007D0000000000000000000000000000000000019
:1007E0000000000000000000000000000000000009
:1007F00000000000000000000000000000000001F8
:1008000001010000000000000000000000000000E6
:1008100000000000000000000000000000000001D7
:1008200001010000000000000000000000000000C6
:1008300000000000000000000000000000000000B8
:1008400000000000000000000000000000000000A8
:100850000000000000000101010000000000000095
:1008600053756261727520362F37206372616E6B2B
:1008700020616E642063616D0032342F3120283294
:1008800034206372616E6B20776974682063616DD8
:10089000290000000000000100000000000100002D
:1008A0000000000100000000000100000000000145
:1008B0000000000000010000000000010000000036
:1008C0000001000000000001000000000001000025
:1008D0000000000100000000000100000000000115
:1008E0000000000000010000000000010000000006
:1008F00000010000000000010000000000010000F5
:1009000000000001000000000001000000000001E4
:1009100002020202020100000000000100000000CB
:10092000000131322F3120283132206372616E6B29
:1009300020776974682063616D2900000000000061
:1009400000020200000000000000000000000101A1
:100950000000000000000000000000000101000095
:100960000000000000000000000000000000000087
:100970000000010100000000000000000000000075
:10098000010100000002020000020200000000005D
:100990000000000000000101000000000000000055
:1009A0000000000001010000000000000000000045
:1009B0000000000000000000000001010000000035
:1009C00000000000000000000101004D6961746139
:1009D0002039392D303500010100000000010100EF
:1009E0000000000000000000000000000000000007
:1009F00000000000000000000000000000000000F7
:100A000000000000000000010100000000000000E4
:100A100000000000000000000000000000000000D6
:100A200000000000000000000000000000000000C6
:100A300000000000000000010100000000000000B4
:100A400000000000000000000000000000000000A6
:100A50000000000000000000000000000000000096
:100A60000000000000000044616968617473752033
:100A7000332B31206469737472696275746F7220EC
:100A800028332063796C696E6465727329000000F5
:100A90000000000200000100000000000100000052
:100AA0000000020002010000000000014D617A64B4
:100AB00061203332332041552076657273696F6E41
:100AC0000001000000000001000000000001000023
:100AD0000000000100000000000100000000000113
:100AE0000000000000010000000000010000000004
:100AF00000010000000000010000000000010000F3
:100B000000000001000100000001000000000001E1
:100B100000000000000100000000000100000000D3
:100B200000010000000000010000000000010000C2
:100B300000000001000000000001000000000001B2
:100B400000000000000100000000000100010000A2
:100B500000486F6E646120443137204372616E6BD0
:100B6000202831322B312900030302020303020241
:100B70000303020001010000010100000101000067
:100B8000010100000101000001010000010100005D
:100B9000010100000101000001010000010100004D
:100BA000010100000101000001010000010100003D
:100BB000010100000101000001010000010100002D
:100F90000101000001010000010100000101000247
:100FA000417564692031333520746F6F7468206334
:100FB00072616E6B20616E642063616D00020202DB
:100FC0000202020202020202000000000000000011
:100FD0000000010101010101010101010101010103
:100FE0000000000000000000000000000000000001
:100FF00000000002020203030303030303030303CD
:1010000003010101000000000000000000000000DA
:1010100000000000000000000000010101010101CA
:1010200001010101010101010000000000000000B8
:1010300000000000000000000000000000020303A8
:10104000030303030303030303030303024D697450
:1010500073756269736869203467363320616B6128
:1010600020342F32206372616E6B20616E642063C6
:10107000616D00010100000001010000000101009C
:10108000000001010000000101000000010100005A
:101090000001010000000103020202030302020238
:1010A000030100000001010000000000000000003A
:1010B000000000000103020202020202020202001A
:1010C000000000010100000001010000000101001A
:1010D000000001010000000101000000010100000A
:1010E00000010100000001010000000101000000FA
:1010F00001030202020303020202030100000001D5
:1011000001000000000000000000000000000103DA
:1011100002020203030202020301000000010100B7
:1011200000000101000000010100000001010000B9
:1011300000010100000001010000000101000000A9
:101140000101000000010100000001010000000198
:10115000010000000101000000010100000000008A
:10116000000000000000000001030202020202026F
:101170000202020000000001010000000101000065
:101180000001010000000101000000010100000059
:101190000101000000010100000001010000000148
:1011A0000100000001010000000101000000010138
:1011B000000000010100000000000000000000002D
:1011C0000000010302020203030202020301000005
:1011D00000010100000001010000004D617A64611E
:1011E0002033362D322D322D322077697468203627
:1011F00020746F6F68742063616D0000010101004D
:1012000001010100010101000101010001010100D2
:1012100001010100010101000101010001010100C2
:1012200001010100010101000101010201010100B0
:1012300001010100010101000101010001010102A0
:101240000101010101010101010101000101010090
:101250000101010001010100010101000101010082
:101260000101010001010100010101000101010072
:101270000101010001010100010101000101010062
:101280000101010001010100010101000101010250
:101290000101010101010101010101000101010040
:1012A0000101010001010100010101000101010032
:1012B0000101010001010100010101000101010022
:1012C0000101010001010100010101000101010012
:1012D0000101010001010100010101000101010200
:1012E00001010101010101010101010001010100F0
:1012F00001010100010101000101010001010100E2
:1013000001010100010101000101010001010100D1
:1013100001010100010101000101010001010100C1
:1013200001010100010101000101010001010102AF
:10133000010101010101010101010100010101009F
:101340000101010001010100010101000101010091
:101350000101010001010100010101000101010081
:101360000101010001010100010101000101010071
:10137000010101000101010001010100010101025F
:10138000010101010101010101010100010101004F
:101390000101010001010100010101000101010041
:1013A0000101010001010100010101000101010031
:1013B0000101010001010100010101000101010021
:1013C000010101000101010001010100010101020F
:1013D0000101010101010101010101566F6C766FEC
:1013E000206431325B6163645D206372616E6B20E7
:1013F00077697468203720746F6F74682063616D3B
:1014000000010001000100010003020302030203C6
:1014100002474D2038206576656E2D746F6F7468B5
:10142000206372616E6B2077697468203120746F5D
:101430006F74682063616D00010001000100030208
:1014400003020302474D2036206576656E2D746FCA
:101450006F7468206372616E6B20776974682031E5
:1014600020746F6F74682063616D000100010003D8
:10147000020302474D2034206576656E2D746F6F30
:101480007468206372616E6B207769746820312004
:10149000746F6F74682063616D00000000010000CC
:1014A0000001000000010000000100000001000038
:1014B0000001000000010000000100020203020020
:1014C0000001000000010000000100000001000018
:1014D0000001000000010000000159616D616861B8
:1014E00020323030322D3033205231203820657692
:1014F000656E2D746F6F7468206372616E6B2077F8
:10150000697468203120746F6F74682063616D00A6
:1015100001000001000001000001000001000001C5
:1015200000000100000100000100000100000302B2
:10153000020202020300000100000100000100009D
:101540000100000100000100000100000100000195
:1015500000000100000000004D617A6461204341F9
:10156000532032342D3220776974682073696E6796
:101570006C652070756C7365206F75746572207270
:10158000696E67000201000100010001000302030F
:101590000203020302030203020302030203020323
:1015A0000203020302030203020302030203020313
:1015B0000203020302030203020302030203020303
:1015C00002030203020302030203020302030203F3
:1015D00002030203020302030203020302030203E3
:1015E00002030203020302030203020302030203D3
:1015F00002030203020302030203020302010001C9
:1016000000010001000100010001000100030203CC
:1016100002030203020302030203020302030203A2
:101620000203020302030203020302030203020392
:101630000203020302030203020302030203020382
:101640000203020302030203020302030203020372
:101650000203020302030203020302030203020362
:101660000203020302030203020302030203020352
:101670000203020302010001000100010001000158
:10168000000100010001000100010001000302034C
:101690000203020302030203020302030203020322
:1016A0000203020302030203020302030203020312
:1016B0000203020302030203020302030203020302
:1016C00002030203020302030203020302030203F2
:1016D00002030203020302030203020302030203E2
:1016E00002030203020302030203020302010001D8
:1016F00000010001000100010001000100010001E2
:1017000000010001000100010001000100030203CB
:1017100002030203020302030203020302030203A1
:101720000203020302030203020302030203020391
:101730000203020302030203020302030203020381
:101740000203020302030203020302030203020371
:101750000203020302030203020302030203020361
:101760000203020302010001000100010001000167
:101770000001000100010001000100010001000161
:10178000000100010001000100010001000302034B
:101790000203020302030203020302030203020321
:1017A0000203020302030203020302030203020311
:1017B0000203020302030203020302030203020301
:1017C00002030203020302030203020302030203F1
:1017D00002030203020302030203020302010001E7
:1017E00000010001000100010001000100010001F1
:1017F00000010001000100010001000100010001E1
:1018000000010001000100010001000100030203CA
:1018100002030203020302030203020302030203A0
:101820000203020302030203020302030203020390
:101830000203020302030203020302030203020380
:101840000203020302030203020302030203020370
:10185000020302034E697373616E203336302043F6
:1018600041532077697468203620736C6F7473005D
:101870000202020202020202020202020202020248
:101880000202020202020202020202020202020238
:101890000202020202020202000000000000000038
:1018A0000000000000000000000000000202020230
:1018B0000202020202020202020202020202020208
:1018C00002020203030303030202020202020202F3
:1018D00002020202020202020202020202020202E8
:1018E00002020203030303030202020202020202D3
:1018F00002020202020202020202020202020202C8
:1019000002020202020202020202020202020202B7
:1019100002020202020202020202030303030302A2
:101920000202020202020202020202020202020297
:101930000202020202020202020202020202020287
:101940000202020202020202020202020202020277
:10195000020202020202000000000000000000007B
:101960000000000000000000000000000000000077
:101970000000000000000001010101010000000062
:101980000000000000000000000000000000000057
:101990000000000000000001010101010000000042
:1019A0000000000000000000000000000000000037
:1019B0000000000000000000000000000000000027
:1019C0000000000000000000000000000000010115
:1019D0000101010000000000000000000000000004
:1019E00000000000000000000000000000000000F7
:1019F00000000000000000000000000000000000E7
:101A000002020202020202020202020202020202B6
:101A100002020202000000000000000000000000BE
:101A200000000000000000000000000101010101B1
:101A300000000000000000000000000000000000A6
:101A40000000000000000000000000010101010191
:101A50000000000000000000000000000000000086
:101A60000000000000000000000000000000000076
:101A70000000000000000000000000000000000066
:101A80000000010101010100000000000000000051
:101A90000000000000000000000000000000000046
:101AA0000000000000000000000000000000000036
:101AB0000000000000000000000000000000020222
:101AC00002020202020202020202020202020202F6
:101AD00002020202020202020202020202020203E5
:101AE00003030303020202020202020202020202D2
:101AF00002020202020202020202020202020203C5
:101B000003030303020202020202020202020202B1
:101B100002020202020202020202020202020202A5
:101B20000202020202020202020202020202020295
:101B30000202020202020303030303020202020280
:101B40004669617420312E38203136562063726127
:101B50006E6B20616E642063616D00000000000008
:101B60000000000000000000000000010100000073
:101B7000000202020200000000000000000101005B
:101B80000000000000000000000000000000000154
:101B9000010000000002020202000000000000003C
:101BA0000001010000000000000000000000000033
:101BB0000000000101000000000000000000000023
:101BC0000000000000010100000000000000000013
:101BD0000000000000000001010000000000000003
:101BE00000000000000000000001015765626572FE
:101BF0002D4D6172656C6C692038206372616E6B6B
:101C00002B322063616D207061747465726E000008
:101C100000000000010101010101010101010101B8
:101C20000101010101010101030303030302020297
:101C3000020203030303030202020202030303037B
:101C40000302020202020303030303020000000076
:101C5000010101010100000000000101010101007A
:101C6000000000000101010101000000000001016D
:101C7000030303020202020203030303030202023C
:101C8000020203030303030202020202030303032B
:101C90000302020200000101010101000000000036
:101CA000010101010100000000000101010101002A
:101CB000000000000101010103020202020203030D
:101CC00003030302020202020202020202020202F1
:101CD00002020202020202020202020203030303E0
:101CE00003020202020203030303030202020202CE
:101CF00003030303030202020202030303030302BA
:101D000002020202030303030302020202020303AC
:101D1000030303020202020203030303030202029B
:101D2000020203030303030202020202030303038A
:101D3000030202020202030303030302020202027D
:101D40000303030303020202000001010101010079
:101D5000000000000101010101000000000001017C
:101D60000101010000000000010101010302020263
:101D7000020203030303030202020202030303033A
:101D80000303030303030303030303030303030323
:101D90000101010101000000000001010101010039
:101DA000000000000101010101000000000001012C
:101DB0000101010002020202030303030302020203
:101DC00002020303030303020202020203030303EA
:101DD00003020202020203030101010000000000ED
:101DE00001010101010000000000010101010100E9
:101DF00000000000010101010100000002020303D4
:101E000003030302020202020303030303020202AA
:101E10000202030303030302020202020303030399
:101E200001000000000001010101010000000000AC
:101E300000000000000000000000000000000000A2
:101E4000000000000101010101000000000001018B
:101E5000010101000000000001010101010000007A
:101E60000000010101010100000000000101010169
:101E7000010000000000010101010100000000005C
:101E80000101010101000000000001010101010048
:101E9000000000000101010101000000000001013B
:101EA000010101000000000001010101010000002A
:101EB00002020303030303020202020203030303F9
:101EC00003020202020203030303030202020202EC
:101ED00003030303010000000000010101010133BD
:101EE000362D312B31206372616E6B2077697468F7
:101EF0002063616D207061747465726E204E47437B
:101F00003400010001000100010001000100010096
:101F100001000100010001000100010001000100B9
:101F200001000100010001000100010001000100A9
:101F30000100010001000100010001000100010099
:101F40000100030203020100000001000100010082
:101F50000100010001000100010001000100010079
:101F60000100010001000100010001000100010069
:101F70000100010001000100010001000100010059
:101F8000010001000100010001000100010000004A
:101F9000000033362D31206372616E6B20776974D7
:101FA0006820326E642074726967676572206F6E94
:101FB0002074656574682033332D333400000100CC
:101FC0000100010001000100030001000100010007
:101FD00001000100010001000100010003000100F7
:101FE00003000100010001000100010001486F6EC3
:101FF0006461205243353120776974682063616DD4
:1020000000010001000100010001000100010001C8
:1020100000010001000100010001000000010001B9
:1020200000000001000100010001000100010001A9
:102030000001000100010001000100010001000099
:102040000001000100010000004F6464204C6F7427
:1020500075732033362D312D312D312D3120666CA5
:1020600079776865656C00040000000000000000DE
:102070000000000101010000000101010101010156
:102080000101010101000000010101010101010143
:102090000101010100000001010101010101010133
:1020A0000101010000000101010101010101010123
:1020B0000101000000010101010101010101010113
:1020C000010000000000000000000000000101010C
:1020D00000000001010101010101010101010100F4
:1020E00000000101010101010101010101010000E4
:1020F00000010101010101010101010101000000D4
:1021000000000000000000000001010100000000CC
:1021100000000000000000000101010000000101BA
:1021200001010101010101010101000000010101A2
:102130000101010101010101010000000000000096
:10214000000000000001010100000000000000008C
:10215000000000000101010000000000000000007C
:102160000000000101010000000101010101010165
:10217000010101010100000000000000000000005A
:102180000001010100000001010101010101010143
:10219000010101000000000000000000000000013B
:1021A000010100000000000000000000000001012B
:1021B000010000000000000000000000000101011B
:1021C000000000000000000000000000010101020A
:1021D00002020202020202020202020303030202DC
:1021E00002030303030303030303030303020202C3
:1021F00003030303030303030303030302020203B2
:1022000003030303030303030303030202020303A1
:102210000303030303030303030302020203030391
:102220000303030303030303030202020202020285
:102230000202020202030303020202030303030376
:102240000303030303030302020203030303030361
:102250000303030303030202020303030303030351
:102260000303030303020202020202020202020249
:10227000020303030202020202020202020202023B
:102280000303030202020303030303030303030321
:102290000303020202030303030303030303030311
:1022A000030202020202020202020202020303030A
:1022B00002020202020202020202020203030302FB
:1022C00002020202020202020202020303030202EB
:1022D00002030303030303030303030303020202D2
:1022E00002020202020202020203030302020203CA
:1022F00003030303030303030303030202020202B3
:1023000002020202020202030303020202020202AA
:10231000020202020202030303020202020202029A
:10232000020202020203030302020202020202028A
:1023300002020202030303474D204C533120637213
:10234000616E6B20616E642063616D0001010101AB
:102350000000000000000101010100000000000079
:102360000101010100000000000000000000000069
:102370000000000000000000000101010100000059
:102380000000000101010100000000000001010146
:102390000100000000000000000000004275656CB4
:1023A0006C204F6464666972652043414D207768F4
:1023B00065656C00030303030303030303020202C6
:1023C0000202000000000000000000010101010104
:1023D00001010303030202020202000000000000E8
:1023E00000000001010101010101010101000000E3
:1023F00000000000000000000202020303030303C8
:1024000001010101010000000000000000000000C7
:1024100000000001010101010101030303020202A6
:1024200002020000000000000000000101010101A3
:102430000101010101000000000000000000000097
:10244000000202034D69747375626973686920360E
:1024500067373220776974682063616D000100017D
:102460000001000100010001000100010001000362
:102470000203000100010001000100010001000150
:102480000001000100010001000100010001000144
:102490000001000100010001000100010001000134
:1024A0000001000000010001000100010001000125
:1024B0000003020300010003020300010001000108
:1024C0000001000100010001000100010001000104
:1024D00000010001000100010001000100010001F4
:1024E000000100010001000100010000004D617ABF
:1024F0006461204645332033362D31207769746876
:102500002063616D0001010101010101010101016F
:1025100000010101010101010101010100010001AE
:10252000010101010101010100010101010101019C
:10253000010101010001010101010101010101018C
:1025400001010001010101010101010100474D20CC
:1025500034323030206372616E6B20776865656C51
:102560000001000002000001000000000001000165
:102570000001000100010001000100010001000153
:102580000001000100010001000100010000020043
:102590000001000100010001000100010001000133
:1025A0000001000100010001000100000000000125
:1025B0000000000000010001020100010001000113
:1025C0000001000100010001000100010001000103
:1025D00000010001000000000001000100010001F5
:1025E00000010001000100010001000100010001E3
:1025F0000033362D322D322D32204372616E6B2026
:10260000616E642063616D00010001000100010042
:1026100001000100010001000100010001000100B2
:1026200001000000000001000000000001000100A6
:102630000100010001000100010001000100010092
:102640000100010001000000000001000100010084
:1026500033362D322D322D32204372616E6B206F56
:102660006E6C790001000000010000000100000014
:102670000100000001000000010000000100000056
:102680000100000001000000000000000000000048
:102690000000000031322D33206F646462616C6C85
:1026A0000000010001000100010001000100010023
:1026B0000100010001000100010001000100010012
:1026C0000100010001000100010001000100010002
:1026D00001000100010001000100010001000100F2
:1026E00001000100010001000100010001000100E2
:1026F00001000100010001020302030203020302C0
:1027000003020302030001000100010001000100B7
:1027100001000100010001000100010001000100B1
:1027200001000100010001000100010001000100A1
:102730000100010001000100010001000100010091
:102740000100010001000100010001000100010081
:102750000102030203000100010001000100010069
:102760000100010001000100010001000100010061
:102770000100010001000100010001000100010051
:102780000100010001000100010001000100010041
:102790000100010001000100010001000100010031
:1027A0000100010001000100010001020302030217
:1027B00003020302030203020302030203020302F1
:1027C00003020300010001000100010001000100FB
:1027D00001000100010001000100010001000100F1
:1027E00001000100010001000100010001000100E1
:1027F00001000100010001000100010001000100D1
:1028000001000100010203020300010001000100B8
:1028100001000100010001000100010001000100B0
:1028200001000100010001000100010001000100A0
:102830000100010001000100010001000100010090
:102840000100010001000100010001000100010080
:10285000010001000100010001000100010001026E
:102860000302030203020302030203020302030240
:102870000302030203020302030203020302030230
:10288000030001000100010001000100010001003E
:102890000100010001000100010001000100010030
:1028A0000100010001000100010001000100010020
:1028B0000100010001000100010203020300010008
:1028C0000100010001000100010001000100010000
:1028D00001000100010001000100010001000100F0
:1028E00001000100010001000100010001000100E0
:1028F00001000100010001000100010001000100D0
:1029000001000100010001000100010001000100BF
:102910000100010203020302030203020302030295
:10292000030203020302030203020302030203027F
:102930000302030203020302030203020302030071
:10294000010001000100010001000100010001007F
:10295000010001000100010001000100010001006F
:102960000100010001000100010001000102030259
:1029700003474D204F707469537061726B204C5443
:10298000312033363020616E6420380001000000B1
:102990000000000000010000000000000000000036
:1029A000000000006F646420666972652039302081
:1029B000646567207061747465726E203020616E8A
:1029C00064203133352070756C736573000000002E
:1029D0000000010101014469737472696275746FCA
:1029E00072207374796C6520342063796C203530E3
:1029F000646567206F66662C20343020646567202C
:102A00006F6E0000010001000100010001000100E3
:102A100001000100010001000100010001000100AE
:102A2000010001000100010001000100010001009E
:102A3000010001000100010001000100010001008E
:102A4000010001000100010001000100010001007E
:102A500001000034302D31206372616E6B206F6E87
:102A60006C792028466F72642056313029000000AE
:102A70000000000100000000000100000000000153
:102A80000000000000010000000000010000000044
:102A90000001000000000001000000000001000033
:102AA0000000000100000000000100000000000123
:102AB0000000000000000000000000010000000015
:102AC0000001000000000001000000000001000003
:102AD00000000001000000000001000000000001F3
:102AE00000000000000100000000000102020202DC
:102AF000020100000000000100000000000031326F
:102B00002D31206372616E6B207769746820636178
:102B10006D00000001000001000001000001000044
:102B2000010000000000010000010202010000019C
:102B3000000001000000362D31206372616E6B20B1
:102B4000776974682063616D000001000100010075
:102B5000010001000100010000382D312063726185
:102B60006E6B206F6E6C79202852362900000100B0
:102B700001000100000001020100010000342D31BC
:102B8000206372616E6B20776865656C207769746D
:102B9000682063616D000100010001000100010077
:102BA000010001000100010001000100010001001D
:102BB000010001000100010001000100010001000D
:102BC00001000100000032342D31206372616E6B10
:102BD000206F6E6C7900010001000100010001000E
:102BE00001000100010001000100010001000100DD
:102BF00001000100010001000100010001000100CD
:102C000001000100010001000100010001000100BC
:102C10000100010001000100010001000000333645
:102C20002D31206372616E6B206F6E6C7900010034
:102C3000010001000100010001000100010001008C
:102C4000010001000100010001000100010001007C
:102C5000010001000100010001000100010001006C
:102C6000010001000100010001000100010001005C
:102C7000010001000100010001000100010001004C
:102C8000010001000100010001000100010001003C
:102C9000010001000100010001000100010001002C
:102CA000010000000000010001000100010001001E
:102CB000010001000100010001000100010001000C
:102CC00001000100010001000100010001000100FC
:102CD00001000100010001000100010001000100EC
:102CE00001000100010001000100010001020100DA
:102CF00001000100010001000100010001000100CC
:102D000001000100010001000100010001000100BB
:102D10000100010001000100010000000000363048
:102D20002D32206372616E6B20616E642063616D71
:102D3000000100010001000100010001000100018B
:102D4000000100010001000100010001000100017B
:102D5000000100010001000100010001000100016B
:102D6000000100010001000100010001000100015B
:102D7000000100010001000100010001000100014B
:102D8000000100010001000100010001000100013B
:102D9000000100010001000100010001000100012B
:102DA00000010001000000000036302D3220637267
:102DB000616E6B206F6E6C790001000100010001F3
:102DC00000382063796C696E6465722064697A7A70
:102DD0007900010001000100362063796C696E649E
:102DE00065722064697A7A790001000100342063F9
:102DF000796C696E6465722064697A7A7900000082
:102E00000000250028002B000000000024002700FF
:102E10002A0004040404040404040202020202025C
:102E2000030303030303010204081020408001028E
:102E300004081020010204081020642111241FBE80
:102E4000CFEFD8E0DEBFCDBF13E0A0E0B1E0ECEA09
:102E5000FBE402C005900D92A638B107D9F724E033
:102E6000A6E8B3E001C01D92AA34B207E1F717E16A
:102E7000CEE1D7E104C02197FE010E94F122CD31BD
:102E8000D107C9F70E946C1E0C94D4250C94000045
:102E900090E0FC01EA5DF14D2491FC01EE5EF14D04
:102EA0008491882399F090E0880F991FFC01E85FD6
:102EB000F14DA591B491FC01E250F24D85919491B0
:102EC0008FB7F894EC91E22BEC938FBF0895CF92DB
:102ED000DF92EF92FF920F931F93CF93DF936C01DA
:102EE0007A018B01C0E0D0E0CE15DF0581F0D8017A
:102EF0006D918D01D601ED91FC910190F081E02D55
:102F0000C6010995892B11F02196EECF7E01C701EC
:102F1000DF91CF911F910F91FF90EF90DF90CF90B5
:102F20000895089580E090E00895FC01538D448D4C
:102F3000252F30E0842F90E0821B930B541710F064
:102F4000CF96089501970895FC01918D828D981771
:102F500061F0828DDF01A80FB11D5D968C91928D7D
:102F60009F5F9F73928F90E008958FEF9FEF08957A
:102F7000FC01918D828D981731F0828DE80FF11D43
:102F8000858D90E008958FEF9FEF0895FC01918D5E
:102F9000228D892F90E0805C9F4F821B91098F7357
:102FA0009927089589EA93E00E94C61721E0892BAA
:102FB00009F420E0822F0895FC01848DDF01A80F21
:102FC000B11DA35ABF4F2C91848D90E001968F7351
:102FD0009927848FA689B7892C93A089B1898C9170
:102FE000837080648C93938D848D981306C00288BF
:102FF000F389E02D80818F7D80830895EF92FF9289
:103000000F931F93CF93DF93EC0181E0888F9B8D0B
:103010008C8D981305C0E889F989808185FD26C0CB
:10302000F62E0B8D10E00F5F1F4F0F731127E02E50
:103030008C8DE8120CC00FB607FCFACFE889F9892D
:10304000808185FFF5CFCE010E94DC17F1CF8B8DFB
:10305000FE01E80FF11DE35AFF4FF0829FB7F8948D
:103060000B8FEA89FB89808180620AC09FB7F89440
:10307000EE89FF896083E889F989808183708064A3
:1030800080839FBF81E090E0DF91CF911F910F91EE
:10309000FF90EF900895CF93DF93EC01888D882304
:1030A000C9F0EA89FB89808185FD05C0A889B989B5
:1030B0008C9186FD0FC00FB607FCF5CF808185FF90
:1030C000F2CFA889B9898C9185FFEDCFCE010E94FE
:1030D000DC17E7CFDF91CF91089580E090E0892B56
:1030E00029F00E94D21781110C9400000895CF920C
:1030F000DF92EF92FF920F931F93CF93DF938C0198
:10310000DB01EC91E150E53028F4F0E0EE5EFE4F9B
:10311000208101C020E0C0910B0180E092E1AAE78C
:10312000B0E0BC01CD0104C0959587957795679572
:103130002A95D2F70E941E246B017C01BCE0CB9F34
:10314000E0011124C75DDE4FF8016081718180E0EC
:1031500090E00E941C242C813D814E815F810E9461
:103160003B259B01AC01C701B6010E947B230E9455
:10317000ED23CB01DF91CF911F910F91FF90EF9045
:10318000DF90CF900895CF93DF93382FC0910B013C
:103190008CE0C89FE0011124C75DDE4F832F6A30A9
:1031A00071058105910520F46AE070E080E090E00F
:1031B0000E941C242C813D814E815F810E943B2511
:1031C0009B01AC0160E074E284EF9AE40E947B23EF
:1031D0000E94ED2361157105810521E09207A8F495
:1031E0006115710520E48207910590F46115710560
:1031F00028E08207910578F46115710521E08207C6
:10320000910560F430E021E00BC03AE025E008C011
:1032100038E024E005C036E023E002C033E022E0DD
:10322000DC01CB0104C0B695A795979587953A9593
:10323000D2F7909308018093070120938E0381E0D9
:1032400080938D03DF91CF910895009769F0FC0181
:1032500001900020E9F73197AF01481B590BBC01E1
:1032600089EA93E00C94671780E090E00895CF938B
:10327000DF930E942519EC0181E893E00E94251953
:103280008C0F9D1FDF91CF9108958F929F92AF92E7
:10329000BF920F931F93CF93DF93CDB7DEB7A19764
:1032A0000FB6F894DEBF0FBECDBF19A2423008F4AE
:1032B0004AE08E010F5D1F4F842E912CA12CB12C62
:1032C000A50194010E94CF22E62FB901CA01015045
:1032D0001109EA3014F4E05D01C0E95CD801EC9317
:1032E000232B242B252B61F7C8010E942519A196B9
:1032F0000FB6F894DEBF0FBECDBFDF91CF911F9107
:103300000F91BF90AF909F908F9008952F923F9212
:103310004F925F926F927F928F929F92AF92BF92E5
:10332000CF92DF92EF92FF920F931F93CF93DF9391
:103330008091A803882329F025E02A95F1F7000061
:10334000F7CF81E08093A80360910301709104019D
:1033500080E090E00E941C242B013C01E0910B01D5
:10336000CCE0CE9FF0011124E75DFE4F2481358132
:10337000468157810E943B259B01AC0160E074E2CD
:1033800084EF9AE40E947B230E94ED231B018C01B1
:10339000609105017091060180E090E00E941C247C
:1033A0004B015C01E0910B01CE9FF0011124E75D20
:1033B000FE4F24813581468157810E943B259B0128
:1033C000AC0160E074E284EF9AE40E947B230E94E7
:1033D000ED236B017C01A3019201C501B4010E94A0
:1033E0007B230E94F3242BE930E24AE95EE30E944A
:1033F0007B230E9464230E94ED23B62E8091A603B6
:103400009091A703009711F00E942922EBE0BE9E45
:10341000C00111240E949121EC01C101D80130E0CA
:1034200061E072E013E004E025E0A22E3B1508F015
:103430005AC0FE012BE0329FE00DF11D11240097D0
:10344000A10521E0B20718F0A4822AE01AC0009773
:1034500020E4A207B10518F0048328E012C0009709
:1034600028E0A207B10518F0148326E00AC00097EF
:1034700021E0A207B10518F0748323E002C0648341
:1034800020E0422F50E02C013D01022E04C0769432
:103490006794579447940A94D2F7518240822C0142
:1034A0003D0176946794579447944C145D046E04E0
:1034B0007F0450F4D701C60104C0B695A79597952F
:1034C00087952A95D2F709C04F5F5F4F04C0B69524
:1034D000A795979587954A95D2F7938382833E5F08
:1034E000D301C201A3CFD093A703C093A603F12CAD
:1034F0008BE0E82EFB1408F0A2C08F2D90E001961F
:10350000E89E8001E99E100D11244E01800E911E4F
:103510000B5011090C0F1D1FF8018481F4018483E5
:10352000F80182819381F40193838283F801C28040
:10353000D380608171816C197D0980E090E00E94E8
:103540001C242CE53FE842EC5EE30E943B252B0166
:103550003C01B60180E090E00E941C249B01AC017C
:10356000C301B2010E94F8220E94ED23F801738387
:103570006283F401718360838E01FBE0FF9E000D86
:10358000111D1124A12C680124E0C20ED11CB6012A
:10359000C8010E9477184C01B601C80102960E942A
:1035A00077186C01F8016081718182819381681BB9
:1035B000790B80E090E00E941C242B013C01B601B5
:1035C0006819790980E090E00E941C2420E030E036
:1035D0004AE754E40E943B250E94ED2380E090E0FE
:1035E0000E941C249B01AC01C301B2010E947B23F9
:1035F0002B013C010E94ED23F8017287618780E076
:1036000090E00E941C249B01AC01C301B2010E9406
:10361000F72220E034E244E759E40E943B250E946F
:10362000ED23F8016583768387839087A394055FF4
:103630001F4FF2E0AF12A7CFF394F3945BCFB09299
:10364000A5031092A40381E080930A0180930901ED
:103650008091A4032BE0829FC00DD11D112488818D
:10366000998190930801809307011092A003109212
:10367000A1031092A2031092A30310929F03109231
:10368000A803DF91CF911F910F91FF90EF90DF90F2
:10369000CF90BF90AF909F908F907F906F905F90F2
:1036A0004F903F902F90089580919F03882349F079
:1036B000609101017091020180E090E00E94C318C6
:1036C00002C00E9486191092900310928F030895F1
:1036D000CF93DF93BC0180E090E04AE00E9445195F
:1036E000EC0181E893E00E9425198C0F9D1FDF916A
:1036F000CF9108950E94CF250C94B922FF920F9389
:103700001F93CF93DF93EC01F62E08811981C80136
:103710000E94B922F81621F06F2DC8010E94C12223
:10372000CE01DF91CF911F910F91FF9008951F92CD
:103730000F920FB60F9211242F933F938F939F9365
:10374000AF93BF9380919B0390919C03A0919D03A5
:10375000B0919E0330919A0323E0230F2D3720F47C
:103760000196A11DB11D05C026E8230F0296A11DDB
:10377000B11D20939A0380939B0390939C03A09385
:103780009D03B0939E038091960390919703A0911F
:103790009803B09199030196A11DB11D80939603E2
:1037A00090939703A0939803B0939903BF91AF911F
:1037B0009F918F913F912F910F900FBE0F901F906F
:1037C00018951F920F920FB60F9211242F933F93CB
:1037D0004F935F936F937F938F939F93AF93BF9319
:1037E000EF93FF9389EA93E00E94DC17FF91EF913A
:1037F000BF91AF919F918F917F916F915F914F9109
:103800003F912F910F900FBE0F901F9018951F9210
:103810000F920FB60F9211242F938F939F93EF93D4
:10382000FF93E091B903F091BA038081E091BF0367
:10383000F091C00382FD12C090818091C2038F5F1E
:103840008F732091C303821751F0E091C203F0E01F
:10385000E755FC4F958F8093C20301C08081FF9193
:10386000EF919F918F912F910F900FBE0F901F900E
:1038700018951F920F920FB60F9211242F933F931A
:103880008F939F93EF93FF93E0910B0120918F0310
:10389000309190038CE08E9FF0011124E75DFE4F84
:1038A0000280F381E02DE20FF31FE49190918C03ED
:1038B000E927E5B99091000120918F0330919003A1
:1038C0009923D9F02F5F3F4F3093900320938F03BC
:1038D000E0910B0120918F03309190038E9FF001B6
:1038E0001124E75DFE4F8085918582179307E9F4E7
:1038F0001092900310928F0318C0232B69F4E0916B
:103900000B018E9FF0011124E75DFE4F80859185AC
:103910009093900380938F0380918F0390919003F5
:1039200001979093900380938F0380918D03882358
:1039300071F080918100887F8093810090918E0347
:1039400080918100892B8093810010928D0380915A
:103950000701909108019093890080938800FF915E
:10396000EF919F918F913F912F910F900FBE0F90EC
:103970001F9018951F920F920FB60F9211240F935C
:103980001F932F933F934F935F936F937F938F93E7
:103990009F93EF93FF9380919F0381116BC180915F
:1039A000A803811167C121E02093A8033091090188
:1039B0008091A6039091A703332399F010920901F7
:1039C00020938D032091A403FC013BE0239FE00D95
:1039D000F11D1124248120938E0320918E032093C6
:1039E0008B0320910A014091A403213009F0AAC061
:1039F0000091A0031091A1032091A2033091A30391
:103A0000FC015BE0459FE00DF11D112445815681CD
:103A100067817085400F511F621F731F4093A00381
:103A20005093A1036093A2037093A3034091A0035A
:103A30005091A1036091A2037091A30341345244B9
:103A40006F40710590F020918A032F5F20938A03C5
:103A50004091A0035091A1036091A2037091A30330
:103A6000405452446F407109D9CF4091A403209132
:103A7000070130910801FC015BE0459FE00DF11D5D
:103A800011244281538142175307B8F45091A40383
:103A900040918A032091070130910801FC016BE0FD
:103AA000569FE00DF11D112481859285B901681B97
:103AB000790BCB01841B9109A7C02091A4032F5F30
:103AC0002093A4031092A0031092A1031092A203CA
:103AD0001092A3033091A4032091A503321758F448
:103AE0002091A403FC017BE0279FE00DF11D112430
:103AF00020813181A9C02091A40321502093A403E7
:103B000010920A012091A403FC015BE0259FE00DC7
:103B1000F11D112422813381309308012093070184
:103B20003091A40320918B03FC016BE0369FE00DE4
:103B3000F11D11248481821719F081E0809309011D
:103B40005F9A96C00091A0031091A1032091A20357
:103B50003091A303FC017BE0479FE00DF11D112490
:103B60004581568167817085400F511F621F731F09
:103B70004093A0035093A1036093A2037093A30307
:103B80004091A0035091A1036091A2037091A303FF
:103B9000413452446F40710590F020918A032F5FA9
:103BA00020938A034091A0035091A1036091A20346
:103BB0007091A303405452446F407109D9CF409192
:103BC000A4032091070130910801FC015BE0459FAF
:103BD000E00DF11D11244081518124173507D8F4DF
:103BE0003091A40320918A0340910701509108016C
:103BF000FC016BE0369FE00DF11D1124818592855B
:103C0000840F951F820F911D9093080180930701E7
:103C100010928A032DC02091A40321502093A40365
:103C20001092A0031092A1031092A2031092A3037A
:103C30002091A4032091A403FC017BE0279FE00DC9
:103C4000F11D112422813381309308012093070153
:103C50003091A40320918B03FC014BE0349FE00DD5
:103C6000F11D11248481821719F081E080930901EC
:103C70001092A803FF91EF919F918F917F916F9187
:103C80005F914F913F912F911F910F910F900FBE18
:103C90000F901F9018951F920F920FB60F9211243C
:103CA0002F938F939F938091890381110DC08091F1
:103CB00078002091790090E0922B90939403809368
:103CC000930381E0809395039F918F912F910F90A3
:103CD0000FBE0F901F901895CF93DF93CDB7DEB72F
:103CE000C055D1090FB6F894DEBF0FBECDBF789492
:103CF00084B5826084BD84B5816084BD85B58260F1
:103D000085BD85B5816085BD80916E0081608093A1
:103D10006E0010928100809181008260809381000A
:103D2000809181008160809381008091800081601A
:103D3000809380008091B10084608093B100809175
:103D4000B00081608093B00080917A00846080939D
:103D50007A0080917A00826080937A0080917A0064
:103D6000816080937A0080917A00806880937A00E5
:103D70001092C100E091B903F091BA0312E01083F0
:103D8000E091B503F091B6031082E091B703F09192
:103D9000B80380E180831092C103E091BD03F091EC
:103DA000BE0386E08083E091BB03F091BC03808179
:103DB00080618083E091BB03F091BC0380818860C7
:103DC0008083E091BB03F091BC0380818068808395
:103DD000E091BB03F091BC0380818F7D80831092C2
:103DE000920381E090E00E947C1B8F3F61F485E0AC
:103DF00080930B0188EB9BE090930201809301017B
:103E000010939F031EC082E090E00E947C1B809371
:103E10000B0183E090E00E947C1B80939F0384E071
:103E200090E00E947C1B182F85E090E00E947C1B94
:103E3000212F30E0322F2227282B309302012093AC
:103E40000101F89410928000109281001092850078
:103E50001092840088EE93E090938900809388000C
:103E600080918100886080938100809181008160D1
:103E70008093810080916F00826080936F00109228
:103E8000B0001092B1001092B20089EF8093B3009D
:103E90008091B00082608093B0008091B100846016
:103EA0008093B10080917000826080937000809157
:103EB0007C008F7D80937C0080917C008064809367
:103EC0007C0080917C00807F80937C0080917A00D0
:103ED000806880937A0080917A00806280937A0073
:103EE00080917B00887F80937B0080917A0087603F
:103EF00080937A0080917A00886080937A0088E0CD
:103F00000E94481789E00E9448178AE00E944817DB
:103F1000789480917A00806480937A0060910101A6
:103F20007091020180E090E00E94C31866246394BF
:103F30004CE0742E52E0252E312C63E0462E512C9D
:103F4000EE24E394F12CE4E0CE2ED12CF5E0AF2E5C
:103F5000B12CA1E88A2EA3E09A2E89EA93E00E9470
:103F6000C617181619060CF08BC1809192038111A7
:103F700006C089EA93E00E94A41780939103809180
:103F80009103833509F449C1B0F48E3409F4B6C005
:103F900038F48C3409F48EC08D3409F49EC06EC19F
:103FA000803509F4C2C0823509F068C180910101F1
:103FB0009091020100C1863609F43FC078F588353A
:103FC00009F43DC1833609F059C160910B013A8271
:103FD0002982CE0101960E947E1B60919F035A8226
:103FE0004982CE0101960E947E1BFA82E98261E03D
:103FF000CE0101960E947E1B109101016091020189
:10400000DA82C982CE0101960E947E1BBA82A98201
:10401000612FCE0101960E947E1B30C1803709F4CA
:104020007AC0833709F4CAC08E3609F027C14AE046
:1040300062E370E080E090E067C060929F0389EAED
:1040400093E00E94C6170297D4F389EA93E00E9496
:10405000A417182F89EA93E00E94A417982F8827A5
:104060009C01212B890110930201009301010A3068
:10407000110508F403C18091A803882329F035E0D5
:104080003A95F1F70000F7CF6092A8038091A6035C
:104090009091A703009711F00E942922B80180E0B7
:1040A00090E00E94C3181093020100930101109246
:1040B000A803E4C009E211E0F80160817181CE013A
:1040C00001960E94B222CE0101960E943719045F28
:1040D0001F4F8016910681F7D1C089EA93E00E94B4
:1040E000C61718161906CCF789EA93E00E94A417A0
:1040F000833008F0C3C080939F03C0C060910B0160
:1041000070E080E090E04AE00E94451981E893E089
:104110000E942519B3C0E0910B017E9EF00111248D
:10412000E75DFE4F8085918546C0E0910B017E9E44
:10413000F0011124E75DFE4F0084F185E02D8591AB
:10414000949100E010E0E0910B017E9EF0011124BB
:10415000E75DFE4F8085918508171907F0F401157A
:10416000110521F084E893E00E942519E0910B01EC
:104170007E9EF0011124E75DFE4F0280F381E02D69
:10418000E00FF11FE4916E2F70E080E090E04AE0D4
:104190000E9445190F5F1F4FD6CF83E893E00E941E
:1041A0003719E0910B012CE02E9FF0011124E75DFF
:1041B000FE4F828593850E94681B60C010929F030A
:1041C00089EA93E00E94C6170497D4F389EA93E042
:1041D0000E94A417182F89EA93E00E94A417982F31
:1041E0008827812B909304018093030189EA93E04F
:1041F0000E94A41789EA93E00E94A41784E690E045
:104200009093040180930301E0EAFFE0F09306013C
:10421000E09305010E94861931C089EA93E00E946B
:10422000C61718161906CCF789EA93E00E94A4175E
:10423000823320F580930B010E94541B1FC0809194
:104240000B01813319F410920B0105C080910B0111
:104250008F5F80930B010E94541BE0910B017E9EA7
:10426000F0011124E75DFE4F60817181CE0101965E
:104270000E94B222CE0101960E9437191092920339
:1042800080919F038230E9F4809195038823C9F0DF
:1042900010929503609193037091940384E0660FEC
:1042A000771F8A95E1F76130F0E47F0710F060E056
:1042B00070E4709302016093010180E090E00E943D
:1042C000C3180E946D1849CEE9EAF3E01382128206
:1042D00088EE93E0A0E0B0E084839583A683B78363
:1042E0008BE191E09183808385EC90E095878487D2
:1042F00084EC90E09787868780EC90E0918B808BB0
:1043000081EC90E0938B828B82EC90E0958B848B98
:1043100086EC90E0978B868B118E128E138E148E06
:1043200008950F931F93CF93DF938230910510F47C
:1043300082E090E0E0914804F091490420E030E010
:10434000A0E0B0E0309719F14081518102811381E2
:1043500048175907C8F08417950769F4109731F08A
:1043600012960C93129713961C9327C0009348043F
:104370001093490422C02115310519F04217530743
:1043800018F49A01BD01EF01DF01F801DBCF21151F
:104390003105F9F0281B390B2430310580F48A816E
:1043A0009B816115710521F0FB019383828304C019
:1043B0009093490480934804FE01329644C0FE0164
:1043C000E20FF31F8193919322503109398328839F
:1043D0003AC02091460430914704232B41F42091A8
:1043E0000E0130910F013093470420934604209131
:1043F0000C0130910D012115310541F42DB73EB767
:104400004091100150911101241B350BE09146049D
:10441000F0914704E217F307A0F42E1B3F0B281777
:10442000390778F0AC014E5F5F4F2417350748F02D
:104430004E0F5F1F5093470440934604819391931E
:1044400002C0E0E0F0E0CF01DF91CF911F910F912A
:104450000895CF93DF93009709F481C0FC01329750
:1044600013821282A0914804B0914904109781F4FC
:1044700020813181820F931F20914604309147049F
:104480002817390751F5F0934704E093460467C0B5
:10449000ED0120E030E0CE17DF0740F44A815B8178
:1044A0009E0141155105F1F0EA01F5CFD383C28396
:1044B00040815181840F951FC817D90759F488810D
:1044C0009981840F951F0296918380838A819B81B5
:1044D000938382832115310529F4F0934904E093F5
:1044E00048043DC0E901FB83EA8349915991C40F17
:1044F000D51FEC17FD0761F480819181840F951F12
:104500000296E90199838883828193819B838A83C0
:10451000E0E0F0E012968D919C911397009719F0CE
:10452000FD01DC01F7CF8D919C9111979D012E5FCC
:104530003F4F820F931F2091460430914704281764
:10454000390769F4309729F410924904109248040D
:1045500002C013821282B0934704A0934604DF91F5
:10456000CF910895FB01DC0105900D920020E1F749
:104570000895F999FECF92BD81BDF89A992780B52B
:104580000895262FF999FECF1FBA92BD81BD20BD97
:104590000FB6F894FA9AF99A0FBE01960895A1E21F
:1045A0001A2EAA1BBB1BFD010DC0AA1FBB1FEE1FAD
:1045B000FF1FA217B307E407F50720F0A21BB30BF8
:1045C000E40BF50B661F771F881F991F1A9469F774
:1045D00060957095809590959B01AC01BD01CF01D0
:1045E0000895EE0FFF1F0590F491E02D09945058A7
:1045F000BB27AA270E940F230C9499240E948B2486
:1046000038F00E94922420F039F49F3F19F426F4E8
:104610000C9488240EF4E095E7FB0C945924E92FC0
:104620000E94AA2458F3BA176207730784079507F4
:1046300020F079F4A6F50C94E4240EF4E0950B2E0A
:10464000BA2FA02D0B01B90190010C01CA01A001E4
:104650001124FF27591B99F0593F50F4503E68F13F
:104660001A16F040A22F232F342F4427585FF3CF80
:10467000469537952795A795F0405395C9F77EF451
:104680001F16BA0B620B730B840BBAF09150A1F09A
:10469000FF0FBB1F661F771F881FC2F70EC0BA0F20
:1046A000621F731F841F48F4879577956795B795A8
:1046B000F7959E3F08F0B0CF9395880F08F09927A3
:1046C000EE0F9795879508950E94CC2490F09F3720
:1046D00048F4911116F40C94E52460E070E080E851
:1046E0009FE3089526F01B16611D711D811D0C941A
:1046F0005F240C947A240E948F230C9499240E94A6
:10470000922458F00E948B2440F029F45F3F29F056
:104710000C94592451110C94E5240C9488240E9483
:10472000AA2468F39923B1F3552391F3951B550BF4
:10473000BB27AA2762177307840738F09F5F5F4F74
:10474000220F331F441FAA1FA9F335D00E2E3AF0B3
:10475000E0E832D091505040E695001CCAF72BD0CB
:10476000FE2F29D0660F771F881FBB1F261737071C
:104770004807AB07B0E809F0BB0B802DBF01FF274E
:1047800093585F4F3AF09E3F510578F00C945924AE
:104790000C94E5245F3FE4F3983ED4F38695779537
:1047A0006795B795F7959F5FC9F7880F911D969507
:1047B000879597F90895E1E0660F771F881FBB1F63
:1047C000621773078407BA0720F0621B730B840B10
:1047D000BA0BEE1F88F7E09508950E94B22488F086
:1047E0009F5798F0B92F9927B751B0F0E1F0660FB5
:1047F000771F881F991F1AF0BA95C9F714C0B130F6
:1048000091F00E94E424B1E008950C94E424672F11
:10481000782F8827B85F39F0B93FCCF38695779524
:104820006795B395D9F73EF490958095709561950D
:104830007F4F8F4F9F4F0895E89409C097FB3EF438
:1048400090958095709561957F4F8F4F9F4F9923DD
:10485000A9F0F92F96E9BB279395F695879577955B
:104860006795B795F111F8CFFAF4BB0F11F460FF1B
:104870001BC06F5F7F4F8F4F9F4F16C0882311F073
:1048800096E911C0772321F09EE8872F762F05C087
:10489000662371F096E8862F70E060E02AF09A9522
:1048A000660F771F881FDAF7880F9695879597F917
:1048B000089597F99F6780E870E060E00895882385
:1048C00071F4772321F09850872B762F07C0662349
:1048D00011F499270DC09051862B70E060E02AF00A
:1048E0009A95660F771F881FDAF7880F9695879538
:1048F00097F908959F3F31F0915020F4879577956F
:104900006795B795880F911D9695879597F90895A6
:104910009FEF80EC089500240A94161617061806D7
:104920000906089500240A941216130614060506B3
:104930000895092E0394000C11F4882352F0BB0F44
:1049400040F4BF2B11F460FF04C06F5F7F4F8F4FA7
:104950009F4F089557FD9058440F551F59F05F3FE2
:1049600071F04795880F97FB991F61F09F3F79F091
:1049700087950895121613061406551FF2CF469513
:10498000F1DF08C0161617061806991FF1CF869595
:1049900071056105089408950E94B224A0F0BEE755
:1049A000B91788F4BB279F3860F41616B11D672F1E
:1049B000782F8827985FF7CF869577956795B11DF3
:1049C00093959639C8F30895E894BB27662777270F
:1049D000CB0197F9089516F00C947A240C9488244E
:1049E00068940C9459240E94B224A8F39923C1F32B
:1049F000AEF3DF93CF931F930F93FF92C92FDD2761
:104A000088232AF02197660F771F881FDAF720E0A6
:104A100030E040E85FEB9FE3883920F0803E38F0DB
:104A200021968F770E94F822E8E6F0E004C00E9409
:104A3000F822E5E9F0E00E94A8258B01BE01EC0117
:104A4000FB2E6F5771097595771F880B990B0E9484
:104A50001E2428E132E741E35FE30E944E25AF2D9B
:104A60009801AE01FF900F911F91CF91DF910E94AD
:104A70000F230C9499240E944E250C9499240E9493
:104A80008B2438F00E94922420F0952311F00C948E
:104A900059240C94882411240C94E5240E94AA24FF
:104AA00070F3959FC1F3950F50E0551F629FF00181
:104AB000729FBB27F00DB11D639FAA27F00DB11D9A
:104AC000AA1F649F6627B00DA11D661F829F222723
:104AD000B00DA11D621F739FB00DA11D621F839FAA
:104AE000A00D611D221F749F3327A00D611D231F80
:104AF000849F600D211D822F762F6A2F11249F57CE
:104B000050409AF0F1F088234AF0EE0FFF1FBB1FD0
:104B1000661F771F881F91505040A9F79E3F51058F
:104B200080F00C9459240C94E5245F3FE4F3983E04
:104B3000D4F3869577956795B795F795E7959F5F39
:104B4000C1F7FE2B880F911D9695879597F90895CB
:104B5000DF93CF931F930F93FF92EF92DF927B012E
:104B60008C01689406C0DA2EEF010E944E25FE01EA
:104B7000E894A5912591359145915591A6F3EF01C2
:104B80000E940F23FE019701A801DA9469F7DF90D4
:104B9000EF90FF900F911F91CF91DF91089581E0E9
:0C4BA00090E0F8940C94D425F894FFCF1A
:104BAC00017017FA00A00F881301012F00004A04AE
:104BBC002000000306080A00000000FE1767179586
:104BCC00174B18C617A417B817ED2DE92D766E5A8A
:104BDC003B04006801D82DD22DCDCC4C3D0600688D
:104BEC0001C12DB92D488A883D08006801A92D31D5
:104BFC002D0000803F780068011E2D2E2C000080B7
:104C0C003FF000D0021E2CD62B9A99193F48006811
:104C1C0001C62B962B0000003F300068017D2B6DE8
:104C2C002B488A883D1000D002592B492BA98708A4
:104C3C003E10006801362B122B9A99193E2400D095
:104C4C0002FE2A6E2A9A99193F9000D002532A0329
:104C5C002AE3AA2A3F50006801D629CD299A99192E
:104C6C003E0900D002A4298C29CDCC4C3E180068FA
:104C7C00017129A12600004040D002D00294266484
:104C8C0026CDCCCC3E30006801502608269A9919C6
:104C9C003F48006801F12561259A99193F9000D091
:104CAC00024D2505259A99193F48006801ED245DB0
:104CBC00249A99193F9000D0024424B4239A99194C
:104CCC003F9000D0029C234C233BAAAA3E5000D01C
:104CDC0002372367200000C040D002D002492001D7
:104CEC00209A99193F48006801ED1FBD1FCDCC4C8F
:104CFC003E3000D002921F021F9A99193F9000D0AB
:104D0C0002DF1E0F1C00004040D002D002EB1B5BE8
:104D1C001B9A99993F9000D002401B7018000040DC
:104D2C0040D002D0025418841500004040D002D06C
:104D3C0002581510159A99993E4800D002DA149A27
:104D4C0014F888883E4000D00273146B140A8588CE
:104D5C003D0800D00244143814CDCCCC3D0C00D00E
:104D6C000211140114A987083E1000D002DB13FBBA
:104D7C001100008040E001D002DB1173100000C074
:104D8C003F6801D0024D10BD0F9A99193F9000D089
:104D9C0002A00F680B0000C03F3804D002510BC1B9
:104DAC000A9A99193F9000D002AC0A8E0A00008032
:104DBC003F1E00D002670AD709CDCC4C3F9000684B
:104DCC0001CB093B099A99193F9000D00222099214
:104DDC00089A99193F9000D002790892089A99196B
:104DEC003F9000D0026008900500004040D002D0F7
:104DFC00028A05D6048941C03FB400D002CD043DDF
:104E0C00049A99193F9000D002320462019A9919C0
:104E1C003FD002D0025201C2009A99193F9000D0A3
:064E2C00020D0A002C003B
:00000001FF
