:100000000C94201E0C94481E0C94481E0C94481E00
:100010000C94481E0C94481E0C94481E0C94CB2340
:100020000C94481E0C94481E0C94481E0C944523B6
:100030000C94481E0C94481E0C94481E0C94481EA8
:100040000C94A3220C94481E0C9413230C94ED22C0
:100050000C94481E0C9468250C94481E0C94481E61
:100060000C94481E0C94481E08000000BE922449BF
:10007000123EABAAAA2ABECDCCCC4C3E00000080DA
:10008000BEABAAAAAA3E00000000BF000000803F4D
:100090000000000000084178D3BB4387D1133D190D
:1000A0000E3CC3BD4282AD2B3E68EC8276BED98F3A
:1000B000E1A93E4C80EFFFBE01C4FF7F3F0000007E
:1000C0000000020202020202030302020202030310
:1000D0000202020202020202020202020202020200
:1000E00003030202020203030202020202020202EC
:1000F00002020202020202020303020202020303DC
:1001000002020202020202020202020202020202CF
:1001100003030202020203030202020202020202BB
:1001200002020202020202020303020202020303AB
:1001300002020202020202020202000000000000AB
:1001400001010000000001010000000000000000AB
:10015000000000000000000001010000000001019B
:10016000000000000000000000000000000000008F
:10017000010100000000010100000000000000007B
:10018000000000000000000001010000000001016B
:10019000000000000000000000000000000000005F
:1001A000010100000000010100000000000000004B
:1001B0000000446F6467652056697065722056318F
:1001C0003020313939362D32303032000100010013
:1001D0000100010001000100010001000100010017
:1001E00001000100010001000100070607060706E3
:1001F00007060706070607060706010001000100BB
:1002000001000100010001000100010001000100E6
:1002100001000100010001000100010001000100D6
:10022000010001000100070607060706070607068A
:100230000706070607060706070607060706070656
:100240000606060607060706070607060706070648
:100250000706070607060706070607060706070636
:10026000070601000100010001000100010001007A
:100270000706070607060706070607060706070616
:100280000706070607060706070607060706070606
:100290000706070607060706070607060706010002
:1002A0000100010001000100010001000100010046
:1002B000010001000100010000000000424D572034
:1002C0004E3230000000000000000000000000007E
:1002D000000000000000000000000000000000011D
:1002E000000000000000000000010000000000000D
:1002F00000000001000000000000000000010000FC
:1003000000000000000000000000000000020202E7
:1003100002020202020202020202020302020202BC
:1003200002020202020302020202020202020203AB
:10033000020202020202020202030202020202029C
:10034000020202020202020202020202020202028D
:10035000020202020202020302020202020202027C
:10036000020302020202020202020203020202026B
:10037000020202020203020202020202020202025C
:10038000020202020202020202020202020202024D
:10039000020202030202020202020202020302023B
:1003A000020202020202020302020202020202022C
:1003B000020302020202020202020202020202021C
:1003C000020000000000000000000000000000012A
:1003D000000000000000000000010000000000001C
:1003E000000000010000000000000000000100000B
:1003F00000000000000000000000000000000000FD
:1004000000000000000000000000000100000000EB
:1004100000000000000100000000000000000001DA
:100420000000000000000000000100004A65657047
:1004300020323030300001010101010102020202CC
:100440000000030303030303020200000000010194
:100450000101010100000000000001010101010192
:100460000000000000000101010101010000000086
:1004700000000101010101010000000000005375AE
:100480007A756B692044525A343030000101020001
:10049000000000000000000001010000000000005A
:1004A000000000000101000000000000000000004A
:1004B0000101000000000000000000000101000038
:1004C000000000000000000001010000000000002A
:1004D000000000000101000000000000000000001A
:1004E0000101000000000000000000000101000008
:1004F00000000000000000000101000000000000FA
:1005000000000000010100000000000000000000E9
:10051000010100000000000000000000546F796F2E
:100520007461203441475A45000101020200000075
:1005300000000000000000000000000000000000BB
:1005400000000000000000000000000000010100A9
:10055000000000000000000000000000000000009B
:10056000000000000000000000000000000000008B
:100570000001010000000000000000000000000079
:10058000000000000000000000000000000000006B
:100590000000000000010100000000000000000059
:1005A000000000000000000000000000000000004B
:1005B000000000000000000000546F796F7461209B
:1005C0003441474500010001000100010001000124
:1005D0000001000100010001000200010001000112
:1005E0000001000100010001000100010001000103
:1005F00000000001000100010001000100010001F4
:1006000000010001000100010002000200010001E0
:1006100000010001000100010001000100010001D2
:1006200000000001000100010001000100010001C3
:1006300000010001000100010002000100010001B1
:1006400000010001000100010001000100010001A2
:1006500000000000004D6974737562697368692059
:1006600033413932000001010101000000000000A7
:100670000000000000000001010101010101000073
:100680000000000101010101000000000001010162
:100690000101000000000101010101000000000053
:1006A0000101010101000000000003030303030234
:1006B0000202020203030303030202020202030313
:1006C000030303020202020203030303010000000A
:1006D0000000010101010100000000000101010111
:1006E0000100000000000101010101000000000004
:1006F00001010101010000000000010101010100F0
:1007000000000000010101010302020202020303D2
:1007100003030302020202020303030303020202B1
:1007200002020303030101000000000001010101B6
:1007300001000000000001010101010000000000B3
:10074000010101010100000000000101010101009F
:100750000000000001010101010000000000010192
:100760000103030202020202030303030302020263
:100770000202030303030302020202020303030152
:100780000101000000000101010101010000000061
:10079000010101010101000000000001010101014E
:1007A0000000000000010101010100000000000143
:1007B0000101010100000000000101010101000030
:1007C0000000000101010101000000000001010121
:1007D0000101000000000000000000000000000017
:1007E00001010101010100000000000101010101FE
:1007F00000000000000101010101000000000001F3
:1008000001010101000000000001010101010000DF
:1008100000000003030303030202020202030303B6
:1008200003030202020202030303030302020202A1
:1008300002030303030100000000000101010101A4
:1008400000000000000101010101000000000001A2
:10085000010101010100000000010101010101008D
:100860000000000001010101010000000000010181
:100870000101010000000000010101010100000070
:10088000000001010101010000000000010101015F
:100890000100000000000101010101000000000052
:1008A000010101010100000000000101010101003E
:1008B0000000000001010101010000000000010131
:1008C0000101010000000000010303030302020212
:1008D00002020303030303020202020203030303EF
:1008E00003030202020203030301010100000000EE
:1008F00000010101010100000000000101010101EE
:1009000000000000000101010101000000000001E1
:1009100001010101000000000001010101010000CE
:1009200000000001010101010000000000010101BF
:100930000101000000466F726420535431373000CB
:10094000000000000000000000000002020202029D
:100950000202020202030302020303020203030271
:100960000203030202020202020000000000000172
:10097000010101010101010101010100000101006A
:100980000001010000010100000000000000000063
:10099000000000020202020202020202020303023B
:1009A0000203030202030302020303020202020221
:1009B0000202020202020203030303030301010114
:1009C000010101000001010000010100000101001E
:1009D00044534D203432306100000000000000001C
:1009E0000000000000000000000000000000010105
:1009F00000000000000000000000000000000000F7
:100A000000000000000000000000000001010000E4
:100A100000010100000000000000000000000000D4
:100A200000000000000000000000010100000000C4
:100A300000000000000000000000000000000000B6
:100A400000000000000000000101000000000000A4
:100A50000000000000000000000000000000000096
:100A60000000000000000101000000000000000084
:100A70000000000000000000000000000000000076
:100A800000000000010100000000000000474D20B0
:100A900037580000000000000202020000000202BD
:100AA000020000000202020000000000000000003E
:100AB0000000000000000000000000000000000036
:100AC0000000000000000000000000000000000026
:100AD0000000000000000000000000000000000016
:100AE0000000000000000101010000000000000003
:100AF00000000000000000000000000000000000F6
:100B000000000000000001010100000000000000E2
:100B100000000000000000000000000000000000D5
:100B200000000000000000000000000000000000C5
:100B300000000000000000000000000000010101B2
:100B400000000000000000000000000000000000A5
:100B5000000000000000000000000002020200008F
:100B60000000000000000000000000000000000085
:100B70000000000000000000000000000000000075
:100B80000000000000000000000000000000000065
:100B90000000000000000000000001010100000052
:100BA0000000000000000000000000000000000045
:100BB0000000000000000000000001010100000032
:100BC0000000000000000000000000000000000025
:100BD0000000000000000000000000000000000015
:100BE0000000000000000000000000000000000005
:100BF00000010101000000000000000000000000F2
:100C000000000000000000000000000000000002E2
:100C100002020000000202020000000000000000CA
:100C200000000000000000000000000000000000C4
:100C300000000000000000000000000000000000B4
:100C400000000000000000000000000000000101A2
:100C50000100000000000000000000000000000093
:100C60000000000000000000000000000000010182
:100C70000100000000000000000000000000000073
:100C80000000000000000000000000000000000064
:100C90000000000000000000000000000000000054
:100CA0000000000000010101000000000000000041
:100CB0000000000000000000000000000000000034
:100CC000000000020202000000000000000000001E
:100CD0000000000000000000000000000000000014
:100CE0000000000000000000000000000000000004
:100CF00000000000000000000000000000000000F4
:100D000000000101010000000000000000000000E0
:100D100000000000000000000000000000000000D3
:100D200000000101010000000000000000000000C0
:100D300000000000000000000000000000000000B3
:100D400000000000000000000000000000000000A3
:100D50000000000000000000000101010000000090
:100D600000000053756261727520362F3720637260
:100D7000616E6B20616E642063616D000000010094
:100D8000000100000100000100000100000100005E
:100D9000010000010000010000010000010000014D
:100DA000000001000001000001000001000001003E
:100DB000000100000100000100000100000100002E
:100DC000010000010000010000010000010000011D
:100DD000000001000001000001000001000001000E
:100DE00000010000010000010000010000010000FE
:100DF00001000001000001000001020203020201E3
:100E000000000100000100000100000132342F3118
:100E100020283234206372616E6B207769746820F9
:100E200063616D2900000000000001000000000067
:100E300001000000000001000000000001000000AF
:100E4000000001000000000001000000000001009F
:100E50000000000001000000000001000000000090
:100E6000010000000000010000000000010000007F
:100E7000000001000000000001000000000001006F
:100E80000000000001000000000001000000000060
:100E9000010000000000010000000000010000004F
:100EA0000000010202020202010000000000010035
:100EB000000000000131322F3120283132206372CE
:100EC000616E6B20776974682063616D2900000092
:100ED000000000000202000000000000000000000E
:100EE00000010100000000000000000000000001FF
:100EF00001000000000000000000000000000000F1
:100F000000000000000101000000000000000000DF
:100F100000000001010000000202000002020000C7
:100F200000000000000000000001010000000000BF
:100F300000000000000000010100000000000000AF
:100F4000000000000000000000000000000101009F
:100F500000000000000000000000000101004D69D9
:100F60006174612039392D30350001010000000025
:100F7000010100000000000000000000000000006F
:100F80000000000000000000000000000000000061
:100F9000000000000000000000000101000000004F
:100FA0000000000000000000000000000000000041
:100FB0000000000000000000000000000000000031
:100FC000000000000000000000000101000000001F
:100FD0000000000000000000000000000000000011
:100FE0000000000000000000000000000000000001
:100FF00000000000000000000000446169686174A6
:10100000737520332B31206469737472696275744F
:101010006F722028332063796C696E64657273295E
:1010200000000000000002000001000000000001BC
:101030000000000000020002010000000000014D5D
:10104000617A6461203332332041552076657273B2
:10105000696F6E0001000000000001000000000048
:10106000010000000000010000000000010000007D
:10107000000001000000000001000000000001006D
:10108000000000000100000000000100000000005E
:10109000010000000000010001000000010000004C
:1010A000000001000000000001000000000001003D
:1010B000000000000100000000000100000000002E
:1010C000010000000000010000000000010000001D
:1010D000000001000000000001000000000001000D
:1010E00001000000486F6E64612044313720437274
:1010F000616E6B202831322B312900030302020379
:1011000003020203030200010100000101000001CB
:1011100001000001010000010100000101000001C7
:1011200001000001010000010100000101000001B7
:1011300001000001010000010100000101000001A7
:101140000100000101000001010000010100000197
:10153000010002417564692031333520746F6F7486
:1015400068206372616E6B20616E642063616D0060
:101550000202020202020202020202000000000075
:101560000000000000010101010101010101010170
:101570000101010000000000000000000000000068
:101580000000000000000202020303030303030340
:10159000030303030101010000000000000000003C
:1015A0000000000000000000000000000001010138
:1015B0000101010101010101010101000000000020
:1015C000000000000000000000000000000000001B
:1015D00002030303030303030303030303030302DD
:1015E0004D69747375626973686920346736332096
:1015F000616B6120342F32206372616E6B20616EEB
:10160000642063616D000101000000010100000021
:1016100001010000000101000000010100000001C3
:1016200001000000010100000001030202020303A7
:10163000020202030100000001010000000000009E
:101640000000000000000001030202020202020288
:101650000202000000000101000000010100000082
:101660000101000000010100000001010000000173
:101670000100000001010000000101000000010163
:101680000000000103020202030302020203010040
:101690000000010100000000000000000000000048
:1016A0000001030202020303020202030100000020
:1016B0000101000000010100000001010000000123
:1016C0000100000001010000000101000000010113
:1016D0000000000101000000010100000001010004
:1016E00000000101000000010100000001010000F4
:1016F00000000000000000000000000103020202E0
:1017000002020202020200000000010100000001CA
:1017100001000000010100000001010000000101C2
:1017200000000001010000000101000000010100B3
:1017300000000101000000010100000001010000A3
:101740000001010000000101000000000000000095
:101750000000000000010302020203030202020370
:1017600001000000010100000001010000004D61C6
:101770007A64612033362D322D322D322077697410
:1017800068203620746F6F74682063616D000001FB
:10179000010100010101000101010001010100013D
:1017A000010100010101000101010001010100012D
:1017B000010100010101000101010001010102011B
:1017C000010100010101000101010001010100010D
:1017D00001010201010101010101010101010001F9
:1017E00001010001010100010101000101010001ED
:1017F00001010001010100010101000101010001DD
:1018000001010001010100010101000101010001CC
:1018100001010001010100010101000101010001BC
:1018200001010201010101010101010101010001A8
:10183000010100010101000101010001010100019C
:10184000010100010101000101010001010100018C
:10185000010100010101000101010001010100017C
:10186000010100010101000101010001010100016C
:101870000101020101010101010101010101000158
:10188000010100010101000101010001010100014C
:10189000010100010101000101010001010100013C
:1018A000010100010101000101010001010100012C
:1018B000010100010101000101010001010100011C
:1018C0000101020101010101010101010101000108
:1018D00001010001010100010101000101010001FC
:1018E00001010001010100010101000101010001EC
:1018F00001010001010100010101000101010001DC
:1019000001010001010100010101000101010001CB
:1019100001010201010101010101010101010001B7
:1019200001010001010100010101000101010001AB
:10193000010100010101000101010001010100019B
:10194000010100010101000101010001010100018B
:10195000010100010101000101010001010100017B
:101960000101020101010101010101010101566FA3
:101970006C766F206431325B6163645D20637261F9
:101980006E6B2077697468203720746F6F746820DD
:1019900063616D0001000100010001000302030208
:1019A00003020302474D2038206576656E2D746F63
:1019B0006F7468206372616E6B2077697468203180
:1019C00020746F6F74682063616D00010001000175
:1019D00000030203020302474D2036206576656E40
:1019E0002D746F6F7468206372616E6B20776974F9
:1019F00068203120746F6F74682063616D0001008E
:101A0000010003020302474D2034206576656E2DE8
:101A1000746F6F7468206372616E6B20776974688D
:101A2000203120746F6F74682063616D00000000C6
:101A300001000000010000000100000001000000A2
:101A4000010000000100000001000000010002028E
:101A5000030200000100000001000000010000007E
:101A60000100000001000000010000000159616D4B
:101A700061686120323030322D30332052312038CD
:101A8000206576656E2D746F6F7468206372616E69
:101A90006B2077697468203120746F6F74682063DD
:101AA000616D000100000100000100000100000163
:101AB0000000010000010000010000010000010021
:101AC0000003020202020203000001000001000004
:101AD0000100000100000100000100000100000100
:101AE00000000100000100000000004D617A646107
:101AF000204341532032342D32207769746820739B
:101B0000696E676C652070756C7365206F757465A0
:101B1000722072696E67000201000100010001007D
:101B2000030203020302030203020302030203028D
:101B3000030203020302030203020302030203027D
:101B4000030203020302030203020302030203026D
:101B5000030203020302030203020302030203025D
:101B6000030203020302030203020302030203024D
:101B7000030203020302030203020302030203023D
:101B8000030203020302030203020302030203022D
:101B9000010001000100010001000100010001003D
:101BA000030203020302030203020302030203020D
:101BB00003020302030203020302030203020302FD
:101BC00003020302030203020302030203020302ED
:101BD00003020302030203020302030203020302DD
:101BE00003020302030203020302030203020302CD
:101BF00003020302030203020302030203020302BD
:101C000003020302030203020100010001000100BC
:101C100001000100010001000100010001000100BC
:101C2000030203020302030203020302030203028C
:101C3000030203020302030203020302030203027C
:101C4000030203020302030203020302030203026C
:101C5000030203020302030203020302030203025C
:101C6000030203020302030203020302030203024C
:101C7000030203020302030203020302030203023C
:101C8000010001000100010001000100010001004C
:101C9000010001000100010001000100010001003C
:101CA000030203020302030203020302030203020C
:101CB00003020302030203020302030203020302FC
:101CC00003020302030203020302030203020302EC
:101CD00003020302030203020302030203020302DC
:101CE00003020302030203020302030203020302CC
:101CF00003020302030203020100010001000100CC
:101D000001000100010001000100010001000100CB
:101D100001000100010001000100010001000100BB
:101D2000030203020302030203020302030203028B
:101D3000030203020302030203020302030203027B
:101D4000030203020302030203020302030203026B
:101D5000030203020302030203020302030203025B
:101D6000030203020302030203020302030203024B
:101D7000010001000100010001000100010001005B
:101D8000010001000100010001000100010001004B
:101D9000010001000100010001000100010001003B
:101DA000030203020302030203020302030203020B
:101DB00003020302030203020302030203020302FB
:101DC00003020302030203020302030203020302EB
:101DD00003020302030203020302030203020302DB
:101DE000030203020302034E697373616E203336EC
:101DF00030204341532077697468203620736C6F1C
:101E000074730002020202020202020202020202D1
:101E100002020202020202020202020202020202A2
:101E2000020202020202020202020200000000009C
:101E300000000000000000000000000000000002A0
:101E40000202020202020202020202020202020272
:101E5000020202020202030303030302020202025D
:101E60000202020202020202020202020202020252
:101E7000020202020202030303030302020202023D
:101E80000202020202020202020202020202020232
:101E90000202020202020202020202020202020222
:101EA000020202020202020202020202020303030F
:101EB0000303020202020202020202020202020200
:101EC00002020202020202020202020202020202F2
:101ED00002020202020202020202020202020202E2
:101EE00002020202020202020200000000000000E0
:101EF00000000000000000000000000000000000E2
:101F000000000000000000000000010101010100CC
:101F100000000000000000000000000000000000C1
:101F200000000000000000000000010101010100AC
:101F300000000000000000000000000000000000A1
:101F40000000000000000000000000000000000091
:101F50000000000000000000000000000000000081
:101F6000000101010101000000000000000000006C
:101F70000000000000000000000000000000000061
:101F80000000000000000000000000000000000051
:101F90000000000202020202020202020202020227
:101FA0000202020202020200000000000000000023
:101FB000000000000000000000000000000001011F
:101FC000010101000000000000000000000000000E
:101FD00000000000000000000000000000000101FF
:101FE00001010100000000000000000000000000EE
:101FF00000000000000000000000000000000000E1
:1020000000000000000000000000000000000000D0
:1020100000000000000101010101000000000000BB
:1020200000000000000000000000000000000000B0
:1020300000000000000000000000000000000000A0
:102040000000000000000000000000000000000090
:102050000002020202020202020202020202020262
:102060000202020202020202020202020202020250
:10207000020203030303030202020202020202023B
:102080000202020202020202020202020202020230
:10209000020203030303030202020202020202021B
:1020A0000202020202020202020202020202020210
:1020B0000202020202020202020202020202020200
:1020C00002020202020202020203030303030202EB
:1020D0000202024669617420312E382031365620C2
:1020E0006372616E6B20616E642063616D0000003D
:1020F00000000000000000000000000000000101DE
:1021000000000000020202020000000000000000C7
:1021100001010000000000000000000000000000BD
:1021200000000101000000000202020200000000A5
:10213000000000000101000000000000000000009D
:10214000000000000000010100000000000000008D
:10215000000000000000000001010000000000007D
:10216000000000000000000000000101000000006D
:1021700000000000000000000000000001015765A1
:102180006265722D4D6172656C6C692038206372D6
:10219000616E6B2B322063616D20706174746572A7
:1021A0006E000000000000000000000000000000C1
:1021B000000000000000000000000001010101011A
:1021C0000000000000010101010100000000000109
:1021D00001010101000000000001010101010000F6
:1021E00000000001010101010000000000010103E5
:1021F00003030202020202010101010100000000CA
:1022000000010101010100000000000101010101C4
:1022100000000000000101010101000000000001B8
:1022200001010101000000000001010101010000A5
:102230000000000101010101000000000001010196
:102240000101000000000001010303030202020279
:10225000020101010101000000000001010103036E
:102260000303030303030101010101010101010152
:102270000101010100000000000101010101000055
:102280000000000101010101000000000001010146
:102290000101000000000001010101010000000037
:1022A0000001010303030202020202010101010114
:1022B0000000000000010101030302020202020308
:1022C00001010101000000000001010101030202FF
:1022D00002020203030101010000000000010101EC
:1022E00001010000000000010101010100000000E7
:1022F00000010101010100000000000101030303CE
:1023000002020202020101010101000000000000BE
:1023100000000202020202020202000000000000AD
:1023200000000001010101010000000000010101A5
:102330000101000000000001010101010000000096
:102340000001010101010000000000010101010183
:102350000000000000010103030302020202020167
:10236000010101010000000000010101030302025C
:10237000020202030101010100000000000101014D
:102380000101000000000001010101010000000046
:102390000001010101010000000000010101010133
:1023A0000000000000010101010100000000000127
:1023B0000103030302020202020101010101000004
:1023C0000000000101010101010101010101010100
:1023D00001010101010101010101010100000000F1
:1023E00000010101010100000000000101010101E3
:1023F00000000000000101010101000000000001D7
:1024000001010101000000000001010303030202B9
:1024100002020201010101010000000000010101AE
:102420000303020202020203010101010000000095
:102430000001010101030202020202030301010182
:102440000000000000010101010100000000000186
:102450000101010100000000000101010101000073
:102460000000000101030303020202020201010154
:10247000010143687279736C6572204E47432033C3
:10248000362D322B32206372616E6B2C204E474307
:1024900020382D63796C2063616D0002020000001A
:1024A000000000000000000002020202020202021C
:1024B000020200000101010101000000000203030B
:1024C00003030302020202000101010101000000F6
:1024D00000000101010101000000000001010101F3
:1024E00001000000000001010101010000000000E6
:1024F00001010101010000000000010101010100D2
:1025000000000000010101010100000202020303BA
:1025100003030302020000000101010101000000A9
:1025200000000101010101000000000001010101A2
:102530000100000000000101010101000000000095
:102540000101010101000000000001010101010081
:10255000000000000101010101010101010101016F
:10256000010101010101010101010101010000005E
:102570000000010101010100000000000101010152
:102580000100000202020303030303020200000031
:102590000101010101000000020203030303030221
:1025A0000202000001010101010000000000010120
:1025B0000101010000000000010101010100000013
:1025C0000000010101010100000000000101010102
:1025D00001000000000001010101010000000000F5
:1025E00001010101010000000000010101010100E1
:1025F00000000000010101010100000202020303CA
:1026000003030302020000000000000000000000BD
:1026100002020202020202020202000001010101A2
:102620000100000000020303030303020202020090
:102630000101010101000000000001010101010090
:102640000000000001010101010000000000010183
:102650000101010000000000010101010100000072
:102660000000010101010100000000000101010161
:102670000100000202020303030303020200000040
:102680000101010101000000020203030303030230
:10269000020200000101010101000000000001012F
:1026A0000101010000000000010101010100000022
:1026B0000000010101010100000000000101010111
:1026C00001010101010101010101010101010101FA
:1026D00001010101010000000000010101010100F0
:1026E00000000000010101010100000202020303D9
:1026F00003030302020000000101010101000000C8
:1027000000000101010101000000000001010101C0
:1027100001000000000001010101010000000000B3
:10272000010101010100000000000101010101009F
:102730000000000001010101010000000000010192
:102740000101010000000000010101010100000081
:102750000000010101010100000000000101010170
:10276000010000020202030303030343687279734A
:102770006C6572204E47432033362D322B32206356
:1027800072616E6B2C204E474320362D63796C208E
:1027900063616D0000000000000101010101010101
:1027A0000101010101010101010101010103030313
:1027B00003030202020202030303030302020202F2
:1027C00002030303030302020202020303030303DF
:1027D00002000000000101010101000000000001F1
:1027E00001010101000000000001010101010000E0
:1027F00000000001010303030202020202030303BB
:1028000003030202020202030303030302020202A1
:10281000020303030303020202000001010101019C
:1028200000000000000101010101000000000001A2
:102830000101010100000000000101010103020289
:102840000202020303030303020202020202020263
:102850000202020202020202020202020202020258
:10286000020303030303020202020203030303033E
:102870000202020202030303030302020202020332
:10288000030303030202020202030303030302021F
:102890000202020303030303020202020203030310
:1028A0000303020202020203030303030202020201
:1028B00002030303030302020202020303030303EE
:1028C00002020202020303030303020202000001E8
:1028D00001010101000000000001010101010000EF
:1028E00000000001010101010000000000010101E0
:1028F00001030202020202030303030302020202B3
:102900000203030303030303030303030303030398
:1029100003030303030101010101000000000001A2
:10292000010101010000000000010101010100009E
:102930000000000101010101000202020203030381
:102940000303020202020203030303030202020260
:102950000203030303030202020202030301010153
:102960000000000000010101010100000000000161
:10297000010101010000000000010101010100004E
:102980000002020303030303020202020203030321
:102990000303020202020203030303030202020210
:1029A0000203030303010000000000010101010113
:1029B0000000000000000000000000000000000017
:1029C0000000000000000000000101010101000002
:1029D00000000001010101010000000000010101EF
:1029E00001010000000000010101010100000000E0
:1029F00000010101010100000000000101010101CD
:102A000000000000000101010101000000000001C0
:102A100001010101000000000001010101010000AD
:102A2000000000010101010100000000000101019E
:102A30000101000000020203030303030202020279
:102A4000020303030303020202020203030303035C
:102A5000020202020203030303010000000000015E
:102A60000101010143687279736C6572204E47431E
:102A70002033362B322D32206372616E6B2C204E48
:102A8000474320342D63796C2063616D00010001A0
:102A9000000100010001000100010001000100012E
:102AA000000100010001000100010001000100011E
:102AB000000100010001000100010001000100010E
:102AC00000010001000100010001000100030203F8
:102AD00002010000000100010001000100010001ED
:102AE00000010001000100010001000100010001DE
:102AF00000010001000100010001000100010001CE
:102B000000010001000100010001000100010001BD
:102B10000001000100010001000100000033362D1A
:102B200031206372616E6B207769746820326E6445
:102B30002074726967676572206F6E2074656574B2
:102B4000682033332D3334000001000100010001FF
:102B5000000100030001000100010001000100016B
:102B60000001000100010003000100030001000159
:102B70000001000100010001486F6E6461205243B2
:102B8000353120776974682063616D0001000100B0
:102B9000010001000100010001000100010001002D
:102BA000010001000100000001000100000001001F
:102BB000010001000100010001000100010001000D
:102BC00001000100010001000100000001000100FE
:102BD000010000004F6464204C6F7475732033361D
:102BE0002D312D312D312D3120666C797768656559
:102BF0006C0001000100030203020302030203024E
:102C000003020100010001000100010001000100B8
:102C100001000100010001000100010001000100AC
:102C2000010001000100010001000100010001009C
:102C30000100030203020302030203020302010074
:102C40000100010001000302030203020302030268
:102C5000030203020302030203020302030203024C
:102C6000030203020302020202020302030203023E
:102C70000302030203020302030201000100010038
:102C80000100030203020302030203020302030220
:102C9000030203020302030203020302030203020C
:102CA00003020302030203020302030203020302FC
:102CB0000302030203020100010001000100010000
:102CC00001000100010001000100010001000100FC
:102CD00001000100010001000100010001000000ED
:102CE0000000474D20353878206372616E6B20619B
:102CF0006E642034782063616D00040000000000E1
:102D000000000000000001010100000001010101BC
:102D100001010101010101010000000101010101A6
:102D20000101010101010100000001010101010196
:102D30000101010101010000000101010101010186
:102D40000101010101000000010101010101010176
:102D5000010101010000000000000000000000006F
:102D60000101010000000101010101010101010156
:102D70000101000000010101010101010101010146
:102D80000100000001010101010101010101010136
:102D90000000000000000000000000000101010030
:102DA0000000000000000000000000010101000020
:102DB0000001010101010101010101010100000007
:102DC00001010101010101010101010100000000F7
:102DD00000000000000000000101010000000000F0
:102DE00000000000000000010101000000000000E0
:102DF00000000000000001010100000001010101CC
:102E000001010101010101010000000000000000BA
:102E100000000000010101000000010101010101A9
:102E2000010101010101000000000000000000009C
:102E3000000001010100000000000000000000008F
:102E4000000101010000000000000000000000007F
:102E5000010101000000000000000000000000016E
:102E60000101020202020202020202020202030342
:102E70000302020203030303030303030303030325
:102E80000202020303030303030303030303030216
:102E90000202030303030303030303030303020206
:102EA00002030303030303030303030303020202F6
:102EB00003030303030303030303030302020202E6
:102EC00002020202020202020303030202020303DD
:102ED00003030303030303030303020202030303C5
:102EE00003030303030303030302020203030303B5
:102EF00003030303030303030202020202020202AA
:102F0000020202020303030202020202020202029E
:102F10000202020303030202020303030303030387
:102F20000303030303020202030303030303030374
:102F3000030303030202020202020202020202026D
:102F4000030303020202020202020202020202035D
:102F5000030302020202020202020202020203034D
:102F60000302020203030303030303030303030334
:102F7000020202020202020202020202030303022E
:102F80000202030303030303030303030303020215
:102F9000020202020202020202020303030202020E
:102FA00002020202020202020203030302020202FE
:102FB00002020202020202020303030202020202EE
:102FC00002020202020202030303474D204C533166
:102FD000206372616E6B20616E642063616D00011D
:102FE00001010100000000000001010101000000DA
:102FF00000000001010101000000000000000000CD
:1030000000000000000000000000000001010101BC
:1030100000000000000001010101000000000000AC
:10302000010101010000000000000000000000425A
:1030300075656C6C204F6464666972652043414D10
:1030400020776865656C0003030303030303030330
:103050000202020202000000000000000000010164
:103060000101010101030303020202020200000048
:103070000000000000000101010101010101010146
:103080000000000000000000000000020202030334
:103090000303030101010101000000000000000022
:1030A0000000000000000101010101010103030310
:1030B0000202020202000000000000000000010104
:1030C00001010101010101010000000000000000F8
:1030D000000000000202034D697473756269736831
:1030E00069203667373220776974682063616D0024
:1030F00001000100010001000100010001000100C8
:1031000001000302030001000100010001000100B1
:1031100001000100010001000100010001000100A7
:103120000100010001000100010001000100010097
:103130000100010001000000010001000100010088
:10314000010001000302030001000302030001006B
:103150000100010001000100010001000100010067
:103160000100010001000100010001000100010057
:103170000100010001000100010001000100000048
:103180004D617A6461204645332033362D312077F6
:103190006974682063616D00010101010101010191
:1031A0000101010001010101010101010101010011
:1031B0000100010101010101010101000101010101
:1031C00001010101010101000101010101010101F0
:1031D00001010101010001010101010101010100E1
:1031E000474D2034323030206372616E6B20776837
:1031F00065656C0001000002000001000000000095
:1032000001000100010001000100010001000100B6
:1032100001000100010001000100010001000100A6
:103220000002000001000100010001000100010096
:103230000100010001000100010001000100000087
:103240000000010000000000010001020100010077
:103250000100010001000100010001000100010066
:103260000100010001000100000000000100010058
:103270000100010001000100010001000100010046
:103280000100010033362D322D322D322043726180
:103290006E6B20616E642063616D000100010001AE
:1032A0000001000100010001000100010001000116
:1032B0000001000100010001000100010001000106
:1032C00000000000000100010001000100010001F8
:1032D00000010001000100010000000000010000E9
:1032E00000000033362D322D322D32204836204357
:1032F00072616E6B206F6E6C79000100010001003D
:1033000001000100010001000100010001000100B5
:1033100001000100000000000100000000000100A9
:103320000100010001000100010001000100010095
:103330000100010001000100000000000100010087
:10334000010033362D322D322D3220483420437285
:10335000616E6B206F6E6C7900010000000100004F
:103360000001000000010000000100000001000059
:10337000000100000001000000010000000000004A
:1033800000000000000000000031322D33206F6487
:103390006462616C6C000001000100010001000129
:1033A0000001000100010001000100010001000115
:1033B0000001000100010001000100010001000105
:1033C00000010001000100010001000100010001F5
:1033D00000010001000100010001000100010001E5
:1033E00000010001000100010001000102030203CD
:1033F00002030203020302030203000100010001B1
:1034000000010001000100010001000100010001B4
:1034100000010001000100010001000100010001A4
:103420000001000100010001000100010001000194
:103430000001000100010001000100010001000184
:10344000000100010001020302030001000100016C
:103450000001000100010001000100010001000164
:103460000001000100010001000100010001000154
:103470000001000100010001000100010001000144
:103480000001000100010001000100010001000134
:103490000001000100010001000100010001000124
:1034A00002030203020302030203020302030203F4
:1034B00002030203020302030001000100010001F4
:1034C00000010001000100010001000100010001F4
:1034D00000010001000100010001000100010001E4
:1034E00000010001000100010001000100010001D4
:1034F00000010001000100010001020302030001BC
:1035000000010001000100010001000100010001B3
:1035100000010001000100010001000100010001A3
:103520000001000100010001000100010001000193
:103530000001000100010001000100010001000183
:103540000001000100010001000100010001000173
:10355000000100010203020302030203020302034B
:103560000203020302030203020302030203020333
:103570000203020302030001000100010001000137
:103580000001000100010001000100010001000133
:103590000001000100010001000100010001000123
:1035A000000100010001000100010001000102030F
:1035B00002030001000100010001000100010001FF
:1035C00000010001000100010001000100010001F3
:1035D00000010001000100010001000100010001E3
:1035E00000010001000100010001000100010001D3
:1035F00000010001000100010001000100010001C3
:1036000000010001000100010203020302030203A2
:103610000203020302030203020302030203020382
:103620000203020302030203020302030203020372
:10363000020302030001000100010001000100017A
:103640000001000100010001000100010001000172
:103650000001000100010001000100010001000162
:10366000000102030203474D204F707469537061DB
:10367000726B204C54312033363020616E64203818
:103680000001000000000000000001000000000038
:103690000000000000000000006F64642066697292
:1036A0006520393020646567207061747465726EBE
:1036B000203020616E64203133352070756C736565
:1036C000730000000000000101010144697374727D
:1036D000696275746F72207374796C65203420632D
:1036E000796C203530646567206F66662C20343035
:1036F00020646567206F6E00000100010001000179
:1037000000010001000100010001000100010001B1
:1037100000010001000100010001000100010001A1
:103720000001000100010001000100010001000191
:103730000001000100010001000100010001000181
:10374000000100010001000034302D31206372615E
:103750006E6B206F6E6C792028466F726420563134
:1037600030290000000000000100000000000100FE
:103770000000000001000000000001000000000047
:103780000100000000000100000000000100000036
:103790000000010000000000010000000000010026
:1037A0000000000001000000000000000000000018
:1037B0000100000000000100000000000100000006
:1037C00000000100000000000100000000000100F6
:1037D00000000000010000000000010000000000E7
:1037E00001020202020201000000000001000000CC
:1037F00000000031322D31206372616E6B207769D9
:1038000074682063616D0000000100000100000188
:1038100000000100000100000000000100000102A2
:103820000201000001000001000000362D3120637C
:1038300072616E6B20776974682063616D000001AE
:103840000001000100010001000100010000382D0D
:1038500031206372616E6B206F6E6C792028523656
:103860002900000100010001000000010201000127
:103870000000342D31206372616E6B2077686565BE
:103880006C20776974682063616D0001000100019C
:103890000001000100010001000100010001000120
:1038A0000001000100010001000100010001000110
:1038B000000100010001000100000032342D312020
:1038C0006372616E6B206F6E6C7900010001000104
:1038D00000010001000100010001000100010001E0
:1038E00000010001000100010001000100010001D0
:1038F00000010001000100010001000100010001C0
:1039000000010001000100010001000100010001AF
:1039100000000033362D31206372616E6B206F6EB4
:103920006C790001000100010001000100010001AB
:10393000000100010001000100010001000100017F
:10394000000100010001000100010001000100016F
:10395000000100010001000100010001000100015F
:10396000000100010001000100010001000100014F
:103970000001000100010001000302030203020331
:10398000020302030203020302030203020302030F
:103990000203020302030202020202030203020301
:1039A00002030203020302030203020302030203EF
:1039B00002030203020302030203020302030203DF
:1039C00002030203020302030203020302030203CF
:1039D00002030203020302030203020302030203BF
:1039E00002030203020302030203020302030203AF
:1039F00002010001000100010001000100010001BD
:103A000000010001000100010001000100010000AF
:103A100000000036302D32206372616E6B20616EC3
:103A200064202768616C66206D6F6F6E272063616C
:103A30006D00010001000100010001000100010012
:103A4000010001000100010001000100010001006E
:103A5000010001000100010001000100010001005E
:103A6000010001000100010001000100010001004E
:103A7000010001000100010001000100010001003E
:103A8000010001000100010001000100010001002E
:103A9000010001000100010001000100010001001E
:103AA0000100010001000000000001000100010010
:103AB00001000100010001000100010001000100FE
:103AC00001000100010001000100010001000100EE
:103AD00001000100010001000100010001000100DE
:103AE00001000100010001000100010001000100CE
:103AF00001020100010001000100010001000100BC
:103B000001000100010001000100010001000100AD
:103B1000010001000100010001000100010000009E
:103B2000000036302D32206372616E6B20616E644E
:103B30002063616D0001000100010001000100012E
:103B4000000100010001000100010001000100016D
:103B5000000100010001000100010001000100015D
:103B6000000100010001000100010001000100014D
:103B7000000100010001000100010001000100013D
:103B8000000100010001000100010001000100012D
:103B9000000100010001000100010001000100011D
:103BA0000001000100010001000000000036302D7E
:103BB00032206372616E6B206F6E6C7900010001C0
:103BC0000001000100382063796C696E6465722021
:103BD00064697A7A79000100010001003620637976
:103BE0006C696E6465722064697A7A7900010001FB
:103BF00000342063796C696E6465722064697A7A36
:103C0000790000000000250028002B0000000000C3
:103C1000240027002A00040404040404040402020B
:103C2000020202020303030303030102040810203B
:103C30004080010204081020010204081020A1287D
:103C400011241FBECFEFD8E0DEBFCDBF14E0A0E04F
:103C5000B1E0E4E2FAE502C005900D92AA30B107A6
:103C6000D9F724E0AAE0B4E001C01D92AE3CB2074F
:103C7000E1F71EE1C0E2DEE104C02197FE010E94EF
:103C8000322ACF31D107C9F70E9488250C94102D14
:103C90000C94000090E0FC01E65DF34C24918A5EF8
:103CA000934CFC018491882399F090E0880F991F30
:103CB000FC01E45FF34CA591B491FC01EE5FF34C81
:103CC000859194918FB7F894EC91E22BEC938FBF90
:103CD0000895AF92BF92CF92DF92EF92FF920F932F
:103CE0001F93CF93DF936C017B018B01040F151F92
:103CF000EB015E01AE18BF08C017D10759F06991FA
:103D0000D601ED91FC910190F081E02DC60109955D
:103D1000892B79F7C501DF91CF911F910F91FF900A
:103D2000EF90DF90CF90BF90AF900895FC01538D3E
:103D3000448D252F30E0842F90E0821B930B541785
:103D400010F0CF96089501970895FC01918D828D12
:103D5000981761F0A28DAE0FBF2FB11D5D968C91AB
:103D6000928D9F5F9F73928F90E008958FEF9FEFEA
:103D70000895FC01918D828D981731F0828DE80FA6
:103D8000F11D858D90E008958FEF9FEF0895FC0160
:103D9000918D228D892F90E0805C9F4F821B91092D
:103DA0008F73992708958DE294E00E94C71E21E049
:103DB000892B09F420E0822F089580E090E0892B80
:103DC00029F00E94D31E81110C9400000895FC017B
:103DD000A48DA80FB92FB11DA35ABF4F2C91848D6C
:103DE00090E001968F739927848FA689B7892C93C9
:103DF000A089B1898C91837080648C93938D848D1C
:103E0000981306C00288F389E02D80818F7D80831E
:103E10000895EF92FF920F931F93CF93DF93EC01DE
:103E200081E0888F9B8D8C8D98131AC0E889F98961
:103E3000808185FF15C09FB7F894EE89FF89608364
:103E4000E889F98980818370806480839FBF81E0E5
:103E500090E0DF91CF911F910F91FF90EF90089527
:103E6000F62E0B8D10E00F5F1F4F0F731127E02E02
:103E70008C8D8E110CC00FB607FCFACFE889F9893A
:103E8000808185FFF5CFCE010E94E71EF1CFEB8D3B
:103E9000EC0FFD2FF11DE35AFF4FF0829FB7F8940E
:103EA0000B8FEA89FB8980818062CFCFCF93DF932C
:103EB000EC01888D8823B9F0AA89BB89E889F98942
:103EC0008C9185FD03C0808186FD0DC00FB607FC77
:103ED000F7CF8C9185FFF2CF808185FFEDCFCE01AA
:103EE0000E94E71EE9CFDF91CF910895CF92DF9234
:103EF000EF92FF920F931F93CF93DF938C01DB011F
:103F0000EC91E15020E0E53020F4F0E0EE5EFE4F71
:103F10002081C0910B0160E072E18AE790E004C06B
:103F200095958795779567952A95D2F70E945F2B8F
:103F30006B017C01BCE0CB9FE0011124C75DDE4F2B
:103F4000F8016081718190E080E00E945D2B2C81FE
:103F50003D814E815F810E947C2C9B01AC01C70199
:103F6000B6010E94BC2A0E942E2BCB01DF91CF917B
:103F70001F910F91FF90EF90DF90CF900895CF9316
:103F8000DF93382FC0910B018CE0C89FE001112412
:103F9000C75DDE4F832F6A3071058105910520F4DE
:103FA0006AE070E080E090E00E945D2B2C813D8112
:103FB0004E815F810E947C2C9B01AC0160E074E229
:103FC00084EF9AE40E94BC2A0E942E2B6115710591
:103FD000810521E0920738F56115710520E482071B
:103FE000910520F56115710528E08207910508F516
:103FF0006115710521E082079105F0F430E021E0C0
:1040000004C096958795779567953A95D2F7709302
:104010000801609307012093120481E0809311044A
:10402000DF91CF9108953AE025E0EACF38E024E02F
:10403000E7CF36E023E0E4CF33E022E0E1CFFC013C
:1040400001900020E9F73197AF01481B590BBC01E3
:104050008DE294E00C94691E8F929F92AF92BF9272
:104060000F931F93CF93DF93CDB7DEB7A1970FB612
:10407000F894DEBF0FBECDBF19A2423008F44AE06B
:104080008E010F5D1F4F842E912CB12CA12CA50108
:1040900094010E94102AE62FB901CA01EA30F4F413
:1040A000E05DD801EE938D01232B242B252B79F78E
:1040B00090E080E0109719F0CD010E941F20A1969A
:1040C0000FB6F894DEBF0FBECDBFDF91CF911F9129
:1040D0000F91BF90AF909F908F900895E95CE1CFD2
:1040E000CF93DF930E941F20EC0185E094E00E94B3
:1040F0001F208C0F9D1FDF91CF9108954F925F92EB
:104100006F927F928F929F92AF92BF92CF92DF92E7
:10411000EF92FF920F931F93CF93DF9300D000D0C5
:10412000CDB7DEB780912C04882329F025E02A95AD
:10413000F1F70000F7CF81E080932C046091030138
:104140007091040190E080E00E945D2B2B013C0106
:10415000E0910B018CE08E9FF0011124E75DFE4F92
:104160002481358146815781C301B2010E947C2C94
:104170009B01AC0160E074E284EF9AE40E94BC2AE7
:104180000E942E2B6B017C0160910501709106014C
:1041900090E080E00E945D2B4B015C01E0910B01FF
:1041A0009CE09E9FF0011124E75DFE4F2481358144
:1041B00046815781C501B4010E947C2C9B01AC0152
:1041C00060E074E284EF9AE40E94BC2A0E942E2BE5
:1041D00069837A838B839C83A3019201C501B40117
:1041E0000E94BC2A0E94342C2BE930E24AE95EE3AB
:1041F0000E94BC2A0E94A52A0E942E2B962E8091F6
:104200002A0490912B04009711F00E946A29EBE098
:104210009E9EC00111240E94CE285C0190E00BE01C
:10422000A1E0B2E015E0991508F064C0F501909F97
:10423000E00DF11D1124C114D104E10421E0F206C6
:1042400070F114838AE0282F30E0B701A601082E10
:1042500004C076956795579547950A94D2F7518390
:104260004083B701A6017695679557954795498094
:104270005A806B807C80441555056605770580F56E
:104280007301620104C0F694E794D794C7948A95A9
:10429000D2F7D382C2829E5F6A017B01C4CFC11470
:1042A000D10480E4E806F10428F084E0482E44823A
:1042B00088E0C9CFC114D10428E0E206F10420F05F
:1042C00083E0848386E0BFCFC114D10421E0E206FD
:1042D000F10418F0B48383E0B6CFA48380E0B3CFB9
:1042E0002F5F3F4F04C0F694E794D794C7942A9564
:1042F000D2F7CFCFB0922B04A0922A04F12C8BE0FE
:10430000E82EF91408F0A6C0FE9C300111248301A8
:104310000A0D1B1DC3010B968A0D9B1D9A83898371
:10432000F8018481E981FA818483F8018281938193
:10433000E981FA8193838283F801C280D38060810E
:1043400071816C197D0990E080E00E945D2B2CE565
:104350003FE842EC5EE30E947C2C2B013C01B6015D
:1043600090E080E00E945D2B9B01AC01C301B20193
:104370000E94392A0E942E2BF80173836283E981FF
:10438000FA81718360831A830983812C09811A81E0
:104390000C5F1F4FB80189819A810E94761F6C01C2
:1043A000B80189819A8102960E94761F8C01E98169
:1043B000FA816081718182819381681B790B90E021
:1043C00080E00E945D2B2B013C010C191D09B801F6
:1043D00090E080E00E945D2B20E030E04AE754E46A
:1043E0000E947C2C0E942E2B90E080E00E945D2B8E
:1043F0009B01AC01C301B2010E94BC2A2B013C010C
:104400000E942E2BE981FA817287618790E080E01B
:104410000E945D2B9B01AC01C301B2010E94382AAE
:1044200020E034E244E759E40E947C2C0E942E2BC9
:10443000E981FA8165837683878390873B96FA8347
:10444000E983F1E08F1203C0F394F3945ACF8824E8
:1044500083949CCF909229041092280481E0809349
:104460000A018093090180912804F5012BE0829FC5
:10447000E00DF11D112480819181909308018093BA
:104480000701109224041092250410922604109221
:1044900027041092230410922C040F900F900F9079
:1044A0000F90DF91CF911F910F91FF90EF90DF90D0
:1044B000CF90BF90AF909F908F907F906F905F90C4
:1044C0004F90089580912304882369F06091010141
:1044D0007091020190E080E00E94BF1F10921404CE
:1044E0001092130408950E947E20F8CFCF93DF939B
:1044F000BC0190E080E04AE00E942C20EC0185E0C5
:1045000094E00E941F208C0F9D1FDF91CF91089592
:104510000C94FA29FF920F931F93CF93DF93EC0132
:10452000F62E08811981C8010E94FA29F81621F097
:104530006F2DC8010E94022ACE01DF91CF911F91F9
:104540000F91FF9008951F920F920FB60F921124B2
:104550002F933F938F939F93AF93BF9380911F04AB
:1045600090912004A0912104B091220430911E0466
:1045700023E0230F2D3758F50196A11DB11D20937F
:104580001E0480931F0490932004A0932104B093F1
:10459000220480911A0490911B04A0911C04B091F4
:1045A0001D040196A11DB11D80931A0490931B0454
:1045B000A0931C04B0931D04BF91AF919F918F9164
:1045C0003F912F910F900FBE0F901F90189526E8E6
:1045D000230F0296A11DB11DD2CF1F920F920FB6CD
:1045E0000F9211242F933F934F935F936F937F9379
:1045F0008F939F93AF93BF93EF93FF938DE294E0DC
:104600000E94E71EFF91EF91BF91AF919F918F9113
:104610007F916F915F914F913F912F910F900FBEBE
:104620000F901F9018951F920F920FB60F921124A2
:104630002F938F939F93EF93FF93E0913D04F0911D
:104640003E048081E0914304F091440482FD1BC04C
:104650009081809146048F5F8F7320914704821769
:1046600041F0E0914604F0E0E35DFB4F958F8093CD
:104670004604FF91EF919F918F912F910F900FBE64
:104680000F901F9018958081F4CF1F920F920FB654
:104690000F9211242F933F938F939F93AF93BF93C8
:1046A000EF93FF93A0910B01209113043091140418
:1046B0008CE08A9FD0011124A75DBE4F1296ED9128
:1046C000FC91E20FF31FE49190911004E927E5B902
:1046D000909100012091130430911404992309F45E
:1046E00041C02F5F3F4F3093140420931304E09197
:1046F0000B0120911304309114048E9FF0011124BA
:10470000E75DFE4F808591858217930721F4109213
:1047100014041092130480911104882371F0809185
:104720008100887F809381009091120480918100A4
:10473000892B809381001092110480910701909140
:1047400008019093890080938800FF91EF91BF91B9
:10475000AF919F918F913F912F910F900FBE0F902E
:104760001F901895232B69F4E0910B018E9FF001A7
:104770001124E75DFE4F808591859093140480930A
:1047800013048091130490911404019790931404DE
:1047900080931304C0CF1F920F920FB60F92112473
:1047A0000F931F932F933F934F935F936F937F9339
:1047B0008F939F93EF93FF93809123048111E5C022
:1047C00080912C048111E1C021E020932C043091D0
:1047D000090180912A0490912B04332399F01092BF
:1047E00009012093110420912804FC013BE0239F40
:1047F000E00DF11D11242481209312042091120454
:1048000020930F0420910A01213009F0CFC020919C
:10481000280440912404509125046091260470914D
:104820002704FC013BE0239FE00DF11D11240581CD
:10483000168127813085400F511F621F731F4093DF
:104840002404509325046093260470932704409118
:10485000240450912504609126047091270441346A
:1048600052446F40710590F020910E042F5F209309
:104870000E04409124045091250460912604709107
:104880002704405452446F407109D9CF3091280415
:1048900040910701509108012BE0FC01329FE00D8F
:1048A000F11D11246281738130912804641775070A
:1048B000C0F460910E044091070150910801461B1D
:1048C0005109329F800D911D1124FC018185928533
:1048D000481B590B509308014093070110920E0496
:1048E00052C03F5F30932804109224041092250494
:1048F0001092260410922704409128043091290434
:104900004317E8F430912804FC01329FE00DF11DBB
:104910001124408151815093080140930701409137
:10492000280430910F04429F800D911D1124FC0139
:104930008481831741F181E08093090124C0309183
:10494000280431503093280410920A013091280431
:10495000FC01329FE00DF11D1124428153815093DF
:104960000801409307014091280430910F04429FB1
:10497000800D911D1124FC018481831719F081E0C1
:10498000809309015F9A10922C04FF91EF919F91FF
:104990008F917F916F915F914F913F912F911F91D7
:1049A0000F910F900FBE0F901F9018952091280423
:1049B00040912404509125046091260470912704AD
:1049C000FC013BE0239FE00DF11D112405811681C0
:1049D00027813085400F511F621F731F40932404AD
:1049E0005093250460932604709327044091240477
:1049F000509125046091260470912704413452445B
:104A00006F40710590F020910E042F5F20930E04EB
:104A1000409124045091250460912604709127044C
:104A2000405452446F407109D9CF209128044091DD
:104A30000701509108013BE0FC01239FE00DF11DAF
:104A400011246081718146175707C8F460912804CA
:104A500020910E044091070150910801FC01639FD1
:104A6000E00DF11D1124240F352F311D8185928514
:104A7000820F931F90930801809307012FCF2091FD
:104A80002804215020932804109224041092250415
:104A900010922604109227042091280420912804C3
:104AA000FC01239FE00DF11D11244281538150939D
:104AB0000801409307014091280420910F04439F6F
:104AC000800D911D1124FC018481821334CF5BCFB2
:104AD0001F920F920FB60F9211248F939F93809184
:104AE0000D0481110EC09091780080917900892782
:104AF00098278927909318048093170481E0809366
:104B000019049F918F910F900FBE0F901F901895D1
:104B1000CF93DF93CDB7DEB7C055D1090FB6F89468
:104B2000DEBF0FBECDBF789484B5826084BD84B5EE
:104B3000816084BD85B5826085BD85B5816085BD98
:104B400080916E00816080936E0010928100809150
:104B500081008260809381008091810081608093D8
:104B60008100809180008160809380008091B100FD
:104B700084608093B1008091B00081608093B00028
:104B800080917A00846080937A0080917A008260BC
:104B900080937A0080917A00816080937A0080917E
:104BA0007A00806880937A001092C100E0913D0401
:104BB000F0913E0412E01083E0913904F0913A0440
:104BC0001082E0913B04F0913C0480E180831092DC
:104BD0004504E0914104F091420486E08083E09135
:104BE0003F04F0914004808180618083E0913F0424
:104BF000F0914004808188608083E0913F04F091CF
:104C00004004808180688083E0913F04F0914004FB
:104C100080818F7D80831092160481E090E00E9455
:104C200088228F3F09F0E5C085E080930B0188EB77
:104C30009BE0909302018093010110932304F89468
:104C400010928000109281001092850010928400D2
:104C500088EE93E090938900809388008091810092
:104C600088608093810080918100816080938100C1
:104C700080916F00826080936F001092B00010925C
:104C8000B1001092B20089EF8093B3008091B00020
:104C900082608093B0008091B10084608093B10005
:104CA0008091700082608093700080917C008F7D85
:104CB00080937C0080917C00806480937C00809154
:104CC0007C00807F80937C0080917A008068809354
:104CD0007A0080917A00806280937A0080917B00D4
:104CE000887F80937B0080917A00876080937A0030
:104CF00080917A00886080937A0088E00E944A1E42
:104D000089E00E944A1E8AE00E944A1E8BE00E94AF
:104D10004A1E789480917A00806480937A00609132
:104D200001017091020190E080E00E94BF1F43E00A
:104D3000242E312C44244394512C9CE0792E25E0E0
:104D4000A22EB12C35E0832E34E0932E8DE294E038
:104D50000E94C71E18161906F4F4809116048111DA
:104D600006C08DE294E00E94A51E809315048091F8
:104D70001504833509F4B2C108F079C08E3409F402
:104D800025C108F069C08C3409F4FCC08D3409F4E5
:104D90000CC110921604809123048230E9F48091B2
:104DA00019048823C9F010921904609117047091B6
:104DB000180484E0660F771F8A95E1F76932F3E201
:104DC0007F0710F068E273E27093020160930101C3
:104DD00090E080E00E94BF1F80E090E0892B09F402
:104DE000B5CF0E94D31E882309F4A7CF0E940000EC
:104DF000A4CF82E090E00E94882280930B0183E0A0
:104E000090E00E9488228093230484E090E00E9436
:104E10008822182F85E090E00E948822912F90939D
:104E200002018093010120910B012D3318F025E040
:104E300020930B0120912304233018F021E02093CC
:104E4000230489399A4308F4FACE80EA9FE09093CC
:104E5000020180930101F3CE803509F4CAC0823586
:104E600009F097CF8091010190910201BFC0863671
:104E700009F449C098F5883509F443C1833609F02F
:104E800088CF60910B01E2E0F0E0FA83E983CE0184
:104E900001960E948A22609123043A822982CE01DF
:104EA00001960E948A225A82498261E0CE010196CF
:104EB0000E948A22109101016091020184E090E039
:104EC0009A838983CE0101960E948A22BA82A9829E
:104ED000612FCE0101960E948A225BCF803709F4B0
:104EE0007CC0833709F4CAC08E3609F052CF4AE03D
:104EF0006DE370E080E090E00E942C2085E094E07B
:104F00000E941F2046CF81E0809323048DE294E02D
:104F10000E94C71E0297D4F38DE294E00E94A51E62
:104F2000182F8DE294E00E94A51EF82EE12CC701F7
:104F3000812B8C0110930201009301010A301105AD
:104F400008F427CF80912C04882329F095E09A95C6
:104F5000F1F70000F7CF81E080932C0480912A04C0
:104F600090912B04009711F00E946A29B80190E0FB
:104F700080E00E94BF1F1093020100930101109274
:104F80002C0407CF09E211E0F80160817181CE01A4
:104F900001960E94F329CE0101960E947020045FC1
:104FA0001F4F8016910681F7F4CE8DE294E00E94A7
:104FB000C71E18161906CCF78DE294E00E94A51EB4
:104FC000833008F0E6CE80932304E3CE60910B019A
:104FD00070E090E080E04AE08FCFE0910B017E9E90
:104FE000F0011124E75DFE4F808591850E947622B5
:104FF000D0CEE0910B017E9EF0011124E75DFE4FC3
:105000000084F185E02D8591949110E000E0E0911D
:105010000B017E9EF0011124E75DFE4F8085918596
:1050200008171907E8F40115110521F088E094E04C
:105030000E941F20E0910B017E9EF0011124E75D8C
:10504000FE4F0280F381E02DE00FF11F649170E0CC
:1050500090E080E04AE00E942C200F5F1F4FD7CFE6
:1050600087E094E00E947020E0910B017E9EF001A9
:105070001124E75DFE4F82859385B8CF10922304FB
:105080008DE294E00E94C71E0497D4F38DE294E071
:105090000E94A51E182F8DE294E00E94A51ED82E16
:1050A000C12CC601812B90930401809303018DE2F2
:1050B00094E00E94A51E8DE294E00E94A51E84E665
:1050C00090E09093040180930301E0EAFFE0F09305
:1050D0000601E09305010E947E205BCE8DE294E004
:1050E0000E94C71E18161906CCF78DE294E00E94A4
:1050F000A51E8D3308F04DCE80930B010E946222D5
:1051000048CE80910B018C33B1F410920B010E94B8
:105110006222E0910B017E9EF0011124E75DFE4FBB
:1051200060817181CE0101960E94F329CE01019622
:105130000E9470202ECE80910B018F5F80930B0117
:10514000E6CFEDE2F4E01382128288EE93E0A0E075
:10515000B0E084839583A683B7838BE191E091834C
:10516000808385EC90E09587848784EC90E0978736
:10517000868780EC90E0918B808B81EC90E0938B24
:10518000828B82EC90E0958B848B86EC90E0978B01
:10519000868B118E128E138E148E08950F931F938B
:1051A000CF93DF938230910510F482E090E0E0919C
:1051B000CC04F091CD0430E020E0B0E0A0E03097E6
:1051C00099F42115310509F44AC0281B390B243004
:1051D0003105D8F58A819B816115710589F1FB0143
:1051E00093838283FE0111C040815181028113812A
:1051F00048175907E0F04817590799F4109761F0DC
:1052000012960C93129713961C933296CF01DF914E
:10521000CF911F910F9108950093CC041093CD046A
:10522000F4CF2115310551F04217530738F0A90189
:10523000DB019A01BD01DF01F801C1CFEF01F9CF18
:105240009093CD048093CC04CDCFFE01E20FF31FE9
:10525000819391932250310939832883D7CF2091AC
:10526000CA043091CB04232B41F420910E013091DC
:105270000F013093CB042093CA0420910C0130918C
:105280000D012115310541F42DB73EB740911001B4
:1052900050911101241B350BE091CA04F091CB040D
:1052A000E217F307A0F42E1B3F0B2817390778F0FD
:1052B000AC014E5F5F4F2417350748F04E0F5F1F5C
:1052C0005093CB044093CA04819391939FCFF0E015
:1052D000E0E09CCFCF93DF930097E9F0FC01329799
:1052E00013821282A091CC04B091CD04ED0130E084
:1052F00020E01097A1F420813181820F931F20912B
:10530000CA043091CB042817390709F061C0F09323
:10531000CB04E093CA04DF91CF910895EA01CE1740
:10532000DF07E8F54A815B819E0141155105B1F720
:10533000E901FB83EA8349915991C40FD51FEC170A
:10534000FD0761F4808191810296840F951FE90128
:1053500099838883828193819B838A83F0E0E0E054
:1053600012968D919C9113970097B9F52D913C91D0
:105370001197CD010296820F931F2091CA0430919C
:10538000CB042817390739F6309751F51092CD0420
:105390001092CC04B093CB04A093CA04BCCFD383A7
:1053A000C28340815181840F951FC817D90761F4CA
:1053B0004E5F5F4F88819981480F591F5183408309
:1053C0008A819B81938382832115310509F0B0CFB7
:1053D000F093CD04E093CC049ECFFD01DC01C0CF5F
:1053E00013821282D7CFFB01DC0105900D920020C1
:1053F000E1F70895F999FECF92BD81BDF89A9927FA
:1054000080B50895262FF999FECF1FBA92BD81BDB0
:1054100020BD0FB6F894FA9AF99A0FBE0196089536
:10542000A1E21A2EAA1BBB1BFD010DC0AA1FBB1FA8
:10543000EE1FFF1FA217B307E407F50720F0A21B1A
:10544000B30BE40BF50B661F771F881F991F1A9487
:1054500069F760957095809590959B01AC01BD01B1
:10546000CF010895EE0FFF1F0590F491E02D0994F0
:105470005058BB27AA270E94502A0C94DA2B0E946E
:10548000CC2B38F00E94D32B20F039F49F3F19F435
:1054900026F40C94C92B0EF4E095E7FB0C949A2BA0
:1054A000E92F0E94EB2B58F3BA17620773078407A2
:1054B000950720F079F4A6F50C94252C0EF4E095D0
:1054C0000B2EBA2FA02D0B01B90190010C01CA01BE
:1054D000A0011124FF27591B99F0593F50F4503E69
:1054E00068F11A16F040A22F232F342F4427585F5B
:1054F000F3CF469537952795A795F0405395C9F773
:105500007EF41F16BA0B620B730B840BBAF091502A
:10551000A1F0FF0FBB1F661F771F881FC2F70EC0C9
:10552000BA0F621F731F841F48F48795779567959C
:10553000B795F7959E3F08F0B0CF9395880F08F088
:105540009927EE0F9795879508950E940D2C90F05E
:105550009F3748F4911116F40C94262C60E070E00B
:1055600080E89FE3089526F01B16611D711D811DC3
:105570000C94A02B0C94BB2B0E94D02A0C94DA2BF9
:105580000E94D32B58F00E94CC2B40F029F45F3FAF
:1055900029F00C949A2B51110C94262C0C94C92BA5
:1055A0000E94EB2B68F39923B1F3552391F3951BDC
:1055B000550BBB27AA2762177307840738F09F5F34
:1055C0005F4F220F331F441FAA1FA9F335D00E2EA1
:1055D0003AF0E0E832D091505040E695001CCAF70E
:1055E0002BD0FE2F29D0660F771F881FBB1F2617D1
:1055F00037074807AB07B0E809F0BB0B802DBF01A8
:10560000FF2793585F4F3AF09E3F510578F00C9476
:105610009A2B0C94262C5F3FE4F3983ED4F38695A6
:1056200077956795B795F7959F5FC9F7880F911D97
:105630009695879597F90895E1E0660F771F881F83
:10564000BB1F621773078407BA0720F0621B730B36
:10565000840BBA0BEE1F88F7E09508950E94F32B98
:1056600088F09F5798F0B92F9927B751B0F0E1F023
:10567000660F771F881F991F1AF0BA95C9F714C0D3
:10568000B13091F00E94252CB1E008950C94252CA6
:10569000672F782F8827B85F39F0B93FCCF386950C
:1056A00077956795B395D9F73EF490958095709569
:1056B00061957F4F8F4F9F4F0895E89409C097FBE6
:1056C0003EF490958095709561957F4F8F4F9F4FD9
:1056D0009923A9F0F92F96E9BB279395F69587951D
:1056E00077956795B795F111F8CFFAF4BB0F11F4E0
:1056F00060FF1BC06F5F7F4F8F4F9F4F16C0882387
:1057000011F096E911C0772321F09EE8872F762FBC
:1057100005C0662371F096E8862F70E060E02AF0FD
:105720009A95660F771F881FDAF7880F96958795E9
:1057300097F9089597F99F6780E870E060E0089511
:10574000882371F4772321F09850872B762F07C098
:10575000662311F499270DC09051862B70E060E00C
:105760002AF09A95660F771F881FDAF7880F9695AB
:10577000879597F908959F3F31F0915020F48795D0
:1057800077956795B795880F911D9695879597F9A9
:1057900008959FEF80EC089500240A9416161706CA
:1057A00018060906089500240A9412161306140612
:1057B00005060895092E0394000C11F4882352F075
:1057C000BB0F40F4BF2B11F460FF04C06F5F7F4F2D
:1057D0008F4F9F4F089557FD9058440F551F59F014
:1057E0005F3F71F04795880F97FB991F61F09F3FCE
:1057F00079F087950895121613061406551FF2CFF7
:105800004695F1DF08C0161617061806991FF1CF46
:10581000869571056105089408950E94F32BA0F008
:10582000BEE7B91788F4BB279F3860F41616B11D80
:10583000672F782F8827985FF7CF8695779567959C
:10584000B11D93959639C8F30895E894BB27662750
:105850007727CB0197F9089516F00C94BB2B0C9485
:10586000C92B68940C949A2B0E94F32BA8F39923CC
:10587000C1F3AEF3DF93CF931F930F93FF92C92F22
:10588000DD2788232AF02197660F771F881FDAF714
:1058900020E030E040E85FEB9FE3883920F0803E75
:1058A00038F021968F770E94392AE8E6F0E004C0AC
:1058B0000E94392AE5E9F0E00E94E92C8B01BE0143
:1058C000EC01FB2E6F5771097595771F880B990BAB
:1058D0000E945F2B28E132E741E35FE30E948F2CB7
:1058E000AF2D9801AE01FF900F911F91CF91DF91E5
:1058F0000E94502A0C94DA2B0E948F2C0C94DA2BE5
:105900000E94CC2B38F00E94D32B20F0952311F06D
:105910000C949A2B0C94C92B11240C94262C0E94C5
:10592000EB2B70F3959FC1F3950F50E0551F629FCD
:10593000F001729FBB27F00DB11D639FAA27F00DE8
:10594000B11DAA1F649F6627B00DA11D661F829F0F
:105950002227B00DA11D621F739FB00DA11D621FF4
:10596000839FA00D611D221F749F3327A00D611D11
:10597000231F849F600D211D822F762F6A2F1124F3
:105980009F5750409AF0F1F088234AF0EE0FFF1F26
:10599000BB1F661F771F881F91505040A9F79E3F7D
:1059A000510580F00C949A2B0C94262C5F3FE4F365
:1059B000983ED4F3869577956795B795F795E795D3
:1059C0009F5FC1F7FE2B880F911D9695879597F9DC
:1059D0000895DF93CF931F930F93FF92EF92DF927F
:1059E0007B018C01689406C0DA2EEF010E948F2C97
:1059F000FE01E894A5912591359145915591A6F325
:105A0000EF010E94502AFE019701A801DA9469F77C
:105A1000DF90EF90FF900F911F91CF91DF9108954C
:045A2000F894FFCF28
:105A2400017017FA00A00F88130101340000CE049E
:105A34008000000306080A00000000091F691E9682
:105A44001E561FC71EA51EB91EF13BED3B0A850855
:105A54003D04006801DC3BD63BCDCC4C3D060068E0
:105A640001C53BBD3B488A883D08006801AD3B3514
:105A74003B0000803F78006801223B323A000080FE
:105A84003FF000D002133A23390000803FF000D0E9
:105A9400021339CB389A99193F48006801BB388BF7
:105AA400380000003F3000680172386238488A8844
:105AB4003D1000D0024E383E38A987083E100068D9
:105AC400012B3807389A99193E2400D002F3376322
:105AD400379A99193F9000D0024837F836E3AA2A3A
:105AE4003F50006801CB36C2369A99193E0900D05E
:105AF4000299368136CDCC4C3E1800680166369644
:105B04003300004040D002D00289335933CDCCCC8D
:105B14003E300068014233FA329A99193F480068CE
:105B240001E3329B329A99193F480068018432F4A8
:105B3400319A99193F9000D002E03198319A99191D
:105B44003F480068018031F0309A99193F9000D0A5
:105B540002D73047309A99193F9000D0022F30DF96
:105B64002F3BAAAA3E5000D002CA2FFA2C0000C034
:105B740040D002D002E22CF22B0000803FF000D093
:105B840002D42B8C2B9A99193F48006801782B4832
:105B94002BCDCC4C3E3000D0021D2B8D2A9A991966
:105BA4003F9000D002642A942700004040D002D0E5
:105BB400026B279B2400004040D002D0027224A232
:105BC4002100004040D002D0027E21EE209A999913
:105BD4003F9000D002D320031E00004040D002D0EA
:105BE40002E71D171B00004040D002D002EB1AA3AD
:105BF4001A9A99993E4800D0026D1A2D1AF888888D
:105C04003E4000D002061AFE190A85883D0800D0DD
:105C140002D719CB19CDCCCC3D0C00D002A41994D9
:105C240019A987083E1000D0026E198E1700008053
:105C340040E001D0026E1706160000C03F6801D094
:105C440002E01550159A99193F9000D0023315FBC4
:105C5400100000C03F3804D002E41054109A99197F
:105C64003F9000D0023F1021100000803F1E00D062
:105C740002FA0F6A0FCDCC4C3F900068015E0FCE44
:105C84000E9A99193F9000D002B50E250E9A9919D3
:105C94003F9000D0020C0E7C0D9A99193F9000D0D1
:105CA40002630D930A00004040D002D0028D0AD94D
:105CB400098941C03FB400D002D00940099A99191A
:105CC4003F9000D0023509650600004040D002D064
:105CD400025506C5059A99193F9000D002B90529C5
:105CE40005FA7EAA3E9000D0021C058C04FA7EAA16
:105CF4003E9000D0027E0436049A99193F48006809
:105D0400012C04C4020000C03F6801D002BC02CCD4
:105D1400010000803FF000D002B201C20000008008
:0A5D24003FF000D0020D0A002C0031
:00000001FF
