:100000000C94091F0C94311F0C94311F0C94311F58
:100010000C94311F0C94311F0C94311F0C94311F20
:100020000C94311F0C94311F0C94311F0C947D22C1
:100030000C94311F0C94311F0C94311F0C94311F00
:100040000C94DB210C94311F0C944B220C94252230
:100050000C94311F0C940B230C94311F0C94311F02
:100060000C94311F0C94311F0100010001000100AC
:100070000100010001000302030201000100010070
:100080000100010001000100010001000100010068
:100090000100010001000100010001000100010058
:1000A000010001000100010001000100000000004A
:1000B0000100010001000100010001000100010038
:1000C0000100010001000100010001000100010028
:1000D0000100010001000100010001000100010018
:1000E0000100010001000100010001000100010008
:1000F000010001000000000033362D3220776974C2
:1001000068203120746F6F74682063616D00020293
:1001100002020202030302020202030302020202BB
:1001200002020202020202020202020203030202AD
:10013000020203030202020202020202020202029D
:10014000020202020303020202020303020202028B
:10015000020202020202020202020202030302027D
:10016000020203030202020202020202020202026D
:10017000020202020303020202020303020202025B
:100180000202020202020000000000000101000061
:10019000000001010000000000000000000000005D
:1001A000000000000101000000000101000000004B
:1001B000000000000000000000000000010100003D
:1001C000000001010000000000000000000000002D
:1001D000000000000101000000000101000000001B
:1001E000000000000000000000000000010100000D
:1001F0000000010100000000000000000000446F4A
:100200006467652056697065722056313020313937
:1002100039362D323030320001000100010001007A
:1002200001000100010001000100010001000100C6
:10023000010001000100070607060706070607067A
:100240000706070607060100010001000100010082
:100250000100010001000100010001000100010096
:100260000100010001000100010001000100010086
:100270000100070607060706070607060706070622
:100280000706070607060706070607060606060608
:1002900007060706070607060706070607060706F6
:1002A00007060706070607060706070607060100F2
:1002B000010001000100010001000100070607061E
:1002C00007060706070607060706070607060706C6
:1002D00007060706070607060706070607060706B6
:1002E00007060706070607060706010001000100CA
:1002F00001000100010001000100010001000100F6
:100300000100010000000000424D57204E32300035
:1003100000000000000000000000000000000000DD
:1003200000000000000000000000000100000000CC
:1003300000000000000100000000000000000001BB
:1003400000000000000000000001000000000000AC
:10035000000000000000000000020202020202028F
:10036000020202020202020302020202020202026C
:10037000020302020202020202020203020202025B
:10038000020202020203020202020202020202024C
:10039000020202020202020202020202020202023D
:1003A000020202030202020202020202020302022B
:1003B000020202020202020302020202020202021C
:1003C000020302020202020202020202020202020C
:1003D00002020202020202020202020202020203FC
:1003E00002020202020202020203020202020202EC
:1003F00002020203020202020202020202030202DB
:1004000002020202020202020202020202000000D2
:1004100000000000000000000000000100000000DB
:1004200000000000000100000000000000000001CA
:1004300000000000000000000001000000000000BB
:1004400000000000000000000000000000000000AC
:10045000000000000000000100000000000000009B
:10046000000100000000000000000001000000008A
:1004700000000000000100004A6565702032303045
:100480003000010101010101020202020000030328
:100490000303030302020000000001010101010146
:1004A0000000000000000101010101010000000046
:1004B0000000010101010101000000000000010134
:1004C0000101010100000000000053757A756B699D
:1004D0002044525A34303000010102000000000074
:1004E000000000000101000000000000000000000A
:1004F00001010000000000000000000001010000F8
:1005000000000000000000000101000000000000E9
:1005100000000000010100000000000000000000D9
:1005200001010000000000000000000001010000C7
:1005300000000000000000000101000000000000B9
:1005400000000000010100000000000000000000A9
:100550000101000000000000000000000101000097
:100560000000000000000000546F796F74612034B7
:1005700041475A450001010202000000000000004E
:10058000000000000000000000000000000000006B
:100590000000000000000000000101000000000059
:1005A000000000000000000000000000000000004B
:1005B0000000000000000000000000000001010039
:1005C000000000000000000000000000000000002B
:1005D000000000000000000000000000000000001B
:1005E0000001010000000000000000000000000009
:1005F00000000000000000000000000000000000FB
:100600000000000000546F796F7461203441474549
:1006100000010001000100010001000100010001D2
:1006200000010001000200010001000100010001C1
:1006300000010001000100010001000100000001B3
:1006400000010001000100010001000100010001A2
:100650000001000100020002000100010001000190
:100660000001000100010001000100010000000183
:100670000001000100010001000100010001000172
:100680000001000100020001000100010001000161
:100690000001000100010001000100010000000054
:1006A000004D69747375626973686920334139322A
:1006B0000000010101010000000000000000000036
:1006C0000000000101010101010100000000000122
:1006D0000101010100000000000101010101000011
:1006E0000000010101010100000000000101010101
:1006F00001000000000003030303030202020202E0
:1007000003030303030202020202030303030302BF
:1007100002020202030303030100000000000101C2
:1007200001010100000000000101010101000000C1
:1007300000000101010101000000000001010101B0
:1007400001000000000001010101010000000000A3
:100750000101010103020202020203030303030277
:100760000202020203030303030202020202030362
:10077000030101000000000001010101010000006F
:100780000000010101010100000000000101010160
:100790000100000000000101010101000000000053
:1007A0000101010101000000000001010103030239
:1007B0000202020203030303030202020202030312
:1007C000030303020202020203030301010100000A
:1007D000000001010101010100000000010101010F
:1007E0000101000000000001010101010000000002
:1007F00000010101010100000000000101010101EF
:1008000000000000000101010101000000000001E2
:1008100001010101000000000001010101010000CF
:1008200000000000000000000000000001010101C4
:1008300001010000000000010101010100000000B1
:10084000000101010101000000000001010101019E
:100850000000000000010101010100000000000390
:10086000030303030202020202030303030302025F
:100870000202020303030303020202020203030350
:10088000030100000000000101010101000000005F
:10089000000101010101000000000001010101014E
:1008A0000100000000010101010101000000000041
:1008B000010101010100000000000101010101002E
:1008C0000000000001010101010000000000010121
:1008D0000101010000000000010101010100000010
:1008E00000000101010101000000000001010101FF
:1008F00001000000000001010101010000000000F2
:1009000001010101010000000000010101010100DD
:1009100000000000010303030302020202020303BA
:10092000030303020202020203030303030302029E
:1009300002020303030101010000000000010101A4
:1009400001010000000000010101010100000000A0
:10095000000101010101000000000001010101018D
:100960000000000000010101010100000000000181
:10097000010101010000000000010101010100006E
:1009800000466F726420535431373000000000007D
:100990000000000000000002020202020202020245
:1009A000020303020203030202030302020303021F
:1009B0000202020202000000000000010101010128
:1009C000010101010101010000010100000101001C
:1009D0000001010000000000000000000000000213
:1009E00002020202020202020203030202030302E3
:1009F00002030302020303020202020202020202D3
:100A000002020203030303030301010101010100C8
:100A100000010100000101000001010044534D20CC
:100A200034323061000000000000000000000000CF
:100A300000000000000000000000010100000000B4
:100A400000000000000000000000000000000000A6
:100A50000000000000000000010100000001010092
:100A60000000000000000000000000000000000086
:100A70000000000000000101000000000000000074
:100A80000000000000000000000000000000000066
:100A90000000000001010000000000000000000054
:100AA0000000000000000000000000000000000046
:100AB0000000010100000000000000000000000034
:100AC0000000000000000000000000000000000026
:100AD000010100000000000000474D2037580000D1
:100AE00000000000020202000000020202000000FA
:100AF00002020200000000000000000000000000F0
:100B000000000000000000000000000000000000E5
:100B100000000000000000000000000000000000D5
:100B200000000000000000000000000000000000C5
:100B300000000101010000000000000000000000B2
:100B400000000000000000000000000000000000A5
:100B50000000010101000000000000000000000092
:100B60000000000000000000000000000000000085
:100B70000000000000000000000000000000000075
:100B80000000000000000000000101010000000062
:100B90000000000000000000000000000000000055
:100BA000000000000000000202020000000000003F
:100BB0000000000000000000000000000000000035
:100BC0000000000000000000000000000000000025
:100BD0000000000000000000000000000000000015
:100BE0000000000000000101010000000000000002
:100BF00000000000000000000000000000000000F5
:100C000000000000000001010100000000000000E1
:100C100000000000000000000000000000000000D4
:100C200000000000000000000000000000000000C4
:100C300000000000000000000000000000010101B1
:100C400000000000000000000000000000000000A4
:100C5000000000000000000000000002020200008E
:100C6000000202020000000000000000000000007E
:100C70000000000000000000000000000000000074
:100C80000000000000000000000000000000000064
:100C90000000000000000000000001010100000051
:100CA0000000000000000000000000000000000044
:100CB0000000000000000000000001010100000031
:100CC0000000000000000000000000000000000024
:100CD0000000000000000000000000000000000014
:100CE0000000000000000000000000000000000004
:100CF00000010101000000000000000000000000F1
:100D000000000000000000000000000000000002E1
:100D100002020000000000000000000000000000CF
:100D200000000000000000000000000000000000C3
:100D300000000000000000000000000000000000B3
:100D400000000000000000000000000000000101A1
:100D50000100000000000000000000000000000092
:100D60000000000000000000000000000000010181
:100D70000100000000000000000000000000000072
:100D80000000000000000000000000000000000063
:100D90000000000000000000000000000000000053
:100DA00000000000000101010000000000000053ED
:100DB000756261727520362F37206372616E6B2009
:100DC000616E642063616D0000000100000100009D
:100DD000010000010000010000010000010000010D
:100DE00000000100000100000100000100000100FE
:100DF00000010000010000010000010000010000EE
:100E000001000001000001000001000001000001DC
:100E100000000100000100000100000100000100CD
:100E200000010000010000010000010000010000BD
:100E300001000001000001000001000001000001AC
:100E40000000010000010202030202010000010093
:100E5000000100000100000132342F31202832341B
:100E6000206372616E6B20776974682063616D29FD
:100E70000000000000000100000000000100000070
:100E8000000001000000000001000000000001005F
:100E90000000000001000000000001000000000050
:100EA000010000000000010000000000010000003F
:100EB000000001000000000001000000000001002F
:100EC0000000000001000000000001000000000020
:100ED000010000000000010000000000010000000F
:100EE00000000100000000000100000000000102FD
:100EF00002020202010000000000010000000000E8
:100F00000131322F3120283132206372616E6B2023
:100F1000776974682063616D29000000000000009B
:100F200002020000000000000000000000010100BB
:100F300000000000000000000000000101000000AF
:100F400000000000000000000000000000000000A1
:100F5000000101000000000000000000000000018E
:100F60000100000002020000020200000000000078
:100F7000000000000001010000000000000000006F
:100F8000000000010100000000000000000000005F
:100F9000000000000000000000010100000000004F
:100FA000000000000000000101004D696174612033
:100FB00039392D3035000101000000000101000029
:100FC0000000000000000000000000000000000021
:100FD0000000000000000000000000000000000011
:100FE00000000000000001010000000000000000FF
:100FF00000000000000000000000000000000000F1
:1010000000000000000000000000000000000000E0
:1010100000000000000001010000000000000000CE
:1010200000000000000000000000000000000000C0
:1010300000000000000000000000000000000000B0
:10104000000000000000446169686174737520331A
:101050002B31206469737472696275746F72202811
:10106000332063796C696E64657273290000000037
:10107000000002000001000000000001000000006C
:1010800000020002010000000000014D617A64616D
:10109000203332332041552076657273696F6E00BC
:1010A000010000000000010000000000010000003D
:1010B000000001000000000001000000000001002D
:1010C000000000000100000000000100000000001E
:1010D000010000000000010000000000010000000D
:1010E00000000100010000000100000000000100FC
:1010F00000000000010000000000010000000000EE
:1011000001000000000001000000000001000000DC
:1011100000000100000000000100000000000100CC
:1011200000000000010000000000010001000000BC
:10113000486F6E646120443137204372616E6B20CA
:101140002831322B31290003030202030302020378
:101150000302000101000001010000010100000183
:101160000100000101000001010000010100000177
:101170000100000101000001010000010100000167
:101180000100000101000001010000010100000157
:101190000100000101000001010000010100000147
:101570000100000101000001010000010100024121
:101580007564692031333520746F6F74682063721D
:10159000616E6B20616E642063616D000202020265
:1015A000020202020202020000000000000000002D
:1015B000000101010101010101010101010101001D
:1015C000000000000000000000000000000000001B
:1015D00000000202020303030303030303030303E4
:1015E00001010100000000000000000000000000F8
:1015F00000000000000000000001010101010101E4
:1016000001010101010101000000000000000000D3
:1016100000000000000000000000000002030303BF
:101620000303030303030303030303024D697473FA
:10163000756269736869203467363320616B612095
:10164000342F32206372616E6B20616E642063619F
:101650006D00010100000001010000000101000017
:101660000001010000000101000000010100000074
:10167000010100000001030202020303020202034F
:101680000100000001010000000000000000000057
:101690000000000103020202020202020202000034
:1016A0000000010100000001010000000101000034
:1016B0000001010000000101000000010100000024
:1016C0000101000000010100000001010000000113
:1016D00003020202030302020203010000000101EF
:1016E00000000000000000000000000000010302F4
:1016F00002020303020202030100000001010000D4
:1017000000010100000001010000000101000000D3
:1017100001010000000101000000010100000001C2
:1017200001000000010100000001010000000101B2
:1017300000000001010000000101000000000000A5
:101740000000000000000001030202020202020287
:101750000202000000000101000000010100000081
:101760000101000000010100000001010000000172
:101770000100000001010000000101000000010162
:101780000000000101000000010100000001010053
:101790000000010100000000000000000000000047
:1017A000000103020202030302020203010000001F
:1017B000010100000001010000004D617A64612018
:1017C00033362D322D322D32207769746820362041
:1017D000746F6F74682063616D0000010101000186
:1017E00001010001010100010101000101010001ED
:1017F00001010001010100010101000101010001DD
:1018000001010001010100010101020101010001CA
:1018100001010001010100010101000101010201BA
:1018200001010101010101010101000101010001AA
:10183000010100010101000101010001010100019C
:10184000010100010101000101010001010100018C
:10185000010100010101000101010001010100017C
:10186000010100010101000101010001010102016A
:10187000010101010101010101010001010100015A
:10188000010100010101000101010001010100014C
:10189000010100010101000101010001010100013C
:1018A000010100010101000101010001010100012C
:1018B000010100010101000101010001010102011A
:1018C000010101010101010101010001010100010A
:1018D00001010001010100010101000101010001FC
:1018E00001010001010100010101000101010001EC
:1018F00001010001010100010101000101010001DC
:1019000001010001010100010101000101010201C9
:1019100001010101010101010101000101010001B9
:1019200001010001010100010101000101010001AB
:10193000010100010101000101010001010100019B
:10194000010100010101000101010001010100018B
:101950000101000101010001010100010101020179
:101960000101010101010101010100010101000169
:10197000010100010101000101010001010100015B
:10198000010100010101000101010001010100014B
:10199000010100010101000101010001010100013B
:1019A0000101000101010001010100010101020129
:1019B00001010101010101010101566F6C766F20E7
:1019C0006431325B6163645D206372616E6B2077AA
:1019D000697468203720746F6F74682063616D00CC
:1019E00001000100010001000302030203020302DF
:1019F000474D2038206576656E2D746F6F746820B2
:101A00006372616E6B2077697468203120746F6F28
:101A100074682063616D000100010001000302038E
:101A2000020302474D2036206576656E2D746F6F78
:101A30007468206372616E6B20776974682031204E
:101A4000746F6F74682063616D0001000100030210
:101A50000302474D2034206576656E2D746F6F74D8
:101A600068206372616E6B2077697468203120741E
:101A70006F6F74682063616D00000000010000005A
:101A80000100000001000000010000000100000052
:101A9000010000000100000001000202030200003A
:101AA0000100000001000000010000000100000032
:101AB00001000000010000000159616D61686120B2
:101AC000323030322D303320523120382065766567
:101AD0006E2D746F6F7468206372616E6B2077690E
:101AE0007468203120746F6F74682063616D000129
:101AF00000000100000100000100000100000100E1
:101B000000010000010000010000010000030202CA
:101B100002020203000001000001000001000001B8
:101B200000000100000100000100000100000100B0
:101B3000000100000000004D617A646120434153C0
:101B40002032342D3220776974682073696E676C97
:101B5000652070756C7365206F757465722072698D
:101B60006E67000201000100010001000302030290
:101B7000030203020302030203020302030203023D
:101B8000030203020302030203020302030203022D
:101B9000030203020302030203020302030203021D
:101BA000030203020302030203020302030203020D
:101BB00003020302030203020302030203020302FD
:101BC00003020302030203020302030203020302ED
:101BD00003020302030203020302030201000100E5
:101BE00001000100010001000100010003020302E5
:101BF00003020302030203020302030203020302BD
:101C000003020302030203020302030203020302AC
:101C1000030203020302030203020302030203029C
:101C2000030203020302030203020302030203028C
:101C3000030203020302030203020302030203027C
:101C4000030203020302030203020302030203026C
:101C50000302030201000100010001000100010074
:101C60000100010001000100010001000302030264
:101C7000030203020302030203020302030203023C
:101C8000030203020302030203020302030203022C
:101C9000030203020302030203020302030203021C
:101CA000030203020302030203020302030203020C
:101CB00003020302030203020302030203020302FC
:101CC00003020302030203020302030201000100F4
:101CD00001000100010001000100010001000100FC
:101CE00001000100010001000100010003020302E4
:101CF00003020302030203020302030203020302BC
:101D000003020302030203020302030203020302AB
:101D1000030203020302030203020302030203029B
:101D2000030203020302030203020302030203028B
:101D3000030203020302030203020302030203027B
:101D40000302030201000100010001000100010083
:101D5000010001000100010001000100010001007B
:101D60000100010001000100010001000302030263
:101D7000030203020302030203020302030203023B
:101D8000030203020302030203020302030203022B
:101D9000030203020302030203020302030203021B
:101DA000030203020302030203020302030203020B
:101DB0000302030203020302030203020100010003
:101DC000010001000100010001000100010001000B
:101DD00001000100010001000100010001000100FB
:101DE00001000100010001000100010003020302E3
:101DF00003020302030203020302030203020302BB
:101E000003020302030203020302030203020302AA
:101E1000030203020302030203020302030203029A
:101E2000030203020302030203020302030203028A
:101E30000302034E697373616E20333630204341D1
:101E4000532077697468203620736C6F74730002B6
:101E50000202020202020202020202020202020262
:101E60000202020202020202020202020202020252
:101E70000202020202020200000000000000000054
:101E80000000000000000000000000020202020248
:101E90000202020202020202020202020202020222
:101EA000020203030303030202020202020202020D
:101EB0000202020202020202020202020202020202
:101EC00002020303030303020202020202020202ED
:101ED00002020202020202020202020202020202E2
:101EE00002020202020202020202020202020202D2
:101EF00002020202020202020203030303030202BD
:101F000002020202020202020202020202020202B1
:101F100002020202020202020202020202020202A1
:101F20000202020202020202020202020202020291
:101F30000202020202000000000000000000000097
:101F40000000000000000000000000000000000091
:101F5000000000000000010101010100000000007C
:101F60000000000000000000000000000000000071
:101F7000000000000000010101010100000000005C
:101F80000000000000000000000000000000000051
:101F90000000000000000000000000000000000041
:101FA000000000000000000000000000000101012E
:101FB000010100000000000000000000000000001F
:101FC0000000000000000000000000000000000011
:101FD00000000000000000000000000000000002FF
:101FE00002020202020202020202020202020202D1
:101FF00002020200000000000000000000000000DB
:1020000000000000000000000000010101010100CB
:1020100000000000000000000000000000000000C0
:1020200000000000000000000000010101010100AB
:1020300000000000000000000000000000000000A0
:102040000000000000000000000000000000000090
:102050000000000000000000000000000000000080
:10206000000101010101000000000000000000006B
:102070000000000000000000000000000000000060
:102080000000000000000000000000000000000050
:10209000000000000000000000000000000202023A
:1020A0000202020202020202020202020202020210
:1020B00002020202020202020202020202020303FE
:1020C00003030302020202020202020202020202ED
:1020D00002020202020202020202020202020303DE
:1020E00003030302020202020202020202020202CD
:1020F00002020202020202020202020202020202C0
:1021000002020202020202020202020202020202AF
:102110000202020202030303030302020202024656
:1021200069617420312E3820313656206372616E19
:102130006B20616E642063616D0000000000000090
:10214000000000000000000000000101000000008D
:102150000202020200000000000000000101000075
:10216000000000000000000000000000000001016D
:102170000000000002020202000000000000000057
:10218000010100000000000000000000000000004D
:10219000000001010000000000000000000000003D
:1021A000000000000101000000000000000000002D
:1021B000000000000000010100000000000000001D
:1021C0000000000000000000010157656265722DEB
:1021D0004D6172656C6C692038206372616E6B2B87
:1021E000322063616D207061747465726E0000004E
:1021F00000000000000000000000000000000000DF
:1022000000000000000000010101010100000000C9
:1022100000010101010100000000000101010101B4
:1022200000000000000101010101000000000001A8
:10223000010101010000000000010103030302028B
:102240000202020101010101000000000001010180
:102250000101000000000001010101010000000077
:102260000001010101010000000000010101010164
:102270000000000000010101010100000000000158
:102280000101010100000000000101010101000045
:102290000000000101030303020202020201010126
:1022A0000101000000000001010103030303030317
:1022B000030301010101010101010101010101010A
:1022C0000000000000010101010100000000000108
:1022D00001010101000000000001010101010000F5
:1022E00000000001010101010000000000010103E4
:1022F00003030202020202010101010100000000C9
:1023000000010101030302020202020301010101B3
:1023100000000000000101010103020202020203A9
:1023200003010101000000000001010101010000A2
:102330000000000101010101000000000001010195
:102340000101000000000001010303030202020278
:102350000201010101010000000000000000020272
:102360000202020202020000000000000000000160
:102370000101010100000000000101010101000054
:102380000000000101010101000000000001010145
:102390000101000000000001010101010000000036
:1023A0000001010303030202020202010101010113
:1023B0000000000000010101030302020202020307
:1023C0000101010100000000000101010101000004
:1023D00000000001010101010000000000010101F5
:1023E00001010000000000010101010100000000E6
:1023F00000010101010100000000000101030303CD
:1024000002020202020101010101000000000001BC
:1024100001010101010101010101010101010101AC
:1024200001010101010101010000000000010101A1
:102430000101000000000001010101010000000095
:102440000001010101010000000000010101010182
:102450000000000000010103030302020202020166
:10246000010101010000000000010101030302025B
:10247000020202030101010100000000000101014C
:102480000103020202020203030101010000000035
:102490000001010101010000000000010101010132
:1024A0000000000000010101010100000000000126
:1024B0000103030302020202020101010101436858
:1024C0007279736C6572204E47432033362D322B60
:1024D00032206372616E6B2C204E474320382D638F
:1024E000796C2063616D00020200000000000000B2
:1024F00000000000020202020202020202020000C8
:1025000001010101010000000002030303030302B3
:1025100002020200010101010100000000000101AE
:1025200001010100000000000101010101000000A3
:102530000000010101010100000000000101010192
:102540000100000000000101010101000000000085
:10255000010101010100000202020303030303025F
:102560000200000001010101010000000000010162
:102570000101010000000000010101010100000053
:102580000000010101010100000000000101010142
:102590000100000000000101010101000000000035
:1025A000010101010101010101010101010101011B
:1025B0000101010101010101010000000000010110
:1025C0000101010000000000010101010100000201
:1025D00002020303030303020200000001010101E0
:1025E00001000000020203030303030202020000D1
:1025F00001010101010000000000010101010100D1
:1026000000000000010101010100000000000101C3
:1026100001010100000000000101010101000000B2
:1026200000000101010101000000000001010101A1
:102630000100000000000101010101000000000094
:10264000010101010100000202020303030303026E
:102650000200000000000000000000000202020270
:102660000202020202020000010101010100000059
:10267000000203030303030202020200010101013D
:102680000100000000000101010101000000000044
:102690000101010101000000000001010101010030
:1026A0000000000001010101010000000000010123
:1026B0000101010000000000010101010100000210
:1026C00002020303030303020200000001010101EF
:1026D00001000000020203030303030202020000E0
:1026E00001010101010000000000010101010100E0
:1026F00000000000010101010100000000000101D3
:1027000001010100000000000101010101010101BE
:1027100001010101010101010101010101010101A9
:1027200001000000000001010101010000000000A3
:10273000010101010100000202020303030303027D
:102740000200000001010101010000000000010180
:102750000101010000000000010101010100000071
:102760000000010101010100000000000101010160
:102770000100000000000101010101000000000053
:10278000010101010100000000000101010101003F
:102790000000000001010101010000000000010132
:1027A000010101000000000001010101010000021F
:1027B0000202030303030343687279736C6572209A
:1027C0004E47432033362D322B32206372616E6BBD
:1027D0002C204E474320362D63796C2063616D00B9
:1027E00000000000000101010101010101010101DE
:1027F00001010101010101010103030303030202BD
:1028000002020203030303030202020202030303A0
:102810000303020202020203030303030200000097
:10282000000101010101000000000001010101019E
:102830000000000000010101010100000000000192
:102840000103030302020202020303030303020261
:102850000202020303030303020202020203030350
:102860000303020202000001010101010000000057
:10287000000101010101000000000001010101014E
:102880000000000000010101010302020202020334
:102890000303030302020202020202020202020214
:1028A0000202020202020202020202020203030305
:1028B00003030202020202030303030302020202F1
:1028C00002030303030302020202020303030303DE
:1028D00002020202020303030303020202020203D2
:1028E00003030303020202020203030303030202BF
:1028F00002020203030303030202020202030303B0
:1029000003030202020202030303030302020202A0
:10291000020303030303020202000001010101019B
:1029200000000000000101010101000000000001A1
:102930000101010100000000000101010103020288
:10294000020202030303030302020202020303035F
:102950000303030303030303030303030303030347
:10296000030101010101000000000001010101015A
:102970000000000000010101010100000000000151
:102980000101010100020202020303030303020228
:10299000020202030303030302020202020303030F
:1029A000030302020202020303010101000000000E
:1029B000000101010101000000000001010101010D
:1029C00000000000000101010101000000020203FB
:1029D00003030303020202020203030303030202CE
:1029E00002020203030303030202020202030303BF
:1029F00003010000000000010101010100000000CE
:102A000000000000000000000000000000000000C6
:102A100000000000000101010101000000000001B0
:102A2000010101010000000000010101010100009D
:102A3000000000010101010100000000000101018E
:102A4000010100000000000101010101000000007F
:102A5000000101010101000000000001010101016C
:102A60000000000000010101010100000000000160
:102A7000010101010000000000010101010100004D
:102A80000002020303030303020202020203030320
:102A9000030302020202020303030303020202020F
:102AA0000203030303010000000000010101010112
:102AB00043687279736C6572204E47432033362B1E
:102AC000322D32206372616E6B2C204E47432034CE
:102AD0002D63796C2063616D00010001000100012C
:102AE00000010001000100010001000100010001DE
:102AF00000010001000100010001000100010001CE
:102B000000010001000100010001000100010001BD
:102B100000010001000100010003020302010000A6
:102B2000000100010001000100010001000100019D
:102B3000000100010001000100010001000100018D
:102B4000000100010001000100010001000100017D
:102B5000000100010001000100010001000100016D
:102B600000010001000100000033362D31206372A6
:102B7000616E6B207769746820326E6420747269AC
:102B800067676572206F6E207465657468203333E3
:102B90002D33340000010001000100010001000399
:102BA000000100010001000100010001000100011D
:102BB0000001000300010003000100010001000109
:102BC00000010001486F6E64612052433531207767
:102BD0006974682063616D0001000100010001005B
:102BE00001000100010001000100010001000100DD
:102BF00001000000010001000000010001000100CF
:102C000001000100010001000100010001000100BC
:102C100001000100010000000100010001000000AE
:102C20004F6464204C6F7475732033362D312D3111
:102C30002D312D3120666C79776865656C00010057
:102C40000100030203020302030203020302010064
:102C5000010001000100010001000100010001006C
:102C6000010001000100010001000100010001005C
:102C70000100010001000100010001000100030248
:102C80000302030203020302030201000100010028
:102C90000100030203020302030203020302030210
:102CA00003020302030203020302030203020302FC
:102CB00003020202020203020302030203020302EE
:102CC00003020302030201000100010001000302EC
:102CD00003020302030203020302030203020302CC
:102CE00003020302030203020302030203020302BC
:102CF00003020302030203020302030203020302AC
:102D000003020100010001000100010001000100B7
:102D100001000100010001000100010001000100AB
:102D20000100010001000100010000000000474D0A
:102D300020353878206372616E6B20616E642034B8
:102D4000782063616D0004000000000000000000B6
:102D50000000010101000000010101010101010168
:102D60000101010100000001010101010101010156
:102D70000101010000000101010101010101010146
:102D80000101000000010101010101010101010136
:102D90000100000001010101010101010101010126
:102DA0000000000000000000000000000101010020
:102DB0000000010101010101010101010101000007
:102DC00000010101010101010101010101000000F7
:102DD00001010101010101010101010100000000E7
:102DE00000000000000000000101010000000000E0
:102DF00000000000000000010101000000010101CD
:102E000001010101010101010100000001010101B5
:102E100001010101010101010000000000000000AA
:102E2000000000000101010000000000000000009F
:102E3000000000010101000000000000000000008F
:102E40000000010101000000010101010101010177
:102E5000010101010000000000000000000000006E
:102E60000101010000000101010101010101010155
:102E7000010100000000000000000000000001014E
:102E8000010000000000000000000000000101013E
:102E9000000000000000000000000000010101002F
:102EA000000000000000000000000001010102021B
:102EB00002020202020202020202030303020202EF
:102EC00003030303030303030303030302020203D5
:102ED00003030303030303030303030202020303C5
:102EE00003030303030303030303020202030303B5
:102EF00003030303030303030302020203030303A5
:102F00000303030303030303020202020202020299
:102F10000202020203030302020203030303030388
:102F20000303030303030202020303030303030374
:102F30000303030303020202030303030303030364
:102F4000030303030202020202020202020202025D
:102F5000030303020202020202020202020202034D
:102F60000303020202030303030303030303030334
:102F70000302020203030303030303030303030324
:102F8000020202020202020202020202030303021E
:102F9000020202020202020202020203030302020E
:102FA00002020202020202020202030303020202FE
:102FB00003030303030303030303030302020202E5
:102FC00002020202020202020303030202020303DC
:102FD00003030303030303030303020202020202C7
:102FE00002020202020203030302020202020202BE
:102FF00002020202020303030202020202020202AE
:10300000020202020303030202020202020202029D
:10301000020202030303474D204C533120637261C7
:103020006E6B20616E642063616D0001010101001F
:10303000000000000001010101000000000000018B
:10304000010101000000000000000000000000007D
:10305000000000000000000001010101000000006C
:103060000000010101010000000000000101010158
:1030700000000000000000000000004275656C6C5C
:10308000204F6464666972652043414D207768650E
:10309000656C00030303030303030303020202023C
:1030A0000200000000000000000001010101010118
:1030B00001030303020202020200000000000000FC
:1030C00000000101010101010101010100000000F6
:1030D00000000000000000020202030303030301DA
:1030E00001010101000000000000000000000000DC
:1030F00000000101010101010103030302020202B8
:1031000002000000000000000000010101010101B7
:1031100001010101000000000000000000000000AB
:103120000202034D697473756269736869203667BA
:10313000373220776974682063616D0001000100F7
:103140000100010001000100010001000100030273
:103150000300010001000100010001000100010065
:103160000100010001000100010001000100010057
:103170000100010001000100010001000100010047
:103180000100000001000100010001000100010038
:10319000030203000100030203000100010001001B
:1031A0000100010001000100010001000100010017
:1031B0000100010001000100010001000100010007
:1031C0000100010001000100010000004D617A646E
:1031D00061204645332033362D31207769746820CD
:1031E00063616D00010101010101010101010100A3
:1031F00001010101010101010101010001000101C1
:1032000001010101010101000101010101010101AF
:10321000010101000101010101010101010101019F
:10322000010001010101010101010100474D2034AC
:10323000323030206372616E6B20776865656C0098
:103240000100000200000100000000000100010078
:103250000100010001000100010001000100010066
:103260000100010001000100010001000002000056
:103270000100010001000100010001000100010046
:103280000100010001000100010000000000010038
:103290000000000001000102010001000100010026
:1032A0000100010001000100010001000100010016
:1032B0000100010000000000010001000100010008
:1032C00001000100010001000100010001000100F6
:1032D00033362D322D322D32204372616E6B2061D8
:1032E0006E642063616D00010001000100010001B6
:1032F00000010001000100010001000100010001C6
:1033000000010001000100010001000100000000B7
:1033100000010001000100010001000100010001A5
:103320000001000100000000000100000000003367
:10333000362D322D322D32204836204372616E6B8D
:10334000206F6E6C79000100010001000100010096
:103350000100010001000100010001000100010065
:103360000000000001000000000001000100010059
:103370000100010001000100010001000100010045
:1033800001000100000000000100010001003336CF
:103390002D322D322D32204834204372616E6B2045
:1033A0006F6E6C7900010000000100000001000058
:1033B0000001000000010000000100000001000009
:1033C00000010000000100000000000000000000FB
:1033D000000000000031322D33206F646462616CA4
:1033E0006C0000010001000100010001000100016A
:1033F00000010001000100010001000100010001C5
:1034000000010001000100010001000100010001B4
:1034100000010001000100010001000100010001A4
:103420000001000100010001000100010001000194
:103430000001000100010001020302030203020374
:103440000203020302030001000100010001000168
:103450000001000100010001000100010001000164
:103460000001000100010001000100010001000154
:103470000001000100010001000100010001000144
:103480000001000100010001000100010001000134
:10349000000102030203000100010001000100011C
:1034A0000001000100010001000100010001000114
:1034B0000001000100010001000100010001000104
:1034C00000010001000100010001000100010001F4
:1034D00000010001000100010001000100010001E4
:1034E00000010001000100010001000102030203CC
:1034F00002030203020302030203020302030203A4
:1035000002030203000100010001000100010001AB
:1035100000010001000100010001000100010001A3
:103520000001000100010001000100010001000193
:103530000001000100010001000100010001000183
:10354000000100010001020302030001000100016B
:103550000001000100010001000100010001000163
:103560000001000100010001000100010001000153
:103570000001000100010001000100010001000143
:103580000001000100010001000100010001000133
:103590000001000100010001000100010001000123
:1035A00002030203020302030203020302030203F3
:1035B00002030203020302030203020302030203E3
:1035C00002030001000100010001000100010001EF
:1035D00000010001000100010001000100010001E3
:1035E00000010001000100010001000100010001D3
:1035F00000010001000100010001020302030001BB
:1036000000010001000100010001000100010001B2
:1036100000010001000100010001000100010001A2
:103620000001000100010001000100010001000192
:103630000001000100010001000100010001000182
:103640000001000100010001000100010001000172
:10365000000100010203020302030203020302034A
:103660000203020302030203020302030203020332
:103670000203020302030203020302030203020322
:103680000001000100010001000100010001000132
:103690000001000100010001000100010001000122
:1036A000000100010001000100010001000102030E
:1036B0000203474D204F707469537061726B204C48
:1036C00054312033363020616E6420380001000010
:1036D00000000000000001000000000000000000E9
:1036E00000000000006F6464206669726520393054
:1036F00020646567207061747465726E203020618B
:103700006E64203133352070756C73657300000072
:1037100000000001010101446973747269627574EB
:103720006F72207374796C6520342063796C203556
:1037300030646567206F66662C20343020646567CE
:10374000206F6E0000010001000100010001000176
:103750000001000100010001000100010001000161
:103760000001000100010001000100010001000151
:103770000001000100010001000100010001000141
:103780000001000100010001000100010001000131
:103790000001000034302D31206372616E6B206FA8
:1037A0006E6C792028466F726420563130290000F3
:1037B0000000000001000000000001000000000007
:1037C00001000000000001000000000001000000F6
:1037D00000000100000000000100000000000100E6
:1037E00000000000010000000000010000000000D7
:1037F00001000000000000000000000001000000C7
:1038000000000100000000000100000000000100B5
:1038100000000000010000000000010000000000A6
:10382000010000000000010000000000010202028F
:103830000202010000000000010000000000003151
:10384000322D31206372616E6B207769746820635A
:10385000616D000000010000010000010000010096
:103860000001000000000001000001020201000050
:1038700001000001000000362D31206372616E6B83
:1038800020776974682063616D0000010001000108
:1038900000010001000100010000382D3120637299
:1038A000616E6B206F6E6C79202852362900000102
:1038B0000001000100000001020100010000342DA0
:1038C00031206372616E6B20776865656C20776963
:1038D00074682063616D00010001000100010001B6
:1038E00000010001000100010001000100010001D0
:1038F00000010001000100010001000100010001C0
:103900000001000100000032342D31206372616E2D
:103910006B206F6E6C790001000100010001000155
:10392000000100010001000100010001000100018F
:10393000000100010001000100010001000100017F
:10394000000100010001000100010001000100016F
:10395000000100010001000100010001000000332E
:10396000362D31206372616E6B206F6E6C790001B1
:10397000000100010001000100010001000100013F
:10398000000100010001000100010001000100012F
:10399000000100010001000100010001000100011F
:1039A000000100010001000100010001000100010F
:1039B00000010001000100010001000100010001FF
:1039C00000010001000302030203020302030203D9
:1039D00002030203020302030203020302030203BF
:1039E00002030202020202030203020302030203B1
:1039F000020302030203020302030203020302039F
:103A0000020302030203020302030203020302038E
:103A1000020302030203020302030203020302037E
:103A2000020302030203020302030203020302036E
:103A30000203020302030203020302030201000164
:103A4000000100010001000100010001000100016E
:103A5000000100010001000100010000000000362B
:103A6000302D32206372616E6B20616E6420276896
:103A7000616C66206D6F6F6E272063616D000100C1
:103A8000010001000100010001000100010001002E
:103A9000010001000100010001000100010001001E
:103AA000010001000100010001000100010001000E
:103AB00001000100010001000100010001000100FE
:103AC00001000100010001000100010001000100EE
:103AD00001000100010001000100010001000100DE
:103AE00001000100010001000100010001000100CE
:103AF00001000000000001000100010001000100C0
:103B000001000100010001000100010001000100AD
:103B1000010001000100010001000100010001009D
:103B2000010001000100010001000100010001008D
:103B3000010001000100010001000100010201007B
:103B4000010001000100010001000100010001006D
:103B5000010001000100010001000100010001005D
:103B600001000100010001000100000000003630EA
:103B70002D32206372616E6B20616E642063616D13
:103B8000000100010001000100010001000100012D
:103B9000000100010001000100010001000100011D
:103BA000000100010001000100010001000100010D
:103BB00000010001000100010001000100010001FD
:103BC00000010001000100010001000100010001ED
:103BD00000010001000100010001000100010001DD
:103BE00000010001000100010001000100010001CD
:103BF00000010001000000000036302D3220637209
:103C0000616E6B206F6E6C79000100010001000194
:103C100000382063796C696E6465722064697A7A11
:103C20007900010001000100362063796C696E643F
:103C300065722064697A7A7900010001003420639A
:103C4000796C696E6465722064697A7A7900000023
:103C5000000102030406080A0C0E111316191C1F9A
:103C60002326292D3034373B3E4145484B4E515396
:103C700056585A5C5E606162636464646464636243
:103C800061605E5C5A585653514E4B4845413E3B2D
:103C90003734302D2926231F1C191613110E0C0A38
:103CA00008060403020100000000000101020203F3
:103CB000040507080A0B0D0F11131517191B1E20F9
:103CC0002325282A2D2F3235373A3C3F4144464997
:103CD0004B4D4F51535557595A5C5D5F606162625D
:103CE000636364646464646363626261605F5D5CB7
:103CF0005A59575553514F4D4B494644413F3C3A11
:103D00003735322F2D2A282523201E1B191715136E
:103D1000110F0D0B0A080705040302020101000040
:103D2000000000000001010102020304040506076F
:103D300008090A0B0C0D0E0F111213151618191B7A
:103D40001C1E1F2123242628292B2D2F30323435E9
:103D500037393B3C3E404143454648494B4C4E4F2A
:103D600051525355565758595A5B5C5D5E5F6060BF
:103D7000616262636363646464646464646464630E
:103D8000636362626160605F5E5D5C5B5A59585755
:103D900056555352514F4E4C4B494846454341406E
:103DA0003E3C3B3937353432302F2D2B2928262401
:103DB00023211F1E1C1B191816151312110F0E0D8F
:103DC0000C0B0A090807060504040302020101019D
:103DD0000000000000000000250028002B0000006B
:103DE0000000240027002A0004040404040404043E
:103DF0000202020202020303030303030102040896
:103E00001020408001020408102001020408102044
:103E10002B2311241FBECFEFD8E0DEBFCDBF14E0AF
:103E2000A0E0B1E0ECEDF4E502C005900D92A23007
:103E3000B107D9F724E0A2E0B4E001C01D92AB3D88
:103E4000B207E1F71FE1C9E0DFE104C02197FE01FD
:103E50000E94CA28C830D107C9F70E947F230C945A
:103E60006C2A0C94000090E0FC01E450F24C249188
:103E70008851924CFC018491882399F090E0880F3E
:103E8000991FFC01E252F24CA591B491FC01EC5255
:103E9000F24C859194918FB7F894EC91E22BEC93CE
:103EA0008FBF08953FB7F894809124049091250422
:103EB000A0912604B091270426B5A89B05C02F3FEA
:103EC00019F00196A11DB11D3FBFBA2FA92F982F40
:103ED0008827BC01CD01620F711D811D911D42E03B
:103EE000660F771F881F991F4A95D1F70895AF92E3
:103EF000BF92CF92DF92EF92FF920F931F93CF93D7
:103F0000DF936C017B018B01040F151FEB015E0138
:103F1000AE18BF08C017D10759F06991D601ED91CD
:103F2000FC910190F081E02DC6010995892B79F76C
:103F3000C501DF91CF911F910F91FF90EF90DF901E
:103F4000CF90BF90AF900895FC01538D448D252FE5
:103F500030E0842F90E0821B930B541710F0CF9623
:103F6000089501970895FC01918D828D981761F055
:103F7000A28DAE0FBF2FB11D5D968C91928D9F5F6C
:103F80009F73928F90E008958FEF9FEF0895FC014B
:103F9000918D828D981731F0828DE80FF11D858DFE
:103FA00090E008958FEF9FEF0895FC01918D228D91
:103FB000892F90E0805C9F4F821B91098F73992716
:103FC000089588E294E00E94D51F21E0892B09F42E
:103FD00020E0822F089580E090E0892B29F00E9454
:103FE000E11F81110C9400000895FC01A48DA80F1D
:103FF000B92FB11DA35ABF4F2C91848D90E001962B
:104000008F739927848FA689B7892C93A089B1894A
:104010008C91837080648C93938D848D981306C0EB
:104020000288F389E02D80818F7D80830895EF924F
:10403000FF920F931F93CF93DF93EC0181E0888F62
:104040009B8D8C8D98131AC0E889F989808185FF32
:1040500015C09FB7F894EE89FF896083E889F989D4
:1040600080818370806480839FBF81E090E0DF91D6
:10407000CF911F910F91FF90EF900895F62E0B8D29
:1040800010E00F5F1F4F0F731127E02E8C8D8E11E4
:104090000CC00FB607FCFACFE889F989808185FF4B
:1040A000F5CFCE010E94F51FF1CFEB8DEC0FFD2F68
:1040B000F11DE35AFF4FF0829FB7F8940B8FEA8906
:1040C000FB8980818062CFCFCF93DF93EC01888D15
:1040D0008823B9F0AA89BB89E889F9898C9185FD83
:1040E00003C0808186FD0DC00FB607FCF7CF8C9111
:1040F00085FFF2CF808185FFEDCFCE010E94F51FB5
:10410000E9CFDF91CF910895CF93DF93382FC091FE
:10411000CA048CE0C89FE0011124CD5FDE4F832FDD
:104120006A3071058105910520F46AE070E080E055
:1041300090E00E9471292C813D814E815F810E9417
:10414000FF299B01AC0160E074E284EF9AE40E94D5
:10415000D0280E94422961157105810521E092074E
:1041600038F56115710520E48207910520F5611588
:10417000710528E08207910508F56115710521E0B8
:1041800082079105F0F430E021E004C09695879510
:10419000779567953A95D2F7709301016093000186
:1041A0002093090481E080930804DF91CF91089562
:1041B0003AE025E0EACF38E024E0E7CF36E023E03C
:1041C000E4CF33E022E0E1CFFC0101900020E9F7E9
:1041D0003197AF01481B590BBC0188E294E00C9465
:1041E000771F8F929F92AF92BF920F931F93CF939F
:1041F000DF93CDB7DEB7A1970FB6F894DEBF0FBE41
:10420000CDBF19A2423008F44AE08E010F5D1F4F66
:10421000842E912CB12CA12CA50194010E948528FB
:10422000E62FB901CA01EA30F4F4E05DD801EE935B
:104230008D01232B242B252B79F790E080E010971C
:1042400019F0CD010E94E420A1960FB6F894DEBFCC
:104250000FBECDBFDF91CF911F910F91BF90AF9057
:104260009F908F900895E95CE1CFCF93DF930E94F8
:10427000E420EC018DEF93E00E94E4208C0F9D1F61
:10428000DF91CF910895CF93DF93BC0190E080E060
:104290004AE00E94F120EC018DEF93E00E94E420BF
:1042A0008C0F9D1FDF91CF9108951F93CF93DF93C4
:1042B000EC01162F0E946428181739F0612FCE01E7
:1042C000DF91CF911F910C946C28DF91CF911F91BA
:1042D00008951F93CF93DF93C9ECD4E0698182E006
:1042E00090E00E9455216A8183E090E00E94552170
:1042F00062E081E090E00E945521E9E1F4E0148160
:10430000658184E090E00E945521612F85E090E076
:104310000E9455211B816C818CE090E00E94552108
:10432000612F8DE090E00E9455211D816E8186E015
:1043300090E00E945521612F87E090E00E94552176
:104340001F81688588E090E00E945521612F89E0F7
:1043500090E00E94552119856A858AE090E00E94CC
:104360005521612F8BE090E00E9455216B858EE0F6
:1043700090E00E9455216C858FE090E00E945521CD
:104380001D856E8580E190E00E945521612F81E1BD
:1043900090E00E9455211F85688982E190E00E948B
:1043A0005521612F83E190E0DF91CF911F910C9413
:1043B00055210C9464281F920F920FB60F9211246E
:1043C0002F933F938F939F93AF93BF93809120043C
:1043D00090912104A0912204B091230430911F04F4
:1043E00023E0230F2D3758F50196A11DB11D209311
:1043F0001F048093200490932104A0932204B0937F
:1044000023048091240490912504A0912604B09166
:1044100027040196A11DB11D8093240490932504C7
:10442000A0932604B0932704BF91AF919F918F91E1
:104430003F912F910F900FBE0F901F90189526E877
:10444000230F0296A11DB11DD2CF1F920F920FB65E
:104450000F9211242F933F934F935F936F937F930A
:104460008F939F93AF93BF93EF93FF9388E294E072
:104470000E94F51FFF91EF91BF91AF919F918F9196
:104480007F916F915F914F913F912F910F900FBE50
:104490000F901F9018951F920F920FB60F92112434
:1044A0002F938F939F93EF93FF93E0913804F091B4
:1044B00039048081E0913E04F0913F0482FD1BC0ED
:1044C0009081809141048F5F8F7320914204821705
:1044D00041F0E0914104F0E0E85DFB4F958F80935F
:1044E0004104FF91EF919F918F912F910F900FBEFB
:1044F0000F901F9018958081F4CF1F920F920FB6E6
:104500000F9211240F931F932F933F934F935F9319
:104510006F937F938F939F93AF93BF93EF93FF938B
:1045200080910A0490910B04A091CA042CE0A29FF0
:10453000D0011124AD5FBE4F1296ED91FC911397FF
:10454000E80FF91FE49180910704E827E5B980910D
:104550000A0490910B04019690930B0480930A0433
:1045600080910A0490910B0418962D913C91281784
:10457000390721F510920B0410920A040E94521F71
:104580000091C5041091C6042091C7043091C8045D
:10459000601B710B820B930B60930E0470930F04DE
:1045A00080931004909311040E94521F6093C504DD
:1045B0007093C6048093C7049093C8048091080444
:1045C000882371F080918100887F80938100909191
:1045D000090480918100892B809381001092080446
:1045E000809100019091010190938900809388004F
:1045F000FF91EF91BF91AF919F918F917F916F91BB
:104600005F914F913F912F911F910F910F900FBE8E
:104610000F901F9018951F920F920FB60F921124B2
:104620008F939F938091060481110EC09091780022
:104630008091790089279827892790931704809380
:10464000160481E0809318049F918F910F900FBE04
:104650000F901F901895E8E2F4E01382128288EE22
:1046600093E0A0E0B0E084839583A683B7838FEEC8
:1046700093E09183808385EC90E09587848784EC38
:1046800090E09787868780EC90E0918B808B81EC1F
:1046900090E0938B828B82EC90E0958B848B86EC00
:1046A00090E0978B868B118E128E138E148EE9EC10
:1046B000F4E084E3818384EC99E0948383838AEF3C
:1046C00090E09683858380EA9FE09087878388EED9
:1046D00093E0928781871386148680E991E096871C
:1046E0008587108A1786118A0E94521F6093C5041D
:1046F0007093C6048093C7049093C8040895CF9321
:10470000DF93CDB7DEB7C055D1090FB6F894DEBF41
:104710000FBECDBF789484B5826084BD84B58160BE
:1047200084BD85B5826085BD85B5816085BD80917C
:104730006E00816080936E001092810080918100F4
:1047400082608093810080918100816080938100EC
:10475000809180008160809380008091B1008460AE
:104760008093B1008091B00081608093B00080910F
:104770007A00846080937A0080917A0082608093CE
:104780007A0080917A00816080937A0080917A002B
:10479000806880937A001092C10012E01093C904DF
:1047A00081E090E00E94D9218F3F09F08CC185E023
:1047B0008093CA0488EB9BE090931E0480931D04B1
:1047C00090931A04809319041093CB048CEA9DE013
:1047D0009093CD048093CC0480E797E19093D1042B
:1047E0008093D00488EE93E09093CF048093CE041E
:1047F0009093D3048093D2041092D40483E08093E6
:10480000D50480E991E09093D7048093D604109268
:10481000D9041092D8040E946921E0913804F091E3
:10482000390482E08083E0913404F09135041082F1
:10483000E0913604F091370480E1808310924004C7
:10484000E0913C04F0913D0486E08083E0913A04DD
:10485000F0913B04808180618083E0913A04F09183
:104860003B04808188608083E0913A04F0913B04AE
:10487000808180688083E0913A04F0913B048081DC
:104880008F7D808310920D04F89410928000109216
:104890008100109285001092840088EE93E090933E
:1048A00089008093880080918100886080938100D6
:1048B0008091810081608093810080916F0082608F
:1048C00080936F001092B0001092B1001092B2006D
:1048D00089EF8093B3008091B00082608093B00034
:1048E0008091B10084608093B10080917C008F7DC5
:1048F00080937C0080917C00806480937C00809118
:104900007C00807F80937C0080917A008068809317
:104910007A0080917A00806280937A0080917B0097
:10492000887F80937B0080917A00876080937A00F3
:1049300080917A00886080937A0088E00E94331F1B
:1049400089E00E94331F8AE00E94331F8BE00E949F
:10495000331F789480917A00806480937A0060910C
:104960001D0470911E0490E080E00E9484200AE5FE
:10497000802E912C1CE0F12EEE24E394009119047A
:1049800010911A0488E294E00E94D51F18161906A7
:1049900014F580910D04811106C088E294E00E9414
:1049A000B31F80930C0480910C04833509F47BC2FF
:1049B00008F090C18E3409F4F6C108F080C1833448
:1049C00009F4BEC1E3E0CE2EE1E0DE2E8C3409F422
:1049D000CAC110920D048091CB04823009F0A8C2A4
:1049E00080911804882389F010921804009116040D
:1049F0001091170474E0000F111F7A95E1F7093246
:104A000063E2160710F008E213E210931A04009311
:104A100019048091D6049091D7048017910708F467
:104A200044C38091D404882309F43FC380910E04C9
:104A300090910F04A0911004B0911104892B8A2B3E
:104A40008B2B09F4C5C20E94521F2091C5043091DE
:104A5000C6044091C7045091C8045B016C01A21ABE
:104A6000B30AC40AD50AA6019501E091CA04FE9EC4
:104A7000F0011124ED5FFE4F82859385803D9240C9
:104A800021F4220F331F441F551FA0900E04B09035
:104A90000F04C0901004D0901104A8E6B1E00E9469
:104AA0007A28A60195010E9485288091D8049091CA
:104AB000D904820F931F8936E1E09E0708F48AC269
:104AC00088569140F8CF82E090E00E94D921A82E2C
:104AD0008093CA0483E090E00E94D921B82E80938D
:104AE000CB0484E090E00E94D921C82E85E090E0BC
:104AF0000E94D921DC2CC82ED0921E04C0921D0425
:104B00008CE090E00E94D921182F8DE090E00E9467
:104B1000D921912F893223E2920710F088E293E2A3
:104B20008436910510F484E690E09093CD04809350
:104B3000CC0486E090E00E94D921E82E87E090E046
:104B40000E94D921FE2CE82E49E2E41643E2F40645
:104B500020F048E2E42E43E2F42E64E6E616F10487
:104B600018F434E6E32EF12CF092CF04E092CE0458
:104B700088E090E00E94D921082F89E090E00E940F
:104B8000D921102F082F093283E2180710F008E20C
:104B900013E20436110510F404E610E01093D1047A
:104BA0000093D0048AE090E00E94D921982E8BE0F7
:104BB00090E00E94D921992D8131E7E29E0710F003
:104BC00080E197E2883C910510F488EC90E09093A6
:104BD000D3048093D204E016F10630F00456110994
:104BE0001093CF040093CE048EE090E00E94D92170
:104BF00091E0811101C090E09093D4048FE090E0A7
:104C00000E94D921F82E8093D50480E190E00E9483
:104C1000D921082F81E190E00E94D921102F082F7F
:104C20001093D7040093D60482E190E00E94D9212A
:104C3000E82E83E190E00E94D9219E2D9093D90423
:104C40008093D804FDE3FA1518F425E02093CA04F4
:104C500022E0A22EAB1418F421E02093CB0429E922
:104C6000C2162AE3D20630F020EA3FE030931E0459
:104C700020931D042091190430911A0429393A43D4
:104C800030F020EA3FE030931A042093190465E0E5
:104C90006F1518F423E02093D504093E134030F03B
:104CA00020E931E03093D7042093D6048836914030
:104CB00008F4B3CD1092D9041092D804AECD80354B
:104CC00009F478C0823509F084CE80911D0490915A
:104CD0001E0433C08E3609F45AC0E8F4883509F44E
:104CE000FFC0833609F075CE88E294E00E94D51F9C
:104CF0004197D0F3BAECCB2EB4E0DB2E88E294E0FF
:104D00000E94B31FF60181936F01FBEDCF16F4E013
:104D1000DF06A1F75ECE823709F486C0833709F437
:104D2000BFC0803709F055CEE091CA04FE9EF00165
:104D30001124ED5FFE4F808591850E94432149CE6D
:104D4000A9ECCA2EA4E0DA2EF60161916F0188E287
:104D500094E00E941720FBEDAF2EF4E0BF2EAC14C0
:104D6000BD0491F736CEF60160817181CE010196C6
:104D70000E945D28CE0101960E943521FCE0CF0EF5
:104D8000D11C2BEEC21623E0D20669F722CE4AE0F0
:104D90006EE370E080E090E00E94F1208DEF93E000
:104DA0000E94E42016CE6091CA0470E090E080E09A
:104DB0004AE0F2CFD12CC12CE091CA04FE9EF00152
:104DC0001124ED5FFE4F80859185C816D906F0F459
:104DD000C114D10421F080E094E00E94E420E0912D
:104DE000CA04FE9EF0011124ED5FFE4F0280F381A4
:104DF000E02DEC0DFD1D649170E090E080E04AE054
:104E00000E94F1204FEFC41AD40AD6CF8FEF93E05F
:104E10000E943521E091CA04FE9EF0011124ED5F4D
:104E2000FE4F8285938589CF1092CB0488E294E06F
:104E30000E94D51F0697D4F388E294E00E94B31F26
:104E4000D82E88E294E00E94B31F782E612CC30113
:104E50008D299093CF048093CE0488E294E00E9441
:104E6000B31FD82E88E294E00E94B31F582E412C25
:104E7000C2018D299093D1048093D00488E294E0FC
:104E80000E94B31FD82E88E294E00E94B31F382EF0
:104E9000212CC1018D299093D3048093D20499CD04
:104EA0000E94692196CD88E294E00E94D51F1816D1
:104EB0001906CCF788E294E00E94B31F8E3308F005
:104EC00088CD8093CA0460911D0470911E0490E007
:104ED00080E00E94842010920B0410920A0479CD85
:104EE0008091CA048D3301F51092CA0460911D04AB
:104EF00070911E0490E080E00E94842010920B04C8
:104F000010920A04E091CA04FE9EF0011124ED5FA4
:104F1000FE4F60817181CE0101960E945D28CE0115
:104F200001960E94352155CD8F5F8093CA04DECF54
:104F3000811146C00E94521FAB01BC012091D204D6
:104F40003091D3048091120490911304A091140421
:104F5000B0911504820F931FA11DB11D84179507F1
:104F6000A607B70708F051CD0E94521F60931204A4
:104F70007093130480931404909315040091190402
:104F800010911A0480910201813069F40F5F1F4F64
:104F90008091D0049091D1040817190708F435CDF9
:104FA0001092020132CD015011098091CE049091EE
:104FB000CF048017910708F428CDE092020125CD97
:104FC000813009F022CD0091CC041091CD041DCD8B
:104FD00090E080E02091D504233019F038F421309E
:104FE00081F064EB70E00E94B6280DC0243079F0A7
:104FF0002530B9F7B4010E94B628FC01E25BF34CFE
:105000000DC096958795FC01E05EF24C07C068E7FD
:1050100070E00E94B628FC01E855F34CE4916E2F35
:1050200070E08091DA04882389F00F38F2E01F07DE
:1050300068F4069FC001079F900D169F900D1124E4
:105040006091D6047091D7040E94B628601771074A
:1050500078F570931C0460931B0480911B0490915D
:105060001C04081B190B0A30110580F080911D04E7
:1050700090911E040817190729F0B80190E080E00C
:105080000E94842010931E0400931D0480E0A82E2B
:1050900080E0B82EAB2809F471CC0E94E11F882370
:1050A00009F46ACC0E94000065CC70E060E0CECFCD
:1050B00010921C0410921B04D0CFFB01DC01059060
:1050C0000D920020E1F70895F999FECF92BD81BDC0
:1050D000F89A992780B50895262FF999FECF1FBA1F
:1050E00092BD81BD20BD0FB6F894FA9AF99A0FBE11
:1050F000019608950E94A728A59F900DB49F900D3A
:10510000A49F800D911D11240895A1E21A2EAA1BBF
:10511000BB1BFD010DC0AA1FBB1FEE1FFF1FA21767
:10512000B307E407F50720F0A21BB30BE40BF50B64
:10513000661F771F881F991F1A9469F760957095ED
:10514000809590959B01AC01BD01CF010895A29F70
:10515000B001B39FC001A39F700D811D1124911D4B
:10516000B29F700D811D1124911D0895AA1BBB1BB8
:1051700051E107C0AA1FBB1FA617B70710F0A61B57
:10518000B70B881F991F5A95A9F780959095BC0178
:10519000CD010895EE0FFF1F0590F491E02D0994C5
:1051A0000E94E4280C94C5290E94BE2958F00E9450
:1051B000B72940F029F45F3F29F00C94AE29511132
:1051C0000C94F9290C94B4290E94D62968F39923E8
:1051D000B1F3552391F3951B550BBB27AA276217F3
:1051E0007307840738F09F5F5F4F220F331F441F00
:1051F000AA1FA9F335D00E2E3AF0E0E832D0915034
:105200005040E695001CCAF72BD0FE2F29D0660F20
:10521000771F881FBB1F261737074807AB07B0E863
:1052200009F0BB0B802DBF01FF2793585F4F3AF069
:105230009E3F510578F00C94AE290C94F9295F3FFC
:10524000E4F3983ED4F3869577956795B795F795EF
:105250009F5FC9F7880F911D9695879597F90895D7
:10526000E1E0660F771F881FBB1F62177307840773
:10527000BA0720F0621B730B840BBA0BEE1F88F782
:10528000E09508950E94DE2988F09F5798F0B92F85
:105290009927B751B0F0E1F0660F771F881F991F6B
:1052A0001AF0BA95C9F714C0B13091F00E94F829EC
:1052B000B1E008950C94F829672F782F8827B85FFC
:1052C00039F0B93FCCF3869577956795B395D9F7C3
:1052D0003EF490958095709561957F4F8F4F9F4FCD
:1052E0000895E89409C097FB3EF4909580957095D9
:1052F00061957F4F8F4F9F4F9923A9F0F92F96E922
:10530000BB279395F695879577956795B795F11196
:10531000F8CFFAF4BB0F11F460FF1BC06F5F7F4F33
:105320008F4F9F4F16C0882311F096E911C0772345
:1053300021F09EE8872F762F05C0662371F096E84E
:10534000862F70E060E02AF09A95660F771F881F1D
:10535000DAF7880F9695879597F9089597F99F67DB
:1053600080E870E060E008959FEF80EC08950024ED
:105370000A941616170618060906089500240A94BA
:1053800012161306140605060895092E0394000C40
:1053900011F4882352F0BB0F40F4BF2B11F460FFCF
:1053A00004C06F5F7F4F8F4F9F4F089557FD9058F8
:1053B000440F551F59F05F3F71F04795880F97FBD9
:1053C000991F61F09F3F79F0879508951216130693
:1053D0001406551FF2CF4695F1DF08C016161706C2
:1053E0001806991FF1CF86957105610508940895F7
:1053F000E894BB2766277727CB0197F908950E9489
:10540000122A0C94C5290E94B72938F00E94BE299F
:1054100020F0952311F00C94AE290C94B42911249A
:105420000C94F9290E94D62970F3959FC1F3950F2A
:1054300050E0551F629FF001729FBB27F00DB11D18
:10544000639FAA27F00DB11DAA1F649F6627B00DA8
:10545000A11D661F829F2227B00DA11D621F739F91
:10546000B00DA11D621F839FA00D611D221F749F9F
:105470003327A00D611D231F849F600D211D822FE6
:10548000762F6A2F11249F5750409AF0F1F088230D
:105490004AF0EE0FFF1FBB1F661F771F881F91503A
:1054A0005040A9F79E3F510580F00C94AE290C9412
:1054B000F9295F3FE4F3983ED4F386957795679595
:1054C000B795F795E7959F5FC1F7FE2B880F911D64
:0C54D0009695879597F90895F894FFCF02
:1054DC008813013D3C393C0A85083D0400680128CD
:1054EC003C223CCDCC4C3D06006801113C093C48AB
:1054FC008A883D08006801F93B813B0000803F78B9
:10550C000068016E3B7E3A0000803FF000D0025FE5
:10551C003A6F390000803FF000D0025F3917399A9A
:10552C0099193F480068010739D7380000003F300F
:10553C00006801BE38AE38488A883D1000D0029A07
:10554C00388A38A987083E10006801773853389A92
:10555C0099193E2400D0023F38AF379A99193F90E1
:10556C0000D00294374437E3AA2A3F500068011751
:10557C00370E379A99193E0900D002E536CD36CD53
:10558C00CC4C3E18006801B236E23300004040D0EB
:10559C0002D002D533A533CDCCCC3E300068018E81
:1055AC003346339A99193F480068012F33E7329AF2
:1055BC0099193F48006801D03240329A99193F90AE
:1055CC0000D0022C32E4319A99193F48006801CC82
:1055DC00313C319A99193F9000D002233193309A83
:1055EC0099193F9000D0027B302B303BAAAA3E5039
:1055FC0000D0021630462D0000C040D002D0022E42
:10560C002D3E2C0000803FF000D002202CD82B9A8D
:10561C0099193F48006801C42B942BCDCC4C3E30DB
:10562C0000D002692BD92A9A99193F9000D002B068
:10563C002AE02700004040D002D002B727E7240020
:10564C00004040D002D002BE24EE2100004040D0E9
:10565C0002D002CA213A219A99993F9000D0021F98
:10566C00214F1E00004040D002D002331E631B00AD
:10567C00004040D002D002371BEF1A9A99993E484D
:10568C0000D002B91A791AF888883E4000D002522C
:10569C001A4A1A0A85883D0800D002231A171ACD17
:1056AC00CCCC3D0C00D002F019E019A987083E10B3
:1056BC0000D002BA19DA1700008040E001D002BA1B
:1056CC001752160000C03F6801D0022C169C159A88
:1056DC0099193F9000D0027F1547110000C03F3848
:1056EC0004D0023011A0109A99193F9000D0028B6F
:1056FC00106D100000803F1E00D0024610B60FCD7A
:10570C00CC4C3F90006801AA0F1A0F9A99193F9040
:10571C0000D002010F710E9A99193F9000D00258D7
:10572C000EC80D9A99193F9000D002AF0DDF0A00F8
:10573C00004040D002D002D90A250A8941C03FB4AA
:10574C0000D0021C0A8C099A99193F9000D0028152
:10575C0009B10600004040D002D002A10611069A01
:10576C0099193F9000D00205067505FA7EAA3E9065
:10577C0000D0026805D804FA7EAA3E9000D002CA76
:10578C000482049A99193F480068017804100300B8
:10579C0000C03F6801D002080318020000803FF0EF
:1057AC0000D002FE010E010000803FF000D002F894
:1057BC000068009A99193F9000D002000000001771
:1057CC0020771FA41F6420D51FB31FC71F0D0A000D
:0257DC002C009F
:00000001FF
