:100000000C94B61E0C94DE1E0C94DE1E0C94DE1EA8
:100010000C94DE1E0C94DE1E0C94DE1E0C94DE1E70
:100020000C94DE1E0C94DE1E0C94DE1E0C942A2210
:100030000C94DE1E0C94DE1E0C94DE1E0C94DE1E50
:100040000C9488210C94DE1E0C94F8210C94D2217F
:100050000C94DE1E0C94B8220C94DE1E0C94DE1E52
:100060000C94DE1E0C94DE1E020202020202030346
:10007000020202020303020202020202020202025E
:10008000020202020202030302020202030302024C
:10009000020202020202020202020202020203033E
:1000A000020202020303020202020202020202022E
:1000B000020202020202030302020202030302021C
:1000C000020202020202020202020202020203030E
:1000D00002020202030302020202020202020202FE
:1000E000000000000000010100000000010100000C
:1000F00000000000000000000000000000000101FE
:1001000000000000010100000000000000000000ED
:1001100000000000000001010000000001010000DB
:1001200000000000000000000000000000000101CD
:1001300000000000010100000000000000000000BD
:1001400000000000000001010000000001010000AB
:100150000000000000000000446F646765205669DD
:100160007065722056313020313939362D323030B9
:100170003200010001000100010001000100010046
:100180000100010001000100010001000100010067
:1001900007060706070607060706070607060706F7
:1001A0000100010001000100010001000100010047
:1001B0000100010001000100010001000100010037
:1001C000010001000100010001000100070607060F
:1001D00007060706070607060706070607060706B7
:1001E00007060706070606060606070607060706A9
:1001F0000706070607060706070607060706070697
:1002000007060706070607060100010001000100B6
:10021000010001000100070607060706070607069A
:100220000706070607060706070607060706070666
:100230000706070607060706070607060706070656
:10024000070607060100010001000100010001008E
:100250000100010001000100010001000100000097
:100260000000424D57204E323000000000000000D8
:10027000000000000000000000000000000000007E
:10028000000000000001000000000000000000016C
:10029000000000000000000000010000000000005D
:1002A000000000010000000000000000000000004D
:1002B0000000000202020202020202020202020224
:1002C000020302020202020202020203020202020C
:1002D00002020202020302020202020202020203FC
:1002E00002020202020202020202020202020202EE
:1002F00002020202020202020202020202030202DD
:1003000002020202020202030202020202020202CC
:1003100002030202020202020202020302020202BB
:1003200002020202020202020202020202020202AD
:10033000020202020202020202030202020202029C
:10034000020202030202020202020202020302028B
:10035000020202020202020302020202020202027C
:10036000020202020202020000000000000000007F
:10037000000000000001000000000000000000017B
:10038000000000000000000000010000000000006C
:10039000000000010000000000000000000000005C
:1003A000000000000000000000000000000000004D
:1003B000000100000000000000000001000000003B
:1003C000000000000001000000000000000000012B
:1003D00000004A65657020323030300001010101B3
:1003E00001010202020200000303030303030202ED
:1003F00000000000010101010101000000000000F7
:1004000001010101010100000000000001010101E2
:1004100001010000000000000101010101010000D4
:100420000000000053757A756B692044525A3430CD
:100430003000010102000000000000000000010186
:1004400000000000000000000000010100000000AA
:10045000000000000000010100000000000000009A
:100460000000010100000000000000000000010188
:10047000000000000000000000000101000000007A
:10048000000000000000010100000000000000006A
:100490000000010100000000000000000000010158
:1004A000000000000000000000000101000000004A
:1004B000000000000000010100000000000000003A
:1004C0000000546F796F7461203441475A45000130
:1004D0000102020000000000000000000000000017
:1004E000000000000000000000000000000000000C
:1004F00000000001010000000000000000000000FA
:1005000000000000000000000000000000000000EB
:1005100000000000000000010100000000000000D9
:1005200000000000000000000000000000000000CB
:1005300000000000000000000000000101000000B9
:1005400000000000000000000000000000000000AB
:100550000000000000000000000000000000005447
:100560006F796F746120344147450001000100013B
:100570000001000100010001000100010001000272
:100580000001000100010001000100010001000163
:100590000001000100010000000100010001000154
:1005A0000001000100010001000100010001000242
:1005B0000002000100010001000100010001000132
:1005C0000001000100010000000100010001000124
:1005D0000001000100010001000100010001000212
:1005E0000001000100010001000100010001000103
:1005F00000010001000100000000004D69747375E6
:1006000062697368692033413932000001010101D8
:1006100000000000000000000000000000010101D7
:1006200001010101000000000001010101010000C1
:1006300000000001010101010000000001010101B1
:1006400001000000000001010101010000000000A4
:100650000303030303020202020203030303030270
:100660000202020203030303030202020202030363
:10067000030301000000000001010101010000006E
:100680000000010101010100000000000101010161
:100690000100000000000101010101000000000054
:1006A000010101010100000000000101010103023C
:1006B0000202020203030303030202020202030313
:1006C000030303020202020203030301010000000C
:1006D0000000010101010100000000000101010111
:1006E0000100000000000101010101000000000004
:1006F00001010101010000000000010101010100F0
:1007000000000000010101030302020202020303D0
:1007100003030302020202020303030303020202B1
:1007200002020303030101010000000001010101B5
:1007300001010000000001010101010100000000B1
:10074000000101010101000000000001010101019F
:100750000000000000010101010100000000000193
:100760000101010100000000000101010101000080
:100770000000000101010101000000000000000074
:100780000000000000000101010101010000000063
:10079000000101010101000000000001010101014F
:1007A0000000000000010101010100000000000143
:1007B0000101010100000000000303030303020222
:1007C0000202020303030303020202020203030301
:1007D00003030202020202030303030100000000FC
:1007E00000010101010100000000000101010101FF
:1007F00000000000000101010101010000000001F2
:1008000001010101010000000000010101010100DE
:1008100000000000010101010100000000000101D1
:1008200001010100000000000101010101000000C0
:1008300000000101010101000000000001010101AF
:1008400001000000000001010101010000000000A2
:10085000010101010100000000000101010101008E
:10086000000000000101010101000000000001037F
:100870000303030202020202030303030302020250
:100880000202030303030303020202020303030140
:100890000101000000000001010101010000000051
:1008A000000101010101000000000001010101013E
:1008B0000000000000010101010100000000000132
:1008C000010101010000000000010101010100001F
:1008D0000000000101010101000000466F72642068
:1008E00053543137300000000000000000000000C9
:1008F00000020202020202020202020303020203D7
:1009000003020203030202030302020202020200C4
:1009100000000000000101010101010101010101CC
:1009200001000001010000010100000101000000C0
:1009300000000000000000000002020202020202A9
:100940000202020303020203030202030302020380
:100950000302020202020202020202020203030373
:100960000303030101010101010000010100000175
:1009700001000001010044534D2034323061000079
:100980000000000000000000000000000000000067
:100990000000000001010000000000000000000055
:1009A0000000000000000000000000000000000047
:1009B0000000010100000001010000000000000033
:1009C0000000000000000000000000000000000027
:1009D0000101000000000000000000000000000015
:1009E0000000000000000000000000000000010105
:1009F00000000000000000000000000000000000F7
:100A000000000000000000000000000001010000E4
:100A100000000000000000000000000000000000D6
:100A200000000000000000000000010100000000C4
:100A3000000000474D20375800000000000002026F
:100A40000200000002020200000002020200000098
:100A50000000000000000000000000000000000096
:100A60000000000000000000000000000000000086
:100A70000000000000000000000000000000000076
:100A80000000000000000000000000000101010063
:100A90000000000000000000000000000000000056
:100AA0000000000000000000000000000101010043
:100AB0000000000000000000000000000000000036
:100AC0000000000000000000000000000000000026
:100AD0000000000000000000000000000000000016
:100AE0000000000101010000000000000000000003
:100AF00000000000000000000000000000000000F6
:100B000000020202000000000000000000000000DF
:100B100000000000000000000000000000000000D5
:100B200000000000000000000000000000000000C5
:100B300000000000000000000000000000000000B5
:100B400001010100000000000000000000000000A2
:100B50000000000000000000000000000000000095
:100B60000101010000000000000000000000000082
:100B70000000000000000000000000000000000075
:100B80000000000000000000000000000000000065
:100B90000000000000000001010100000000000052
:100BA0000000000000000000000000000000000045
:100BB0000000000000020202000000020202000029
:100BC0000000000000000000000000000000000025
:100BD0000000000000000000000000000000000015
:100BE0000000000000000000000000000000000005
:100BF00000000000010101000000000000000000F2
:100C000000000000000000000000000000000000E4
:100C100000000000010101000000000000000000D1
:100C200000000000000000000000000000000000C4
:100C300000000000000000000000000000000000B4
:100C400000000000000000000000000101010000A1
:100C50000000000000000000000000000000000094
:100C6000000000000000000000020202000000007E
:100C70000000000000000000000000000000000074
:100C80000000000000000000000000000000000064
:100C90000000000000000000000000000000000054
:100CA0000000000000000000010101000000000041
:100CB0000000000000000000000000000000000034
:100CC0000000000000000000010101000000000021
:100CD0000000000000000000000000000000000014
:100CE0000000000000000000000000000000000004
:100CF00000000000000000000000000000000001F3
:100D0000010100000000000000537562617275204F
:100D1000362F37206372616E6B20616E64206361D1
:100D20006D00000001000001000001000001000052
:100D300001000001000001000001000001000001AD
:100D4000000001000001000001000001000001009E
:100D5000000100000100000100000100000100008E
:100D6000010000010000010000010000010000017D
:100D7000000001000001000001000001000001006E
:100D8000000100000100000100000100000100005E
:100D9000010000010000010000010000010000014D
:100DA0000202030202010000010000010000010034
:100DB000000132342F3120283234206372616E6B8F
:100DC00020776974682063616D29000000000000CD
:100DD0000100000000000100000000000100000010
:100DE0000000010000000000010000000000010000
:100DF00000000000010000000000010000000000F1
:100E000001000000000001000000000001000000DF
:100E100000000100000000000100000000000100CF
:100E200000000000010000000000010000000000C0
:100E300001000000000001000000000001000000AF
:100E40000000010000000000010202020202010095
:100E5000000000000100000000000131322F3120AD
:100E6000283132206372616E6B2077697468206369
:100E7000616D290000000000000002020000000077
:100E80000000000000000001010000000000000060
:100E90000000000000010100000000000000000050
:100EA0000000000000000000000000010100000040
:100EB000000000000000000000010100000002022C
:100EC000000002020000000000000000000000011D
:100ED000010000000000000000000000000101000F
:100EE0000000000000000000000000000000000002
:100EF00000000001010000000000000000000000F0
:100F0000000101004D696174612039392D303500CF
:100F100001010000000001010000000000000000CD
:100F200000000000000000000000000000000000C1
:100F300000000000000000000000000000000000B1
:100F4000010100000000000000000000000000009F
:100F50000000000000000000000000000000000091
:100F60000000000000000000000000000000000081
:100F7000010100000000000000000000000000006F
:100F80000000000000000000000000000000000061
:100F90000000000000000000000000000000000051
:100FA000446169686174737520332B3120646973FF
:100FB0007472696275746F722028332063796C696A
:100FC0006E646572732900000000000002000001D9
:100FD000000000000001000000000002000201000B
:100FE00000000000014D617A6461203332332041FA
:100FF000552076657273696F6E0001000000000075
:1010000001000000000001000000000001000000DD
:1010100000000100000000000100000000000100CD
:1010200000000000010000000000010000000000BE
:1010300001000000000001000000000001000100AC
:10104000000001000000000001000000000001009D
:10105000000000000100000000000100000000008E
:10106000010000000000010000000000010000007D
:10107000000001000000000001000000000001006D
:1010800000000000010001000000486F6E64612054
:10109000443137204372616E6B202831322B312965
:1010A0000003030202030302020303020001010022
:1010B0000001010000010100000101000001010028
:1010C0000001010000010100000101000001010018
:1010D0000001010000010100000101000001010008
:1010E00000010100000101000001010000010100F8
:1014D00000010100000101000241756469203133FF
:1014E0003520746F6F7468206372616E6B20616E5B
:1014F000642063616D000202020202020202020223
:1015000002000000000000000000000101010101D4
:1015100001010101010101010100000000000000C2
:1015200000000000000000000000000002020203B2
:10153000030303030303030303030101010000008A
:10154000000000000000000000000000000000009B
:10155000000000010101010101010101010101017E
:10156000010000000000000000000000000000007A
:10157000000000000000020303030303030303034E
:101580000303030303024D69747375626973686929
:10159000203467363320616B6120342F3220637230
:1015A000616E6B20616E642063616D00010100005B
:1015B0000001010000000101000000010100000025
:1015C0000101000000010100000001010000000114
:1015D00003020202030302020203010000000101F0
:1015E00000000000000000000000000000010302F5
:1015F00002020202020202020000000001010000D9
:1016000000010100000001010000000101000000D4
:1016100001010000000101000000010100000001C3
:1016200001000000010100000001030202020303A7
:10163000020202030100000001010000000000009E
:101640000000000000000001030202020303020286
:101650000203010000000101000000010100000080
:101660000101000000010100000001010000000173
:101670000100000001010000000101000000010163
:101680000000000101000000010100000001010054
:101690000000010100000000000000000000000048
:1016A0000001030202020202020202020000000024
:1016B0000101000000010100000001010000000123
:1016C0000100000001010000000101000000010113
:1016D0000000000101000000010100000001010004
:1016E00000000101000000010100000001010000F4
:1016F00000000000000000000000000103020202E0
:1017000003030202020301000000010100000001C6
:10171000010000004D617A64612033362D322D3294
:101720002D322077697468203620746F6F746820BA
:1017300063616D000001010100010101000101016F
:10174000000101010001010100010101000101018D
:10175000000101010001010100010101000101017D
:10176000000101010201010100010101000101016B
:10177000000101010001010102010101010101015A
:10178000010101010001010100010101000101014C
:10179000000101010001010100010101000101013D
:1017A000000101010001010100010101000101012D
:1017B000000101010001010100010101000101011D
:1017C000000101010001010102010101010101010A
:1017D00001010101000101010001010100010101FC
:1017E00000010101000101010001010100010101ED
:1017F00000010101000101010001010100010101DD
:1018000000010101000101010001010100010101CC
:1018100000010101000101010201010101010101B9
:1018200001010101000101010001010100010101AB
:10183000000101010001010100010101000101019C
:10184000000101010001010100010101000101018C
:10185000000101010001010100010101000101017C
:101860000001010100010101020101010101010169
:10187000010101010001010100010101000101015B
:10188000000101010001010100010101000101014C
:10189000000101010001010100010101000101013C
:1018A000000101010001010100010101000101012C
:1018B0000001010100010101020101010101010119
:1018C000010101010001010100010101000101010B
:1018D00000010101000101010001010100010101FC
:1018E00000010101000101010001010100010101EC
:1018F00000010101000101010001010100010101DC
:1019000000010101000101010201010101010101C8
:1019100001010101566F6C766F206431325B6163A7
:10192000645D206372616E6B207769746820372074
:10193000746F6F74682063616D0001000100010025
:1019400001000302030203020302474D2038206511
:1019500076656E2D746F6F7468206372616E6B2094
:1019600077697468203120746F6F74682063616DCB
:1019700000010001000100030203020302474D20A1
:1019800036206576656E2D746F6F746820637261A2
:101990006E6B2077697468203120746F6F746820D3
:1019A00063616D000100010003020302474D203412
:1019B000206576656E2D746F6F7468206372616E3A
:1019C0006B2077697468203120746F6F74682063AE
:1019D000616D000000000100000001000000010036
:1019E00000000100000001000000010000000100F3
:1019F00000000100020203020000010000000100DB
:101A000000000100000001000000010000000100D2
:101A100000000159616D61686120323030322D3033
:101A2000332052312038206576656E2D746F6F74C7
:101A300068206372616E6B2077697468203120744E
:101A40006F6F74682063616D000100000100000188
:101A50000000010000010000010000010000010081
:101A60000001000001000003020202020203000064
:101A70000100000100000100000100000100000160
:101A80000000010000010000010000010000000052
:101A9000004D617A6461204341532032342D32205D
:101AA000776974682073696E676C652070756C73F4
:101AB00065206F757465722072696E67000201009F
:101AC00001000100010003020302030203020302FA
:101AD00003020302030203020302030203020302DE
:101AE00003020302030203020302030203020302CE
:101AF00003020302030203020302030203020302BE
:101B000003020302030203020302030203020302AD
:101B1000030203020302030203020302030203029D
:101B2000030203020302030203020302030203028D
:101B30000302030203020100010001000100010091
:101B40000100010001000302030203020302030279
:101B5000030203020302030203020302030203025D
:101B6000030203020302030203020302030203024D
:101B7000030203020302030203020302030203023D
:101B8000030203020302030203020302030203022D
:101B9000030203020302030203020302030203021D
:101BA0000302030203020302030203020302010011
:101BB000010001000100010001000100010001001D
:101BC00001000100010003020302030203020302F9
:101BD00003020302030203020302030203020302DD
:101BE00003020302030203020302030203020302CD
:101BF00003020302030203020302030203020302BD
:101C000003020302030203020302030203020302AC
:101C1000030203020302030203020302030203029C
:101C200003020302030201000100010001000100A0
:101C3000010001000100010001000100010001009C
:101C40000100010001000302030203020302030278
:101C5000030203020302030203020302030203025C
:101C6000030203020302030203020302030203024C
:101C7000030203020302030203020302030203023C
:101C8000030203020302030203020302030203022C
:101C90000302030203020302030203020302010020
:101CA000010001000100010001000100010001002C
:101CB000010001000100010001000100010001001C
:101CC00001000100010003020302030203020302F8
:101CD00003020302030203020302030203020302DC
:101CE00003020302030203020302030203020302CC
:101CF00003020302030203020302030203020302BC
:101D000003020302030203020302030203020302AB
:101D100003020302030201000100010001000100AF
:101D200001000100010001000100010001000100AB
:101D3000010001000100010001000100010001009B
:101D40000100010001000302030203020302030277
:101D5000030203020302030203020302030203025B
:101D6000030203020302030203020302030203024B
:101D7000030203020302030203020302030203023B
:101D8000030203020302030203020302034E697308
:101D900073616E2033363020434153207769746875
:101DA000203620736C6F747300020202020202027A
:101DB0000202020202020202020202020202020203
:101DC00002020202020202020202020202020202F3
:101DD0000200000000000000000000000000000001
:101DE00000000000000202020202020202020202DD
:101DF00002020202020202020202020203030303BF
:101E000003020202020202020202020202020202B1
:101E1000020202020202020202020202030303039E
:101E20000302020202020202020202020202020291
:101E30000202020202020202020202020202020282
:101E40000202020202020202020202020202020272
:101E5000020202030303030302020202020202025D
:101E60000202020202020202020202020202020252
:101E70000202020202020202020202020202020242
:101E80000202020202020202020202020202020034
:101E90000000000000000000000000000000000042
:101EA0000000000000000000000000000000000032
:101EB000010101010100000000000000000000001D
:101EC0000000000000000000000000000000000012
:101ED00001010101010000000000000000000000FD
:101EE00000000000000000000000000000000000F2
:101EF00000000000000000000000000000000000E2
:101F000000000000000000010101010100000000CC
:101F100000000000000000000000000000000000C1
:101F200000000000000000000000000000000000B1
:101F30000000000000000000000202020202020293
:101F40000202020202020202020202020200000077
:101F50000000000000000000000000000000000081
:101F6000000000000101010101000000000000006C
:101F70000000000000000000000000000000000061
:101F8000000000000101010101000000000000004C
:101F90000000000000000000000000000000000041
:101FA0000000000000000000000000000000000031
:101FB000000000000000000000000001010101011C
:101FC0000000000000000000000000000000000011
:101FD0000000000000000000000000000000000001
:101FE00000000000000000000000000000000000F1
:101FF00000000000000000020202020202020202CF
:1020000002020202020202020202020202020202B0
:10201000020202020202020203030303030202029B
:102020000202020202020202020202020202020290
:10203000020202020202020203030303030202027B
:102040000202020202020202020202020202020270
:102050000202020202020202020202020202020260
:10206000020202020202020202020202020202034F
:102070000303030302020202024669617420312E47
:102080003820313656206372616E6B20616E642099
:1020900063616D000000000000000000000000000F
:1020A0000000000001010000000002020202000026
:1020B000000000000000010100000000000000001E
:1020C000000000000000000001010000000002020A
:1020D00002020000000000000000010100000000FA
:1020E00000000000000000000000000001010000EE
:1020F00000000000000000000000000000000101DE
:1021000000000000000000000000000000000000CF
:1021100001010000000000000000000000000000BD
:102120000000010157656265722D4D6172656C6C2E
:10213000692038206372616E6B2B322063616D20E1
:102140007061747465726E00000000000000000091
:10215000000000000000000000000000000000007F
:102160000001010101010000000000010101010165
:102170000000000000010101010100000000000159
:102180000101010100000000000101010101000046
:102190000000000101030303020202020201010127
:1021A0000101000000000001010101010000000028
:1021B0000001010101010000000000010101010115
:1021C0000000000000010101010100000000000109
:1021D00001010101000000000001010101010000F6
:1021E00000000001010101010000000000010103E5
:1021F00003030202020202010101010100000000CA
:1022000000010101030303030303030301010101AF
:1022100001010101010101010101000000000001B3
:1022200001010101000000000001010101010000A5
:102230000000000101010101000000000001010196
:102240000101000000000001010303030202020279
:10225000020101010101000000000001010103036E
:10226000020202020203010101010000000000015C
:102270000101010302020202020303010101000045
:102280000000000101010101000000000001010146
:102290000101000000000001010101010000000037
:1022A0000001010303030202020202010101010114
:1022B000000000000000000002020202020202020E
:1022C0000000000000000000000101010101000009
:1022D00000000001010101010000000000010101F6
:1022E00001010000000000010101010100000000E7
:1022F00000010101010100000000000101030303CE
:1023000002020202020101010101000000000001BD
:1023100001010303020202020203010101010000A4
:1023200000000001010101010000000000010101A5
:102330000101000000000001010101010000000096
:102340000001010101010000000000010101010183
:102350000000000000010103030302020202020167
:102360000101010100000000000101010101010162
:10237000010101010101010101010101010101014D
:102380000101000000000001010101010000000046
:102390000001010101010000000000010101010133
:1023A0000000000000010101010100000000000127
:1023B0000103030302020202020101010101000004
:1023C00000000001010103030202020202030101F5
:1023D00001010000000000010101010302020202EC
:1023E00002030301010100000000000101010101DD
:1023F00000000000000101010101000000000001D7
:1024000001010101000000000001010303030202B9
:10241000020202010101010143687279736C657265
:10242000204E47432033362D322B32206372616EAB
:102430006B2C204E474320382D63796C2063616DEF
:102440000002020000000000000000000000020284
:102450000202020202020202000001010101010067
:102460000000000203030303030202020200010151
:102470000101010000000000010101010100000054
:102480000000010101010100000000000101010143
:102490000100000000000101010101000000000036
:1024A0000101010101000000000001010101010022
:1024B0000002020203030303030202000000010101
:1024C0000101010000000000010101010100000004
:1024D00000000101010101000000000001010101F3
:1024E00001000000000001010101010000000000E6
:1024F00001010101010000000000010101010101D1
:1025000001010101010101010101010101010101BB
:1025100001010100000000000101010101000000B3
:102520000000010101010100000202020303030394
:10253000030202000000010101010100000002028B
:102540000303030303020202000001010101010071
:102550000000000001010101010000000000010174
:102560000101010000000000010101010100000063
:102570000000010101010100000000000101010152
:102580000100000000000101010101000000000045
:102590000101010101000000000001010101010031
:1025A0000002020203030303030202000000000012
:1025B0000000000000000202020202020202020207
:1025C00000000101010101000000000203030303F8
:1025D00003020202020001010101010000000000EB
:1025E00001010101010000000000010101010100E1
:1025F00000000000010101010100000000000101D4
:1026000001010100000000000101010101000000C2
:1026100000000101010101000002020203030303A3
:10262000030202000000010101010100000002029A
:102630000303030303020202000001010101010080
:102640000000000001010101010000000000010183
:102650000101010000000000010101010100000072
:10266000000001010101010101010101010101015C
:10267000010101010101010101010100000000004F
:102680000101010101000000000001010101010040
:10269000000202020303030303020200000001011F
:1026A0000101010000000000010101010100000022
:1026B0000000010101010100000000000101010111
:1026C0000100000000000101010101000000000004
:1026D00001010101010000000000010101010100F0
:1026E00000000000010101010100000000000101E3
:1026F00001010100000000000101010101000000D2
:1027000000000101010101000002020203030303B2
:102710000343687279736C6572204E4743203336E9
:102720002D322B32206372616E6B2C204E4743207A
:10273000362D63796C2063616D000000000000019C
:102740000101010101010101010101010101010179
:102750000101010303030303020202020203030354
:102760000303020202020203030303030202020242
:102770000203030303030200000000010101010141
:102780000000000000010101010100000000000143
:102790000101010100000000000101030303020226
:1027A0000202020303030303020202020203030301
:1027B00003030202020202030303030302020200F4
:1027C00000010101010100000000000101010101FF
:1027D00000000000000101010101000000000001F3
:1027E00001010103020202020203030303030202C6
:1027F00002020202020202020202020202020202B9
:1028000002020202020202030303030302020202A3
:10281000020303030303020202020203030303038E
:102820000202020202030303030302020202020382
:10283000030303030202020202030303030302026F
:102840000202020303030303020202020203030360
:102850000303020202020203030303030202020251
:10286000020303030303020202020203030303033E
:10287000020202000001010101010000000000014C
:10288000010101010000000000010101010100003F
:10289000000000010101010302020202020303031E
:1028A00003030202020202030303030303030303FD
:1028B00003030303030303030303030101010101F2
:1028C0000000000000010101010100000000000102
:1028D00001010101000000000001010101010002ED
:1028E00002020203030303030202020202030303C0
:1028F00003030202020202030303030302020202B1
:1029000002030301010100000000000101010101B7
:1029100000000000000101010101000000000001B1
:10292000010101010000000202030303030302028C
:10293000020202030303030302020202020303036F
:10294000030302020202020303030301000000006A
:102950000001010101010000000000000000000072
:102960000000000000000000000000000000000166
:10297000010101010000000000010101010100004E
:10298000000000010101010100000000000101013F
:102990000101000000000001010101010000000030
:1029A000000101010101000000000001010101011D
:1029B0000000000000010101010100000000000111
:1029C00001010101000000000001010101010000FE
:1029D00000000001010101010000000202030303E5
:1029E00003030202020202030303030302020202C0
:1029F00002030303030302020202020303030301AF
:102A00000000000000010101010143687279736C4C
:102A10006572204E47432033362B322D32206372AD
:102A2000616E6B2C204E474320342D63796C2063FC
:102A3000616D0001000100010001000100010001C1
:102A4000000100010001000100010001000100017E
:102A5000000100010001000100010001000100016E
:102A6000000100010001000100010001000100015E
:102A70000001000302030201000000010001000147
:102A8000000100010001000100010001000100013E
:102A9000000100010001000100010001000100012E
:102AA000000100010001000100010001000100011E
:102AB000000100010001000100010001000100010E
:102AC00000000033362D31206372616E6B20776910
:102AD000746820326E642074726967676572206F53
:102AE0006E2074656574682033332D333400000123
:102AF00000010001000100010003000100010001CC
:102B000000010001000100010001000100030001BB
:102B10000003000100010001000100010001486FF5
:102B20006E64612052433531207769746820636197
:102B30006D00010001000100010001000100010021
:102B4000010001000100010001000100000001007E
:102B5000010000000100010001000100010001006E
:102B6000010001000100010001000100010001005D
:102B7000000001000100010000004F6464204C6F60
:102B80007475732033362D312D312D312D31206662
:102B90006C79776865656C0001000100030203022F
:102BA000030203020302030201000100010001000D
:102BB000010001000100010001000100010001000D
:102BC00001000100010001000100010001000100FD
:102BD00001000100010001000302030203020302DD
:102BE00003020302010001000100010003020302CD
:102BF00003020302030203020302030203020302AD
:102C0000030203020302030203020302020202029E
:102C1000030203020302030203020302030203028C
:102C2000010001000100010003020302030203028C
:102C3000030203020302030203020302030203026C
:102C4000030203020302030203020302030203025C
:102C50000302030203020302030203020100010054
:102C6000010001000100010001000100010001005C
:102C7000010001000100010001000100010001004C
:102C80000100010000000000474D20353878206326
:102C900072616E6B20616E642034782063616D0018
:102CA000040000000000000000000000010101001D
:102CB0000000010101010101010101010101000008
:102CC00000010101010101010101010101000000F8
:102CD00001010101010101010101010100000001E7
:102CE00001010101010101010101010000000101D7
:102CF00001010101010101010101000000000000CA
:102D000000000000000001010100000001010101BC
:102D100001010101010101010000000101010101A6
:102D20000101010101010100000001010101010196
:102D3000010101010101000000000000000000008D
:102D40000000010101000000000000000000000080
:102D50000001010100000001010101010101010167
:102D60000101010000000101010101010101010156
:102D7000010100000000000000000000000001014F
:102D8000010000000000000000000000000101013F
:102D90000000000000000000000000000101010030
:102DA0000000010101010101010101010101000017
:102DB0000000000000000000000001010100000010
:102DC00001010101010101010101010100000000F7
:102DD00000000000000000000101010000000000F0
:102DE00000000000000000010101000000000000E0
:102DF00000000000000001010100000000000000D0
:102E000000000000000101010202020202020202AF
:102E10000202020203030302020203030303030389
:102E20000303030303030202020303030303030375
:102E30000303030303020202030303030303030365
:102E40000303030302020203030303030303030355
:102E50000303030202020303030303030303030345
:102E6000030302020202020202020202020203033E
:102E70000302020203030303030303030303030325
:102E80000202020303030303030303030303030216
:102E90000202030303030303030303030303020206
:102EA00002020202020202020202030303020202FF
:102EB00002020202020202020203030302020203EE
:102EC00003030303030303030303030202020303D5
:102ED00003030303030303030303020202020202C8
:102EE00002020202020203030302020202020202BF
:102EF00002020202020303030202020202020202AF
:102F00000202020203030302020203030303030398
:102F1000030303030303020202020202020202028B
:102F20000202030303020202030303030303030376
:102F3000030303030202020202020202020202026D
:102F4000030303020202020202020202020202035D
:102F5000030302020202020202020202020203034D
:102F6000030202020202020202020202020303033D
:102F7000474D204C5331206372616E6B20616E644B
:102F80002063616D000101010100000000000001EB
:102F9000010101000000000000010101010000002A
:102FA0000000000000000000000000000000000021
:102FB0000000010101010000000000000101010109
:102FC00000000000000001010101000000000000FD
:102FD00000000000004275656C6C204F64646669F7
:102FE00072652043414D20776865656C00030303DB
:102FF00003030303030302020202020000000000B5
:1030000000000000010101010101010303030202AC
:1030100002020200000000000000000001010101A6
:10302000010101010101000000000000000000009A
:103030000002020203030303030101010101000076
:10304000000000000000000000000000010101017C
:10305000010101030303020202020200000000005A
:103060000000000001010101010101010101000056
:10307000000000000000000000000202034D69741F
:1030800073756269736869203667373220776974AF
:10309000682063616D000100010001000100010072
:1030A0000100010001000100030203000100010012
:1030B0000100010001000100010001000100010008
:1030C00001000100010001000100010001000100F8
:1030D00001000100010001000100010000000100E9
:1030E00001000100010001000100030203000100D2
:1030F00003020300010001000100010001000100C2
:1031000001000100010001000100010001000100B7
:1031100001000100010001000100010001000100A7
:103120000100010000004D617A64612046453320B2
:1031300033362D3120776974682063616D00010199
:103140000101010101010101010001010101010170
:103150000101010101000100010101010101010161
:103160000100010101010101010101010100010151
:103170000101010101010101010101000101010140
:10318000010101010100474D2034323030206372CB
:10319000616E6B20776865656C00010000020000BD
:1031A0000100000000000100010001000100010019
:1031B0000100010001000100010001000100010007
:1031C00001000100010000020000010001000100F7
:1031D00001000100010001000100010001000100E7
:1031E00001000100000000000100000000000100DB
:1031F00001020100010001000100010001000100C5
:1032000001000100010001000100010001000000B7
:1032100000000100010001000100010001000100A7
:103220000100010001000100010033362D322D3272
:103230002D32204372616E6B20616E642063616D7C
:103240000001000100010001000100010001000176
:103250000001000100010001000100010001000166
:103260000001000100010000000000010001000158
:103270000001000100010001000100010001000047
:1032800000000001000000000033362D322D322DE9
:1032900032204836204372616E6B206F6E6C79006D
:1032A0000100010001000100010001000100010016
:1032B0000100010001000100010000000000010008
:1032C00000000000010001000100010001000100F8
:1032D00001000100010001000100010001000000E7
:1032E000000001000100010033362D322D322D3255
:1032F000204834204372616E6B206F6E6C79000140
:1033000000000001000000010000000100000001B9
:1033100000000001000000010000000100000001A9
:10332000000000000000000000000000000000316C
:10333000322D33206F646462616C6C000001000107
:103340000001000100010001000100010001000175
:103350000001000100010001000100010001000165
:103360000001000100010001000100010001000155
:103370000001000100010001000100010001000145
:103380000001000100010001000100010001000135
:103390000001020302030203020302030203020309
:1033A0000001000100010001000100010001000115
:1033B0000001000100010001000100010001000105
:1033C00000010001000100010001000100010001F5
:1033D00000010001000100010001000100010001E5
:1033E00000010001000100010001000102030203CD
:1033F00000010001000100010001000100010001C5
:1034000000010001000100010001000100010001B4
:1034100000010001000100010001000100010001A4
:103420000001000100010001000100010001000194
:103430000001000100010001000100010001000184
:103440000001000100010203020302030203020360
:103450000203020302030203020302030203000148
:103460000001000100010001000100010001000154
:103470000001000100010001000100010001000144
:103480000001000100010001000100010001000134
:103490000001000100010001000100010001000124
:1034A000020302030001000100010001000100010C
:1034B0000001000100010001000100010001000104
:1034C00000010001000100010001000100010001F4
:1034D00000010001000100010001000100010001E4
:1034E00000010001000100010001000100010001D4
:1034F00000010001000100010001020302030203B8
:103500000203020302030203020302030203020393
:10351000020302030203020302030203000100018B
:103520000001000100010001000100010001000193
:103530000001000100010001000100010001000183
:103540000001000100010001000100010001000173
:10355000000100010203020300010001000100015B
:103560000001000100010001000100010001000153
:103570000001000100010001000100010001000143
:103580000001000100010001000100010001000133
:103590000001000100010001000100010001000123
:1035A000000100010001000100010001000102030F
:1035B00002030203020302030203020302030203E3
:1035C00002030203020302030203020302030203D3
:1035D00002030203020302030203000100010001CF
:1035E00000010001000100010001000100010001D3
:1035F00000010001000100010001000100010001C3
:10360000000100010001000102030203474D204FA9
:10361000707469537061726B204C543120333630B2
:1036200020616E64203800010000000000000000EE
:103630000100000000000000000000000000006F1A
:103640006464206669726520393020646567207083
:1036500061747465726E203020616E642031333580
:103660002070756C7365730000000000000101019B
:10367000014469737472696275746F72207374792E
:103680006C6520342063796C203530646567206F69
:1036900066662C20343020646567206F6E00000160
:1036A0000001000100010001000100010001000112
:1036B0000001000100010001000100010001000102
:1036C00000010001000100010001000100010001F2
:1036D00000010001000100010001000100010001E2
:1036E0000001000100010001000100010000343070
:1036F0002D31206372616E6B206F6E6C79202846CD
:103700006F72642056313029000000000000010073
:1037100000000000010000000000010000000000A7
:103720000100000000000100000000000100000096
:103730000000010000000000010000000000010086
:103740000000000001000000000001000000000077
:103750000000000000000100000000000100000067
:103760000000010000000000010000000000010056
:103770000000000001000000000001000000000047
:10378000010000000000010202020202010000002C
:1037900000000100000000000031322D3120637272
:1037A000616E6B20776974682063616D00000001B1
:1037B0000000010000010000010000010000000005
:1037C00000010000010202010000010000010000F0
:1037D00000362D31206372616E6B2077697468202A
:1037E00063616D00000100010001000100010001A2
:1037F00000010000382D31206372616E6B206F6E06
:103800006C792028523629000001000100010000D7
:103810000001020100010000342D31206372616E4D
:103820006B20776865656C20776974682063616DCB
:103830000001000100010001000100010001000180
:103840000001000100010001000100010001000170
:103850000001000100010001000100010001000061
:103860000032342D31206372616E6B206F6E6C7983
:103870000001000100010001000100010001000140
:103880000001000100010001000100010001000130
:103890000001000100010001000100010001000120
:1038A0000001000100010001000100010001000110
:1038B00000010001000100000033362D3120637249
:1038C000616E6B206F6E6C790001000100010001D8
:1038D00000010001000100010001000100010001E0
:1038E00000010001000100010001000100010001D0
:1038F00000010001000100010001000100010001C0
:1039000000010001000100010001000100010001AF
:10391000000100010001000100010001000100039D
:10392000020302030203020302030203020302036F
:103930000203020302030203020302030202020261
:10394000020302030203020302030203020302034F
:10395000020302030203020302030203020302033F
:10396000020302030203020302030203020302032F
:10397000020302030203020302030203020302031F
:10398000020302030203020302030203020302030F
:103990000203020302030201000100010001000111
:1039A000000100010001000100010001000100010F
:1039B00000010001000000000036302D322063724B
:1039C000616E6B20616E64202768616C66206D6F8C
:1039D0006F6E272063616D0001000100010001008E
:1039E00001000100010001000100010001000100CF
:1039F00001000100010001000100010001000100BF
:103A000001000100010001000100010001000100AE
:103A1000010001000100010001000100010001009E
:103A2000010001000100010001000100010001008E
:103A3000010001000100010001000100010001007E
:103A40000100010001000100010001000000000070
:103A5000010001000100010001000100010001005E
:103A6000010001000100010001000100010001004E
:103A7000010001000100010001000100010001003E
:103A8000010001000100010001000100010001002E
:103A9000010001000100010201000100010001001C
:103AA000010001000100010001000100010001000E
:103AB00001000100010001000100010001000100FE
:103AC000010001000000000036302D3220637261D9
:103AD0006E6B20616E642063616D00010001000166
:103AE00000010001000100010001000100010001CE
:103AF00000010001000100010001000100010001BE
:103B000000010001000100010001000100010001AD
:103B1000000100010001000100010001000100019D
:103B2000000100010001000100010001000100018D
:103B3000000100010001000100010001000100017D
:103B4000000100010001000100010001000100006E
:103B500000000036302D32206372616E6B206F6E74
:103B60006C79000100010001000100382063796CCC
:103B7000696E6465722064697A7A790001000100D7
:103B80000100362063796C696E6465722064697A1D
:103B90007A790001000100342063796C696E6465F4
:103BA000722064697A7A7900000000010203040639
:103BB000080A0C0E111316191C1F2326292D303448
:103BC000373B3E4145484B4E515356585A5C5E6018
:103BD0006162636464646464636261605E5C5A58D9
:103BE0005653514E4B4845413E3B3734302D2926E4
:103BF000231F1C191613110E0C0A080604030201D8
:103C000000000000000101020203040507080A0B7E
:103C10000D0F11131517191B1E202325282A2D2FD0
:103C20003235373A3C3F414446494B4D4F5153554D
:103C300057595A5C5D5F6061626263636464646487
:103C4000646363626261605F5D5C5A5957555351AA
:103C50004F4D4B494644413F3C3A3735322F2D2A90
:103C6000282523201E1B19171513110F0D0B0A08E9
:103C7000070504030202010100000000000000012A
:103C80000101020203040405060708090A0B0C0DD2
:103C90000E0F111213151618191B1C1E1F21232499
:103CA0002628292B2D2F3032343537393B3C3E40E6
:103CB0004143454648494B4C4E4F51525355565738
:103CC00058595A5B5C5D5E5F60606162626363630A
:103CD00064646464646464646463636362626160B2
:103CE000605F5E5D5C5B5A59585756555352514F51
:103CF0004E4C4B494846454341403E3C3B393735A5
:103D00003432302F2D2B2928262423211F1E1C1B43
:103D1000191816151312110F0E0D0C0B0A090807AE
:103D20000605040403020201010100000000000076
:103D30000000250028002B000000000024002700C0
:103D40002A0004040404040404040202020202021D
:103D5000030303030303010204081020408001024F
:103D600004081020010204081020D82211241FBECC
:103D7000CFEFD8E0DEBFCDBF13E0A0E0B1E0E4E0DC
:103D8000F4E502C005900D92A63FB107D9F724E0F3
:103D9000A6EFB3E001C01D92AE3CB207E1F71EE111
:103DA000C6EBDEE104C02197FE010E945E28C53B00
:103DB000D107C9F70E942B230C94002A0C94000011
:103DC00090E0FC01EA5AF24C24918E5B924CFC018B
:103DD0008491882399F090E0880F991FFC01E85C9A
:103DE000F24CA591B491FC01E25DF24C8591949165
:103DF0008FB7F894EC91E22BEC938FBF08953FB707
:103E0000F8948091180490911904A0911A04B0912B
:103E10001B0426B5A89B05C02F3F19F00196A11DD4
:103E2000B11D3FBFBA2FA92F982F8827BC01CD0104
:103E3000620F711D811D911D42E0660F771F881F63
:103E4000991F4A95D1F70895AF92BF92CF92DF9212
:103E5000EF92FF920F931F93CF93DF936C017B013F
:103E60008B01040F151FEB015E01AE18BF08C017D0
:103E7000D10759F06991D601ED91FC910190F08143
:103E8000E02DC6010995892B79F7C501DF91CF9106
:103E90001F910F91FF90EF90DF90CF90BF90AF9068
:103EA0000895FC01538D448D252F30E0842F90E040
:103EB000821B930B541710F0CF9608950197089525
:103EC000FC01918D828D981761F0A28DAE0FBF2FEE
:103ED000B11D5D968C91928D9F5F9F73928F90E044
:103EE00008958FEF9FEF0895FC01918D828D9817B3
:103EF00031F0828DE80FF11D858D90E008958FEFF0
:103F00009FEF0895FC01918D228D892F90E0805CB8
:103F10009F4F821B91098F73992708958CE194E03C
:103F20000E94821F21E0892B09F420E0822F08954E
:103F300080E090E0892B29F00E948E1F81110C9463
:103F400000000895FC01A48DA80FB92FB11DA35A3C
:103F5000BF4F2C91848D90E001968F739927848FA9
:103F6000A689B7892C93A089B1898C9183708064CC
:103F70008C93938D848D981306C00288F389E02D6D
:103F800080818F7D80830895EF92FF920F931F931E
:103F9000CF93DF93EC0181E0888F9B8D8C8D9813FC
:103FA0001AC0E889F989808185FF15C09FB7F89408
:103FB000EE89FF896083E889F98980818370806454
:103FC00080839FBF81E090E0DF91CF911F910F919F
:103FD000FF90EF900895F62E0B8D10E00F5F1F4FAE
:103FE0000F731127E02E8C8D8E110CC00FB607FCBD
:103FF000FACFE889F989808185FFF5CFCE010E944B
:10400000A21FF1CFEB8DEC0FFD2FF11DE35AFF4FF7
:10401000F0829FB7F8940B8FEA89FB8980818062D8
:10402000CFCFCF93DF93EC01888D8823B9F0AA8995
:10403000BB89E889F9898C9185FD03C0808186FD63
:104040000DC00FB607FCF7CF8C9185FFF2CF8081B2
:1040500085FFEDCFCE010E94A21FE9CFDF91CF9166
:104060000895CF93DF93382FC091BE048CE0C89F92
:10407000E0011124CE5FDE4F832F6A307105810588
:10408000910520F46AE070E080E090E00E9405294C
:104090002C813D814E815F810E9493299B01AC015F
:1040A00060E074E284EF9AE40E9464280E94D628BB
:1040B00061157105810521E0920738F561157105DB
:1040C00020E48207910520F56115710528E082073B
:1040D000910508F56115710521E082079105F0F45D
:1040E00030E021E004C096958795779567953A95DD
:1040F000D2F770930101609300012093FD0381E0EA
:104100008093FC03DF91CF9108953AE025E0EACF58
:1041100038E024E0E7CF36E023E0E4CF33E022E0EC
:10412000E1CFFC0101900020E9F73197AF01481B76
:10413000590BBC018CE194E00C94241F8F929F9248
:10414000AF92BF920F931F93CF93DF93CDB7DEB79C
:10415000A1970FB6F894DEBF0FBECDBF19A24230B3
:1041600008F44AE08E010F5D1F4F842E912CB12C74
:10417000A12CA50194010E941928E62FB901CA01BA
:10418000EA30F4F4E05DD801EE938D01232B242B6B
:10419000252B79F790E080E0109719F0CD010E946F
:1041A0009120A1960FB6F894DEBF0FBECDBFDF9170
:1041B000CF911F910F91BF90AF909F908F900895D6
:1041C000E95CE1CFCF93DF930E949120EC0181EF76
:1041D00093E00E9491208C0F9D1FDF91CF91089555
:1041E000CF93DF93BC0190E080E04AE00E949E20E4
:1041F000EC0181EF93E00E9491208C0F9D1FDF91D5
:10420000CF9108951F93CF93DF93EC01162F0E9457
:10421000F827181739F0612FCE01DF91CF911F9148
:104220000C940028DF91CF911F9108951F93CF9395
:10423000DF93CDEBD4E0698182E090E00E9402211F
:104240006A8183E090E00E94022161E081E090E0D9
:104250000E940221EDE0F4E01481658184E090E0A9
:104260000E940221612F85E090E00E9402211B81C3
:104270006C818CE090E00E940221612F8DE090E043
:104280000E9402211D816E8186E090E00E94022141
:10429000612F87E090E00E9402211F81688588E0FD
:1042A00090E00E940221612F89E090E00E940221AB
:1042B00019856A858AE090E00E940221612F8BE0D7
:1042C00090E00E9402216B858EE090E00E94022126
:1042D0006C858FE090E00E9402211D856E8580E153
:1042E00090E00E940221612F81E190E00E94022172
:1042F0001F85688982E190E00E940221612F83E19D
:1043000090E0DF91CF911F910C9402210C94F8273B
:104310001F920F920FB60F9211242F933F938F93FA
:104320009F93AF93BF938091140490911504A09133
:104330001604B09117043091130423E0230F2D3796
:1043400058F50196A11DB11D209313048093140408
:1043500090931504A0931604B09317048091180449
:1043600090911904A0911A04B0911B040196A11D0B
:10437000B11D8093180490931904A0931A04B0936C
:104380001B04BF91AF919F918F913F912F910F90FF
:104390000FBE0F901F90189526E8230F0296A11DBF
:1043A000B11DD2CF1F920F920FB60F9211242F93EF
:1043B0003F934F935F936F937F938F939F93AF93AD
:1043C000BF93EF93FF938CE194E00E94A21FFF91B3
:1043D000EF91BF91AF919F918F917F916F915F917D
:1043E0004F913F912F910F900FBE0F901F901895F6
:1043F0001F920F920FB60F9211242F938F939F93BA
:10440000EF93FF93E0912C04F0912D048081E091D3
:104410003204F091330482FD1BC0908180913504F9
:104420008F5F8F7320913604821741F0E09135043D
:10443000F0E0E45EFB4F958F80933504FF91EF91A0
:104440009F918F912F910F900FBE0F901F901895F5
:104450008081F4CF1F920F920FB60F9211240F9309
:104460001F932F933F934F935F936F937F938F93FC
:104470009F93AF93BF93EF93FF938091FE0390912F
:10448000FF03A091BE042CE0A29FD0011124AE5FD7
:10449000BE4F1296ED91FC911397E80FF91FE4912E
:1044A0008091FB03E827E5B98091FE039091FF031B
:1044B00001969093FF038093FE038091FE039091F9
:1044C000FF0318962D913C912817390721F510927A
:1044D000FF031092FE030E94FF1E0091B904109189
:1044E000BA042091BB043091BC04601B710B820B99
:1044F000930B6093020470930304809304049093DD
:1045000005040E94FF1E6093B9047093BA0480935F
:10451000BB049093BC048091FC03882371F08091CC
:104520008100887F809381009091FD0380918100BC
:10453000892B809381001092FC038091000190915F
:1045400001019093890080938800FF91EF91BF91C2
:10455000AF919F918F917F916F915F914F913F911B
:104560002F911F910F910F900FBE0F901F901895D4
:104570001F920F920FB60F9211248F939F938091E9
:10458000FA0381110EC090917800809179008927FB
:104590009827892790930B0480930A0481E08093E5
:1045A0000C049F918F910F900FBE0F901F90189544
:1045B000ECE1F4E01382128288EE93E0A0E0B0E038
:1045C00084839583A683B78383EE93E0918380836E
:1045D00085EC90E09587848784EC90E097878687C8
:1045E00080EC90E0918B808B81EC90E0938B828BC0
:1045F00082EC90E0958B848B86EC90E0978B868B99
:10460000118E128E138E148EEDEBF4E084E3818311
:1046100084EC99E0948383838AEF90E0968385838A
:1046200080EA9FE09087878388EE93E09287818776
:104630001386148680E991E096878587108A17860D
:104640000E94FF1E6093B9047093BA048093BB0468
:104650009093BC040895CF93DF93CDB7DEB7C655D2
:10466000D1090FB6F894DEBF0FBECDBF789484B5E4
:10467000826084BD84B5816084BD85B5826085BD5E
:1046800085B5816085BD80916E00816080936E00EC
:1046900010928100809181008260809381008091DE
:1046A000810081608093810080918000816080938F
:1046B00080008091B10084608093B1008091B0004F
:1046C00081608093B00080917A00846080937A004A
:1046D00080917A00826080937A0080917A00816074
:1046E00080937A0080917A00806880937A0010929B
:1046F000C10081E090E00E9486218F3F09F07AC1DD
:1047000085E08093BE0488EB9BE090931204809335
:10471000110490930E0480930D0482E08093BF04F3
:104720008CEA9DE09093C1048093C00480E797E1F8
:104730009093C5048093C40488EE93E09093C304DF
:104740008093C2049093C7048093C6040E941621EC
:10475000E0912C04F0912D0482E08083E091280404
:10476000F09129041082E0912A04F0912B0480E159
:10477000808310923404E0913004F091310486E09B
:104780008083E0912E04F0912F04808180618083EA
:10479000E0912E04F0912F04808188608083E09165
:1047A0002E04F0912F04808180688083E0912E0494
:1047B000F0912F0480818F7D808310920104F89402
:1047C0001092800010928100109285001092840057
:1047D00088EE93E090938900809388008091810017
:1047E0008860809381008091810081608093810046
:1047F00080916F00826080936F001092B0001092E1
:10480000B1001092B20089EF8093B3008091B000A4
:1048100082608093B0008091B10084608093B10089
:1048200080917C008F7D80937C0080917C008064EF
:1048300080937C0080917C00807F80937C008091BD
:104840007A00806880937A0080917A0080628093F9
:104850007A0080917B00887F80937B0080917A0032
:10486000876080937A0080917A00886080937A00D4
:1048700088E00E94E01E89E00E94E01E8AE00E941B
:10488000E01E8BE00E94E01E789480917A008064A4
:1048900080937A00609111047091120490E080E09E
:1048A0000E943120F4EBAF2EB12CECE0FE2EEE2472
:1048B000E39400910D0410910E048CE194E00E94A9
:1048C000821F1816190614F580910104811106C083
:1048D0008CE194E00E94601F8093000480910004AA
:1048E000833509F48CC208F08CC18E3409F4F2C10E
:1048F00008F07CC1833409F4BAC142E0C42E41E01F
:10490000D42E8C3409F4C6C1109201048091BF04E6
:10491000823009F0B9C280910C04882389F010928A
:104920000C0400910A0410910B0434E0000F111FD5
:104930003A95E1F7093283E2180710F008E213E232
:1049400010930E0400930D04C0901104D090120433
:104950008091CA049091CB048C159D0508F439C34D
:104960008091C804882309F434C380910204909193
:104970000304A0910404B0910504892B8A2B8B2B8E
:1049800009F4D2C20E94FF1E2091B9043091BA04EA
:104990004091BB045091BC04E091BE04EF9DF00136
:1049A0001124E45FFE4FE491209002043090030450
:1049B00040900404509005043B014C01621A730AB4
:1049C000840A950AA4019301A8E6B1E00E940E288A
:1049D000A20191010E9419288091CC049091CD04EC
:1049E000820F931F893621E0920708F49FC28856F0
:1049F0009140F8CF82E090E00E948621A82E80931B
:104A0000BE0483E090E00E948621B82E8093BF040C
:104A100084E090E00E948621C82E85E090E00E940C
:104A20008621DC2CC82ED0921204C09211048CE096
:104A300090E00E948621182F8DE090E00E94862150
:104A4000912F893223E2920710F088E293E28436B4
:104A5000910510F484E690E09093C1048093C00423
:104A600086E090E00E948621E82E87E090E00E9498
:104A70008621FE2CE82E49E2E41643E2F40620F0FB
:104A800018E2E12E13E2F12E84E6E816F10418F4A0
:104A9000B4E6EB2EF12CF092C304E092C20488E05D
:104AA00090E00E948621082F89E090E00E948621F4
:104AB000102F082F093293E2190710F008E213E2D1
:104AC0000436110510F404E610E01093C5040093B9
:104AD000C4048AE090E00E948621982E8BE090E04A
:104AE0000E948621992D8131E7E29E0710F080E136
:104AF00097E2883C910510F488EC90E09093C7040D
:104B00008093C604E016F10630F0045611091093A4
:104B1000C3040093C2048EE090E00E94862191E0DD
:104B2000811101C090E09093C8048FE090E00E9452
:104B30008621F82E8093C90480E190E00E948621AE
:104B4000082F81E190E00E948621102F082F1093FA
:104B5000CB040093CA0482E190E00E948621E82EF3
:104B600083E190E00E9486219E2D9093CD04809356
:104B7000CC04FCE3FA1518F425E02093BE04A2E06F
:104B80006A2E6B1418F421E02093BF0429E9C216A1
:104B90002AE3D20630F020EA3FE03093120420935B
:104BA000110420910D0430910E0429393A4330F05C
:104BB00020EA3FE030930E0420930D04E5E0EF156A
:104BC00018F423E02093C904093E134030F020E993
:104BD00031E03093CB042093CA048836914008F426
:104BE000B7CD1092CD041092CC04B2CD803509F42B
:104BF00078C0823509F088CE80911104909112041A
:104C000033C08E3609F45AC0E8F4883509F414C16B
:104C1000833609F079CE8CE194E00E94821F4097A0
:104C2000D0F37EEBC72E74E0D72E8CE194E00E9487
:104C3000601FF60181936F01FEECCF16F4E0DF06F2
:104C4000A1F762CE823709F486C0833709F4D4C055
:104C5000803709F059CEE091BE04FE9EF001112488
:104C6000EE5FFE4F808591850E94F0204DCE6DEB6A
:104C7000C62E64E0D62EF60161916F018CE194E0BE
:104C80000E94C41F5EEC652E54E0752E6C147D04EA
:104C900091F73ACEF60160817181CE0101960E94B2
:104CA000F127CE0101960E94E220FCE0CF0ED11C3C
:104CB0002EEDC21623E0D20669F726CE4AE06DE358
:104CC00070E080E090E00E949E2081EF93E00E94DF
:104CD00091201ACE6091BE0470E090E080E04AE03E
:104CE000F2CFD12CC12CE091BE04FE9EF001112424
:104CF000EE5FFE4F80859185C816D906F0F4C11489
:104D0000D10421F084EF93E00E949120E091BE0451
:104D1000FE9EF0011124EE5FFE4F0280F381E02D34
:104D2000EC0DFD1D649170E090E080E04AE00E948F
:104D30009E204FEFC41AD40AD6CF83EF93E00E948F
:104D4000E220E091BE04FE9EF0011124EE5FFE4FD2
:104D50008285938589CF1092BF048CE194E00E94F4
:104D6000821F0697D4F38CE194E00E94601FD82E36
:104D70008CE194E00E94601F67968FAF67976696FC
:104D80001FAE669767968EAD9FAD67978D299093FE
:104D9000C3048093C2048CE194E00E94601FD82E6B
:104DA0008CE194E00E94601F63968FAF63976296D8
:104DB0001FAE629763968EAD9FAD63978D299093DA
:104DC000C5048093C4048CE194E00E94601FD82E37
:104DD0008CE194E00E94601F65968FAF65976496A2
:104DE0001FAE649765968EAD9FAD65978D299093A4
:104DF000C7048093C60488CD0E94162185CD8CE11E
:104E000094E00E94821F18161906CCF78CE194E0FA
:104E10000E94601F8D3308F077CD6091110470916E
:104E200012048093BE0490E080E00E943120109232
:104E3000FF031092FE0368CD8091BE048C3301F510
:104E40001092BE04609111047091120490E080E011
:104E50000E9431201092FF031092FE03E091BE04E5
:104E6000FE9EF0011124EE5FFE4F60817181CE0144
:104E700001960E94F127CE0101960E94E22044CDC6
:104E80008F5F8093BE04DECF811146C00E94FF1E5B
:104E9000AB01BC012091C6043091C7048091060487
:104EA00090910704A0910804B0910904820F931F08
:104EB000A11DB11D84179507A607B70708F040CDBF
:104EC0000E94FF1E609306047093070480930804F9
:104ED0009093090400910D0410910E048091DE035B
:104EE000813069F40F5F1F4F8091C4049091C50415
:104EF0000817190708F424CD1092DE0321CD0150C4
:104F000011098091C2049091C3048017910708F49D
:104F100017CDE092DE0314CD813009F011CD009160
:104F2000C0041091C1040CCD90E080E02091C90430
:104F3000233019F048F4213099F0B5010E944A2835
:104F4000FC01E658F34C1AC0243089F02530A9F74B
:104F50006AE570E00E944A28FC01E855F44C0EC056
:104F6000FC01F695E795E658F34CE491E6CF68E747
:104F700070E00E944A28FC01EE5FF34CE491F0E0FF
:104F8000E017F10748F5F0931004E0930F048091C7
:104F90000F0490911004081B190B0A30110560F0E2
:104FA0000C151D0529F0B80190E080E00E94312029
:104FB000109312040093110480E090E0892B09F40F
:104FC00078CC0E948E1F882309F471CC0E940000C7
:104FD0006CCCF0E0E0E0D4CF1092100410920F04FB
:104FE000D6CFFB01DC0105900D920020E1F708957A
:104FF000F999FECF92BD81BDF89A992780B50895A1
:10500000262FF999FECF1FBA92BD81BD20BD0FB6E4
:10501000F894FA9AF99A0FBE019608950E943B28D7
:10502000A59F900DB49F900DA49F800D911D1124FC
:105030000895A1E21A2EAA1BBB1BFD010DC0AA1FD9
:10504000BB1FEE1FFF1FA217B307E407F50720F0F1
:10505000A21BB30BE40BF50B661F771F881F991F6C
:105060001A9469F760957095809590959B01AC01B5
:10507000BD01CF010895A29FB001B39FC001A39FBE
:10508000700D811D1124911DB29F700D811D112481
:10509000911D0895AA1BBB1B51E107C0AA1FBB1F8E
:1050A000A617B70710F0A61BB70B881F991F5A95B4
:1050B000A9F780959095BC01CD010895EE0FFF1FD3
:1050C0000590F491E02D09940E9478280C945929B8
:1050D0000E94522958F00E944B2940F029F45F3F6A
:1050E00029F00C94422951110C948D290C944829D3
:1050F0000E946A2968F39923B1F3552391F3951B14
:10510000550BBB27AA2762177307840738F09F5FE8
:105110005F4F220F331F441FAA1FA9F335D00E2E55
:105120003AF0E0E832D091505040E695001CCAF7C2
:105130002BD0FE2F29D0660F771F881FBB1F261785
:1051400037074807AB07B0E809F0BB0B802DBF015C
:10515000FF2793585F4F3AF09E3F510578F00C942B
:1051600042290C948D295F3FE4F3983ED4F3869551
:1051700077956795B795F7959F5FC9F7880F911D4C
:105180009695879597F90895E1E0660F771F881F38
:10519000BB1F621773078407BA0720F0621B730BEB
:1051A000840BBA0BEE1F88F7E09508950E947229D0
:1051B00088F09F5798F0B92F9927B751B0F0E1F0D8
:1051C000660F771F881F991F1AF0BA95C9F714C088
:1051D000B13091F00E948C29B1E008950C948C2993
:1051E000672F782F8827B85F39F0B93FCCF38695C1
:1051F00077956795B395D9F73EF49095809570951E
:1052000061957F4F8F4F9F4F0895E89409C097FB9A
:105210003EF490958095709561957F4F8F4F9F4F8D
:105220009923A9F0F92F96E9BB279395F6958795D1
:1052300077956795B795F111F8CFFAF4BB0F11F494
:1052400060FF1BC06F5F7F4F8F4F9F4F16C088233B
:1052500011F096E911C0772321F09EE8872F762F71
:1052600005C0662371F096E8862F70E060E02AF0B2
:105270009A95660F771F881FDAF7880F969587959E
:1052800097F9089597F99F6780E870E060E00895C6
:105290009FEF80EC089500240A941616170618064E
:1052A0000906089500240A9412161306140605062A
:1052B0000895092E0394000C11F4882352F0BB0FBB
:1052C00040F4BF2B11F460FF04C06F5F7F4F8F4F1E
:1052D0009F4F089557FD9058440F551F59F05F3F59
:1052E00071F04795880F97FB991F61F09F3F79F008
:1052F00087950895121613061406551FF2CF46958A
:10530000F1DF08C0161617061806991FF1CF86950B
:105310007105610508940895E894BB2766277727EF
:10532000CB0197F908950E94A6290C9459290E944F
:105330004B2938F00E94522920F0952311F00C944B
:1053400042290C94482911240C948D290E946A2921
:1053500070F3959FC1F3950F50E0551F629FF001C8
:10536000729FBB27F00DB11D639FAA27F00DB11DE1
:10537000AA1F649F6627B00DA11D661F829F22276A
:10538000B00DA11D621F739FB00DA11D621F839FF1
:10539000A00D611D221F749F3327A00D611D231FC7
:1053A000849F600D211D822F762F6A2F11249F5715
:1053B00050409AF0F1F088234AF0EE0FFF1FBB1F18
:1053C000661F771F881F91505040A9F79E3F5105D7
:1053D00080F00C9442290C948D295F3FE4F3983EB1
:1053E000D4F3869577956795B795F795E7959F5F81
:1053F000C1F7FE2B880F911D9695879597F9089513
:04540000F894FFCF4E
:105404008813973B933B0A85083D04006801823B5F
:105414007C3BCDCC4C3D060068016B3B633B488A2A
:10542400883D08006801533BDB3A0000803F780068
:105434006801C83AD8390000803FF000D002B93979
:10544400C9380000803FF000D002B93871389A9909
:10545400193F48006801613831380000003F3000CE
:10546400680118380838488A883D1000D002F4379B
:10547400E437A987083E10006801D137AD379A99FF
:10548400193E2400D002993709379A99193F9000A0
:10549400D002EE369E36E3AA2A3F500068017136E8
:1054A40068369A99193E0900D0023F362736CDCC8A
:1054B4004C3E180068010C363C3300004040D002DA
:1054C400D0022F33FF32CDCCCC3E30006801E8321D
:1054D400A0329A99193F48006801893241329A9959
:1054E400193F480068012A329A319A99193F90006D
:1054F400D00286313E319A99193F4800680126311D
:1055040096309A99193F9000D0027D30ED2F9A99E8
:10551400193F9000D002D52F852F3BAAAA3E5000F8
:10552400D002702FA02C0000C040D002D002882CE2
:10553400982B0000803FF000D0027A2B322B9A99EE
:10554400193F480068011E2BEE2ACDCC4C3E30009A
:10555400D002C32A332A9A99193F9000D0020A2A0A
:105564003A2700004040D002D00211274124000015
:105574004040D002D0021824482100004040D0020C
:10558400D002242194209A99993F9000D002792046
:10559400A91D00004040D002D0028D1DBD1A00009C
:1055A4004040D002D002911A491A9A99993E480073
:1055B400D002131AD319F888883E4000D002AC19DF
:1055C400A4190A85883D0800D0027D197119CDCC33
:1055D400CC3D0C00D0024A193A19A987083E1000A4
:1055E400D0021419341700008040E001D0021417CF
:1055F400AC150000C03F6801D0028615F6149A99D4
:10560400193F9000D002D914A1100000C03F380403
:10561400D0028A10FA0F9A99193F9000D002E50F30
:10562400C70F0000803F1E00D002A00F100FCDCC8A
:105634004C3F90006801040F740E9A99193F900032
:10564400D0025B0ECB0D9A99193F9000D002B20D97
:10565400220D9A99193F9000D002090D390A0000D1
:105664004040D002D002330A7F098941C03FB400D0
:10567400D0027609E6089A99193F9000D002DB0817
:105684000B0600004040D002D002FB056B059A993E
:10569400193F9000D0025F05CF04FA7EAA3E900025
:1056A400D002C2043204FA7EAA3E9000D00224043E
:1056B400DC039A99193F48006801D2036A0200008A
:1056C400C03F6801D002620272010000803FF00016
:1056D400D002580168000000803FF000D0020100B1
:1056E400000000C41F241F511F1120821F601F745B
:0656F4001F0D0A002C004E
:00000001FF
