:100000000C94F31D0C941B1E0C941B1E0C941B1EB5
:100010000C941B1E0C941B1E0C941B1E0C941B1E7C
:100020000C941B1E0C941B1E0C941B1E0C9445213F
:100030000C941B1E0C941B1E0C941B1E0C941B1E5C
:100040000C94A3200C941B1E0C9413210C94ED20F3
:100050000C941B1E0C94C2210C941B1E0C941B1E92
:100060000C941B1E0C941B1E0202020202020303CC
:10007000020202020303020202020202020202025E
:10008000020202020202030302020202030302024C
:10009000020202020202020202020202020203033E
:1000A000020202020303020202020202020202022E
:1000B000020202020202030302020202030302021C
:1000C000020202020202020202020202020203030E
:1000D00002020202030302020202020202020202FE
:1000E000000000000000010100000000010100000C
:1000F00000000000000000000000000000000101FE
:1001000000000000010100000000000000000000ED
:1001100000000000000001010000000001010000DB
:1001200000000000000000000000000000000101CD
:1001300000000000010100000000000000000000BD
:1001400000000000000001010000000001010000AB
:100150000000000000000000446F646765205669DD
:100160007065722056313020313939362D323030B9
:100170003200010001000100010001000100010046
:100180000100010001000100010001000100010067
:1001900007060706070607060706070607060706F7
:1001A0000100010001000100010001000100010047
:1001B0000100010001000100010001000100010037
:1001C000010001000100010001000100070607060F
:1001D00007060706070607060706070607060706B7
:1001E00007060706070606060606070607060706A9
:1001F0000706070607060706070607060706070697
:1002000007060706070607060100010001000100B6
:10021000010001000100070607060706070607069A
:100220000706070607060706070607060706070666
:100230000706070607060706070607060706070656
:10024000070607060100010001000100010001008E
:100250000100010001000100010001000100000097
:100260000000424D57204E323000000000000000D8
:10027000000000000000000000000000000000007E
:10028000000000000001000000000000000000016C
:10029000000000000000000000010000000000005D
:1002A000000000010000000000000000000000004D
:1002B0000000000202020202020202020202020224
:1002C000020302020202020202020203020202020C
:1002D00002020202020302020202020202020203FC
:1002E00002020202020202020202020202020202EE
:1002F00002020202020202020202020202030202DD
:1003000002020202020202030202020202020202CC
:1003100002030202020202020202020302020202BB
:1003200002020202020202020202020202020202AD
:10033000020202020202020202030202020202029C
:10034000020202030202020202020202020302028B
:10035000020202020202020302020202020202027C
:10036000020202020202020000000000000000007F
:10037000000000000001000000000000000000017B
:10038000000000000000000000010000000000006C
:10039000000000010000000000000000000000005C
:1003A000000000000000000000000000000000004D
:1003B000000100000000000000000001000000003B
:1003C000000000000001000000000000000000012B
:1003D00000004A65657020323030300001010101B3
:1003E00001010202020200000303030303030202ED
:1003F00000000000010101010101000000000000F7
:1004000001010101010100000000000001010101E2
:1004100001010000000000000101010101010000D4
:100420000000000053757A756B692044525A3430CD
:100430003000010102000000000000000000010186
:1004400000000000000000000000010100000000AA
:10045000000000000000010100000000000000009A
:100460000000010100000000000000000000010188
:10047000000000000000000000000101000000007A
:10048000000000000000010100000000000000006A
:100490000000010100000000000000000000010158
:1004A000000000000000000000000101000000004A
:1004B000000000000000010100000000000000003A
:1004C0000000546F796F7461203441475A45000130
:1004D0000102020000000000000000000000000017
:1004E000000000000000000000000000000000000C
:1004F00000000001010000000000000000000000FA
:1005000000000000000000000000000000000000EB
:1005100000000000000000010100000000000000D9
:1005200000000000000000000000000000000000CB
:1005300000000000000000000000000101000000B9
:1005400000000000000000000000000000000000AB
:100550000000000000000000000000000000005447
:100560006F796F746120344147450001000100013B
:100570000001000100010001000100010001000272
:100580000001000100010001000100010001000163
:100590000001000100010000000100010001000154
:1005A0000001000100010001000100010001000242
:1005B0000002000100010001000100010001000132
:1005C0000001000100010000000100010001000124
:1005D0000001000100010001000100010001000212
:1005E0000001000100010001000100010001000103
:1005F00000010001000100000000004D69747375E6
:1006000062697368692033413932000001010101D8
:1006100000000000000000000000000000010101D7
:1006200001010101000000000001010101010000C1
:1006300000000001010101010000000001010101B1
:1006400001000000000001010101010000000000A4
:100650000303030303020202020203030303030270
:100660000202020203030303030202020202030363
:10067000030301000000000001010101010000006E
:100680000000010101010100000000000101010161
:100690000100000000000101010101000000000054
:1006A000010101010100000000000101010103023C
:1006B0000202020203030303030202020202030313
:1006C000030303020202020203030301010000000C
:1006D0000000010101010100000000000101010111
:1006E0000100000000000101010101000000000004
:1006F00001010101010000000000010101010100F0
:1007000000000000010101030302020202020303D0
:1007100003030302020202020303030303020202B1
:1007200002020303030101010000000001010101B5
:1007300001010000000001010101010100000000B1
:10074000000101010101000000000001010101019F
:100750000000000000010101010100000000000193
:100760000101010100000000000101010101000080
:100770000000000101010101000000000000000074
:100780000000000000000101010101010000000063
:10079000000101010101000000000001010101014F
:1007A0000000000000010101010100000000000143
:1007B0000101010100000000000303030303020222
:1007C0000202020303030303020202020203030301
:1007D00003030202020202030303030100000000FC
:1007E00000010101010100000000000101010101FF
:1007F00000000000000101010101010000000001F2
:1008000001010101010000000000010101010100DE
:1008100000000000010101010100000000000101D1
:1008200001010100000000000101010101000000C0
:1008300000000101010101000000000001010101AF
:1008400001000000000001010101010000000000A2
:10085000010101010100000000000101010101008E
:10086000000000000101010101000000000001037F
:100870000303030202020202030303030302020250
:100880000202030303030303020202020303030140
:100890000101000000000001010101010000000051
:1008A000000101010101000000000001010101013E
:1008B0000000000000010101010100000000000132
:1008C000010101010000000000010101010100001F
:1008D0000000000101010101000000466F72642068
:1008E00053543137300000000000000000000000C9
:1008F00000020202020202020202020303020203D7
:1009000003020203030202030302020202020200C4
:1009100000000000000101010101010101010101CC
:1009200001000001010000010100000101000000C0
:1009300000000000000000000002020202020202A9
:100940000202020303020203030202030302020380
:100950000302020202020202020202020203030373
:100960000303030101010101010000010100000175
:1009700001000001010044534D2034323061000079
:100980000000000000000000000000000000000067
:100990000000000001010000000000000000000055
:1009A0000000000000000000000000000000000047
:1009B0000000010100000001010000000000000033
:1009C0000000000000000000000000000000000027
:1009D0000101000000000000000000000000000015
:1009E0000000000000000000000000000000010105
:1009F00000000000000000000000000000000000F7
:100A000000000000000000000000000001010000E4
:100A100000000000000000000000000000000000D6
:100A200000000000000000000000010100000000C4
:100A3000000000474D20375800000000000002026F
:100A40000200000002020200000002020200000098
:100A50000000000000000000000000000000000096
:100A60000000000000000000000000000000000086
:100A70000000000000000000000000000000000076
:100A80000000000000000000000000000101010063
:100A90000000000000000000000000000000000056
:100AA0000000000000000000000000000101010043
:100AB0000000000000000000000000000000000036
:100AC0000000000000000000000000000000000026
:100AD0000000000000000000000000000000000016
:100AE0000000000101010000000000000000000003
:100AF00000000000000000000000000000000000F6
:100B000000020202000000000000000000000000DF
:100B100000000000000000000000000000000000D5
:100B200000000000000000000000000000000000C5
:100B300000000000000000000000000000000000B5
:100B400001010100000000000000000000000000A2
:100B50000000000000000000000000000000000095
:100B60000101010000000000000000000000000082
:100B70000000000000000000000000000000000075
:100B80000000000000000000000000000000000065
:100B90000000000000000001010100000000000052
:100BA0000000000000000000000000000000000045
:100BB0000000000000020202000000020202000029
:100BC0000000000000000000000000000000000025
:100BD0000000000000000000000000000000000015
:100BE0000000000000000000000000000000000005
:100BF00000000000010101000000000000000000F2
:100C000000000000000000000000000000000000E4
:100C100000000000010101000000000000000000D1
:100C200000000000000000000000000000000000C4
:100C300000000000000000000000000000000000B4
:100C400000000000000000000000000101010000A1
:100C50000000000000000000000000000000000094
:100C6000000000000000000000020202000000007E
:100C70000000000000000000000000000000000074
:100C80000000000000000000000000000000000064
:100C90000000000000000000000000000000000054
:100CA0000000000000000000010101000000000041
:100CB0000000000000000000000000000000000034
:100CC0000000000000000000010101000000000021
:100CD0000000000000000000000000000000000014
:100CE0000000000000000000000000000000000004
:100CF00000000000000000000000000000000001F3
:100D0000010100000000000000537562617275204F
:100D1000362F37206372616E6B20616E64206361D1
:100D20006D00000001000001000001000001000052
:100D300001000001000001000001000001000001AD
:100D4000000001000001000001000001000001009E
:100D5000000100000100000100000100000100008E
:100D6000010000010000010000010000010000017D
:100D7000000001000001000001000001000001006E
:100D8000000100000100000100000100000100005E
:100D9000010000010000010000010000010000014D
:100DA0000202030202010000010000010000010034
:100DB000000132342F3120283234206372616E6B8F
:100DC00020776974682063616D29000000000000CD
:100DD0000100000000000100000000000100000010
:100DE0000000010000000000010000000000010000
:100DF00000000000010000000000010000000000F1
:100E000001000000000001000000000001000000DF
:100E100000000100000000000100000000000100CF
:100E200000000000010000000000010000000000C0
:100E300001000000000001000000000001000000AF
:100E40000000010000000000010202020202010095
:100E5000000000000100000000000131322F3120AD
:100E6000283132206372616E6B2077697468206369
:100E7000616D290000000000000002020000000077
:100E80000000000000000001010000000000000060
:100E90000000000000010100000000000000000050
:100EA0000000000000000000000000010100000040
:100EB000000000000000000000010100000002022C
:100EC000000002020000000000000000000000011D
:100ED000010000000000000000000000000101000F
:100EE0000000000000000000000000000000000002
:100EF00000000001010000000000000000000000F0
:100F0000000101004D696174612039392D303500CF
:100F100001010000000001010000000000000000CD
:100F200000000000000000000000000000000000C1
:100F300000000000000000000000000000000000B1
:100F4000010100000000000000000000000000009F
:100F50000000000000000000000000000000000091
:100F60000000000000000000000000000000000081
:100F7000010100000000000000000000000000006F
:100F80000000000000000000000000000000000061
:100F90000000000000000000000000000000000051
:100FA000446169686174737520332B3120646973FF
:100FB0007472696275746F722028332063796C696A
:100FC0006E646572732900000000000002000001D9
:100FD000000000000001000000000002000201000B
:100FE00000000000014D617A6461203332332041FA
:100FF000552076657273696F6E0001000000000075
:1010000001000000000001000000000001000000DD
:1010100000000100000000000100000000000100CD
:1010200000000000010000000000010000000000BE
:1010300001000000000001000000000001000100AC
:10104000000001000000000001000000000001009D
:10105000000000000100000000000100000000008E
:10106000010000000000010000000000010000007D
:10107000000001000000000001000000000001006D
:1010800000000000010001000000486F6E64612054
:10109000443137204372616E6B202831322B312965
:1010A0000003030202030302020303020001010022
:1010B0000001010000010100000101000001010028
:1010C0000001010000010100000101000001010018
:1010D0000001010000010100000101000001010008
:1010E00000010100000101000001010000010100F8
:1014D00000010100000101000241756469203133FF
:1014E0003520746F6F7468206372616E6B20616E5B
:1014F000642063616D000202020202020202020223
:1015000002000000000000000000000101010101D4
:1015100001010101010101010100000000000000C2
:1015200000000000000000000000000002020203B2
:10153000030303030303030303030101010000008A
:10154000000000000000000000000000000000009B
:10155000000000010101010101010101010101017E
:10156000010000000000000000000000000000007A
:10157000000000000000020303030303030303034E
:101580000303030303024D69747375626973686929
:10159000203467363320616B6120342F3220637230
:1015A000616E6B20616E642063616D00010100005B
:1015B0000001010000000101000000010100000025
:1015C0000101000000010100000001010000000114
:1015D00003020202030302020203010000000101F0
:1015E00000000000000000000000000000010302F5
:1015F00002020202020202020000000001010000D9
:1016000000010100000001010000000101000000D4
:1016100001010000000101000000010100000001C3
:1016200001000000010100000001030202020303A7
:10163000020202030100000001010000000000009E
:101640000000000000000001030202020303020286
:101650000203010000000101000000010100000080
:101660000101000000010100000001010000000173
:101670000100000001010000000101000000010163
:101680000000000101000000010100000001010054
:101690000000010100000000000000000000000048
:1016A0000001030202020202020202020000000024
:1016B0000101000000010100000001010000000123
:1016C0000100000001010000000101000000010113
:1016D0000000000101000000010100000001010004
:1016E00000000101000000010100000001010000F4
:1016F00000000000000000000000000103020202E0
:1017000003030202020301000000010100000001C6
:10171000010000004D617A64612033362D322D3294
:101720002D322077697468203620746F6F746820BA
:1017300063616D000001010100010101000101016F
:10174000000101010001010100010101000101018D
:10175000000101010001010100010101000101017D
:10176000000101010201010100010101000101016B
:10177000000101010001010102010101010101015A
:10178000010101010001010100010101000101014C
:10179000000101010001010100010101000101013D
:1017A000000101010001010100010101000101012D
:1017B000000101010001010100010101000101011D
:1017C000000101010001010102010101010101010A
:1017D00001010101000101010001010100010101FC
:1017E00000010101000101010001010100010101ED
:1017F00000010101000101010001010100010101DD
:1018000000010101000101010001010100010101CC
:1018100000010101000101010201010101010101B9
:1018200001010101000101010001010100010101AB
:10183000000101010001010100010101000101019C
:10184000000101010001010100010101000101018C
:10185000000101010001010100010101000101017C
:101860000001010100010101020101010101010169
:10187000010101010001010100010101000101015B
:10188000000101010001010100010101000101014C
:10189000000101010001010100010101000101013C
:1018A000000101010001010100010101000101012C
:1018B0000001010100010101020101010101010119
:1018C000010101010001010100010101000101010B
:1018D00000010101000101010001010100010101FC
:1018E00000010101000101010001010100010101EC
:1018F00000010101000101010001010100010101DC
:1019000000010101000101010201010101010101C8
:1019100001010101566F6C766F206431325B6163A7
:10192000645D206372616E6B207769746820372074
:10193000746F6F74682063616D0001000100010025
:1019400001000302030203020302474D2038206511
:1019500076656E2D746F6F7468206372616E6B2094
:1019600077697468203120746F6F74682063616DCB
:1019700000010001000100030203020302474D20A1
:1019800036206576656E2D746F6F746820637261A2
:101990006E6B2077697468203120746F6F746820D3
:1019A00063616D000100010003020302474D203412
:1019B000206576656E2D746F6F7468206372616E3A
:1019C0006B2077697468203120746F6F74682063AE
:1019D000616D000000000100000001000000010036
:1019E00000000100000001000000010000000100F3
:1019F00000000100020203020000010000000100DB
:101A000000000100000001000000010000000100D2
:101A100000000159616D61686120323030322D3033
:101A2000332052312038206576656E2D746F6F74C7
:101A300068206372616E6B2077697468203120744E
:101A40006F6F74682063616D000100000100000188
:101A50000000010000010000010000010000010081
:101A60000001000001000003020202020203000064
:101A70000100000100000100000100000100000160
:101A80000000010000010000010000010000000052
:101A9000004D617A6461204341532032342D32205D
:101AA000776974682073696E676C652070756C73F4
:101AB00065206F757465722072696E67000201009F
:101AC00001000100010003020302030203020302FA
:101AD00003020302030203020302030203020302DE
:101AE00003020302030203020302030203020302CE
:101AF00003020302030203020302030203020302BE
:101B000003020302030203020302030203020302AD
:101B1000030203020302030203020302030203029D
:101B2000030203020302030203020302030203028D
:101B30000302030203020100010001000100010091
:101B40000100010001000302030203020302030279
:101B5000030203020302030203020302030203025D
:101B6000030203020302030203020302030203024D
:101B7000030203020302030203020302030203023D
:101B8000030203020302030203020302030203022D
:101B9000030203020302030203020302030203021D
:101BA0000302030203020302030203020302010011
:101BB000010001000100010001000100010001001D
:101BC00001000100010003020302030203020302F9
:101BD00003020302030203020302030203020302DD
:101BE00003020302030203020302030203020302CD
:101BF00003020302030203020302030203020302BD
:101C000003020302030203020302030203020302AC
:101C1000030203020302030203020302030203029C
:101C200003020302030201000100010001000100A0
:101C3000010001000100010001000100010001009C
:101C40000100010001000302030203020302030278
:101C5000030203020302030203020302030203025C
:101C6000030203020302030203020302030203024C
:101C7000030203020302030203020302030203023C
:101C8000030203020302030203020302030203022C
:101C90000302030203020302030203020302010020
:101CA000010001000100010001000100010001002C
:101CB000010001000100010001000100010001001C
:101CC00001000100010003020302030203020302F8
:101CD00003020302030203020302030203020302DC
:101CE00003020302030203020302030203020302CC
:101CF00003020302030203020302030203020302BC
:101D000003020302030203020302030203020302AB
:101D100003020302030201000100010001000100AF
:101D200001000100010001000100010001000100AB
:101D3000010001000100010001000100010001009B
:101D40000100010001000302030203020302030277
:101D5000030203020302030203020302030203025B
:101D6000030203020302030203020302030203024B
:101D7000030203020302030203020302030203023B
:101D8000030203020302030203020302034E697308
:101D900073616E2033363020434153207769746875
:101DA000203620736C6F747300020202020202027A
:101DB0000202020202020202020202020202020203
:101DC00002020202020202020202020202020202F3
:101DD0000200000000000000000000000000000001
:101DE00000000000000202020202020202020202DD
:101DF00002020202020202020202020203030303BF
:101E000003020202020202020202020202020202B1
:101E1000020202020202020202020202030303039E
:101E20000302020202020202020202020202020291
:101E30000202020202020202020202020202020282
:101E40000202020202020202020202020202020272
:101E5000020202030303030302020202020202025D
:101E60000202020202020202020202020202020252
:101E70000202020202020202020202020202020242
:101E80000202020202020202020202020202020034
:101E90000000000000000000000000000000000042
:101EA0000000000000000000000000000000000032
:101EB000010101010100000000000000000000001D
:101EC0000000000000000000000000000000000012
:101ED00001010101010000000000000000000000FD
:101EE00000000000000000000000000000000000F2
:101EF00000000000000000000000000000000000E2
:101F000000000000000000010101010100000000CC
:101F100000000000000000000000000000000000C1
:101F200000000000000000000000000000000000B1
:101F30000000000000000000000202020202020293
:101F40000202020202020202020202020200000077
:101F50000000000000000000000000000000000081
:101F6000000000000101010101000000000000006C
:101F70000000000000000000000000000000000061
:101F8000000000000101010101000000000000004C
:101F90000000000000000000000000000000000041
:101FA0000000000000000000000000000000000031
:101FB000000000000000000000000001010101011C
:101FC0000000000000000000000000000000000011
:101FD0000000000000000000000000000000000001
:101FE00000000000000000000000000000000000F1
:101FF00000000000000000020202020202020202CF
:1020000002020202020202020202020202020202B0
:10201000020202020202020203030303030202029B
:102020000202020202020202020202020202020290
:10203000020202020202020203030303030202027B
:102040000202020202020202020202020202020270
:102050000202020202020202020202020202020260
:10206000020202020202020202020202020202034F
:102070000303030302020202024669617420312E47
:102080003820313656206372616E6B20616E642099
:1020900063616D000000000000000000000000000F
:1020A0000000000001010000000002020202000026
:1020B000000000000000010100000000000000001E
:1020C000000000000000000001010000000002020A
:1020D00002020000000000000000010100000000FA
:1020E00000000000000000000000000001010000EE
:1020F00000000000000000000000000000000101DE
:1021000000000000000000000000000000000000CF
:1021100001010000000000000000000000000000BD
:102120000000010157656265722D4D6172656C6C2E
:10213000692038206372616E6B2B322063616D20E1
:102140007061747465726E00000000000000000091
:10215000000000000000000000000000000000007F
:102160000001010101010000000000010101010165
:102170000000000000010101010100000000000159
:102180000101010100000000000101010101000046
:102190000000000101030303020202020201010127
:1021A0000101000000000001010101010000000028
:1021B0000001010101010000000000010101010115
:1021C0000000000000010101010100000000000109
:1021D00001010101000000000001010101010000F6
:1021E00000000001010101010000000000010103E5
:1021F00003030202020202010101010100000000CA
:1022000000010101030303030303030301010101AF
:1022100001010101010101010101000000000001B3
:1022200001010101000000000001010101010000A5
:102230000000000101010101000000000001010196
:102240000101000000000001010303030202020279
:10225000020101010101000000000001010103036E
:10226000020202020203010101010000000000015C
:102270000101010302020202020303010101000045
:102280000000000101010101000000000001010146
:102290000101000000000001010101010000000037
:1022A0000001010303030202020202010101010114
:1022B000000000000000000002020202020202020E
:1022C0000000000000000000000101010101000009
:1022D00000000001010101010000000000010101F6
:1022E00001010000000000010101010100000000E7
:1022F00000010101010100000000000101030303CE
:1023000002020202020101010101000000000001BD
:1023100001010303020202020203010101010000A4
:1023200000000001010101010000000000010101A5
:102330000101000000000001010101010000000096
:102340000001010101010000000000010101010183
:102350000000000000010103030302020202020167
:102360000101010100000000000101010101010162
:10237000010101010101010101010101010101014D
:102380000101000000000001010101010000000046
:102390000001010101010000000000010101010133
:1023A0000000000000010101010100000000000127
:1023B0000103030302020202020101010101000004
:1023C00000000001010103030202020202030101F5
:1023D00001010000000000010101010302020202EC
:1023E00002030301010100000000000101010101DD
:1023F00000000000000101010101000000000001D7
:1024000001010101000000000001010303030202B9
:10241000020202010101010143687279736C657265
:10242000204E47432033362D322B32206372616EAB
:102430006B2C204E474320382D63796C2063616DEF
:102440000002020000000000000000000000020284
:102450000202020202020202000001010101010067
:102460000000000203030303030202020200010151
:102470000101010000000000010101010100000054
:102480000000010101010100000000000101010143
:102490000100000000000101010101000000000036
:1024A0000101010101000000000001010101010022
:1024B0000002020203030303030202000000010101
:1024C0000101010000000000010101010100000004
:1024D00000000101010101000000000001010101F3
:1024E00001000000000001010101010000000000E6
:1024F00001010101010000000000010101010101D1
:1025000001010101010101010101010101010101BB
:1025100001010100000000000101010101000000B3
:102520000000010101010100000202020303030394
:10253000030202000000010101010100000002028B
:102540000303030303020202000001010101010071
:102550000000000001010101010000000000010174
:102560000101010000000000010101010100000063
:102570000000010101010100000000000101010152
:102580000100000000000101010101000000000045
:102590000101010101000000000001010101010031
:1025A0000002020203030303030202000000000012
:1025B0000000000000000202020202020202020207
:1025C00000000101010101000000000203030303F8
:1025D00003020202020001010101010000000000EB
:1025E00001010101010000000000010101010100E1
:1025F00000000000010101010100000000000101D4
:1026000001010100000000000101010101000000C2
:1026100000000101010101000002020203030303A3
:10262000030202000000010101010100000002029A
:102630000303030303020202000001010101010080
:102640000000000001010101010000000000010183
:102650000101010000000000010101010100000072
:10266000000001010101010101010101010101015C
:10267000010101010101010101010100000000004F
:102680000101010101000000000001010101010040
:10269000000202020303030303020200000001011F
:1026A0000101010000000000010101010100000022
:1026B0000000010101010100000000000101010111
:1026C0000100000000000101010101000000000004
:1026D00001010101010000000000010101010100F0
:1026E00000000000010101010100000000000101E3
:1026F00001010100000000000101010101000000D2
:1027000000000101010101000002020203030303B2
:102710000343687279736C6572204E4743203336E9
:102720002D322B32206372616E6B2C204E4743207A
:10273000362D63796C2063616D000000000000019C
:102740000101010101010101010101010101010179
:102750000101010303030303020202020203030354
:102760000303020202020203030303030202020242
:102770000203030303030200000000010101010141
:102780000000000000010101010100000000000143
:102790000101010100000000000101030303020226
:1027A0000202020303030303020202020203030301
:1027B00003030202020202030303030302020200F4
:1027C00000010101010100000000000101010101FF
:1027D00000000000000101010101000000000001F3
:1027E00001010103020202020203030303030202C6
:1027F00002020202020202020202020202020202B9
:1028000002020202020202030303030302020202A3
:10281000020303030303020202020203030303038E
:102820000202020202030303030302020202020382
:10283000030303030202020202030303030302026F
:102840000202020303030303020202020203030360
:102850000303020202020203030303030202020251
:10286000020303030303020202020203030303033E
:10287000020202000001010101010000000000014C
:10288000010101010000000000010101010100003F
:10289000000000010101010302020202020303031E
:1028A00003030202020202030303030303030303FD
:1028B00003030303030303030303030101010101F2
:1028C0000000000000010101010100000000000102
:1028D00001010101000000000001010101010002ED
:1028E00002020203030303030202020202030303C0
:1028F00003030202020202030303030302020202B1
:1029000002030301010100000000000101010101B7
:1029100000000000000101010101000000000001B1
:10292000010101010000000202030303030302028C
:10293000020202030303030302020202020303036F
:10294000030302020202020303030301000000006A
:102950000001010101010000000000000000000072
:102960000000000000000000000000000000000166
:10297000010101010000000000010101010100004E
:10298000000000010101010100000000000101013F
:102990000101000000000001010101010000000030
:1029A000000101010101000000000001010101011D
:1029B0000000000000010101010100000000000111
:1029C00001010101000000000001010101010000FE
:1029D00000000001010101010000000202030303E5
:1029E00003030202020202030303030302020202C0
:1029F00002030303030302020202020303030301AF
:102A00000000000000010101010143687279736C4C
:102A10006572204E47432033362B322D32206372AD
:102A2000616E6B2C204E474320342D63796C2063FC
:102A3000616D0001000100010001000100010001C1
:102A4000000100010001000100010001000100017E
:102A5000000100010001000100010001000100016E
:102A6000000100010001000100010001000100015E
:102A70000001000302030201000000010001000147
:102A8000000100010001000100010001000100013E
:102A9000000100010001000100010001000100012E
:102AA000000100010001000100010001000100011E
:102AB000000100010001000100010001000100010E
:102AC00000000033362D31206372616E6B20776910
:102AD000746820326E642074726967676572206F53
:102AE0006E2074656574682033332D333400000123
:102AF00000010001000100010003000100010001CC
:102B000000010001000100010001000100030001BB
:102B10000003000100010001000100010001486FF5
:102B20006E64612052433531207769746820636197
:102B30006D00010001000100010001000100010021
:102B4000010001000100010001000100000001007E
:102B5000010000000100010001000100010001006E
:102B6000010001000100010001000100010001005D
:102B7000000001000100010000004F6464204C6F60
:102B80007475732033362D312D312D312D31206662
:102B90006C79776865656C0001000100030203022F
:102BA000030203020302030201000100010001000D
:102BB000010001000100010001000100010001000D
:102BC00001000100010001000100010001000100FD
:102BD00001000100010001000302030203020302DD
:102BE00003020302010001000100010003020302CD
:102BF00003020302030203020302030203020302AD
:102C0000030203020302030203020302020202029E
:102C1000030203020302030203020302030203028C
:102C2000010001000100010003020302030203028C
:102C3000030203020302030203020302030203026C
:102C4000030203020302030203020302030203025C
:102C50000302030203020302030203020100010054
:102C6000010001000100010001000100010001005C
:102C7000010001000100010001000100010001004C
:102C80000100010000000000474D20353878206326
:102C900072616E6B20616E642034782063616D0018
:102CA000040000000000000000000000010101001D
:102CB0000000010101010101010101010101000008
:102CC00000010101010101010101010101000000F8
:102CD00001010101010101010101010100000001E7
:102CE00001010101010101010101010000000101D7
:102CF00001010101010101010101000000000000CA
:102D000000000000000001010100000001010101BC
:102D100001010101010101010000000101010101A6
:102D20000101010101010100000001010101010196
:102D3000010101010101000000000000000000008D
:102D40000000010101000000000000000000000080
:102D50000001010100000001010101010101010167
:102D60000101010000000101010101010101010156
:102D7000010100000000000000000000000001014F
:102D8000010000000000000000000000000101013F
:102D90000000000000000000000000000101010030
:102DA0000000010101010101010101010101000017
:102DB0000000000000000000000001010100000010
:102DC00001010101010101010101010100000000F7
:102DD00000000000000000000101010000000000F0
:102DE00000000000000000010101000000000000E0
:102DF00000000000000001010100000000000000D0
:102E000000000000000101010202020202020202AF
:102E10000202020203030302020203030303030389
:102E20000303030303030202020303030303030375
:102E30000303030303020202030303030303030365
:102E40000303030302020203030303030303030355
:102E50000303030202020303030303030303030345
:102E6000030302020202020202020202020203033E
:102E70000302020203030303030303030303030325
:102E80000202020303030303030303030303030216
:102E90000202030303030303030303030303020206
:102EA00002020202020202020202030303020202FF
:102EB00002020202020202020203030302020203EE
:102EC00003030303030303030303030202020303D5
:102ED00003030303030303030303020202020202C8
:102EE00002020202020203030302020202020202BF
:102EF00002020202020303030202020202020202AF
:102F00000202020203030302020203030303030398
:102F1000030303030303020202020202020202028B
:102F20000202030303020202030303030303030376
:102F3000030303030202020202020202020202026D
:102F4000030303020202020202020202020202035D
:102F5000030302020202020202020202020203034D
:102F6000030202020202020202020202020303033D
:102F7000474D204C5331206372616E6B20616E644B
:102F80002063616D000101010100000000000001EB
:102F9000010101000000000000010101010000002A
:102FA0000000000000000000000000000000000021
:102FB0000000010101010000000000000101010109
:102FC00000000000000001010101000000000000FD
:102FD00000000000004275656C6C204F64646669F7
:102FE00072652043414D20776865656C00030303DB
:102FF00003030303030302020202020000000000B5
:1030000000000000010101010101010303030202AC
:1030100002020200000000000000000001010101A6
:10302000010101010101000000000000000000009A
:103030000002020203030303030101010101000076
:10304000000000000000000000000000010101017C
:10305000010101030303020202020200000000005A
:103060000000000001010101010101010101000056
:10307000000000000000000000000202034D69741F
:1030800073756269736869203667373220776974AF
:10309000682063616D000100010001000100010072
:1030A0000100010001000100030203000100010012
:1030B0000100010001000100010001000100010008
:1030C00001000100010001000100010001000100F8
:1030D00001000100010001000100010000000100E9
:1030E00001000100010001000100030203000100D2
:1030F00003020300010001000100010001000100C2
:1031000001000100010001000100010001000100B7
:1031100001000100010001000100010001000100A7
:103120000100010000004D617A64612046453320B2
:1031300033362D3120776974682063616D00010199
:103140000101010101010101010001010101010170
:103150000101010101000100010101010101010161
:103160000100010101010101010101010100010151
:103170000101010101010101010101000101010140
:10318000010101010100474D2034323030206372CB
:10319000616E6B20776865656C00010000020000BD
:1031A0000100000000000100010001000100010019
:1031B0000100010001000100010001000100010007
:1031C00001000100010000020000010001000100F7
:1031D00001000100010001000100010001000100E7
:1031E00001000100000000000100000000000100DB
:1031F00001020100010001000100010001000100C5
:1032000001000100010001000100010001000000B7
:1032100000000100010001000100010001000100A7
:103220000100010001000100010033362D322D3272
:103230002D32204372616E6B20616E642063616D7C
:103240000001000100010001000100010001000176
:103250000001000100010001000100010001000166
:103260000001000100010000000000010001000158
:103270000001000100010001000100010001000047
:1032800000000001000000000033362D322D322DE9
:1032900032204836204372616E6B206F6E6C79006D
:1032A0000100010001000100010001000100010016
:1032B0000100010001000100010000000000010008
:1032C00000000000010001000100010001000100F8
:1032D00001000100010001000100010001000000E7
:1032E000000001000100010033362D322D322D3255
:1032F000204834204372616E6B206F6E6C79000140
:1033000000000001000000010000000100000001B9
:1033100000000001000000010000000100000001A9
:10332000000000000000000000000000000000316C
:10333000322D33206F646462616C6C000001000107
:103340000001000100010001000100010001000175
:103350000001000100010001000100010001000165
:103360000001000100010001000100010001000155
:103370000001000100010001000100010001000145
:103380000001000100010001000100010001000135
:103390000001020302030203020302030203020309
:1033A0000001000100010001000100010001000115
:1033B0000001000100010001000100010001000105
:1033C00000010001000100010001000100010001F5
:1033D00000010001000100010001000100010001E5
:1033E00000010001000100010001000102030203CD
:1033F00000010001000100010001000100010001C5
:1034000000010001000100010001000100010001B4
:1034100000010001000100010001000100010001A4
:103420000001000100010001000100010001000194
:103430000001000100010001000100010001000184
:103440000001000100010203020302030203020360
:103450000203020302030203020302030203000148
:103460000001000100010001000100010001000154
:103470000001000100010001000100010001000144
:103480000001000100010001000100010001000134
:103490000001000100010001000100010001000124
:1034A000020302030001000100010001000100010C
:1034B0000001000100010001000100010001000104
:1034C00000010001000100010001000100010001F4
:1034D00000010001000100010001000100010001E4
:1034E00000010001000100010001000100010001D4
:1034F00000010001000100010001020302030203B8
:103500000203020302030203020302030203020393
:10351000020302030203020302030203000100018B
:103520000001000100010001000100010001000193
:103530000001000100010001000100010001000183
:103540000001000100010001000100010001000173
:10355000000100010203020300010001000100015B
:103560000001000100010001000100010001000153
:103570000001000100010001000100010001000143
:103580000001000100010001000100010001000133
:103590000001000100010001000100010001000123
:1035A000000100010001000100010001000102030F
:1035B00002030203020302030203020302030203E3
:1035C00002030203020302030203020302030203D3
:1035D00002030203020302030203000100010001CF
:1035E00000010001000100010001000100010001D3
:1035F00000010001000100010001000100010001C3
:10360000000100010001000102030203474D204FA9
:10361000707469537061726B204C543120333630B2
:1036200020616E64203800010000000000000000EE
:103630000100000000000000000000000000006F1A
:103640006464206669726520393020646567207083
:1036500061747465726E203020616E642031333580
:103660002070756C7365730000000000000101019B
:10367000014469737472696275746F72207374792E
:103680006C6520342063796C203530646567206F69
:1036900066662C20343020646567206F6E00000160
:1036A0000001000100010001000100010001000112
:1036B0000001000100010001000100010001000102
:1036C00000010001000100010001000100010001F2
:1036D00000010001000100010001000100010001E2
:1036E0000001000100010001000100010000343070
:1036F0002D31206372616E6B206F6E6C79202846CD
:103700006F72642056313029000000000000010073
:1037100000000000010000000000010000000000A7
:103720000100000000000100000000000100000096
:103730000000010000000000010000000000010086
:103740000000000001000000000001000000000077
:103750000000000000000100000000000100000067
:103760000000010000000000010000000000010056
:103770000000000001000000000001000000000047
:10378000010000000000010202020202010000002C
:1037900000000100000000000031322D3120637272
:1037A000616E6B20776974682063616D00000001B1
:1037B0000000010000010000010000010000000005
:1037C00000010000010202010000010000010000F0
:1037D00000362D31206372616E6B2077697468202A
:1037E00063616D00000100010001000100010001A2
:1037F00000010000382D31206372616E6B206F6E06
:103800006C792028523629000001000100010000D7
:103810000001020100010000342D31206372616E4D
:103820006B20776865656C20776974682063616DCB
:103830000001000100010001000100010001000180
:103840000001000100010001000100010001000170
:103850000001000100010001000100010001000061
:103860000032342D31206372616E6B206F6E6C7983
:103870000001000100010001000100010001000140
:103880000001000100010001000100010001000130
:103890000001000100010001000100010001000120
:1038A0000001000100010001000100010001000110
:1038B00000010001000100000033362D3120637249
:1038C000616E6B206F6E6C790001000100010001D8
:1038D00000010001000100010001000100010001E0
:1038E00000010001000100010001000100010001D0
:1038F00000010001000100010001000100010001C0
:1039000000010001000100010001000100010001AF
:10391000000100010001000100010001000100039D
:10392000020302030203020302030203020302036F
:103930000203020302030203020302030202020261
:10394000020302030203020302030203020302034F
:10395000020302030203020302030203020302033F
:10396000020302030203020302030203020302032F
:10397000020302030203020302030203020302031F
:10398000020302030203020302030203020302030F
:103990000203020302030201000100010001000111
:1039A000000100010001000100010001000100010F
:1039B00000010001000000000036302D322063724B
:1039C000616E6B20616E64202768616C66206D6F8C
:1039D0006F6E272063616D0001000100010001008E
:1039E00001000100010001000100010001000100CF
:1039F00001000100010001000100010001000100BF
:103A000001000100010001000100010001000100AE
:103A1000010001000100010001000100010001009E
:103A2000010001000100010001000100010001008E
:103A3000010001000100010001000100010001007E
:103A40000100010001000100010001000000000070
:103A5000010001000100010001000100010001005E
:103A6000010001000100010001000100010001004E
:103A7000010001000100010001000100010001003E
:103A8000010001000100010001000100010001002E
:103A9000010001000100010201000100010001001C
:103AA000010001000100010001000100010001000E
:103AB00001000100010001000100010001000100FE
:103AC000010001000000000036302D3220637261D9
:103AD0006E6B20616E642063616D00010001000166
:103AE00000010001000100010001000100010001CE
:103AF00000010001000100010001000100010001BE
:103B000000010001000100010001000100010001AD
:103B1000000100010001000100010001000100019D
:103B2000000100010001000100010001000100018D
:103B3000000100010001000100010001000100017D
:103B4000000100010001000100010001000100006E
:103B500000000036302D32206372616E6B206F6E74
:103B60006C79000100010001000100382063796CCC
:103B7000696E6465722064697A7A790001000100D7
:103B80000100362063796C696E6465722064697A1D
:103B90007A790001000100342063796C696E6465F4
:103BA000722064697A7A79000000000025002800FC
:103BB0002B0000000000240027002A000404040455
:103BC00004040404020202020202030303030303C7
:103BD00001020408102040800102040810200102A4
:103BE00004081020E22111241FBECFEFD8E0DEBF71
:103BF000CDBF13E0A0E0B1E0E4EEFFE402C0059029
:103C00000D92A83FB107D9F724E0A8EFB3E001C0B7
:103C10001D92AE3BB207E1F71DE1C3EFDDE104C049
:103C20002197FE010E944E26C23FD107C9F70E948C
:103C300027220C94F0270C94000090E0FC01E05344
:103C4000F44C24918454944CFC018491882399F081
:103C500090E0880F991FFC01EE54F44CA591B491AB
:103C6000FC01E855F44C859194918FB7F894EC9150
:103C7000E22BEC938FBF08953FB7F8948091100426
:103C800090911104A0911204B091130426B5A89B41
:103C900005C02F3F19F00196A11DB11D3FBFBA2FDE
:103CA000A92F982F8827BC01CD01620F711D811D9E
:103CB000911D42E0660F771F881F991F4A95D1F723
:103CC0000895AF92BF92CF92DF92EF92FF920F933F
:103CD0001F93CF93DF936C017B018B01040F151FA2
:103CE000EB015E01AE18BF08C017D10759F069910A
:103CF000D601ED91FC910190F081E02DC60109956E
:103D0000892B79F7C501DF91CF911F910F91FF901A
:103D1000EF90DF90CF90BF90AF900895FC01538D4E
:103D2000448D252F30E0842F90E0821B930B541795
:103D300010F0CF96089501970895FC01918D828D22
:103D4000981761F0A28DAE0FBF2FB11D5D968C91BB
:103D5000928D9F5F9F73928F90E008958FEF9FEFFA
:103D60000895FC01918D828D981731F0828DE80FB6
:103D7000F11D858D90E008958FEF9FEF0895FC0170
:103D8000918D228D892F90E0805C9F4F821B91093D
:103D90008F739927089584E194E00E94BF1E21E06B
:103DA000892B09F420E0822F089580E090E0892B90
:103DB00029F00E94CB1E81110C9400000895FC0193
:103DC000A48DA80FB92FB11DA35ABF4F2C91848D7C
:103DD00090E001968F739927848FA689B7892C93D9
:103DE000A089B1898C91837080648C93938D848D2C
:103DF000981306C00288F389E02D80818F7D80832F
:103E00000895EF92FF920F931F93CF93DF93EC01EE
:103E100081E0888F9B8D8C8D98131AC0E889F98971
:103E2000808185FF15C09FB7F894EE89FF89608374
:103E3000E889F98980818370806480839FBF81E0F5
:103E400090E0DF91CF911F910F91FF90EF90089537
:103E5000F62E0B8D10E00F5F1F4F0F731127E02E12
:103E60008C8D8E110CC00FB607FCFACFE889F9894A
:103E7000808185FFF5CFCE010E94DF1EF1CFEB8D53
:103E8000EC0FFD2FF11DE35AFF4FF0829FB7F8941E
:103E90000B8FEA89FB8980818062CFCFCF93DF933C
:103EA000EC01888D8823B9F0AA89BB89E889F98952
:103EB0008C9185FD03C0808186FD0DC00FB607FC87
:103EC000F7CF8C9185FFF2CF808185FFEDCFCE01BA
:103ED0000E94DF1EE9CFDF91CF910895CF93DF934A
:103EE000382FC091B4048CE0C89FE0011124CC5F4E
:103EF000DE4F832F6A3071058105910520F46AE059
:103F000070E080E090E00E94F5262C813D814E819A
:103F10005F810E9483279B01AC0160E074E284EF23
:103F20009AE40E9454260E94C626611571058105F7
:103F300021E0920738F56115710520E482079105AB
:103F400020F56115710528E08207910508F56115D6
:103F5000710521E082079105F0F430E021E004C012
:103F600096958795779567953A95D2F77093020164
:103F7000609301012093FF0381E08093FE03DF91B2
:103F8000CF9108953AE025E0EACF38E024E0E7CF8A
:103F900036E023E0E4CF33E022E0E1CFFC01019002
:103FA0000020E9F73197AF01481B590BBC0184E1B0
:103FB00094E00C94611E8F929F92AF92BF920F93E8
:103FC0001F93CF93DF93CDB7DEB7A1970FB6F894C9
:103FD000DEBF0FBECDBF19A2423008F44AE08E0109
:103FE0000F5D1F4F842E912CB12CA12CA5019401A3
:103FF0000E942C26E62FB901CA01EA30F4F4E05DF4
:10400000D801EE938D01232B242B252B79F790E0FB
:1040100080E0109719F0CD010E94CE1FA1960FB637
:10402000F894DEBF0FBECDBFDF91CF911F910F91EE
:10403000BF90AF909F908F900895E95CE1CFCF93B0
:10404000DF930E94CE1FEC0182EF93E00E94CE1F0F
:104050008C0F9D1FDF91CF910895CF93DF93BC010B
:1040600090E080E04AE00E94DB1FEC0182EF93E0E9
:104070000E94CE1F8C0F9D1FDF91CF9108951F933B
:10408000CF93DF93EC01162F0E941626181739F0F4
:10409000612FCE01DF91CF911F910C941E26DF91ED
:1040A000CF911F9108951F93CF93DF93C1EBD4E07D
:1040B0006B8182E090E00E943F206C8183E090E081
:1040C0000E943F2061E081E090E00E943F20198142
:1040D0006A8184E090E00E943F20612F85E090E0BB
:1040E0000E943F201D816E818CE090E00E943F2065
:1040F000612F8DE090E00E943F201F81688586E05F
:1041000090E00E943F20612F87E090E00E943F20D6
:1041100019856A8588E090E00E943F20612F89E040
:1041200090E00E943F201B856C858AE090E00E9411
:104130003F20612F8BE090E0DF91CF911F910C9495
:104140003F200C9416261F920F920FB60F92112447
:104150002F933F938F939F93AF93BF9380910C04C2
:1041600090910D04A0910E04B0910F0430910B04B6
:1041700023E0230F2D3758F50196A11DB11D209383
:104180000B0480930C0490930D04A0930E04B09341
:104190000F048091100490911104A0911204B09129
:1041A00013040196A11DB11D809310049093110476
:1041B000A0931204B0931304BF91AF919F918F917C
:1041C0003F912F910F900FBE0F901F90189526E8EA
:1041D000230F0296A11DB11DD2CF1F920F920FB6D1
:1041E0000F9211242F933F934F935F936F937F937D
:1041F0008F939F93AF93BF93EF93FF9384E194E0EA
:104200000E94DF1EFF91EF91BF91AF919F918F911F
:104210007F916F915F914F913F912F910F900FBEC2
:104220000F901F9018951F920F920FB60F921124A6
:104230002F938F939F93EF93FF93E0912404F0913A
:1042400025048081E0912A04F0912B0482FD1BC09B
:10425000908180912D048F5F8F7320912E0482179F
:1042600041F0E0912D04F0E0EC5EFB4F958F8093E0
:104270002D04FF91EF919F918F912F910F900FBE81
:104280000F901F9018958081F4CF1F920F920FB658
:104290000F9211242F933F938F939F93AF93BF93CC
:1042A000EF93FF938091000490910104A091B404D6
:1042B0002CE0A29FD0011124AC5FBE4F1296ED916D
:1042C000FC911397E80FF91FE4918091FD03E82713
:1042D000E5B9809100018823F1F18091000490916B
:1042E00001040196909301048093000480910004DE
:1042F0009091010418962D913C912817390721F4CB
:1043000010920104109200048091FE03882371F042
:1043100080918100887F809381009091FF0380913C
:104320008100892B809381001092FE03809101010E
:10433000909102019093890080938800FF91EF9102
:10434000BF91AF919F918F913F912F910F900FBE91
:104350000F901F9018958091000490910104892B73
:1043600039F418968D919C919093010480930004E8
:10437000809100049091010401979093010480932F
:104380000004C2CF1F920F920FB60F9211248F9389
:104390009F938091FC0381110EC0909178008091D1
:1043A0007900892798278927909309048093080426
:1043B00081E080930A049F918F910F900FBE0F9020
:1043C0001F901895E4E1F4E01382128288EE93E0E6
:1043D000A0E0B0E084839583A683B78384EE93E066
:1043E0009183808385EC90E09587848784EC90E0CE
:1043F0009787868780EC90E0918B808B81EC90E0B2
:10440000938B828B82EC90E0958B848B86EC90E092
:10441000978B868B118E128E138E148EE1EBF4E047
:1044200080E797E19283818384E3838384EC99E03E
:10443000968385838AEF90E09087878380EA9FE068
:104440009287818788EE93E0948783870895CF933E
:10445000DF93CDB7DEB7C255D1090FB6F894DEBFF2
:104460000FBECDBF789484B5826084BD84B5816071
:1044700084BD85B5826085BD85B5816085BD80912F
:104480006E00816080936E001092810080918100A7
:10449000826080938100809181008160809381009F
:1044A000809180008160809380008091B100846061
:1044B0008093B1008091B00081608093B0008091C2
:1044C0007A00846080937A0080917A008260809381
:1044D0007A0080917A00816080937A0080917A00DE
:1044E000806880937A001092C10081E090E00E9481
:1044F000A1208F3F09F02EC185E08093B40488EBA2
:104500009BE09093B3048093B20482E08093B5045F
:104510008CEA9DE09093B7048093B60480E797E11E
:104520009093BB048093BA0488EE93E09093B9040F
:104530008093B8049093BD048093BC040E945320E0
:10454000E0912404F091250482E08083E09120042E
:10455000F09121041082E0912204F091230480E183
:10456000808310922C04E0912804F091290486E0C5
:104570008083E0912604F09127048081806180830C
:10458000E0912604F0912704808188608083E09187
:104590002604F0912704808180688083E0912604BE
:1045A000F091270480818F7D808310920304F8941A
:1045B0001092800010928100109285001092840069
:1045C00088EE93E090938900809388008091810029
:1045D0008860809381008091810081608093810058
:1045E00080916F00826080936F001092B0001092F3
:1045F000B1001092B20089EF8093B3008091B000B7
:1046000082608093B0008091B10084608093B1009B
:1046100080917C008F7D80937C0080917C00806401
:1046200080937C0080917C00807F80937C008091CF
:104630007A00806880937A0080917A00806280930B
:104640007A0080917B00887F80937B0080917A0044
:10465000876080937A0080917A00886080937A00E6
:1046600088E00E941D1E89E00E941D1E8AE00E94B3
:104670001D1E8BE00E941D1E789480917A0080643C
:1046800080937A006091B2047091B30490E080E06E
:104690000E946E1F9CE0792E2EEBA22E24E0B22EFB
:1046A00030EE832E33E0932E40E0C42E40E0D42E33
:1046B0006624639484E194E00E94BF1E18161906D4
:1046C00004F580910304811106C084E194E00E9406
:1046D0009D1E8093020480910204833509F4F7C182
:1046E00008F0F2C08D3409F44FC108F0DDC0833406
:1046F00009F42CC104E011E08C3409F434C11092A7
:1047000003048091B504823009F026C280910A0426
:104710008823A1F010920A04009108041091090462
:1047200084E0000F111F8A95E1F70932F3E21F07B9
:1047300008F062C20A30110508F060C2C114D10449
:1047400009F4B8CF0E94CB1E882309F4B3CF0E948E
:104750000000B0CF82E090E00E94A120782E8093EC
:10476000B40483E090E00E94A120882E8093B504D9
:1047700084E090E00E94A120A82E85E090E00E94B5
:10478000A120BA2CA82EB092B304A092B2048CE05F
:1047900090E00E94A120182F8DE090E00E94A120BF
:1047A000912F893223E2920710F088E293E2843657
:1047B000910510F484E690E09093B7048093B604DA
:1047C00086E090E00E94A120C82E87E090E00E9441
:1047D000A120DC2CC82E89E2C81683E2D80620F07E
:1047E00068E2C62E63E2D62EE4E6CE16D10418F4B3
:1047F00054E6C52ED12CD092B904C092B80488E0FA
:1048000090E00E94A120082F89E090E00E94A12062
:10481000102F082F0932F3E21F0710F008E213E20D
:104820000436110510F404E610E01093BB04009365
:10483000BA048AE090E00E94A120982E8BE090E0DC
:104840000E94A120992D813127E2920710F080E18A
:1048500097E2883C910510F488EC90E09093BD04B9
:104860008093BC04C016D10630F004561109109391
:10487000B9040093B8048CE3871518F485E080939D
:10488000B404E2E0E81518F481E08093B504F9E996
:10489000AF16FAE3BF0608F453CE80EA9FE0909388
:1048A000B3048093B2044CCE803509F48AC08235BB
:1048B00009F4CCC08E3409F022CF6091B40470E0CA
:1048C00090E080E04AE01AC08636F9F048F4883576
:1048D00009F41AC1833609F012CF0E9453200FCF7A
:1048E000803709F462C0833709F4B5C08E3609F009
:1048F00006CF4AE06DE370E080E090E00E94DB1FAD
:1049000082EF93E00E94CE1FFACE6092B50484E15C
:1049100094E00E94BF1E0297D4F384E194E00E94C9
:104920009D1E182F84E194E00E949D1E63968FAF18
:10493000639762961FAE629763968EAD9FAD639745
:10494000812B9093B7048093B604D9CE01EB14E089
:10495000F80161918F0184E194E00E94011FA0168B
:10496000B106B1F7CCCEF80160817181CE0101961C
:104970000E940F26CE0101960E941F20045F1F4F48
:104980008016910681F7BBCE84E194E00E94BF1EA1
:1049900018161906CCF784E194E00E949D1E83301E
:1049A00008F0ADCE8093B504AACEE091B4047E9E0B
:1049B000F0011124EC5FFE4F808591850E942D202F
:1049C0009ECEE091B4047E9EF0011124EC5FFE4F78
:1049D0000084F185E02D8591949110E000E0E09154
:1049E000B4047E9EF0011124EC5FFE4F808591851A
:1049F00008171907E8F40115110521F085EF93E078
:104A00000E94CE1FE091B4047E9EF0011124EC5F61
:104A1000FE4F0280F381E02DE00FF11F649170E002
:104A200090E080E04AE00E94DB1F0F5F1F4FD7CF6E
:104A300084EF93E00E941F20E091B4047E9EF00179
:104A40001124EC5FFE4F82859385B8CF8091B2042C
:104A50009091B304B3CF1092B50484E194E00E9426
:104A6000BF1E0697D4F384E194E00E949D1E182F88
:104A700084E194E00E949D1E382E212CC101812BDF
:104A80009093B9048093B80484E194E00E949D1E41
:104A9000182F84E194E00E949D1E582E412CC201E3
:104AA000812B9093BB048093BA0484E194E00E942C
:104AB0009D1E182F84E194E00E949D1EF82EE12C8B
:104AC000C701812B9093BD048093BC0418CE84E170
:104AD00094E00E94BF1E18161906CCF784E194E0FA
:104AE0000E949D1E8D3308F00ACE8093B40460911D
:104AF000B2047091B30490E080E00E946E1F1092A7
:104B0000010410920004FBCD8091B4048C3301F5B4
:104B10001092B4046091B2047091B30490E080E00C
:104B20000E946E1F1092010410920004E091B404E0
:104B30007E9EF0011124EC5FFE4F60817181CE01F9
:104B400001960E940F26CE0101960E941F20D7CD0C
:104B50008F5F8093B404DECF811146C00E943C1E5B
:104B6000AB01BC012091BC043091BD0480910404D0
:104B700090910504A0910604B0910704820F931F41
:104B8000A11DB11D84179507A607B70708F0D6CD5C
:104B90000E943C1E609304047093050480930604F5
:104BA00090930704809103010091B2041091B30423
:104BB000813069F40F5F1F4F8091BA049091BB045C
:104BC0000817190708F4B6CD10920301B3CD0150B0
:104BD00011098091B8049091B9048017910708F4E5
:104BE000A9CD60920301A6CD813009F0A7CD009137
:104BF000B6041091B7049ECD08E213E28091B2048E
:104C00009091B3040817190729F0B80190E080E0EB
:104C10000E946E1F1093B3040093B2048FCDFB016A
:104C2000DC0105900D920020E1F70895F999FECF7F
:104C300092BD81BDF89A992780B50895262FF999DC
:104C4000FECF1FBA92BD81BD20BD0FB6F894FA9A6F
:104C5000F99A0FBE01960895A1E21A2EAA1BBB1B5A
:104C6000FD010DC0AA1FBB1FEE1FFF1FA217B30738
:104C7000E407F50720F0A21BB30BE40BF50B661F4E
:104C8000771F881F991F1A9469F760957095809512
:104C900090959B01AC01BD01CF010895EE0FFF1F60
:104CA0000590F491E02D09940E9468260C94492700
:104CB0000E94422758F00E943B2740F029F45F3FB2
:104CC00029F00C94322751110C947D270C9438272D
:104CD0000E945A2768F39923B1F3552391F3951B4A
:104CE000550BBB27AA2762177307840738F09F5F0D
:104CF0005F4F220F331F441FAA1FA9F335D00E2E7A
:104D00003AF0E0E832D091505040E695001CCAF7E6
:104D10002BD0FE2F29D0660F771F881FBB1F2617A9
:104D200037074807AB07B0E809F0BB0B802DBF0180
:104D3000FF2793585F4F3AF09E3F510578F00C944F
:104D400032270C947D275F3FE4F3983ED4F3869599
:104D500077956795B795F7959F5FC9F7880F911D70
:104D60009695879597F90895E1E0660F771F881F5C
:104D7000BB1F621773078407BA0720F0621B730B0F
:104D8000840BBA0BEE1F88F7E09508950E94622706
:104D900088F09F5798F0B92F9927B751B0F0E1F0FC
:104DA000660F771F881F991F1AF0BA95C9F714C0AC
:104DB000B13091F00E947C27B1E008950C947C27DB
:104DC000672F782F8827B85F39F0B93FCCF38695E5
:104DD00077956795B395D9F73EF490958095709542
:104DE00061957F4F8F4F9F4F0895E89409C097FBBF
:104DF0003EF490958095709561957F4F8F4F9F4FB2
:104E00009923A9F0F92F96E9BB279395F6958795F5
:104E100077956795B795F111F8CFFAF4BB0F11F4B8
:104E200060FF1BC06F5F7F4F8F4F9F4F16C088235F
:104E300011F096E911C0772321F09EE8872F762F95
:104E400005C0662371F096E8862F70E060E02AF0D6
:104E50009A95660F771F881FDAF7880F96958795C2
:104E600097F9089597F99F6780E870E060E00895EA
:104E70009FEF80EC089500240A9416161706180672
:104E80000906089500240A9412161306140605064E
:104E90000895092E0394000C11F4882352F0BB0FDF
:104EA00040F4BF2B11F460FF04C06F5F7F4F8F4F42
:104EB0009F4F089557FD9058440F551F59F05F3F7D
:104EC00071F04795880F97FB991F61F09F3F79F02C
:104ED00087950895121613061406551FF2CF4695AE
:104EE000F1DF08C0161617061806991FF1CF869530
:104EF0007105610508940895E894BB276627772714
:104F0000CB0197F908950E9496270C9449270E9497
:104F10003B2738F00E94422720F0952311F00C9493
:104F200032270C94382711240C947D270E945A278D
:104F300070F3959FC1F3950F50E0551F629FF001EC
:104F4000729FBB27F00DB11D639FAA27F00DB11D05
:104F5000AA1F649F6627B00DA11D661F829F22278E
:104F6000B00DA11D621F739FB00DA11D621F839F15
:104F7000A00D611D221F749F3327A00D611D231FEB
:104F8000849F600D211D822F762F6A2F11249F5739
:104F900050409AF0F1F088234AF0EE0FFF1FBB1F3C
:104FA000661F771F881F91505040A9F79E3F5105FB
:104FB00080F00C9432270C947D275F3FE4F3983EF9
:104FC000D4F3869577956795B795F795E7959F5FA5
:104FD000C1F7FE2B880F911D9695879597F9089537
:044FE000F894FFCF73
:104FE40001881301973B933B0A85083D040068013F
:104FF400823B7C3BCDCC4C3D060068016B3B633B64
:10500400488A883D08006801533BDB3A0000803F32
:1050140078006801C83AD8390000803FF000D00217
:10502400B939C9380000803FF000D002B93871386E
:105034009A99193F48006801613831380000003FEF
:105044003000680118380838488A883D1000D002BA
:10505400F437E437A987083E10006801D137AD372B
:105064009A99193E2400D002993709379A99193F21
:105074009000D002EE369E36E3AA2A3F5000680123
:10508400713668369A99193E0900D0023F362736A0
:10509400CDCC4C3E180068010C363C330000404037
:1050A400D002D0022F33FF32CDCCCC3E3000680189
:1050B400E832A0329A99193F480068018932413296
:1050C4009A99193F480068012A329A319A99193FEE
:1050D4009000D00286313E319A99193F4800680108
:1050E400263196309A99193F9000D0027D30ED2FE9
:1050F4009A99193F9000D002D52F852F3BAAAA3E3A
:105104005000D002702FA02C0000C040D002D0026A
:10511400882C982B0000803FF000D0027A2B322B91
:105124009A99193F480068011E2BEE2ACDCC4C3EBB
:105134003000D002C32A332A9A99193F9000D00232
:105144000A2A3A2700004040D002D0021127412405
:1051540000004040D002D002182448210000404002
:10516400D002D002242194209A99993F9000D00231
:105174007920A91D00004040D002D0028D1DBD1A27
:1051840000004040D002D002911A491A9A99993EDF
:105194004800D002131AD319F888883E4000D00280
:1051A400AC19A4190A85883D0800D0027D1971192B
:1051B400CDCCCC3D0C00D0024A193A19A987083E3F
:1051C4001000D0021419341700008040E001D0020E
:1051D4001417AC150000C03F6801D0028615F61400
:1051E4009A99193F9000D002D914A1100000C03F31
:1051F4003804D0028A10FA0F9A99193F9000D0020D
:10520400E50FC70F0000803F1E00D002A00F100F53
:10521400CDCC4C3F90006801040F740E9A99193F4D
:105224009000D0025B0ECB0D9A99193F9000D002EA
:10523400B20D220D9A99193F9000D002090D390A36
:1052440000004040D002D002330A7F098941C03FA8
:10525400B400D0027609E6089A99193F9000D0026A
:10526400DB080B0600004040D002D002FB056B05B2
:105274009A99193F9000D0025F05CF04FA7EAA3EA6
:105284009000D002C2043204FA7EAA3E9000D002FA
:105294002404DC039A99193F48006801D2036A0286
:1052A4000000C03F6801D002620272010000803F2A
:1052B400F000D002580168000000803FF000D002E6
:1052C40000000000011F611E8E1E4E1FBF1E9D1E8A
:0852D400B11E0D0A002C0000C0
:00000001FF
