:100000000C945C1F0C94841F0C94841F0C94841F0C
:100010000C94841F0C94841F0C94841F0C94841FD4
:100020000C94841F0C94841F0C94841F0C9415232F
:100030000C94841F0C94841F0C94841F0C94841FB4
:100040000C9473220C94841F0C94E3220C94BD2214
:100050000C94841F0C94DE230C94841F0C94841F36
:100060000C94841F0C94841F1D0808080707112492
:100070001A050F2218040D2218040E2218040F234B
:10008000190610241A0711251C0812271D09132709
:100090001D0913271D0913271D0913271D091327E0
:1000A0001D0913271D0913271D0913271D091327D0
:1000B0001D090909090913271D0913271D091327FC
:1000C0001D0913271D0913271D0913271D091327B0
:1000D0001D0913271D0913271D0913271D091327A0
:1000E0001D0913271D0913271D0913271D09132790
:1000F0001D0913271D09132731382D312041426D69
:100100006F6465204D415020617343414D000100F3
:1001100001000100010001000100010003020302CF
:1001200001000100010001000100010001000100C7
:1001300001000100010001000100010001000100B7
:1001400001000100010001000100010001000100A7
:100150000100000000000100010001000100010099
:100160000100010001000100010001000100010087
:100170000100010001000100010001000100010077
:100180000100010001000100010001000100010067
:1001900001000100010001000100000000003336F1
:1001A0002D322077697468203120746F6F74682055
:1001B00063616D00020202020202030302020202F4
:1001C000030302020202020202020202020202020D
:1001D00002020303020202020303020202020202FB
:1001E00002020202020202020202030302020202ED
:1001F00003030202020202020202020202020202DD
:1002000002020303020202020303020202020202CA
:1002100002020202020202020202030302020202BC
:1002200003030202020202020202020200000000B4
:1002300000000101000000000101000000000000BA
:1002400000000000000000000000010100000000AC
:10025000010100000000000000000000000000009C
:10026000000001010000000001010000000000008A
:10027000000000000000000000000101000000007C
:10028000010100000000000000000000000000006C
:10029000000001010000000001010000000000005A
:1002A00000000000446F6467652056697065722025
:1002B00056313020313939362D323030320001009C
:1002C0000100010001000100010001000100010026
:1002D00001000100010001000100010007060706FE
:1002E00007060706070607060706070601000100BE
:1002F00001000100010001000100010001000100F6
:1003000001000100010001000100010001000100E5
:1003100001000100010001000706070607060706A5
:100320000706070607060706070607060706070665
:100330000706060606060706070607060706070657
:100340000706070607060706070607060706070645
:10035000070607060100010001000100010001007D
:100360000100070607060706070607060706070631
:100370000706070607060706070607060706070615
:100380000706070607060706070607060706070605
:100390000100010001000100010001000100010055
:1003A0000100010001000100010000000000424DB9
:1003B00057204E3230000000000000000000000016
:1003C000000000000000000000000000000000002D
:1003D000000100000000000000000001000000001B
:1003E000000000000001000000000000000000010B
:1003F00000000000000000000000000000000002FB
:1004000002020202020202020202020202030202CB
:1004100002020202020202030202020202020202BB
:1004200002030202020202020202020302020202AA
:10043000020202020202020202020202020202029C
:10044000020202020202020202030202020202028B
:10045000020202030202020202020202020302027A
:10046000020202020202020302020202020202026B
:10047000020202020202020202020202020202025C
:10048000020202020203020202020202020202034A
:10049000020202020202020202030202020202023B
:1004A000020202030202020202020202020202022B
:1004B0000202020000000000000000000000000036
:1004C000000100000000000000000001000000002A
:1004D000000000000001000000000000000000011A
:1004E000000000000000000000000000000000000C
:1004F00000000000000000000000000000010000FB
:1005000000000000000000010000000000000000EA
:1005100000010000000000000000000100004A652A
:10052000657020323030300001010101010102020A
:1005300002020000030303030303020200000000A1
:1005400001010101010100000000000001010101A1
:100550000101000000000000010101010101000093
:100560000000000001010101010100000000000085
:1005700053757A756B692044525A3430300001014A
:100580000200000000000000000001010000000067
:100590000000000000000101000000000000000059
:1005A0000000010100000000000000000000010147
:1005B0000000000000000000000001010000000039
:1005C0000000000000000101000000000000000029
:1005D0000000010100000000000000000000010117
:1005E0000000000000000000000001010000000009
:1005F00000000000000001010000000000000000F9
:100600000000010100000000000000000000546F25
:10061000796F7461203441475A450001010202009C
:1006200000000000000000000000000000000000CA
:1006300000000000000000000000000000000001B9
:1006400001000000000000000000000000000000A9
:10065000000000000000000000000000000000009A
:100660000000000101000000000000000000000088
:10067000000000000000000000000000000000007A
:100680000000000000000001010000000000000068
:10069000000000000000000000000000000000005A
:1006A0000000000000000000000000546F796F742B
:1006B00061203441474500010001000100010001B3
:1006C0000001000100010001000100020001000121
:1006D0000001000100010001000100010001000112
:1006E0000001000000010001000100010001000103
:1006F00000010001000100010001000200020001F0
:1007000000010001000100010001000100010001E1
:1007100000010000000100010001000100010001D2
:1007200000010001000100010001000200010001C0
:1007300000010001000100010001000100010001B1
:10074000000100000000004D6974737562697368F0
:10075000692033413932000001010101000000002D
:100760000000000000000000000101010101010182
:100770000000000000010101010100000000000173
:100780000101010100000000010101010100000060
:100790000000010101010100000000000303030348
:1007A0000302020202020303030303020202020223
:1007B0000303030303020202020203030303010013
:1007C0000000000001010101010000000000010122
:1007D0000101010000000000010101010100000011
:1007E0000000010101010100000000000101010100
:1007F00001000000000001010101030202020202E7
:1008000003030303030202020202030303030302BE
:1008100002020202030303010100000000000101C3
:1008200001010100000000000101010101000000C0
:1008300000000101010101000000000001010101AF
:1008400001000000000001010101010000000000A2
:100850000101010303020202020203030303030274
:100860000202020203030303030202020202030361
:10087000030101010000000001010101010100006C
:10088000000001010101010100000000000101015F
:100890000101000000000001010101010000000051
:1008A000000101010101000000000001010101013E
:1008B0000000000000010101010100000000000132
:1008C0000101010100000000000000000000000024
:1008D000000001010101010100000000000101010F
:1008E0000101000000000001010101010000000001
:1008F00000010101010100000000000101010101EE
:1009000000000000000303030303020202020203CB
:1009100003030303020202020203030303030202AE
:1009200002020203030303010000000000010101B1
:1009300001010000000000010101010100000000B0
:10094000000101010101010000000001010101019C
:100950000100000000000101010101000000000091
:10096000010101010100000000000101010101007D
:100970000000000001010101010000000000010170
:10098000010101000000000001010101010000005F
:10099000000001010101010000000000010101014E
:1009A0000100000000000101010101000000000041
:1009B0000101010101000000000001030303030223
:1009C0000202020203030303030202020202030300
:1009D00003030303020202020303030101010000F7
:1009E00000000001010101010000000000010101FF
:1009F00001010000000000010101010100000000F0
:100A000000010101010100000000000101010101DC
:100A100000000000000101010101000000000001D0
:100A200001010101000000466F7264205354313708
:100A30003000000000000000000000000002020280
:100A40000202020202020203030202030302020381
:100A5000030202030302020202020200000000007D
:100A60000001010101010101010101010100000179
:100A70000100000101000001010000000000000071
:100A8000000000000002020202020202020202034F
:100A9000030202030302020303020203030202022F
:100AA0000202020202020202020303030303030121
:100AB000010101010100000101000001010000012C
:100AC000010044534D20343230610000000000002A
:100AD0000000000000000000000000000000000016
:100AE0000101000000000000000000000000000004
:100AF00000000000000000000000000000000101F4
:100B000000000001010000000000000000000000E3
:100B100000000000000000000000000001010000D3
:100B200000000000000000000000000000000000C5
:100B300000000000000000000000010100000000B3
:100B400000000000000000000000000000000000A5
:100B50000000000000000000010100000000000093
:100B60000000000000000000000000000000000085
:100B7000000000000000010100000000000000472C
:100B80004D20375800000000000002020200000063
:100B90000202020000000202020000000000000049
:100BA0000000000000000000000000000000000045
:100BB0000000000000000000000000000000000035
:100BC0000000000000000000000000000000000025
:100BD0000000000000000000010101000000000012
:100BE0000000000000000000000000000000000005
:100BF00000000000000000000101010000000000F2
:100C000000000000000000000000000000000000E4
:100C100000000000000000000000000000000000D4
:100C200000000000000000000000000000000001C3
:100C300001010000000000000000000000000000B2
:100C4000000000000000000000000000000202029E
:100C50000000000000000000000000000000000094
:100C60000000000000000000000000000000000084
:100C70000000000000000000000000000000000074
:100C80000000000000000000000000000101010061
:100C90000000000000000000000000000000000054
:100CA0000000000000000000000000000101010041
:100CB0000000000000000000000000000000000034
:100CC0000000000000000000000000000000000024
:100CD0000000000000000000000000000000000014
:100CE0000000000101010000000000000000000001
:100CF00000000000000000000000000000000000F4
:100D000000020202000000020202000000000000D7
:100D100000000000000000000000000000000000D3
:100D200000000000000000000000000000000000C3
:100D300000000000000000000000000000000000B3
:100D400001010100000000000000000000000000A0
:100D50000000000000000000000000000000000093
:100D60000101010000000000000000000000000080
:100D70000000000000000000000000000000000073
:100D80000000000000000000000000000000000063
:100D90000000000000000001010100000000000050
:100DA0000000000000000000000000000000000043
:100DB000000000000002020200000000000000002D
:100DC0000000000000000000000000000000000023
:100DD0000000000000000000000000000000000013
:100DE0000000000000000000000000000000000003
:100DF00000000000010101000000000000000000F0
:100E000000000000000000000000000000000000E2
:100E100000000000010101000000000000000000CF
:100E200000000000000000000000000000000000C2
:100E300000000000000000000000000000000000B2
:100E4000000000000000000000000001010100009F
:100E5000000000000053756261727520362F372044
:100E60006372616E6B20616E642063616D000000CF
:100E7000010000010000010000010000010000016C
:100E8000000001000001000001000001000001005D
:100E9000000100000100000100000100000100004D
:100EA000010000010000010000010000010000013C
:100EB000000001000001000001000001000001002D
:100EC000000100000100000100000100000100001D
:100ED000010000010000010000010000010000010C
:100EE00000000100000100000100000102020302F5
:100EF0000201000001000001000001000001323485
:100F00002F3120283234206372616E6B2077697430
:100F1000682063616D2900000000000001000000EE
:100F200000000100000000000100000000000100BE
:100F300000000000010000000000010000000000AF
:100F4000010000000000010000000000010000009E
:100F5000000001000000000001000000000001008E
:100F6000000000000100000000000100000000007F
:100F7000010000000000010000000000010000006E
:100F8000000001000000000001000000000001005E
:100F90000000000001020202020201000000000045
:100FA0000100000000000131322F312028313220B1
:100FB0006372616E6B20776974682063616D2900CC
:100FC000000000000000020200000000000000001D
:100FD000000000010100000000000000000000000F
:100FE00000010100000000000000000000000000FF
:100FF00000000000000000010100000000000000EF
:1010000000000000000101000000020200000202D6
:1010100000000000000000000000000101000000CE
:1010200000000000000000000001010000000000BE
:1010300000000000000000000000000000000001AF
:10104000010000000000000000000000000101009D
:101050004D696174612039392D303500010100007E
:10106000000001010000000000000000000000007E
:101070000000000000000000000000000000000070
:10108000000000000000000000000000010100005E
:101090000000000000000000000000000000000050
:1010A0000000000000000000000000000000000040
:1010B000000000000000000000000000010100002E
:1010C0000000000000000000000000000000000020
:1010D0000000000000000000000000000000000010
:1010E000000000000000000000000000446169688A
:1010F0006174737520332B31206469737472696273
:1011000075746F722028332063796C696E64657220
:101110007329000000000000020000010000000030
:1011200000010000000000020002010000000000B9
:10113000014D617A64612033323320415520766558
:101140007273696F6E000100000000000100000072
:10115000000001000000000001000000000001008C
:10116000000000000100000000000100000000007D
:10117000010000000000010000000000010000006C
:10118000000001000000000001000100000001005B
:10119000000000000100000000000100000000004D
:1011A000010000000000010000000000010000003C
:1011B000000001000000000001000000000001002C
:1011C000000000000100000000000100000000001D
:1011D000010001000000486F6E6461204431372037
:1011E0004372616E6B202831322B312900030302D8
:1011F00002030302020303020001010000010100D7
:1012000000010100000101000001010000010100D6
:1012100000010100000101000001010000010100C6
:1012200000010100000101000001010000010100B6
:1012300000010100000101000001010000010100A6
:101620000001010002417564692031333520746F77
:101630006F7468206372616E6B20616E64206361F9
:101640006D00020202020202020202020200000017
:101650000000000000000001010101010101010181
:101660000101010101000000000000000000000075
:101670000000000000000000020202030303030355
:101680000303030303030101010000000000000045
:101690000000000000000000000000000000000149
:1016A000010101010101010101010101010000002D
:1016B000000000000000000000000000000000002A
:1016C00000000203030303030303030303030303F1
:1016D00003024D69747375626973686920346736F3
:1016E0003320616B6120342F32206372616E6B2076
:1016F000616E642063616D00010100000001010062
:1017000000000101000000010100000001010000D3
:1017100000010100000001010000000103020202BB
:1017200003030202020301000000010100000000A7
:10173000000000000000000000010302020202029B
:10174000020202020000000001010000000101008D
:101750000000010100000001010000000101000083
:101760000001010000000101000000010100000073
:10177000010100000001030202020303020202034E
:101780000100000001010000000000000000000056
:10179000000000010302020203030202020301002F
:1017A0000000010100000001010000000101000033
:1017B0000001010000000101000000010100000023
:1017C0000101000000010100000001010000000112
:1017D0000100000001010000000101000000010102
:1017E00000000000000000000000000000010302F3
:1017F00002020202020202020000000001010000D7
:1018000000010100000001010000000101000000D2
:1018100001010000000101000000010100000001C1
:1018200001000000010100000001010000000101B1
:1018300000000001010000000101000000000000A4
:101840000000000000000001030202020303020284
:10185000020301000000010100000001010000007E
:101860004D617A64612033362D322D322D3220774E
:10187000697468203620746F6F74682063616D002E
:10188000000101010001010100010101000101014C
:10189000000101010001010100010101000101013C
:1018A000000101010001010100010101000101012C
:1018B000020101010001010100010101000101011A
:1018C0000001010102010101010101010101010108
:1018D00000010101000101010001010100010101FC
:1018E00000010101000101010001010100010101EC
:1018F00000010101000101010001010100010101DC
:1019000000010101000101010001010100010101CB
:1019100000010101020101010101010101010101B7
:1019200000010101000101010001010100010101AB
:10193000000101010001010100010101000101019B
:10194000000101010001010100010101000101018B
:10195000000101010001010100010101000101017B
:101960000001010102010101010101010101010167
:10197000000101010001010100010101000101015B
:10198000000101010001010100010101000101014B
:10199000000101010001010100010101000101013B
:1019A000000101010001010100010101000101012B
:1019B0000001010102010101010101010101010117
:1019C000000101010001010100010101000101010B
:1019D00000010101000101010001010100010101FB
:1019E00000010101000101010001010100010101EB
:1019F00000010101000101010001010100010101DB
:101A000000010101020101010101010101010101C6
:101A100000010101000101010001010100010101BA
:101A200000010101000101010001010100010101AA
:101A3000000101010001010100010101000101019A
:101A4000000101010001010100010101000101018A
:101A50000001010102010101010101010101010176
:101A6000566F6C766F206431325B6163645D206316
:101A700072616E6B2077697468203720746F6F74A1
:101A8000682063616D000100010001000100030294
:101A9000030203020302474D2038206576656E2D50
:101AA000746F6F7468206372616E6B2077697468FD
:101AB000203120746F6F74682063616D0001000134
:101AC000000100030203020302474D203620657621
:101AD000656E2D746F6F7468206372616E6B207712
:101AE000697468203120746F6F74682063616D00C1
:101AF0000100010003020302474D20342065766592
:101B00006E2D746F6F7468206372616E6B207769DD
:101B10007468203120746F6F74682063616D0000F9
:101B200000000100000001000000010000000100B1
:101B300000000100000001000000010000000100A1
:101B40000202030200000100000001000000010089
:101B50000000010000000100000001000000015928
:101B6000616D61686120323030322D303320523166
:101B70002038206576656E2D746F6F7468206372EF
:101B8000616E6B2077697468203120746F6F7468A0
:101B90002063616D000100000100000100000100F0
:101BA0000001000001000001000001000001000030
:101BB0000100000302020202020300000100000112
:101BC0000000010000010000010000010000010010
:101BD000000100000100000100000000004D617ADA
:101BE0006461204341532032342D32207769746878
:101BF0002073696E676C652070756C7365206F75F6
:101C00007465722072696E670002010001000100B4
:101C100001000302030203020302030203020302A0
:101C2000030203020302030203020302030203028C
:101C3000030203020302030203020302030203027C
:101C4000030203020302030203020302030203026C
:101C5000030203020302030203020302030203025C
:101C6000030203020302030203020302030203024C
:101C7000030203020302030203020302030203023C
:101C80000302010001000100010001000100010048
:101C90000100030203020302030203020302030220
:101CA000030203020302030203020302030203020C
:101CB00003020302030203020302030203020302FC
:101CC00003020302030203020302030203020302EC
:101CD00003020302030203020302030203020302DC
:101CE00003020302030203020302030203020302CC
:101CF00003020302030203020302010001000100C8
:101D000001000100010001000100010001000100CB
:101D1000010003020302030203020302030203029F
:101D2000030203020302030203020302030203028B
:101D3000030203020302030203020302030203027B
:101D4000030203020302030203020302030203026B
:101D5000030203020302030203020302030203025B
:101D6000030203020302030203020302030203024B
:101D70000302010001000100010001000100010057
:101D8000010001000100010001000100010001004B
:101D9000010003020302030203020302030203021F
:101DA000030203020302030203020302030203020B
:101DB00003020302030203020302030203020302FB
:101DC00003020302030203020302030203020302EB
:101DD00003020302030203020302030203020302DB
:101DE00003020302030203020302010001000100D7
:101DF00001000100010001000100010001000100DB
:101E000001000100010001000100010001000100CA
:101E1000010003020302030203020302030203029E
:101E2000030203020302030203020302030203028A
:101E3000030203020302030203020302030203027A
:101E4000030203020302030203020302030203026A
:101E5000030203020302030203020302030203025A
:101E60000302010001000100010001000100010066
:101E7000010001000100010001000100010001005A
:101E8000010001000100010001000100010001004A
:101E9000010003020302030203020302030203021E
:101EA000030203020302030203020302030203020A
:101EB00003020302030203020302030203020302FA
:101EC00003020302030203020302030203020302EA
:101ED0000302030203020302034E697373616E205F
:101EE000333630204341532077697468203620739D
:101EF0006C6F74730002020202020202020202020A
:101F000002020202020202020202020202020202B1
:101F100002020202020202020202020202000000A7
:101F200000000000000000000000000000000000B1
:101F30000002020202020202020202020202020283
:101F4000020202020202020203030303030202026C
:101F50000202020202020202020202020202020261
:101F6000020202020202020203030303030202024C
:101F70000202020202020202020202020202020241
:101F80000202020202020202020202020202020231
:101F90000202020202020202020202020202020320
:101FA000030303030202020202020202020202020D
:101FB0000202020202020202020202020202020201
:101FC00002020202020202020202020202020202F1
:101FD00002020202020202020202020000000000EB
:101FE00000000000000000000000000000000000F1
:101FF00000000000000000000000000001010101DD
:1020000001000000000000000000000000000000CF
:1020100000000000000000000000000001010101BC
:1020200001000000000000000000000000000000AF
:1020300000000000000000000000000000000000A0
:102040000000000000000000000000000000000090
:10205000000000010101010100000000000000007B
:102060000000000000000000000000000000000070
:102070000000000000000000000000000000000060
:10208000000000000002020202020202020202023A
:10209000020202020202020202000000000000002E
:1020A0000000000000000000000000000000000030
:1020B000010101010100000000000000000000001B
:1020C0000000000000000000000000000000000010
:1020D00001010101010000000000000000000000FB
:1020E00000000000000000000000000000000000F0
:1020F00000000000000000000000000000000000E0
:1021000000000000000000010101010100000000CA
:1021100000000000000000000000000000000000BF
:1021200000000000000000000000000000000000AF
:10213000000000000000000000000000000000009F
:102140000000000202020202020202020202020275
:10215000020202020202020202020202020202025F
:10216000020202020303030303020202020202024A
:10217000020202020202020202020202020202023F
:10218000020202020303030303020202020202022A
:10219000020202020202020202020202020202021F
:1021A000020202020202020202020202020202020F
:1021B00002020202020202020202020303030303FA
:1021C00002020202024669617420312E3820313643
:1021D00056206372616E6B20616E642063616D00D6
:1021E00000000000000000000000000000000000EF
:1021F00001010000000002020202000000000000D5
:1022000000000101000000000000000000000000CC
:1022100000000000010100000000020202020000B4
:1022200000000000000001010000000000000000AC
:10223000000000000000000001010000000000009C
:10224000000000000000000000000101000000008C
:10225000000000000000000000000000010100007C
:10226000000000000000000000000000000001016C
:1022700057656265722D4D6172656C6C69203820FE
:102280006372616E6B2B322063616D2070617474B8
:1022900065726E00000000000000000000000000F9
:1022A000000000000000000000000000000101012B
:1022B0000101000000000001010101010000000017
:1022C0000001010101010000000000010101010104
:1022D00000000000000101010101000000000001F8
:1022E00001030303020202020201010101010000D5
:1022F00000000001010101010000000000010101D6
:1023000001010000000000010101010100000000C6
:1023100000010101010100000000000101010101B3
:1023200000000000000101010101000000000001A7
:10233000010101010000000000010103030302028A
:10234000020202010101010100000000000101017F
:10235000030303030303030301010101010101015D
:102360000101010101010000000000010101010162
:102370000000000000010101010100000000000157
:102380000101010100000000000101010101000044
:102390000000000101030303020202020201010125
:1023A000010100000000000101010303020202021A
:1023B000020301010101000000000001010101030D
:1023C00002020202020303010101000000000001F9
:1023D00001010101000000000001010101010000F4
:1023E00000000001010101010000000000010103E3
:1023F00003030202020202010101010100000000C8
:1024000000000000020202020202020200000000BC
:1024100000000000000101010101000000000001B6
:1024200001010101000000000001010101010000A3
:102430000000000101010101000000000001010194
:102440000101000000000001010303030202020277
:10245000020101010101000000000001010103036C
:10246000020202020203010101010000000000015A
:102470000101010100000000000101010101000053
:102480000000000101010101000000000001010144
:102490000101000000000001010101010000000035
:1024A0000001010303030202020202010101010112
:1024B0000000000000010101010101010101010111
:1024C00001010101010101010101010101010000FE
:1024D00000000001010101010000000000010101F4
:1024E00001010000000000010101010100000000E5
:1024F00000010101010100000000000101030303CC
:1025000002020202020101010101000000000001BB
:1025100001010303020202020203010101010000A2
:102520000000000101010103020202020203030193
:102530000101000000000001010101010000000094
:102540000001010101010000000000010101010181
:102550000000000000010103030302020202020165
:102560000101010143687279736C6572204E474323
:102570002033362D322B32206372616E6B2C204E4D
:10258000474320382D63796C2063616D000202009F
:10259000000000000000000000000202020202022F
:1025A000020202020000010101010100000000021C
:1025B00003030303030202020200010101010100FF
:1025C0000000000001010101010000000000010104
:1025D00001010100000000000101010101000000F3
:1025E00000000101010101000000000001010101E2
:1025F00001000000000001010101010000020202CF
:1026000003030303030202000000010101010100B2
:1026100000000000010101010100000000000101B3
:1026200001010100000000000101010101000000A2
:102630000000010101010100000000000101010191
:10264000010000000000010101010101010101017F
:10265000010101010101010101010101010101006B
:102660000000000001010101010000000000010163
:10267000010101000002020203030303030202003E
:102680000000010101010100000002020303030335
:10269000030202020000010101010100000000002C
:1026A0000101010101000000000001010101010020
:1026B0000000000001010101010000000000010113
:1026C0000101010000000000010101010100000002
:1026D00000000101010101000000000001010101F1
:1026E00001000000000001010101010000020202DE
:1026F00003030303030202000000000000000000C7
:1027000000000202020202020202020200000101B3
:10271000010101000000000203030303030202029F
:10272000020001010101010000000000010101019E
:102730000100000000000101010101000000000093
:10274000010101010100000000000101010101007F
:102750000000000001010101010000000000010172
:10276000010101000002020203030303030202004D
:102770000000010101010100000002020303030344
:10278000030202020000010101010100000000003B
:10279000010101010100000000000101010101002F
:1027A0000000000001010101010000000000010122
:1027B0000101010101010101010101010101010109
:1027C00001010101010101000000000001010101FE
:1027D00001000000000001010101010000020202ED
:1027E00003030303030202000000010101010100D1
:1027F00000000000010101010100000000000101D2
:1028000001010100000000000101010101000000C0
:1028100000000101010101000000000001010101AF
:1028200001000000000001010101010000000000A2
:10283000010101010100000000000101010101008E
:102840000000000001010101010000000000010181
:102850000101010000020202030303030343687243
:1028600079736C6572204E47432033362D322B32FC
:10287000206372616E6B2C204E474320362D6379A6
:102880006C2063616D000000000000010101010186
:102890000101010101010101010101010101010326
:1028A00003030303020202020203030303030202FF
:1028B00002020203030303030202020202030303F0
:1028C00003030200000000010101010100000000FB
:1028D00000010101010100000000000101010101EE
:1028E00000000000000101030303020202020203D0
:1028F00003030303020202020203030303030202AF
:1029000002020203030303030202020000010101A9
:1029100001010000000000010101010100000000B0
:10292000000101010101000000000001010101039B
:102930000202020202030303030302020202020272
:102940000202020202020202020202020202020267
:10295000020202030303030302020202020303034F
:102960000303020202020203030303030202020240
:10297000020303030303020202020203030303032D
:102980000202020202030303030302020202020321
:10299000030303030202020202030303030302020E
:1029A00002020203030303030202020202030303FF
:1029B00003030202020202030303030302020200F2
:1029C00000010101010100000000000101010101FD
:1029D00000000000000101010101000000000001F1
:1029E00001010103020202020203030303030202C4
:1029F00002020203030303030303030303030303AA
:102A000003030303030303010101010100000000AC
:102A100000010101010100000000000101010101AC
:102A20000000000000010101010100020202020396
:102A3000030303030202020202030303030302026D
:102A40000202020303030303020202020203030160
:102A5000010100000000000101010101000000006F
:102A6000000101010101000000000001010101015C
:102A70000000000202030303030302020202020336
:102A8000030303030202020202030303030302021D
:102A90000202020303030301000000000001010120
:102AA0000101000000000000000000000000000024
:102AB0000000000000000000000000010101010111
:102AC0000000000000010101010100000000000100
:102AD00001010101000000000001010101010000ED
:102AE00000000001010101010000000000010101DE
:102AF00001010000000000010101010100000000CF
:102B000000010101010100000000000101010101BB
:102B100000000000000101010101000000000001AF
:102B2000010101010000000202030303030302028A
:102B3000020202030303030302020202020303036D
:102B40000303020202020203030303010000000068
:102B500000010101010143687279736C6572204EB6
:102B600047432033362B322D32206372616E6B2C3B
:102B7000204E474320342D63796C2063616D000142
:102B8000000100010001000100010001000100013D
:102B9000000100010001000100010001000100012D
:102BA000000100010001000100010001000100011D
:102BB000000100010001000100010001000100030B
:102BC00002030201000000010001000100010001F8
:102BD00000010001000100010001000100010001ED
:102BE00000010001000100010001000100010001DD
:102BF00000010001000100010001000100010001CD
:102C0000000100010001000100010001000000338B
:102C1000362D31206372616E6B20776974682032C3
:102C20006E642074726967676572206F6E207465C8
:102C30006574682033332D33340000010001000136
:102C4000000100010003000100010001000100017A
:102C50000001000100010001000300010003000168
:102C600000010001000100010001486F6E64612055
:102C70005243353120776974682063616D0001002B
:102C8000010001000100010001000100010001003C
:102C9000010001000100010000000100010000002E
:102CA000010001000100010001000100010001001C
:102CB000010001000100010001000100000001000D
:102CC0000100010000004F6464204C6F7475732094
:102CD00033362D312D312D312D3120666C797768C9
:102CE00065656C0001000100030203020302030298
:102CF00003020302010001000100010001000100C4
:102D000001000100010001000100010001000100BB
:102D100001000100010001000100010001000100AB
:102D20000100010003020302030203020302030283
:102D3000010001000100010003020302030203027B
:102D4000030203020302030203020302030203025B
:102D5000030203020302030202020202030203024D
:102D60000302030203020302030203020100010043
:102D70000100010003020302030203020302030233
:102D8000030203020302030203020302030203021B
:102D9000030203020302030203020302030203020B
:102DA000030203020302030201000100010001000B
:102DB000010001000100010001000100010001000B
:102DC00001000100010001000100010001000100FB
:102DD00000000000474D20353878206372616E6B2B
:102DE00020616E642034782063616D00040000006F
:102DF00000000000000000000101010000000101CE
:102E000001010101010101010101000000010101B5
:102E100001010101010101010100000001010101A5
:102E20000101010101010101000000010101010195
:102E30000101010101010100000001010101010185
:102E4000010101010101000000000000000000007C
:102E50000000010101000000010101010101010167
:102E60000101010100000001010101010101010155
:102E70000101010000000101010101010101010145
:102E8000010100000000000000000000000001013E
:102E9000010000000000000000000000000101012E
:102EA0000000000101010101010101010101010016
:102EB0000000010101010101010101010101000006
:102EC00000000000000000000000010101000000FF
:102ED00000000000000000000001010100000000EF
:102EE00000000000000000000101010000000101DD
:102EF00001010101010101010101000000000000C8
:102F000000000000000001010100000001010101BA
:102F100001010101010101010000000000000000A9
:102F2000000000000101010000000000000000009E
:102F3000000000010101000000000000000000008E
:102F4000000001010100000000000000000000007E
:102F50000001010102020202020202020202020256
:102F60000303030202020303030303030303030334
:102F70000303020202030303030303030303030324
:102F80000302020203030303030303030303030314
:102F90000202020303030303030303030303030205
:102FA00002020303030303030303030303030202F5
:102FB00002020202020202020202030303020202EE
:102FC00003030303030303030303030302020203D4
:102FD00003030303030303030303030202020303C4
:102FE00003030303030303030303020202020202B7
:102FF00002020202020203030302020202020202AE
:103000000202020202030303020202030303030398
:103010000303030303030302020203030303030383
:10302000030303030303020202020202020202027A
:10303000020203030302020202020202020202026D
:10304000020303030202020202020202020202025D
:103050000303030202020303030303030303030343
:10306000030302020202020202020202020203033C
:103070000302020203030303030303030303030323
:10308000020202020202020202020202030303021D
:10309000020202020202020202020203030302020D
:1030A00002020202020202020202030303020202FD
:1030B000020202020202020202030303474D204CF5
:1030C0005331206372616E6B20616E642063616DA9
:1030D00000010101010000000000000101010100E8
:1030E00000000000000101010100000000000000DC
:1030F00000000000000000000000000000000101CE
:1031000001010000000000000101010100000000B9
:1031100000000101010100000000000000000000AB
:10312000004275656C6C204F64646669726520436B
:10313000414D20776865656C0003030303030303B7
:10314000030302020202020000000000000000006F
:103150000101010101010103030302020202020055
:103160000000000000000000010101010101010157
:103170000101000000000000000000000002020247
:10318000030303030301010101010000000000002B
:103190000000000000000000010101010101010325
:1031A000030302020202020000000000000000000F
:1031B0000101010101010101010100000000000005
:1031C0000000000000000202034D6974737562691B
:1031D00073686920366737322077697468206361C5
:1031E0006D0001000100010001000100010001006B
:1031F00001000100030203000100010001000100C1
:1032000001000100010001000100010001000100B6
:1032100001000100010001000100010001000100A6
:103220000100010001000100000001000100010097
:10323000010001000100030203000100030203007A
:103240000100010001000100010001000100010076
:103250000100010001000100010001000100010066
:103260000100010001000100010001000100010056
:1032700000004D617A6461204645332033362D319C
:1032800020776974682063616D000101010101010B
:10329000010101010100010101010101010101011F
:1032A0000100010001010101010101010100010111
:1032B00001010101010101010100010101010101FF
:1032C00001010101010101000101010101010101EF
:1032D0000100474D2034323030206372616E6B2024
:1032E000776865656C0001000002000001000000C5
:1032F00000000100010001000100010001000100C7
:1033000001000100010001000100010001000100B5
:1033100001000002000001000100010001000100A5
:103320000100010001000100010001000100010095
:103330000000000001000000000001000102010087
:103340000100010001000100010001000100010075
:103350000100010001000100010000000000010067
:103360000100010001000100010001000100010055
:1033700001000100010033362D322D322D32204361
:1033800072616E6B20616E642063616D00010001EB
:103390000001000100010001000100010001000125
:1033A0000001000100010001000100010001000115
:1033B0000001000000000001000100010001000107
:1033C00000010001000100010001000000000001F7
:1033D000000000000033362D322D322D32204836C9
:1033E000204372616E6B206F6E6C790001000100EA
:1033F00001000100010001000100010001000100C5
:1034000001000100010000000000010000000000B8
:1034100001000100010001000100010001000100A4
:103420000100010001000100010000000000010096
:103430000100010033362D322D322D322048342048
:103440004372616E6B206F6E6C79000100000001A9
:103450000000000100000001000000010000000168
:103460000000000100000001000000010000000059
:10347000000000000000000000000031322D332069
:103480006F646462616C6C00000100010001000166
:103490000001000100010001000100010001000124
:1034A0000001000100010001000100010001000114
:1034B0000001000100010001000100010001000104
:1034C00000010001000100010001000100010001F4
:1034D00000010001000100010001000100010203E0
:1034E00002030203020302030203020300010001BC
:1034F00000010001000100010001000100010001C4
:1035000000010001000100010001000100010001B3
:1035100000010001000100010001000100010001A3
:103520000001000100010001000100010001000193
:10353000000100010001000102030203000100017B
:103540000001000100010001000100010001000173
:103550000001000100010001000100010001000163
:103560000001000100010001000100010001000153
:103570000001000100010001000100010001000143
:103580000001000100010001000100010001000133
:103590000001020302030203020302030203020307
:1035A00002030203020302030203000100010001FF
:1035B0000001000100010001000100010001000103
:1035C00000010001000100010001000100010001F3
:1035D00000010001000100010001000100010001E3
:1035E00000010001000100010001000102030203CB
:1035F00000010001000100010001000100010001C3
:1036000000010001000100010001000100010001B2
:1036100000010001000100010001000100010001A2
:103620000001000100010001000100010001000192
:103630000001000100010001000100010001000182
:10364000000100010001020302030203020302035E
:103650000203020302030203020302030203020342
:103660000203020302030203000100010001000142
:103670000001000100010001000100010001000142
:103680000001000100010001000100010001000132
:103690000001000100010001000100010001000122
:1036A000020302030001000100010001000100010A
:1036B0000001000100010001000100010001000102
:1036C00000010001000100010001000100010001F2
:1036D00000010001000100010001000100010001E2
:1036E00000010001000100010001000100010001D2
:1036F00000010001000100010001020302030203B6
:103700000203020302030203020302030203020391
:103710000203020302030203020302030203020381
:103720000203020302030001000100010001000185
:103730000001000100010001000100010001000181
:103740000001000100010001000100010001000171
:103750000001000102030203474D204F70746953BA
:103760007061726B204C54312033363020616E64AE
:1037700020380001000000000000000001000000EF
:1037800000000000000000000000006F646420667C
:1037900069726520393020646567207061747465D2
:1037A000726E203020616E64203133352070756C6C
:1037B000736573000000000000010101014469739A
:1037C0007472696275746F72207374796C652034D9
:1037D0002063796C203530646567206F66662C2025
:1037E000343020646567206F6E0000010001000125
:1037F00000010001000100010001000100010001C1
:1038000000010001000100010001000100010001B0
:1038100000010001000100010001000100010001A0
:103820000001000100010001000100010001000190
:103830000001000100010001000034302D3120633F
:1038400072616E6B206F6E6C792028466F726420F7
:103850005631302900000000000001000000000087
:103860000100000000000100000000000100000055
:103870000000010000000000010000000000010045
:103880000000000001000000000001000000000036
:103890000100000000000100000000000000000026
:1038A0000000010000000000010000000000010015
:1038B0000000000001000000000001000000000006
:1038C00001000000000001000000000001000000F5
:1038D00000000102020202020100000000000100DB
:1038E000000000000031322D31206372616E6B20C8
:1038F000776974682063616D0000000100000100B9
:1039000000010000010000010000000000010000B3
:1039100001020201000001000001000000362D310B
:10392000206372616E6B20776974682063616D003B
:103930000001000100010001000100010001000080
:10394000382D31206372616E6B206F6E6C79202888
:1039500052362900000100010001000000010201AF
:1039600000010000342D31206372616E6B20776896
:1039700065656C20776974682063616D00010001E2
:10398000000100010001000100010001000100012F
:10399000000100010001000100010001000100011F
:1039A0000001000100010001000100000032342D7F
:1039B00031206372616E6B206F6E6C7900010001C3
:1039C00000010001000100010001000100010001EF
:1039D00000010001000100010001000100010001DF
:1039E00000010001000100010001000100010001CF
:1039F00000010001000100010001000100010001BF
:103A0000000100000033362D31206372616E6B209F
:103A10006F6E6C79000100010001000100010001DE
:103A2000000100010001000100010001000100018E
:103A3000000100010001000100010001000100017E
:103A4000000100010001000100010001000100016E
:103A5000000100010001000100010001000100015E
:103A60000001000100010001000100030203020344
:103A7000020302030203020302030203020302031E
:103A80000203020302030203020202020203020310
:103A900002030203020302030203020302030203FE
:103AA00002030203020302030203020302030203EE
:103AB00002030203020302030203020302030203DE
:103AC00002030203020302030203020302030203CE
:103AD00002030203020302030203020302030203BE
:103AE00002030201000100010001000100010001C8
:103AF00000010001000100010001000100010001BE
:103B0000000000000036302D32206372616E6B20A1
:103B1000616E64202768616C66206D6F6F6E272070
:103B200063616D000100010001000100010001005E
:103B3000010001000100010001000100010001007D
:103B4000010001000100010001000100010001006D
:103B5000010001000100010001000100010001005D
:103B6000010001000100010001000100010001004D
:103B7000010001000100010001000100010001003D
:103B8000010001000100010001000100010001002D
:103B9000010001000100010000000000010001001F
:103BA000010001000100010001000100010001000D
:103BB00001000100010001000100010001000100FD
:103BC00001000100010001000100010001000100ED
:103BD00001000100010001000100010001000100DD
:103BE00001000102010001000100010001000100CB
:103BF00001000100010001000100010001000100BD
:103C000001000100010001000100010001000100AC
:103C10000000000036302D32206372616E6B20612F
:103C20006E642063616D000100010001000100016C
:103C3000000100010001000100010001000100017C
:103C4000000100010001000100010001000100016C
:103C5000000100010001000100010001000100015C
:103C6000000100010001000100010001000100014C
:103C7000000100010001000100010001000100013C
:103C8000000100010001000100010001000100012C
:103C900000010001000100010001000000000036E9
:103CA000302D32206372616E6B206F6E6C79000173
:103CB00000010001000100382063796C696E6465C1
:103CC000722064697A7A79000100010001003620CF
:103CD00063796C696E6465722064697A7A7900012F
:103CE000000100342063796C696E64657220646938
:103CF0007A7A79000000000102030406080A0C0E1B
:103D0000111316191C1F2326292D3034373B3E4131
:103D100045484B4E515356585A5C5E60616263642D
:103D200064646464636261605E5C5A585653514EC9
:103D30004B4845413E3B3734302D2926231F1C1963
:103D40001613110E0C0A08060403020100000000FD
:103D5000000101020203040507080A0B0D0F1113ED
:103D60001517191B1E202325282A2D2F3235373AE7
:103D70003C3F414446494B4D4F51535557595A5C6E
:103D80005D5F606162626363646464646463636210
:103D90006261605F5D5C5A59575553514F4D4B49B5
:103DA0004644413F3C3A3735322F2D2A28252320DF
:103DB0001E1B19171513110F0D0B0A080705040315
:103DC00002020101000000000000000101010202E6
:103DD00003040405060708090A0B0C0D0E0F111247
:103DE00013151618191B1C1E1F2123242628292BE6
:103DF0002D2F3032343537393B3C3E404143454628
:103E000048494B4C4E4F51525355565758595A5B8F
:103E10005C5D5E5F6060616262636363646464648E
:103E2000646464646463636362626160605F5E5D76
:103E30005C5B5A59585756555352514F4E4C4B494B
:103E40004846454341403E3C3B3937353432302FBC
:103E50002D2B2928262423211F1E1C1B191816155B
:103E60001312110F0E0D0C0B0A09080706050404A6
:103E70000302020101010000000000000000250013
:103E800028002B0000000000240027002A00040462
:103E900004040404040402020202020203030303F2
:103EA00003030102040810204080010204081020CE
:103EB000010204081020FE2311241FBECFEFD8E01A
:103EC000DEBFCDBF14E0A0E0B1E0E6E9F6E502C058
:103ED00005900D92AE30B107D9F724E0AEE0B4E022
:103EE00001C01D92A93EB207E1F71FE1CCE5DFE179
:103EF00004C02197FE010E94432BCB35D107C9F79F
:103F00000E9453240C94492B0C94000090E0FC0177
:103F1000EE55F14C24918257914CFC0184918823F9
:103F200099F090E0880F991FFC01EC57F14CA59196
:103F3000B491FC01E658F14C859194918FB7F894B7
:103F4000EC91E22BEC938FBF08953FB7F8948091EA
:103F5000310490913204A0913304B091340426B519
:103F6000A89B05C02F3F19F00196A11DB11D3FBFB1
:103F7000BA2FA92F982F8827BC01CD01620F711D80
:103F8000811D911D42E0660F771F881F991F4A957A
:103F9000D1F70895AF92BF92CF92DF92EF92FF9246
:103FA0000F931F93CF93DF936C017B018B01040F61
:103FB000151FEB015E01AE18BF08C017D10759F0FD
:103FC0006991D601ED91FC910190F081E02DC6013F
:103FD0000995892B79F7C501DF91CF911F910F9139
:103FE000FF90EF90DF90CF90BF90AF900895FC01CD
:103FF000538D448D252F30E0842F90E0821B930B4E
:10400000541710F0CF96089501970895FC01918DF3
:10401000828D981761F0A28DAE0FBF2FB11D5D96F6
:104020008C91928D9F5F9F73928F90E008958FEF98
:104030009FEF0895FC01918D828D981731F0828D4C
:10404000E80FF11D858D90E008958FEF9FEF0895A3
:10405000FC01918D228D892F90E0805C9F4F821B07
:1040600091098F739927089585E394E00E94282091
:1040700021E0892B09F420E0822F089580E090E070
:10408000892B29F00E94342081110C94000008959E
:10409000FC01A48DA80FB92FB11DA35ABF4F2C91BD
:1040A000848D90E001968F739927848FA689B789B4
:1040B0002C93A089B1898C91837080648C93938DAB
:1040C000848D981306C00288F389E02D80818F7D4E
:1040D00080830895EF92FF920F931F93CF93DF9306
:1040E000EC0181E0888F9B8D8C8D98131AC0E88934
:1040F000F989808185FF15C09FB7F894EE89FF8903
:104100006083E889F98980818370806480839FBFA0
:1041100081E090E0DF91CF911F910F91FF90EF90A0
:104120000895F62E0B8D10E00F5F1F4F0F731127B0
:10413000E02E8C8D8E110CC00FB607FCFACFE889EB
:10414000F989808185FFF5CFCE010E944820F1CF0B
:10415000EB8DEC0FFD2FF11DE35AFF4FF0829FB75F
:10416000F8940B8FEA89FB8980818062CFCFCF934F
:10417000DF93EC01888D8823B9F0AA89BB89E8898F
:10418000F9898C9185FD03C0808186FD0DC00FB635
:1041900007FCF7CF8C9185FFF2CF808185FFEDCFB3
:1041A000CE010E944820E9CFDF91CF910895CF93AF
:1041B000DF93382FC091D7048CE0C89FE001112411
:1041C000CD5FDE4F832F6A3071058105910520F4A4
:1041D0006AE070E080E090E00E94342A2C813D810A
:1041E0004E815F810E94C22A9B01AC0160E074E2B3
:1041F00084EF9AE40E9493290E94052A61157105B3
:10420000810521E0920738F56115710520E48207E8
:10421000910520F56115710528E08207910508F5E3
:104220006115710521E082079105F0F430E021E08D
:1042300004C096958795779567953A95D2F77093D0
:104240000101609300012093160481E0809315041E
:10425000DF91CF9108953AE025E0EACF38E024E0FD
:10426000E7CF36E023E0E4CF33E022E0E1CF609116
:104270002A0470912B0490E080E00E94D7201092D5
:104280001804109217041092E104E091D7048CE016
:10429000E89FF0011124ED5FFE4F4085518520E03D
:1042A000DF011296809117049091180484179507E6
:1042B000B8F48091170490911804ED91FC91119736
:1042C000E80FF91FE491EA3008F021E0809117042B
:1042D0009091180401969093180480931704E2CFEC
:1042E0002093E10410921804109217040895FC0121
:1042F00001900020E9F73197AF01481B590BBC0131
:1043000085E394E00C94CA1F8F929F92AF92BF9264
:104310000F931F93CF93DF93CDB7DEB7A1970FB65F
:10432000F894DEBF0FBECDBF19A2423008F44AE0B8
:104330008E010F5D1F4F842E912CB12CA12CA50155
:1043400094010E946229E62FB901CA01EA30F4F40F
:10435000E05DD801EE938D01232B242B252B79F7DB
:1043600090E080E0109719F0CD010E947721A1968E
:104370000FB6F894DEBF0FBECDBFDF91CF911F9176
:104380000F91BF90AF909F908F900895E95CE1CF1F
:10439000CF93DF930E947721EC0189E094E00E94A3
:1043A00077218C0F9D1FDF91CF910895CF93DF93DD
:1043B000BC0190E080E04AE00E948421EC0189E0A9
:1043C00094E00E9477218C0F9D1FDF91CF9108957B
:1043D0001F93CF93DF93EC01162F0E9441291817EA
:1043E00039F0612FCE01DF91CF911F910C944929B3
:1043F000DF91CF911F9108951F93CF93DF93C6ED67
:10440000D4E0698182E090E00E94E8216A8183E043
:1044100090E00E94E82162E081E090E00E94E821C3
:10442000E6E2F4E01481658184E090E00E94E821F6
:10443000612F85E090E00E94E8211B816C818CE077
:1044400090E00E94E821612F8DE090E00E94E82139
:104450001D816E8186E090E00E94E821612F87E057
:1044600090E00E94E8211F81688588E090E00E942A
:10447000E821612F89E090E00E94E82119856A8592
:104480008AE090E00E94E821612F8BE090E00E949A
:10449000E8216C858EE090E00E94E8216D858FE038
:1044A00090E00E94E8211E856F8580E190E00E94E7
:1044B000E821612F81E190E00E94E8211889698953
:1044C00082E190E00E94E821612F83E190E00E9468
:1044D000E8216B8584E190E0DF91CF911F910C94EE
:1044E000E8210C9441291F920F920FB60F921124CC
:1044F0002F933F938F939F93AF93BF9380912D04FE
:1045000090912E04A0912F04B091300430912C048E
:1045100023E0230F2D3758F50196A11DB11D2093DF
:104520002C0480932D0490932E04A0932F04B09319
:1045300030048091310490913204A0913304B09101
:1045400034040196A11DB11D80933104909332046F
:10455000A0933304B0933404BF91AF919F918F9196
:104560003F912F910F900FBE0F901F90189526E846
:10457000230F0296A11DB11DD2CF1F920F920FB62D
:104580000F9211242F933F934F935F936F937F93D9
:104590008F939F93AF93BF93EF93FF9385E394E043
:1045A0000E944820FF91EF91BF91AF919F918F9111
:1045B0007F916F915F914F913F912F910F900FBE1F
:1045C0000F901F9018951F920F920FB60F92112403
:1045D0002F938F939F93EF93FF93E0914504F09176
:1045E00046048081E0914B04F0914C0482FD1BC095
:1045F000908180914E048F5F8F7320914F048217BA
:1046000041F0E0914E04F0E0EB5CFB4F958F80931E
:104610004E04FF91EF919F918F912F910F900FBEBC
:104620000F901F9018958081F4CF1F920F920FB6B4
:104630000F9211240F931F932F933F934F935F93E8
:104640006F937F938F939F93AF93BF93CF93DF939A
:10465000EF93FF934091D7042CE0429FF001112487
:10466000ED5FFE4F0280F381E02D8091E104811126
:1046700076C08091170490911804E80FF91FE49117
:1046800080911404E827E5B98091170490911804EB
:1046900001969093180480931704809117049091C9
:1046A00018042CE0429FF0011124ED5FFE4F20859D
:1046B00031852817390721F5109218041092170434
:1046C0000E94A51F0091D2041091D3042091D4041C
:1046D0003091D504601B710B820B930B60931B040C
:1046E00070931C0480931D0490931E040E94A51FC8
:1046F0006093D2047093D3048093D4049093D50430
:1047000080911504882371F080918100887F8093C7
:1047100081009091160480918100892B8093810003
:1047200010921504809100019091010190938900ED
:1047300080938800FF91EF91DF91CF91BF91AF916E
:104740009F918F917F916F915F914F913F912F91A9
:104750001F910F910F900FBE0F901F901895809191
:10476000170490911804E80FF91FE4912E2F30E000
:104770002A303105D4F0E0911404CAE0D0E0C90138
:10478000BE010E942F2BCB01BE010E942F2BE827D8
:10479000E5B92B3031051CF02A503109FACF8CE1F4
:1047A000289F202D11242BB96FCF8CE1E89FE02D9D
:1047B0001124EBB98091140485B966CF1F920F9232
:1047C0000FB60F9211248F939F9380911304811140
:1047D0000EC09091780080917900892798278927C9
:1047E000909324048093230481E0809325049F9177
:1047F0008F910F900FBE0F901F901895E5E3F4E096
:104800001382128288EE93E0A0E0B0E08483958367
:10481000A683B7838BEF93E09183808385EC90E050
:104820009587848784EC90E09787868780EC90E07A
:10483000918B808B81EC90E0938B828B82EC90E06B
:10484000958B848B86EC90E0978B868B118E128EE5
:10485000138E148EE6EDF4E084E3818384EC99E01A
:10486000948383838AEF90E09683858380EA9FE038
:104870009087878388EE93E09287818713861486DA
:10488000158680E991E097878687118A108A128AB7
:104890000E94A51F6093D2047093D3048093D40424
:1048A0009093D5040895CF93DF93CDB7DEB7C0556D
:1048B000D1090FB6F894DEBF0FBECDBF789484B592
:1048C000826084BD84B5816084BD85B5826085BD0C
:1048D00085B5816085BD80916E00816080936E009A
:1048E000109281008091810082608093810080918C
:1048F000810081608093810080918000816080933D
:1049000080008091B10084608093B1008091B000FC
:1049100081608093B00080917A00846080937A00F7
:1049200080917A00826080937A0080917A00816021
:1049300080937A0080917A00806880937A00109248
:10494000C10012E01093D60481E090E00E94712231
:104950008F3F09F0A1C185E08093D70488EB9BE0ED
:1049600090932B0480932A04909327048093260429
:104970001093D8048CEA9DE09093DA048093D904D4
:1049800080E797E19093DE048093DD0488EE93E066
:104990009093DC048093DB049093E0048093DF0425
:1049A0001092E20483E08093E30480E991E0909325
:1049B000E5048093E4041092E7041092E604109258
:1049C000E1040E94FC21E0914504F091460482E05C
:1049D0008083E0914104F09142041082E09143040D
:1049E000F091440480E1808310924D04E0914904E9
:1049F000F0914A0486E08083E0914704F0914804F6
:104A0000808180618083E0914704F0914804808137
:104A100088608083E0914704F09148048081806839
:104A20008083E0914704F091480480818F7D8083EA
:104A300010921A04F8941092800010928100109243
:104A400085001092840088EE93E090938900809313
:104A5000880080918100886080938100809181002E
:104A600081608093810080916F00826080936F00ED
:104A70001092B0001092B1001092B20089EF8093B2
:104A8000B3008091B00082608093B0008091B1004B
:104A900084608093B10080917C008F7D80937C0046
:104AA00080917C00806480937C0080917C00807F7A
:104AB00080937C0080917A00806880937A00809156
:104AC0007A00806280937A0080917B00887F809357
:104AD0007B0080917A00876080937A0080917A00D1
:104AE000886080937A0082E00E94861F83E00E94A3
:104AF000861F84E00E94861F85E00E94861F86E054
:104B00000E94861F87E00E94861F88E00E94861F01
:104B100089E00E94861F8AE00E94861F8BE00E9427
:104B2000861F789480917A00806480937A006091E7
:104B30002A0470912B0490E080E00E94D7201CE0B2
:104B4000F12EEE24E39400E0802E00E0902E009100
:104B500026041091270485E394E00E94282018166B
:104B6000190614F580911A04811106C085E394E0BA
:104B70000E9406208093190480911904833509F45A
:104B800085C208F09AC18E3409F400C208F08AC1C7
:104B9000833409F4C8C1E3E0CE2EE1E0DE2E8C348C
:104BA00009F4D4C110921A048091D804823009F01B
:104BB0009EC280912504882389F0109225040091DB
:104BC00023041091240474E0000F111F7A95E1F77B
:104BD000093263E2160710F008E213E2109327048B
:104BE000009326048091E4049091E50480179107D6
:104BF00008F438C38091E204882309F433C3809118
:104C00001B0490911C04A0911D04B0911E04892BDB
:104C10008A2B8B2B09F4BBC20E94A51F2091D204C2
:104C20003091D3044091D4045091D5045B016C01C0
:104C3000A21AB30AC40AD50AA6019501E091D704C5
:104C4000FE9EF0011124ED5FFE4F82859385803D2D
:104C5000924021F4220F331F441F551FA0901B04C4
:104C6000B0901C04C0901D04D0901E04A8E6B1E0D2
:104C70000E945729A60195010E9462298091E604AD
:104C80009091E704820F931F8936E1E09E0708F4B4
:104C900080C288569140F8CF82E090E00E94712255
:104CA000A82E8093D70483E090E00E947122B82E52
:104CB0008093D80484E190E00E94712291E08111F8
:104CC00001C090E09093E10484E090E00E947122A2
:104CD000C82E85E090E00E947122DC2CC82ED09274
:104CE0002B04C0922A048CE090E00E947122182FBD
:104CF0008DE090E00E947122912F893223E2920789
:104D000010F088E293E28436910510F484E690E096
:104D10009093DA048093D90486E090E00E94712297
:104D2000E82E87E090E00E947122FE2CE82E49E2F6
:104D3000E41643E2F40620F048E2E42E43E2F42EC7
:104D400064E6E616F10418F434E6E32EF12CF09252
:104D5000DC04E092DB0488E090E00E947122082FDE
:104D600089E090E00E947122102F082F093283E21F
:104D7000180710F008E213E20436110510F404E6F7
:104D800010E01093DE040093DD048AE090E00E94BE
:104D90007122982E8BE090E00E947122992D813132
:104DA000E7E29E0710F080E197E2883C910510F45D
:104DB00088EC90E09093E0048093DF04E016F10625
:104DC00030F0045611091093DC040093DB048EE0EC
:104DD00090E00E94712291E0811101C090E09093D7
:104DE000E2048FE090E00E947122F82E8093E304A9
:104DF00080E190E00E947122082F81E190E00E9402
:104E00007122102F082F1093E5040093E40482E12F
:104E100090E00E947122E82E83E190E00E947122CE
:104E20009E2D9093E7048093E604FEE3FA1518F4B0
:104E300025E02093D70422E0A22EAB1418F421E041
:104E40002093D80429E9C2162AE3D20630F020EADA
:104E50003FE030932B0420932A04209126043091C4
:104E6000270429393A4330F020EA3FE03093270401
:104E70002093260465E06F1518F423E02093E304E3
:104E8000093E134030F020E931E03093E5042093EF
:104E9000E4048836914008F496CD1092E70410920D
:104EA000E60491CD803509F478C0823509F07ACED8
:104EB00080912A0490912B0433C08E3609F45AC095
:104EC000E8F4883509F4F5C0833609F06BCE85E344
:104ED00094E00E9428204297D0F3B7EDCB2EB4E0A7
:104EE000DB2E85E394E00E940620F60181936F019A
:104EF000F9EECF16F4E0DF06A1F754CE823709F4BD
:104F000086C0833709F4BFC0803709F04BCEE091EB
:104F1000D704FE9EF0011124ED5FFE4F8085918540
:104F20000E94D6213FCEA6EDCA2EA4E0DA2EF601CD
:104F300061916F0185E394E00E946A20F9EEAF2E43
:104F4000F4E0BF2EAC14BD0491F72CCEF6016081C5
:104F50007181CE0101960E943A29CE0101960E94EC
:104F6000C821FCE0CF0ED11C27EFC21623E0D206E9
:104F700069F718CE4AE06FE370E080E090E00E94AD
:104F8000842189E094E00E9477210CCE6091D704BF
:104F900070E090E080E04AE0F2CFD12CC12CE091AB
:104FA000D704FE9EF0011124ED5FFE4F80859185B0
:104FB000C816D906F0F4C114D10421F08CE094E0B5
:104FC0000E947721E091D704FE9EF0011124ED5F4D
:104FD000FE4F0280F381E02DEC0DFD1D649170E029
:104FE00090E080E04AE00E9484214FEFC41AD40A86
:104FF000D6CF8BE094E00E94C821E091D704FE9EBA
:10500000F0011124ED5FFE4F8285938589CF1092C8
:10501000D80485E394E00E9428200697D4F385E322
:1050200094E00E940620D82E85E394E00E9406209A
:10503000782E612CC3018D299093DC048093DB04CE
:1050400085E394E00E940620D82E85E394E00E9438
:105050000620582E412CC2018D299093DE048093A6
:10506000DD0485E394E00E940620D82E85E394E0D9
:105070000E940620382E212CC1018D299093E00436
:105080008093DF048FCD0E94FC218CCD85E394E0DA
:105090000E94282018161906CCF785E394E00E9498
:1050A00006208F3308F07ECD8093D7040E943721ED
:1050B00079CD8091D7048E33B1F41092D7040E9439
:1050C0003721E091D704FE9EF0011124ED5FFE4FE1
:1050D00060817181CE0101960E943A29CE0101962C
:1050E0000E94C8215FCD8F5F8093D704E8CF8111E4
:1050F00046C00E94A51FAB01BC012091DF04309186
:10510000E00480911F0490912004A0912104B091AB
:105110002204820F931FA11DB11D84179507A607B6
:10512000B70708F05BCD0E94A51F60931F04709322
:10513000200480932104909322040091260410916E
:10514000270480910201813069F40F5F1F4F809125
:10515000DD049091DE040817190708F43FCD109282
:1051600002013CCD015011098091DB049091DC04D7
:105170008017910708F432CDE09202012FCD8130E3
:1051800009F02CCD0091D9041091DA0427CD90E0DC
:1051900080E02091E304233019F038F4213089F0C5
:1051A00064EB70E00E942F2B0EC0243081F025307C
:1051B000B9F76AE570E00E942F2BFC01EC50F34C2C
:1051C0000DC096958795FC01EA53F24C07C068E73D
:1051D00070E00E942F2BFC01E25BF24CE4916E2FF9
:1051E00070E08091E804882389F00F38F2E01F070F
:1051F00068F4069FC001079F900D169F900D112423
:105200006091E4047091E5040E942F2B60177107F0
:1052100060F570932904609328048091280490918C
:105220002904081B190B0A30110580F080912A040B
:1052300090912B040817190729F0B80190E080E03D
:105240000E94D72010932B0400932A048114910408
:1052500009F47DCC0E943420882309F470CC0E948C
:1052600000006DCC70E060E0D1CF10922904109264
:105270002804D3CFFB01DC0105900D920020E1F75B
:105280000895F999FECF92BD81BDF89A992780B50E
:105290000895262FF999FECF1FBA92BD81BD20BD7A
:1052A0000FB6F894FA9AF99A0FBE019608950E94E3
:1052B0008429A59F900DB49F900DA49F800D911DF2
:1052C00011240895A1E21A2EAA1BBB1BFD010DC0DB
:1052D000AA1FBB1FEE1FFF1FA217B307E407F507A6
:1052E00020F0A21BB30BE40BF50B661F771F881F82
:1052F000991F1A9469F760957095809590959B0118
:10530000AC01BD01CF010895A29FB001B39FC001C0
:10531000A39F700D811D1124911DB29F700D811DE1
:105320001124911D08950E94A7290C94882A0E9497
:10533000812A58F00E947A2A40F029F45F3F29F030
:105340000C94712A51110C94BC2A0C94772A0E9457
:10535000992A68F39923B1F3552391F3951B550BC3
:10536000BB27AA2762177307840738F09F5F5F4F38
:10537000220F331F441FAA1FA9F335D00E2E3AF077
:10538000E0E832D091505040E695001CCAF72BD08F
:10539000FE2F29D0660F771F881FBB1F26173707E0
:1053A0004807AB07B0E809F0BB0B802DBF01FF2712
:1053B00093585F4F3AF09E3F510578F00C94712A54
:1053C0000C94BC2A5F3FE4F3983ED4F3869577951E
:1053D0006795B795F7959F5FC9F7880F911D9695CB
:1053E000879597F90895E1E0660F771F881FBB1F27
:1053F000621773078407BA0720F0621B730B840BD4
:10540000BA0BEE1F88F7E09508950E94A12A88F054
:105410009F5798F0B92F9927B751B0F0E1F0660F78
:10542000771F881F991F1AF0BA95C9F714C0B130B9
:1054300091F00E94BB2AB1E008950C94BB2A672F1B
:10544000782F8827B85F39F0B93FCCF386957795E8
:105450006795B395D9F73EF49095809570956195D1
:105460007F4F8F4F9F4F0895E89409C097FB3EF4FC
:1054700090958095709561957F4F8F4F9F4F9923A1
:10548000A9F0F92F96E9BB279395F695879577951F
:105490006795B795F111F8CFFAF4BB0F11F460FFDF
:1054A0001BC06F5F7F4F8F4F9F4F16C0882311F037
:1054B00096E911C0772321F09EE8872F762F05C04B
:1054C000662371F096E8862F70E060E02AF09A95E6
:1054D000660F771F881FDAF7880F9695879597F9DB
:1054E000089597F99F6780E870E060E008959FEF66
:1054F00080EC089500240A9416161706180609066B
:10550000089500240A941216130614060506089539
:10551000092E0394000C11F4882352F0BB0F40F4C1
:10552000BF2B11F460FF04C06F5F7F4F8F4F9F4F01
:10553000089557FD9058440F551F59F05F3F71F083
:105540004795880F97FB991F61F09F3F79F08795EA
:105550000895121613061406551FF2CF4695F1DF73
:1055600008C0161617061806991FF1CF8695710503
:10557000610508940895E894BB2766277727CB0137
:1055800097F908950E94D52A0C94882A0E947A2AB5
:1055900038F00E94812A20F0952311F00C94712A92
:1055A0000C94772A11240C94BC2A0E94992A70F337
:1055B000959FC1F3950F50E0551F629FF001729FB8
:1055C000BB27F00DB11D639FAA27F00DB11DAA1FC7
:1055D000649F6627B00DA11D661F829F2227B00D14
:1055E000A11D621F739FB00DA11D621F839FA00D9F
:1055F000611D221F749F3327A00D611D231F849FEF
:10560000600D211D822F762F6A2F11249F57504045
:105610009AF0F1F088234AF0EE0FFF1FBB1F661FC0
:10562000771F881F91505040A9F79E3F510580F089
:105630000C94712A0C94BC2A5F3FE4F3983ED4F397
:10564000869577956795B795F795E7959F5FC1F72D
:10565000FE2B880F911D9695879597F90895AA1BA3
:10566000BB1B51E107C0AA1FBB1FA617B70710F04D
:10567000A61BB70B881F991F5A95A9F7809590957F
:10568000BC01CD010895EE0FFF1F0590F491E02DB0
:065690000994F894FFCF1D
:10569600881301E33CDF3C0A85083D04006801CE1F
:1056A6003CC83CCDCC4C3D06006801B73CAF3C48FD
:1056B6008A883D080068019F3C273C0000803F78AF
:1056C600006801143C243B0000803FF000D0020536
:1056D6003B153A0000803FF000D002053ABD399AEA
:1056E60099193F48006801AD397D390000003F3007
:1056F60000680164395439488A883D1000D0024058
:10570600393039A987083E100068011D39F9389AE1
:1057160099193E2400D002E53855389A99193F90D8
:1057260000D0023A38EA37E3AA2A3F50006801BDA2
:1057360037B4379A99193E0900D0028B377337CDA3
:10574600CC4C3E180068015837883400004040D0E1
:1057560002D0027B344B34CDCCCC3E3000680134D1
:1057660034EC339A99193F48006801D5338D339A42
:1057760099193F480068017633E6329A99193F90A5
:1057860000D002D2328A329A99193F4800680172D3
:1057960032E2319A99193F9000D002C93139319AD3
:1057A60099193F9000D0022131D1303BAAAA3E5030
:1057B60000D002BC30EC2D0000C040D002D002D494
:1057C6002DE42C0000803FF000D002C62C7E2C9ADF
:1057D60099193F480068016A2C3A2CCDCC4C3E30D2
:1057E60000D0020F2C7F2B9A99193F9000D00256B9
:1057F6002B862800004040D002D0025D288D25006F
:10580600004040D002D0026425942200004040D0DF
:1058160002D0027022E0219A99993F9000D002C5E9
:1058260021F51E00004040D002D002D91E091C00FE
:10583600004040D002D002DD1B951B9A99993E4844
:1058460000D0025F1B1F1BF888883E4000D002F87C
:105856001AF01A0A85883D0800D002C91ABD1ACD69
:10586600CCCC3D0C00D002961A861AA987083E10A9
:1058760000D002601A801800008040E001D002606B
:1058860018F8160000C03F6801D002D21642169AD8
:1058960099193F9000D0022516ED110000C03F383F
:1058A60004D002D61146119A99193F9000D00231C0
:1058B6001113110000803F1E00D002EC105C10CDC9
:1058C600CC4C3F900068015010C00F9A99193F9038
:1058D60000D002A70F170F9A99193F9000D002FE29
:1058E6000E6E0E9A99193F9000D002550E850B0048
:1058F600004040D002D0027F0BCB0A8941C03FB4A2
:1059060000D002C20A320A9A99193F9000D00227A3
:105916000A570700004040D002D0024707B7069A50
:1059260099193F9000D002AB061B06FA7EAA3E905C
:1059360000D0020E067E05FA7EAA3E9000D00270C6
:105946000528059A99193F480068011E05B6030007
:1059560000C03F6801D002AE03BE020000803FF0E7
:1059660000D002A402B4010000803FF000D0029EE5
:10597600010E019A99193F9000D002F80068009A2A
:1059860099193F9000D002000000006A20CA1FF754
:0E5996001FB720282006201A200D0A002C0022
:00000001FF
