:100000000C94661F0C948E1F0C948E1F0C948E1FE4
:100010000C948E1F0C948E1F0C948E1F0C948E1FAC
:100020000C948E1F0C948E1F0C948E1F0C946223C4
:100030000C948E1F0C948E1F0C948E1F0C948E1F8C
:100040000C94C0220C948E1F0C9430230C940A2321
:100050000C948E1F0C9412240C948E1F0C948E1FE3
:100060000C948E1F0C948E1F09080812071107109C
:10007000060F050E040E030E040E040E040E050FEB
:1000800005100610061107110812081309130913A9
:100090000913091309130913091309130913091380
:1000A000091309130913091309130913091309097A
:1000B000090909130913091309130913091309136A
:1000C0000913091309130913091309130913091350
:1000D0000913091309130913091309130913091340
:1000E0000913091309130913091309130913091330
:1000F000091309130913090933362D32207769745E
:1001000068204D41502061732063616D0001000142
:1001100000010001000100010001000302030201CF
:1001200000010001000100010001000100010001C7
:1001300000010001000100010001000100010001B7
:1001400000010001000100010001000100010001A7
:100150000000000000010001000100010001000199
:100160000001000100010001000100010001000187
:100170000001000100010001000100010001000177
:100180000001000100010001000100010001000167
:100190000001000100010001000000000033362DC5
:1001A000322077697468203120746F6F746820631F
:1001B000616D000202020202020303020202020354
:1001C000030202020202020202020202020202020E
:1001D00002030302020202030302020202020202FB
:1001E00002020202020202020203030202020203EC
:1001F00003020202020202020202020202020202DE
:1002000002030302020202030302020202020202CA
:1002100002020202020202020203030202020203BB
:1002200003020202020202020202020000000000B7
:1002300000010100000000010100000000000000BA
:1002400000000000000000000001010000000001AB
:10025000010000000000000000000000000000009D
:10026000000101000000000101000000000000008A
:10027000000000000000000000010100000000017B
:10028000010000000000000000000000000000006D
:10029000000101000000000101000000000000005A
:1002A000000000446F6467652056697065722056CF
:1002B000313020313939362D3230303200010001F1
:1002C0000001000100010001000100010001000126
:1002D00000010001000100010001000706070607F8
:1002E00006070607060706070607060100010001C4
:1002F00000010001000100010001000100010001F6
:1003000000010001000100010001000100010001E5
:10031000000100010001000706070607060706079F
:100320000607060706070607060706070607060765
:100330000606060606070607060706070607060757
:100340000607060706070607060706070607060745
:100350000607060100010001000100010001000183
:10036000000706070607060706070607060706072B
:100370000607060706070607060706070607060715
:10038000060706070607060706070607060706010B
:100390000001000100010001000100010001000155
:1003A00000010001000100010000000000424D5763
:1003B000204E32300000000000000000000000006D
:1003C000000000000000000000000000000000002D
:1003D000010000000000000000000100000000001B
:1003E000000000000100000000000000000001000B
:1003F00000000000000000000000000000000202F9
:1004000002020202020202020202020203020202CB
:1004100002020202020203020202020202020202BB
:1004200003020202020202020202030202020202AA
:10043000020202020202020202020202020202029C
:10044000020202020202020203020202020202028B
:10045000020203020202020202020202030202027A
:10046000020202020202030202020202020202026B
:10047000020202020202020202020202020202025C
:10048000020202020302020202020202020203024A
:10049000020202020202020203020202020202023B
:1004A000020203020202020202020202020202022B
:1004B0000202000000000000000000000000000038
:1004C000010000000000000000000100000000002A
:1004D000000000000100000000000000000001001A
:1004E000000000000000000000000000000000000C
:1004F00000000000000000000000000001000000FB
:1005000000000000000001000000000000000000EA
:10051000010000000000000000000100004A6565C5
:10052000702032303030000101010101010202026D
:1005300002000003030303030302020000000001A2
:1005400001010101010000000000000101010101A1
:100550000100000000000001010101010100000094
:100560000000000101010101010000000000005332
:10057000757A756B692044525A343030000101029B
:100580000000000000000000000101000000000069
:100590000000000000010100000000000000000059
:1005A0000001010000000000000000000001010047
:1005B0000000000000000000000101000000000039
:1005C0000000000000010100000000000000000029
:1005D0000001010000000000000000000001010017
:1005E0000000000000000000000101000000000009
:1005F00000000000000101000000000000000000F9
:1006000000010100000000000000000000546F79AC
:100610006F7461203441475A450001010202000015
:1006200000000000000000000000000000000000CA
:1006300000000000000000000000000000000101B8
:1006400000000000000000000000000000000000AA
:10065000000000000000000000000000000000009A
:100660000000010100000000000000000000000088
:10067000000000000000000000000000000000007A
:100680000000000000000101000000000000000068
:10069000000000000000000000000000000000005A
:1006A00000000000000000000000546F796F7461CA
:1006B0002034414745000100010001000100010014
:1006C0000100010001000100010002000100010021
:1006D0000100010001000100010001000100010012
:1006E0000100000001000100010001000100010003
:1006F00001000100010001000100020002000100F0
:1007000001000100010001000100010001000100E1
:1007100001000000010001000100010001000100D2
:1007200001000100010001000100020001000100C0
:1007300001000100010001000100010001000100B1
:100740000100000000004D69747375626973686987
:100750002033413932000001010101000000000096
:100760000000000000000000010101010101010082
:100770000000000001010101010000000000010172
:100780000101010000000001010101010000000061
:100790000001010101010000000000030303030345
:1007A0000202020202030303030302020202020323
:1007B0000303030302020202020303030301000016
:1007C0000000000101010101000000000001010121
:1007D0000101000000000001010101010000000012
:1007E00000010101010100000000000101010101FF
:1007F00000000000000101010103020202020203E5
:1008000003030303020202020203030303030202BF
:1008100002020203030301010000000000010101C4
:1008200001010000000000010101010100000000C1
:1008300000010101010100000000000101010101AE
:1008400000000000000101010101000000000001A2
:100850000101030302020202020303030303020273
:100860000202020303030303020202020203030360
:10087000010101000000000101010101010000006F
:10088000000101010101010000000000010101015E
:100890000100000000000101010101000000000052
:1008A000010101010100000000000101010101003E
:1008B0000000000001010101010000000000010131
:1008C0000101010000000000000000000000000025
:1008D000000101010101010000000000010101010E
:1008E0000100000000000101010101000000000002
:1008F00001010101010000000000010101010100EE
:1009000000000000030303030302020202020303C8
:1009100003030302020202020303030303020202AF
:1009200002020303030301000000000001010101B2
:1009300001000000000001010101010000000000B1
:10094000010101010101000000000101010101019B
:100950000000000000010101010100000000000191
:10096000010101010000000000010101010100007E
:10097000000000010101010100000000000101016F
:100980000101000000000001010101010000000060
:10099000000101010101000000000001010101014D
:1009A0000000000000010101010100000000000141
:1009B0000101010100000000000103030303020222
:1009C00002020203030303030202020202030303FF
:1009D00003030302020202030303010101000000FA
:1009E00000000101010101000000000001010101FE
:1009F00001000000000001010101010000000000F1
:100A000001010101010000000000010101010100DC
:100A100000000000010101010100000000000101CF
:100A2000010101000000466F7264205354313730D9
:100A300000000000000000000000000002020202AE
:100A40000202020202020303020203030202030380
:100A50000202030302020202020200000000000080
:100A60000101010101010101010101010000010178
:100A70000000010100000101000000000000000072
:100A8000000000000202020202020202020203034C
:100A90000202030302020303020203030202020230
:100AA0000202020202020202030303030303010122
:100AB000010101010000010100000101000001012C
:100AC0000044534D2034323061000000000000002B
:100AD0000000000000000000000000000000000115
:100AE0000100000000000000000000000000000005
:100AF00000000000000000000000000000010100F4
:100B000000000101000000000000000000000000E3
:100B100000000000000000000000000101000000D3
:100B200000000000000000000000000000000000C5
:100B300000000000000000000001010000000000B3
:100B400000000000000000000000000000000000A5
:100B50000000000000000001010000000000000093
:100B60000000000000000000000000000000000085
:100B70000000000000010100000000000000474DDF
:100B800020375800000000000002020200000002AE
:100B9000020200000002020200000000000000004B
:100BA0000000000000000000000000000000000045
:100BB0000000000000000000000000000000000035
:100BC0000000000000000000000000000000000025
:100BD0000000000000000001010100000000000012
:100BE0000000000000000000000000000000000005
:100BF00000000000000000010101000000000000F2
:100C000000000000000000000000000000000000E4
:100C100000000000000000000000000000000000D4
:100C200000000000000000000000000000000101C2
:100C300001000000000000000000000000000000B3
:100C4000000000000000000000000000020202009E
:100C50000000000000000000000000000000000094
:100C60000000000000000000000000000000000084
:100C70000000000000000000000000000000000074
:100C80000000000000000000000000010101000061
:100C90000000000000000000000000000000000054
:100CA0000000000000000000000000010101000041
:100CB0000000000000000000000000000000000034
:100CC0000000000000000000000000000000000024
:100CD0000000000000000000000000000000000014
:100CE0000000010101000000000000000000000001
:100CF00000000000000000000000000000000000F4
:100D000002020200000002020200000000000000D7
:100D100000000000000000000000000000000000D3
:100D200000000000000000000000000000000000C3
:100D300000000000000000000000000000000001B2
:100D400001010000000000000000000000000000A1
:100D50000000000000000000000000000000000192
:100D60000101000000000000000000000000000081
:100D70000000000000000000000000000000000073
:100D80000000000000000000000000000000000063
:100D90000000000000000101010000000000000050
:100DA0000000000000000000000000000000000043
:100DB000000000000202020000000000000000002D
:100DC0000000000000000000000000000000000023
:100DD0000000000000000000000000000000000013
:100DE0000000000000000000000000000000000003
:100DF00000000001010100000000000000000000F0
:100E000000000000000000000000000000000000E2
:100E100000000001010100000000000000000000CF
:100E200000000000000000000000000000000000C2
:100E300000000000000000000000000000000000B2
:100E4000000000000000000000000101010000009F
:100E50000000000053756261727520362F372063E1
:100E600072616E6B20616E642063616D0000000131
:100E7000000001000001000001000001000001006D
:100E8000000100000100000100000100000100005D
:100E9000010000010000010000010000010000014C
:100EA000000001000001000001000001000001003D
:100EB000000100000100000100000100000100002D
:100EC000010000010000010000010000010000011C
:100ED000000001000001000001000001000001000D
:100EE00000010000010000010000010202030202F3
:100EF0000100000100000100000100000132342F58
:100F00003120283234206372616E6B2077697468F7
:100F10002063616D29000000000000010000000056
:100F200000010000000000010000000000010000BE
:100F300000000001000000000001000000000001AE
:100F4000000000000001000000000001000000009F
:100F5000000100000000000100000000000100008E
:100F6000000000010000000000010000000000017E
:100F7000000000000001000000000001000000006F
:100F8000000100000000000100000000000100005E
:100F90000000000102020202020100000000000144
:100FA00000000000000131322F312028313220634F
:100FB00072616E6B20776974682063616D2900002F
:100FC000000000000002020000000000000000001D
:100FD000000001010000000000000000000000000F
:100FE00001010000000000000000000000000000FF
:100FF00000000000000001010000000000000000EF
:1010000000000000010100000002020000020200D6
:1010100000000000000000000000010100000000CE
:1010200000000000000000000101000000000000BE
:1010300000000000000000000000000000000101AE
:101040000000000000000000000000000101004D51
:10105000696174612039392D3035000101000000CB
:10106000000101000000000000000000000000007E
:101070000000000000000000000000000000000070
:10108000000000000000000000000001010000005E
:101090000000000000000000000000000000000050
:1010A0000000000000000000000000000000000040
:1010B000000000000000000000000001010000002E
:1010C0000000000000000000000000000000000020
:1010D0000000000000000000000000000000000010
:1010E0000000000000000000000000446169686129
:1010F00074737520332B312064697374726962755F
:10110000746F722028332063796C696E6465727322
:1011100029000000000000020000010000000000A3
:1011200001000000000002000201000000000001B8
:101130004D617A64612033323320415520766572E7
:1011400073696F6E000100000000000100000000E4
:10115000000100000000000100000000000100008C
:10116000000000010000000000010000000000017C
:10117000000000000001000000000001000000006D
:10118000000100000000000100010000000100005B
:10119000000000010000000000010000000000014C
:1011A000000000000001000000000001000000003D
:1011B000000100000000000100000000000100002C
:1011C000000000010000000000010000000000011C
:1011D0000001000000486F6E6461204431372043F5
:1011E00072616E6B202831322B3129000303020219
:1011F00003030202030302000101000001010000D9
:1012000001010000010100000101000001010000D6
:1012100001010000010100000101000001010000C6
:1012200001010000010100000101000001010000B6
:1012300001010000010100000101000001010000A6
:1016200001010002417564692031333520746F6F08
:101630007468206372616E6B20616E642063616DFB
:101640000002020202020202020202020000000084
:101650000000000000000101010101010101010180
:101660000101010100000000000000000000000076
:101670000000000000000002020203030303030352
:101680000303030303010101000000000000000048
:101690000000000000000000000000000000010148
:1016A000010101010101010101010101000000002E
:1016B000000000000000000000000000000000002A
:1016C00000020303030303030303030303030303EE
:1016D000024D6974737562697368692034673633C3
:1016E00020616B6120342F32206372616E6B206148
:1016F0006E642063616D00010100000001010000C3
:1017000000010100000001010000000101000000D3
:1017100001010000000101000000010302020203B8
:1017200003020202030100000001010000000000AA
:101730000000000000000000010302020202020299
:10174000020202000000000101000000010100008F
:101750000001010000000101000000010100000083
:101760000101000000010100000001010000000172
:10177000010000000103020202030302020203014E
:101780000000000101000000000000000000000057
:10179000000001030202020303020202030100002F
:1017A0000001010000000101000000010100000033
:1017B0000101000000010100000001010000000122
:1017C0000100000001010000000101000000010112
:1017D0000000000101000000010100000001010003
:1017E00000000000000000000000000001030202F1
:1017F00002020202020202000000000101000000D9
:1018000001010000000101000000010100000001D1
:1018100001000000010100000001010000000101C1
:1018200000000001010000000101000000010100B2
:1018300000000101000000010100000000000000A4
:101840000000000000000103020202030302020282
:101850000301000000010100000001010000004D33
:10186000617A64612033362D322D322D3220776932
:101870007468203620746F6F74682063616D000097
:10188000010101000101010001010100010101004C
:10189000010101000101010001010100010101003C
:1018A000010101000101010001010100010101022A
:1018B000010101000101010001010100010101001C
:1018C0000101010201010101010101010101010008
:1018D00001010100010101000101010001010100FC
:1018E00001010100010101000101010001010100EC
:1018F00001010100010101000101010001010100DC
:1019000001010100010101000101010001010100CB
:1019100001010102010101010101010101010100B7
:1019200001010100010101000101010001010100AB
:10193000010101000101010001010100010101009B
:10194000010101000101010001010100010101008B
:10195000010101000101010001010100010101007B
:101960000101010201010101010101010101010067
:10197000010101000101010001010100010101005B
:10198000010101000101010001010100010101004B
:10199000010101000101010001010100010101003B
:1019A000010101000101010001010100010101002B
:1019B0000101010201010101010101010101010017
:1019C000010101000101010001010100010101000B
:1019D00001010100010101000101010001010100FB
:1019E00001010100010101000101010001010100EB
:1019F00001010100010101000101010001010100DB
:101A000001010102010101010101010101010100C6
:101A100001010100010101000101010001010100BA
:101A200001010100010101000101010001010100AA
:101A3000010101000101010001010100010101009A
:101A4000010101000101010001010100010101008A
:101A50000101010201010101010101010101015620
:101A60006F6C766F206431325B6163645D206372FA
:101A7000616E6B2077697468203720746F6F7468AB
:101A80002063616D000100010001000100030203F9
:101A90000203020302474D2038206576656E2D74DF
:101AA0006F6F7468206372616E6B20776974682051
:101AB0003120746F6F74682063616D000100010054
:101AC0000100030203020302474D203620657665BC
:101AD0006E2D746F6F7468206372616E6B2077690E
:101AE0007468203120746F6F74682063616D000129
:101AF00000010003020302474D2034206576656E25
:101B00002D746F6F7468206372616E6B20776974D7
:101B100068203120746F6F74682063616D0000006D
:101B200000010000000100000001000000010000B1
:101B3000000100000001000000010000000100029F
:101B4000020302000001000000010000000100008B
:101B500000010000000100000001000000015961C7
:101B60006D61686120323030322D303320523120A7
:101B700038206576656E2D746F6F746820637261AE
:101B80006E6B2077697468203120746F6F746820E1
:101B900063616D0001000001000001000001000010
:101BA000010000010000010000010000010000012F
:101BB0000000030202020202030000010000010013
:101BC0000001000001000001000001000001000010
:101BD0000100000100000100000000004D617A6476
:101BE00061204341532032342D32207769746820BC
:101BF00073696E676C652070756C7365206F7574A2
:101C000065722072696E6700020100010001000127
:101C1000000302030203020302030203020302039E
:101C2000020302030203020302030203020302038C
:101C3000020302030203020302030203020302037C
:101C4000020302030203020302030203020302036C
:101C5000020302030203020302030203020302035C
:101C6000020302030203020302030203020302034C
:101C7000020302030203020302030203020302033C
:101C8000020100010001000100010001000100014A
:101C9000000302030203020302030203020302031E
:101CA000020302030203020302030203020302030C
:101CB00002030203020302030203020302030203FC
:101CC00002030203020302030203020302030203EC
:101CD00002030203020302030203020302030203DC
:101CE00002030203020302030203020302030203CC
:101CF00002030203020302030201000100010001CA
:101D000000010001000100010001000100010001CB
:101D1000000302030203020302030203020302039D
:101D2000020302030203020302030203020302038B
:101D3000020302030203020302030203020302037B
:101D4000020302030203020302030203020302036B
:101D5000020302030203020302030203020302035B
:101D6000020302030203020302030203020302034B
:101D70000201000100010001000100010001000159
:101D8000000100010001000100010001000100014B
:101D9000000302030203020302030203020302031D
:101DA000020302030203020302030203020302030B
:101DB00002030203020302030203020302030203FB
:101DC00002030203020302030203020302030203EB
:101DD00002030203020302030203020302030203DB
:101DE00002030203020302030201000100010001D9
:101DF00000010001000100010001000100010001DB
:101E000000010001000100010001000100010001CA
:101E1000000302030203020302030203020302039C
:101E2000020302030203020302030203020302038A
:101E3000020302030203020302030203020302037A
:101E4000020302030203020302030203020302036A
:101E5000020302030203020302030203020302035A
:101E60000201000100010001000100010001000168
:101E7000000100010001000100010001000100015A
:101E8000000100010001000100010001000100014A
:101E9000000302030203020302030203020302031C
:101EA000020302030203020302030203020302030A
:101EB00002030203020302030203020302030203FA
:101EC00002030203020302030203020302030203EA
:101ED00002030203020302034E697373616E20332F
:101EE0003630204341532077697468203620736C64
:101EF0006F74730002020202020202020202020274
:101F000002020202020202020202020202020202B1
:101F100002020202020202020202020200000000A9
:101F200000000000000000000000000000000000B1
:101F30000202020202020202020202020202020281
:101F4000020202020202020303030303020202026C
:101F50000202020202020202020202020202020261
:101F6000020202020202020303030303020202024C
:101F70000202020202020202020202020202020241
:101F80000202020202020202020202020202020231
:101F9000020202020202020202020202020203031F
:101FA000030303020202020202020202020202020E
:101FB0000202020202020202020202020202020201
:101FC00002020202020202020202020202020202F1
:101FD00002020202020202020202000000000000ED
:101FE00000000000000000000000000000000000F1
:101FF00000000000000000000000000101010101DC
:1020000000000000000000000000000000000000D0
:1020100000000000000000000000000101010101BB
:1020200000000000000000000000000000000000B0
:1020300000000000000000000000000000000000A0
:102040000000000000000000000000000000000090
:10205000000001010101010000000000000000007B
:102060000000000000000000000000000000000070
:102070000000000000000000000000000000000060
:102080000000000002020202020202020202020238
:102090000202020202020202000000000000000030
:1020A000000000000000000000000000000000012F
:1020B000010101010000000000000000000000001C
:1020C000000000000000000000000000000000010F
:1020D00001010101000000000000000000000000FC
:1020E00000000000000000000000000000000000F0
:1020F00000000000000000000000000000000000E0
:1021000000000000000001010101010000000000CA
:1021100000000000000000000000000000000000BF
:1021200000000000000000000000000000000000AF
:10213000000000000000000000000000000000009F
:102140000000020202020202020202020202020273
:10215000020202020202020202020202020202025F
:10216000020202030303030302020202020202024A
:10217000020202020202020202020202020202023F
:10218000020202030303030302020202020202022A
:10219000020202020202020202020202020202021F
:1021A000020202020202020202020202020202020F
:1021B00002020202020202020202030303030302FA
:1021C000020202024669617420312E3820313656EF
:1021D000206372616E6B20616E642063616D00002C
:1021E00000000000000000000000000000000001EE
:1021F00001000000000202020200000000000000D6
:1022000000010100000000000000000000000000CC
:1022100000000001010000000002020202000000B4
:1022200000000000000101000000000000000000AC
:10223000000000000000000101000000000000009C
:10224000000000000000000000010100000000008C
:10225000000000000000000000000001010000007C
:102260000000000000000000000000000001015715
:10227000656265722D4D6172656C6C6920382063F2
:1022800072616E6B2B322063616D207061747465B6
:10229000726E00000000000000000000000000005E
:1022A000000000000000000000000000010101012A
:1022B0000100000000000101010101000000000018
:1022C0000101010101000000000001010101010004
:1022D00000000000010101010100000000000101F7
:1022E00003030302020202020101010101000000D6
:1022F00000000101010101000000000001010101D5
:1023000001000000000001010101010000000000C7
:1023100001010101010000000000010101010100B3
:1023200000000000010101010100000000000101A6
:102330000101010000000000010103030302020289
:10234000020201010101010000000000010101037E
:10235000030303030303030101010101010101015F
:102360000101010101000000000001010101010063
:102370000000000001010101010000000000010156
:102380000101010000000000010101010100000045
:102390000000010103030302020202020101010124
:1023A0000100000000000101010303020202020219
:1023B000030101010100000000000101010103020D
:1023C00002020202030301010100000000000101FA
:1023D00001010100000000000101010101000000F5
:1023E00000000101010101000000000001010303E0
:1023F00003020202020201010101010000000000CB
:1024000000000002020202020202020000000000BC
:1024100000000000010101010100000000000101B5
:1024200001010100000000000101010101000000A4
:102430000000010101010100000000000101010193
:102440000100000000000101030303020202020276
:10245000010101010100000000000101010303026C
:10246000020202020301010101000000000001015B
:102470000101010000000000010101010100000054
:102480000000010101010100000000000101010143
:102490000100000000000101010101000000000036
:1024A0000101030303020202020201010101010012
:1024B0000000000001010101010101010101010110
:1024C00001010101010101010101010101000000FF
:1024D00000000101010101000000000001010101F3
:1024E00001000000000001010101010000000000E6
:1024F00001010101010000000000010103030302CA
:1025000002020202010101010100000000000101BC
:1025100001030302020202020301010101000000A3
:102520000000010101010302020202020303010192
:102530000100000000000101010101000000000095
:102540000101010101000000000001010101010081
:102550000000000001010303030202020202010164
:1025600001010143687279736C6572204E47432004
:1025700033362D322B32206372616E6B2C204E4726
:102580004320382D63796C2063616D0002020000E6
:10259000000000000000000000020202020202022D
:1025A000020202000001010101010000000002031B
:1025B0000303030302020202000101010101000002
:1025C0000000000101010101000000000001010103
:1025D00001010000000000010101010100000000F4
:1025E00000010101010100000000000101010101E1
:1025F00000000000000101010101000002020203CD
:1026000003030303020200000001010101010000B5
:1026100000000001010101010000000000010101B2
:1026200001010000000000010101010100000000A3
:102630000001010101010000000000010101010190
:10264000000000000001010101010101010101017F
:10265000010101010101010101010101010100006C
:102660000000000101010101000000000001010162
:10267000010100000202020303030303020200003F
:102680000001010101010000000202030303030332
:10269000020202000001010101010000000000012E
:1026A0000101010100000000000101010101000021
:1026B0000000000101010101000000000001010112
:1026C0000101000000000001010101010000000003
:1026D00000010101010100000000000101010101F0
:1026E00000000000000101010101000002020203DC
:1026F00003030303020200000000000000000000CA
:1027000000020202020202020202020000010101B2
:10271000010100000000020303030303020202029E
:10272000000101010101000000000001010101019F
:102730000000000000010101010100000000000193
:102740000101010100000000000101010101000080
:102750000000000101010101000000000001010171
:10276000010100000202020303030303020200004E
:102770000001010101010000000202030303030341
:10278000020202000001010101010000000000013D
:102790000101010100000000000101010101000030
:1027A0000000000101010101000000000001010121
:1027B0000101010101010101010101010101010109
:1027C00001010101010100000000000101010101FE
:1027D00000000000000101010101000002020203EB
:1027E00003030303020200000001010101010000D4
:1027F00000000001010101010000000000010101D1
:1028000001010000000000010101010100000000C1
:1028100000010101010100000000000101010101AE
:1028200000000000000101010101000000000001A2
:10283000010101010000000000010101010100008F
:102840000000000101010101000000000001010180
:1028500001010000020202030303030343687279CB
:10286000736C6572204E47432033362D322B322055
:102870006372616E6B2C204E474320362D63796C5A
:102880002063616D000000000000010101010101F1
:102890000101010101010101010101010101030324
:1028A0000303030202020202030303030302020200
:1028B00002020303030303020202020203030303EF
:1028C00003020000000001010101010000000000FE
:1028D00001010101010000000000010101010100EE
:1028E00000000000010103030302020202020303CD
:1028F00003030302020202020303030303020202B0
:1029000002020303030303020202000001010101AA
:1029100001000000000001010101010000000000B1
:102920000101010101000000000001010101030299
:102930000202020203030303030202020202020272
:102940000202020202020202020202020202020267
:10295000020203030303030202020202030303034E
:102960000302020202020303030303020202020241
:10297000030303030302020202020303030303022D
:102980000202020203030303030202020202030320
:10299000030303020202020203030303030202020F
:1029A00002020303030303020202020203030303FE
:1029B00003020202020203030303030202020000F5
:1029C00001010101010000000000010101010100FD
:1029D00000000000010101010100000000000101F0
:1029E00001010302020202020303030303020202C3
:1029F00002020303030303030303030303030303A9
:102A000003030303030301010101010000000000AF
:102A100001010101010000000000010101010100AC
:102A20000000000001010101010002020202030393
:102A3000030303020202020203030303030202026E
:102A40000202030303030302020202020303010161
:102A50000100000000000101010101000000000070
:102A6000010101010100000000000101010101005C
:102A70000000020203030303030202020202030333
:102A8000030303020202020203030303030202021E
:102A90000202030303030100000000000101010121
:102AA0000100000000000000000000000000000025
:102AB0000000000000000000000001010101010011
:102AC00000000000010101010100000000000101FF
:102AD00001010100000000000101010101000000EE
:102AE00000000101010101000000000001010101DD
:102AF00001000000000001010101010000000000D0
:102B000001010101010000000000010101010100BB
:102B100000000000010101010100000000000101AE
:102B20000101010000000202030303030302020289
:102B3000020203030303030202020202030303036C
:102B4000030202020202030303030100000000006B
:102B5000010101010143687279736C6572204E476F
:102B6000432033362B322D32206372616E6B2C2062
:102B70004E474320342D63796C2063616D00010062
:102B8000010001000100010001000100010001003D
:102B9000010001000100010001000100010001002D
:102BA000010001000100010001000100010001001D
:102BB0000100010001000100010001000100030209
:102BC00003020100000001000100010001000100FA
:102BD00001000100010001000100010001000100ED
:102BE00001000100010001000100010001000100DD
:102BF00001000100010001000100010001000100CD
:102C00000100010001000100010001000000333655
:102C10002D31206372616E6B207769746820326E8B
:102C2000642074726967676572206F6E20746565D1
:102C300074682033332D333400000100010001009B
:102C4000010001000300010001000100010001007A
:102C50000100010001000100030001000300010068
:102C6000010001000100010001486F6E6461205203
:102C700043353120776974682063616D000100017C
:102C8000000100010001000100010001000100013C
:102C9000000100010001000000010001000000012E
:102CA000000100010001000100010001000100011C
:102CB000000100010001000100010000000100010D
:102CC00000010000004F6464204C6F747573203362
:102CD000362D312D312D312D3120666C7977686597
:102CE000656C0001000100030203020302030203FA
:102CF00002030201000100010001000100010001C6
:102D000000010001000100010001000100010001BB
:102D100000010001000100010001000100010001AB
:102D20000001000302030203020302030203020183
:102D30000001000100010003020302030203020379
:102D4000020302030203020302030203020302035B
:102D5000020302030203020202020203020302034D
:102D60000203020302030203020302010001000145
:102D70000001000302030203020302030203020331
:102D8000020302030203020302030203020302031B
:102D9000020302030203020302030203020302030B
:102DA000020302030203020100010001000100010D
:102DB000000100010001000100010001000100010B
:102DC00000010001000100010001000100010000FC
:102DD000000000474D20353878206372616E6B200B
:102DE000616E642034782063616D0004000000008F
:102DF00000000000000000010101000000010101CD
:102E000001010101010101010100000001010101B5
:102E100001010101010101010000000101010101A5
:102E20000101010101010100000001010101010195
:102E30000101010101010000000101010101010185
:102E4000010101010100000000000000000000007D
:102E50000001010100000001010101010101010166
:102E60000101010000000101010101010101010155
:102E70000101000000010101010101010101010145
:102E8000010000000000000000000000000101013E
:102E9000000000000000000000000000010101002F
:102EA0000000010101010101010101010101000016
:102EB0000001010101010101010101010100000006
:102EC00000000000000000000001010100000000FF
:102ED00000000000000000000101010000000000EF
:102EE00000000000000000010101000000010101DC
:102EF00001010101010101010100000000000000C9
:102F000000000000000101010000000101010101B9
:102F100001010101010101000000000000000000AA
:102F2000000000010101000000000000000000009E
:102F3000000001010100000000000000000000008E
:102F4000000101010000000000000000000000007E
:102F50000101010202020202020202020202020353
:102F60000303020202030303030303030303030334
:102F70000302020203030303030303030303030324
:102F80000202020303030303030303030303030215
:102F90000202030303030303030303030303020205
:102FA00002030303030303030303030303020202F5
:102FB00002020202020202020203030302020203ED
:102FC00003030303030303030303030202020303D4
:102FD00003030303030303030303020202030303C4
:102FE00003030303030303030302020202020202B8
:102FF00002020202020303030202020202020202AE
:103000000202020203030302020203030303030397
:103010000303030303030202020303030303030383
:10302000030303030302020202020202020202027B
:10303000020303030202020202020202020202026D
:10304000030303020202020202020202020202035C
:103050000303020202030303030303030303030343
:10306000030202020202020202020202020303033C
:103070000202020303030303030303030303030224
:10308000020202020202020202020203030302021D
:10309000020202020202020202020303030202020D
:1030A00002020202020202020203030302020202FD
:1030B0000202020202020202030303474D204C53A4
:1030C00031206372616E6B20616E642063616D00FC
:1030D00001010101000000000000010101010000E8
:1030E00000000000010101010000000000000000DC
:1030F00000000000000000000000000000010101CD
:1031000001000000000000010101010000000000BA
:1031100000010101010000000000000000000000AB
:103120004275656C6C204F6464666972652043412A
:103130004D20776865656C000303030303030303F5
:103140000302020202020000000000000000000171
:103150000101010101010303030202020202000056
:103160000000000000000001010101010101010156
:103170000100000000000000000000000202020345
:10318000030303030101010101000000000000002E
:103190000000000000000001010101010101030322
:1031A0000302020202020000000000000000000111
:1031B0000101010101010101010000000000000006
:1031C00000000000000202034D69747375626973A8
:1031D0006869203667373220776974682063616DCB
:1031E00000010001000100010001000100010001D7
:1031F00000010003020300010001000100010001C1
:1032000000010001000100010001000100010001B6
:1032100000010001000100010001000100010001A6
:103220000001000100010000000100010001000197
:10323000000100010003020300010003020300017A
:103240000001000100010001000100010001000176
:103250000001000100010001000100010001000166
:103260000001000100010001000100010001000057
:10327000004D617A6461204645332033362D31207C
:10328000776974682063616D00010101010101012A
:10329000010101010001010101010101010101011F
:1032A0000001000101010101010101010001010111
:1032B00001010101010101010001010101010101FF
:1032C00001010101010100010101010101010101EF
:1032D00000474D2034323030206372616E6B2077AE
:1032E0006865656C0001000002000001000000003C
:1032F00000010001000100010001000100010001C6
:1033000000010001000100010001000100010001B5
:1033100000000200000100010001000100010001A5
:103320000001000100010001000100010001000096
:103330000000000100000000000100010201000186
:103340000001000100010001000100010001000175
:103350000001000100010001000000000001000167
:103360000001000100010001000100010001000155
:10337000000100010033362D322D322D32204372F0
:10338000616E6B20616E642063616D00010001005D
:103390000100010001000100010001000100010025
:1033A0000100010001000100010001000100010015
:1033B0000100000000000100010001000100010007
:1033C00001000100010001000100000000000100F7
:1033D0000000000033362D322D322D3220483620A9
:1033E0004372616E6B206F6E6C7900010001000109
:1033F00000010001000100010001000100010001C5
:1034000000010001000000000001000000000001B8
:1034100000010001000100010001000100010001A4
:103420000001000100010001000000000001000196
:1034300000010033362D322D322D32204834204306
:1034400072616E6B206F6E6C7900010000000100EC
:103450000000010000000100000001000000010068
:103460000000010000000100000001000000000059
:103470000000000000000000000031322D33206FFA
:10348000646462616C6C00000100010001000100D5
:103490000100010001000100010001000100010024
:1034A0000100010001000100010001000100010014
:1034B0000100010001000100010001000100010004
:1034C00001000100010001000100010001000100F4
:1034D00001000100010001000100010001020302DE
:1034E00003020302030203020302030001000100BE
:1034F00001000100010001000100010001000100C4
:1035000001000100010001000100010001000100B3
:1035100001000100010001000100010001000100A3
:103520000100010001000100010001000100010093
:10353000010001000100010203020300010001007B
:103540000100010001000100010001000100010073
:103550000100010001000100010001000100010063
:103560000100010001000100010001000100010053
:103570000100010001000100010001000100010043
:103580000100010001000100010001000100010033
:103590000102030203020302030203020302030205
:1035A0000302030203020302030001000100010001
:1035B0000100010001000100010001000100010003
:1035C00001000100010001000100010001000100F3
:1035D00001000100010001000100010001000100E3
:1035E00001000100010001000100010203020300CB
:1035F00001000100010001000100010001000100C3
:1036000001000100010001000100010001000100B2
:1036100001000100010001000100010001000100A2
:103620000100010001000100010001000100010092
:103630000100010001000100010001000100010082
:10364000010001000102030203020302030203025C
:103650000302030203020302030203020302030242
:103660000302030203020300010001000100010044
:103670000100010001000100010001000100010042
:103680000100010001000100010001000100010032
:103690000100010001000100010001000100010220
:1036A000030203000100010001000100010001000C
:1036B0000100010001000100010001000100010002
:1036C00001000100010001000100010001000100F2
:1036D00001000100010001000100010001000100E2
:1036E00001000100010001000100010001000100D2
:1036F00001000100010001000102030203020302B4
:103700000302030203020302030203020302030291
:103710000302030203020302030203020302030281
:103720000302030203000100010001000100010087
:103730000100010001000100010001000100010081
:103740000100010001000100010001000100010071
:1037500001000102030203474D204F70746953704A
:1037600061726B204C54312033363020616E6420FE
:10377000380001000000000000000001000000000F
:10378000000000000000000000006F646420666913
:1037900072652039302064656720706174746572C9
:1037A0006E203020616E64203133352070756C736B
:1037B0006573000000000000010101014469737499
:1037C00072696275746F72207374796C652034202D
:1037D00063796C203530646567206F66662C203411
:1037E0003020646567206F6E000001000100010059
:1037F00001000100010001000100010001000100C1
:1038000001000100010001000100010001000100B0
:1038100001000100010001000100010001000100A0
:103820000100010001000100010001000100010090
:1038300001000100010001000034302D31206372CD
:10384000616E6B206F6E6C792028466F7264205613
:1038500031302900000000000001000000000001DC
:103860000000000000010000000000010000000056
:103870000001000000000001000000000001000045
:103880000000000100000000000100000000000135
:103890000000000000010000000000000000000027
:1038A0000001000000000001000000000001000015
:1038B0000000000100000000000100000000000105
:1038C00000000000000100000000000100000000F6
:1038D00000010202020202010000000000010000DB
:1038E0000000000031322D31206372616E6B207751
:1038F0006974682063616D00000001000001000030
:1039000001000001000001000000000001000001B2
:10391000020201000001000001000000362D3120EC
:103920006372616E6B20776974682063616D00005B
:103930000100010001000100010001000100003848
:103940002D31206372616E6B206F6E6C792028526E
:103950003629000001000100010000000102010001
:10396000010000342D31206372616E6B2077686531
:10397000656C20776974682063616D000100010047
:10398000010001000100010001000100010001002F
:10399000010001000100010001000100010001001F
:1039A00001000100010001000100000032342D314E
:1039B000206372616E6B206F6E6C790001000100F4
:1039C00001000100010001000100010001000100EF
:1039D00001000100010001000100010001000100DF
:1039E00001000100010001000100010001000100CF
:1039F00001000100010001000100010001000100BF
:103A00000100000033362D31206372616E6B206F30
:103A10006E6C79000100010001000100010001004D
:103A2000010001000100010001000100010001008E
:103A3000010001000100010001000100010001007E
:103A4000010001000100010001000100010001006E
:103A5000010001000100010001000100010001005E
:103A60000100010001000100010003020302030242
:103A7000030203020302030203020302030203021E
:103A80000302030203020302020202020302030210
:103A900003020302030203020302030203020302FE
:103AA00003020302030203020302030203020302EE
:103AB00003020302030203020302030203020302DE
:103AC00003020302030203020302030203020302CE
:103AD00003020302030203020302030203020302BE
:103AE00003020100010001000100010001000100CA
:103AF00001000100010001000100010001000100BE
:103B00000000000036302D32206372616E6B206140
:103B10006E64202768616C66206D6F6F6E2720636E
:103B2000616D0001000100010001000100010001C0
:103B3000000100010001000100010001000100017D
:103B4000000100010001000100010001000100016D
:103B5000000100010001000100010001000100015D
:103B6000000100010001000100010001000100014D
:103B7000000100010001000100010001000100013D
:103B8000000100010001000100010001000100012D
:103B9000000100010001000000000001000100011F
:103BA000000100010001000100010001000100010D
:103BB00000010001000100010001000100010001FD
:103BC00000010001000100010001000100010001ED
:103BD00000010001000100010001000100010001DD
:103BE00000010201000100010001000100010001CB
:103BF00000010001000100010001000100010001BD
:103C000000010001000100010001000100010000AD
:103C100000000036302D32206372616E6B20616EC1
:103C2000642063616D0001000100010001000100DA
:103C3000010001000100010001000100010001007C
:103C4000010001000100010001000100010001006C
:103C5000010001000100010001000100010001005C
:103C6000010001000100010001000100010001004C
:103C7000010001000100010001000100010001003C
:103C8000010001000100010001000100010001002C
:103C900001000100010001000100000000003630B9
:103CA0002D32206372616E6B206F6E6C79000100A3
:103CB000010001000100382063796C696E6465724F
:103CC0002064697A7A7900010001000100362063DE
:103CD000796C696E6465722064697A7A7900010092
:103CE0000100342063796C696E6465722064697ABE
:103CF0007A79000000000102030406080A0C0E1184
:103D00001316191C1F2326292D3034373B3E4145FD
:103D1000484B4E515356585A5C5E6061626364640E
:103D2000646464636261605E5C5A585653514E4BE2
:103D30004845413E3B3734302D2926231F1C191698
:103D400013110E0C0A080604030201000000000013
:103D50000101020203040507080A0B0D0F111315D8
:103D600017191B1E202325282A2D2F3235373A3CC0
:103D70003F414446494B4D4F51535557595A5C5D4D
:103D80005F6061626263636464646464636362620B
:103D900061605F5D5C5A59575553514F4D4B4946D1
:103DA00044413F3C3A3735322F2D2A282523201E07
:103DB0001B19171513110F0D0B0A08070504030231
:103DC00002010100000000000000010101020203E5
:103DD000040405060708090A0B0C0D0E0F11121337
:103DE000151618191B1C1E1F2123242628292B2DCC
:103DF0002F3032343537393B3C3E4041434546480D
:103E0000494B4C4E4F51525355565758595A5B5C7B
:103E10005D5E5F6060616262636363646464646486
:103E20006464646463636362626160605F5E5D5C7E
:103E30005B5A59585756555352514F4E4C4B49485F
:103E400046454341403E3C3B3937353432302F2DD7
:103E50002B2928262423211F1E1C1B191816151375
:103E600012110F0E0D0C0B0A0908070605040403B6
:103E700002020101010000000000000000240027F0
:103E8000002A0000000000250028002B0004040484
:103E900004040404040202020202020303030303F3
:103EA00003010204081020408001020408102001D0
:103EB00002040810200000000800020100000304B2
:103EC00007000000000000000000322411241FBE83
:103ED000CFEFD8E0DEBFCDBF14E0A0E0B1E0E4EE6C
:103EE000F6E502C005900D92AE30B107D9F724E097
:103EF000AEE0B4E001C01D92A83EB207E1F71FE1B9
:103F0000C6E6DFE104C02197FE010E946A2BC53698
:103F1000D107C9F70E9486240C94702B0C940000E2
:103F2000EDEBFEE32491E9EAFEE39491E5E9FEE39B
:103F3000E491EE23C9F0222339F0233001F1A8F4F3
:103F4000213019F1223029F1F0E0EE0FFF1FED577B
:103F5000F14CA591B4912FB7F894EC91811126C042
:103F600090959E239C932FBF08952730A9F0283069
:103F7000C9F0243049F7209180002F7D03C02091A3
:103F800080002F7720938000DFCF24B52F7724BDCA
:103F9000DBCF24B52F7DFBCF2091B0002F7720936E
:103FA000B000D2CF2091B0002F7DF9CF9E2BDACF79
:103FB00090E0FC01EF55F14C24918357914CFC01AA
:103FC0008491882399F090E0880F991FFC01E758AD
:103FD000F14CA591B491FC01ED57F14C8591949170
:103FE0008FB7F894EC91E22BEC938FBF08953FB715
:103FF000F8948091310490913204A0913304B091EF
:10400000340426B5A89B05C02F3F19F00196A11DC9
:10401000B11D3FBFBA2FA92F982F8827BC01CD0112
:10402000620F711D811D911D42E0660F771F881F71
:10403000991F4A95D1F70895AF92BF92CF92DF9220
:10404000EF92FF920F931F93CF93DF936C017B014D
:104050008B01040F151FEB015E01AE18BF08C017DE
:10406000D10759F06991D601ED91FC910190F08151
:10407000E02DC6010995892B79F7C501DF91CF9114
:104080001F910F91FF90EF90DF90CF90BF90AF9076
:104090000895FC01538D448D252F30E0842F90E04E
:1040A000821B930B541710F0CF9608950197089533
:1040B000FC01918D828D981761F0A28DAE0FBF2FFC
:1040C000B11D5D968C91928D9F5F9F73928F90E052
:1040D00008958FEF9FEF0895FC01918D828D9817C1
:1040E00031F0828DE80FF11D858D90E008958FEFFE
:1040F0009FEF0895FC01918D228D892F90E0805CC7
:104100009F4F821B91098F739927089585E394E04F
:104110000E947A2021E0892B09F420E0822F089563
:1041200080E090E0892B29F00E94862081110C9478
:1041300000000895FC01A48DA80FB92FB11DA35A4A
:10414000BF4F2C91848D90E001968F739927848FB7
:10415000A689B7892C93A089B1898C9183708064DA
:104160008C93938D848D981306C00288F389E02D7B
:1041700080818F7D80830895EF92FF920F931F932C
:10418000CF93DF93EC0181E0888F9B8D8C8D98130A
:104190001AC0E889F989808185FF15C09FB7F89416
:1041A000EE89FF896083E889F98980818370806462
:1041B00080839FBF81E090E0DF91CF911F910F91AD
:1041C000FF90EF900895F62E0B8D10E00F5F1F4FBC
:1041D0000F731127E02E8C8D8E110CC00FB607FCCB
:1041E000FACFE889F989808185FFF5CFCE010E9459
:1041F0009A20F1CFEB8DEC0FFD2FF11DE35AFF4F0D
:10420000F0829FB7F8940B8FEA89FB8980818062E6
:10421000CFCFCF93DF93EC01888D8823B9F0AA89A3
:10422000BB89E889F9898C9185FD03C0808186FD71
:104230000DC00FB607FCF7CF8C9185FFF2CF8081C0
:1042400085FFEDCFCE010E949A20E9CFDF91CF917B
:104250000895CF93DF93382FC091D7048CE0C89F87
:10426000E0011124CD5FDE4F832F6A307105810597
:10427000910520F46AE070E080E090E00E945B2A03
:104280002C813D814E815F810E94E92A9B01AC0116
:1042900060E074E284EF9AE40E94BA290E942C2A1A
:1042A00061157105810521E0920738F561157105E9
:1042B00020E48207910520F56115710528E0820749
:1042C000910508F56115710521E082079105F0F46B
:1042D00030E021E004C096958795779567953A95EB
:1042E000D2F770930101609300012093150481E0DF
:1042F00080931404DF91CF9108953AE025E0EACF4E
:1043000038E024E0E7CF36E023E0E4CF33E022E0FA
:10431000E1CF60912A0470912B0490E080E00E942C
:104320002921109218041092170410921604E0919B
:10433000D7048CE0E89FF0011124ED5FFE4F40852B
:10434000518520E0DF0112968091170490911804A6
:1043500084179507B8F48091170490911804ED9193
:10436000FC911197E80FF91FE491EA3008F021E081
:1043700080911704909118040196909318048093EB
:104380001704E2CF20931604109218041092170419
:104390000895FC0101900020E9F73197AF01481B17
:1043A000590BBC0185E394E00C941C208F929F92E2
:1043B000AF92BF920F931F93CF93DF93CDB7DEB72A
:1043C000A1970FB6F894DEBF0FBECDBF19A2423041
:1043D00008F44AE08E010F5D1F4F842E912CB12C02
:1043E000A12CA50194010E948929E62FB901CA01D7
:1043F000EA30F4F4E05DD801EE938D01232B242BF9
:10440000252B79F790E080E0109719F0CD010E94FC
:10441000C921A1960FB6F894DEBF0FBECDBFDF91C4
:10442000CF911F910F91BF90AF909F908F90089563
:10443000E95CE1CFCF93DF930E94C921EC0189E0D1
:1044400094E00E94C9218C0F9D1FDF91CF910895A8
:10445000CF93DF93BC0190E080E04AE00E94D62138
:10446000EC0189E094E00E94C9218C0F9D1FDF912F
:10447000CF9108951F93CF93DF93EC01162F0E94E5
:104480006829181739F0612FCE01DF91CF911F9164
:104490000C947029DF91CF911F9108951F93CF93B2
:1044A000DF93C6EDD4E0698182E090E00E943A2279
:1044B0006A8183E090E00E943A2262E081E090E02D
:1044C0000E943A22E6E2F4E01481658184E090E003
:1044D0000E943A22612F85E090E00E943A221B81DF
:1044E0006C818CE090E00E943A22612F8DE090E098
:1044F0000E943A221D816E8186E090E00E943A225D
:10450000612F87E090E00E943A221F81688588E051
:1045100090E00E943A22612F89E090E00E943A22C6
:1045200019856A858AE090E00E943A22612F8BE02B
:1045300090E00E943A226B858EE090E00E943A2241
:104540006C858FE090E00E943A221D856E8580E1A7
:1045500090E00E943A22612F81E190E00E943A228D
:104560001F85688982E190E00E943A22612F83E1F1
:1045700090E0DF91CF911F910C943A220C9468291E
:104580001F920F920FB60F9211242F933F938F9388
:104590009F93AF93BF9380912D0490912E04A0918F
:1045A0002F04B091300430912C0423E0230F2D37D9
:1045B00058F50196A11DB11D20932C0480932D0464
:1045C00090932E04A0932F04B09330048091310473
:1045D00090913204A0913304B09134040196A11D4E
:1045E000B11D8093310490933204A0933304B093AF
:1045F0003404BF91AF919F918F913F912F910F9074
:104600000FBE0F901F90189526E8230F0296A11D4C
:10461000B11DD2CF1F920F920FB60F9211242F937C
:104620003F934F935F936F937F938F939F93AF933A
:10463000BF93EF93FF9385E394E00E949A20FF914C
:10464000EF91BF91AF919F918F917F916F915F910A
:104650004F913F912F910F900FBE0F901F90189583
:104660001F920F920FB60F9211242F938F939F9347
:10467000EF93FF93E0914504F09146048081E0912F
:104680004B04F0914C0482FD1BC0908180914E043C
:104690008F5F8F7320914F04821741F0E0914E0499
:1046A000F0E0EB5CFB4F958F80934E04FF91EF9110
:1046B0009F918F912F910F900FBE0F901F90189583
:1046C0008081F4CF1F920F920FB60F9211240F9397
:1046D0001F932F933F934F935F936F937F938F938A
:1046E0009F93AF93BF93CF93DF93EF93FF9380910B
:1046F0001604E091D7042CE0E29FF0011124ED5F55
:10470000FE4F0280F381E02DC0911704D091180470
:10471000EC0FFD1F811172C0E491C0911304EC27CE
:10472000E5B98091170490911804019690931804AC
:10473000809317048091170490911804E091D70496
:104740002CE0E29FF0011124ED5FFE4F20853185C2
:104750002817390721F510921804109217040E94A7
:10476000F71F0091D2041091D3042091D40430910A
:10477000D504601B710B820B930B60931B04709329
:104780001C0480931D0490931E040E94F71F6093E5
:10479000D2047093D3048093D4049093D504809171
:1047A0001404882371F080918100887F80938100B8
:1047B0009091150480918100892B80938100109243
:1047C00014048091000190910101909389008093DD
:1047D0008800FF91EF91DF91CF91BF91AF919F91B1
:1047E0008F917F916F915F914F913F912F911F9189
:1047F0000F910F900FBE0F901F901895E491CE2F40
:10480000D0E0CA30D10554F081E00E94901F2A9771
:10481000ECE1CE9FC02D1124CBB983CF80E00E9464
:10482000901FF6CF1F920F920FB60F9211248F9305
:104830009F938091120481110EC090917800809115
:10484000790089279827892790932404809323044B
:1048500081E0809325049F918F910F900FBE0F9060
:104860001F901895E5E3F4E01382128288EE93E03E
:10487000A0E0B0E084839583A683B7838BEF93E0B9
:104880009183808385EC90E09587848784EC90E029
:104890009787868780EC90E0918B808B81EC90E00D
:1048A000938B828B82EC90E0958B848B86EC90E0EE
:1048B000978B868B118E128E138E148EE6EDF4E09C
:1048C00084E3818384EC99E0948383838AEF90E08E
:1048D0009683858380EA9FE09087878388EE93E0C4
:1048E000928781871386148680E991E09687858771
:1048F000108A1786118A0E94F71F6093D204709362
:10490000D3048093D4049093D5040895CF93DF9378
:10491000CDB7DEB7C055D1090FB6F894DEBF0FBED4
:10492000CDBF789484B5826084BD84B5816084BD38
:1049300085B5826085BD85B5816085BD80916E003D
:10494000816080936E00109281008091810082606E
:1049500080938100809181008160809381008091AB
:1049600080008160809380008091B100846080939A
:10497000B1008091B00081608093B00080917A0096
:10498000846080937A0080917A00826080937A00BC
:1049900080917A00816080937A0080917A008068AB
:1049A00080937A001092C10012E01093D60481E047
:1049B00090E00E94BE228F3F09F09FC185E0809366
:1049C000D70488EB9BE090932B0480932A04909368
:1049D0002704809326041093D8048CEA9DE09093DA
:1049E000DA048093D90480E797E19093DE04809302
:1049F000DD0488EE93E09093DC048093DB049093D5
:104A0000E0048093DF041092E10483E08093E204E9
:104A100080E991E09093E4048093E3041092E6042B
:104A20001092E5040E944E22E0914504F091460464
:104A300082E08083E0914104F09142041082E09191
:104A40004304F091440480E1808310924D04E0918E
:104A50004904F0914A0486E08083E0914704F09194
:104A60004804808180618083E0914704F09148048C
:104A7000808188608083E0914704F09148048081C0
:104A800080688083E0914704F091480480818F7DA5
:104A9000808310921A04F894109280001092810082
:104AA000109285001092840088EE93E09093890024
:104AB000809388008091810088608093810080913C
:104AC000810081608093810080916F00826080937B
:104AD0006F001092B0001092B1001092B20089EFF6
:104AE0008093B3008091B00082608093B000809189
:104AF000B10084608093B10080917C008F7D8093B1
:104B00007C0080917C00806480937C0080917C009C
:104B1000807F80937C0080917A00806880937A0007
:104B200080917A00806280937A0080917B00887FF8
:104B300080937B0080917A00876080937A008091D7
:104B40007A00886080937A0082E00E94D81F83E018
:104B50000E94D81F84E00E94D81F85E00E94D81FC1
:104B600086E00E94D81F87E00E94D81F88E00E943C
:104B7000D81F89E00E94D81F8AE00E94D81F8BE0CE
:104B80000E94D81F789480917A00806480937A0084
:104B900060912A0470912B0490E080E00E9429210A
:104BA0001CE0F12EEE24E39400E0802E00E0902E35
:104BB000009126041091270485E394E00E947A2056
:104BC0001816190614F580911A04811106C085E3A0
:104BD00094E00E9458208093190480911904833531
:104BE00009F47BC208F090C18E3409F4F6C108F0D4
:104BF00080C1833409F4BEC1E3E0CE2EE1E0DE2EB5
:104C00008C3409F4CAC110921A048091D8048230FD
:104C100009F094C280912504882389F0109225041C
:104C2000009123041091240474E0000F111F7A9561
:104C3000E1F7093263E2160710F008E213E210937D
:104C40002704009326048091E3049091E4048017E4
:104C5000910708F42EC38091E104882309F429C345
:104C600080911B0490911C04A0911D04B0911E041E
:104C7000892B8A2B8B2B09F4B1C20E94F71F20913C
:104C8000D2043091D3044091D4045091D5045B01F7
:104C90006C01A21AB30AC40AD50AA6019501E091D3
:104CA000D704FE9EF0011124ED5FFE4F82859385AF
:104CB000803D924021F4220F331F441F551FA090C6
:104CC0001B04B0901C04C0901D04D0901E04A8E6E4
:104CD000B1E00E947E29A60195010E948929809158
:104CE000E5049091E604820F931F8936E1E09E0768
:104CF00008F476C288569140F8CF82E090E00E9496
:104D0000BE22A82E8093D70483E090E00E94BE22AA
:104D1000B82E8093D80484E090E00E94BE22C82E72
:104D200085E090E00E94BE22DC2CC82ED0922B049D
:104D3000C0922A048CE090E00E94BE22182F8DE0E1
:104D400090E00E94BE22912F893223E2920710F058
:104D500088E293E28436910510F484E690E0909323
:104D6000DA048093D90486E090E00E94BE22E82E07
:104D700087E090E00E94BE22FE2CE82E49E2E41675
:104D800043E2F40620F048E2E42E43E2F42E64E627
:104D9000E616F10418F434E6E32EF12CF092DC046C
:104DA000E092DB0488E090E00E94BE22082F89E0B8
:104DB00090E00E94BE22102F082F093283E21807CC
:104DC00010F008E213E20436110510F404E610E0D6
:104DD0001093DE040093DD048AE090E00E94BE227E
:104DE000982E8BE090E00E94BE22992D8131E7E25F
:104DF0009E0710F080E197E2883C910510F488EC62
:104E000090E09093E0048093DF04E016F10630F028
:104E1000045611091093DC040093DB048EE090E04B
:104E20000E94BE2291E0811101C090E09093E104C4
:104E30008FE090E00E94BE22F82E8093E20480E191
:104E400090E00E94BE22082F81E190E00E94BE22E5
:104E5000102F082F1093E4040093E30482E190E004
:104E60000E94BE22E82E83E190E00E94BE229E2D89
:104E70009093E6048093E504FEE3FA1518F425E028
:104E80002093D70422E0A22EAB1418F421E0209343
:104E9000D80429E9C2162AE3D20630F020EA3FE01E
:104EA00030932B0420932A04209126043091270468
:104EB00029393A4330F020EA3FE030932704209329
:104EC000260465E06F1518F423E02093E204093E00
:104ED000134030F020E931E03093E4042093E30400
:104EE0008836914008F4A0CD1092E6041092E504B3
:104EF0009BCD803509F478C0823509F084CE80914D
:104F00002A0490912B0433C08E3609F45AC0E8F479
:104F1000883509F4F5C0833609F075CE85E394E051
:104F20000E947A204197D0F3B7EDCB2EB4E0DB2E70
:104F300085E394E00E945820F60181936F01F8EE1A
:104F4000CF16F4E0DF06A1F75ECE823709F486C003
:104F5000833709F4BFC0803709F055CEE091D704FC
:104F6000FE9EF0011124ED5FFE4F808591850E9429
:104F7000282249CEA6EDCA2EA4E0DA2EF6016191D0
:104F80006F0185E394E00E94BC20F8EEAF2EF4E0C0
:104F9000BF2EAC14BD0491F736CEF601608171814D
:104FA000CE0101960E946129CE0101960E941A222B
:104FB000FCE0CF0ED11C27EFC21623E0D20669F722
:104FC00022CE4AE06FE370E080E090E00E94D621BC
:104FD00089E094E00E94C92116CE6091D70470E068
:104FE00090E080E04AE0F2CFD12CC12CE091D704D0
:104FF000FE9EF0011124ED5FFE4F80859185C8165D
:10500000D906F0F4C114D10421F08CE094E00E94A0
:10501000C921E091D704FE9EF0011124ED5FFE4FFF
:105020000280F381E02DEC0DFD1D649170E090E0B5
:1050300080E04AE00E94D6214FEFC41AD40AD6CFAE
:105040008BE094E00E941A22E091D704FE9EF001CA
:105050001124ED5FFE4F8285938589CF1092D8048D
:1050600085E394E00E947A200697D4F385E394E0E8
:105070000E945820D82E85E394E00E945820782E74
:10508000612CC3018D299093DC048093DB0485E3BC
:1050900094E00E945820D82E85E394E00E94582086
:1050A000582E412CC2018D299093DE048093DD049B
:1050B00085E394E00E945820D82E85E394E00E9476
:1050C0005820382E212CC1018D299093E004809323
:1050D000DF0499CD0E944E2296CD85E394E00E9494
:1050E0007A2018161906CCF785E394E00E94582020
:1050F0008F3308F088CD8093D7040E94892183CD17
:105100008091D7048E33B1F41092D7040E94892184
:10511000E091D704FE9EF0011124ED5FFE4F608107
:105120007181CE0101960E946129CE0101960E94F3
:105130001A2269CD8F5F8093D704E8CF811146C0D2
:105140000E94F71FAB01BC012091DF043091E00405
:1051500080911F0490912004A0912104B091220419
:10516000820F931FA11DB11D84179507A607B707CE
:1051700008F065CD0E94F71F60931F047093200410
:105180008093210490932204009126041091270417
:1051900080910201813069F40F5F1F4F8091DD041F
:1051A0009091DE040817190708F449CD1092020106
:1051B00046CD015011098091DB049091DC048017E9
:1051C000910708F43CCDE092020139CD813009F01D
:1051D00036CD0091D9041091DA0431CD90E080E011
:1051E0002091E204233019F038F4213089F064EB87
:1051F00070E00E94562B0EC0243081F02530B9F7A4
:105200006AE570E00E94562BFC01ED50F34C0DC096
:1052100096958795FC01EB53F24C07C068E770E068
:105220000E94562BFC01E35BF24CE4916E2F70E080
:105230008091E704882389F00F38F2E01F0768F4B3
:10524000069FC001079F900D169F900D112460913D
:10525000E3047091E4040E94562B6017710760F517
:105260007093290460932804809128049091290464
:10527000081B190B0A30110580F080912A049091C7
:105280002B040817190729F0B80190E080E00E946C
:10529000292110932B0400932A048114910409F40A
:1052A00087CC0E948620882309F47ACC0E940000D3
:1052B00077CC70E060E0D1CF1092290410922804DE
:1052C000D3CFFB01DC0105900D920020E1F708959A
:1052D000F999FECF92BD81BDF89A992780B50895BE
:1052E000262FF999FECF1FBA92BD81BD20BD0FB602
:1052F000F894FA9AF99A0FBE019608950E94AB2984
:10530000A59F900DB49F900DA49F800D911D112419
:105310000895A1E21A2EAA1BBB1BFD010DC0AA1FF6
:10532000BB1FEE1FFF1FA217B307E407F50720F00E
:10533000A21BB30BE40BF50B661F771F881F991F89
:105340001A9469F760957095809590959B01AC01D2
:10535000BD01CF010895A29FB001B39FC001A39FDB
:10536000700D811D1124911DB29F700D811D11249E
:10537000911D08950E94CE290C94AF2A0E94A82A5C
:1053800058F00E94A12A40F029F45F3F29F00C94C4
:10539000982A51110C94E32A0C949E2A0E94C02A48
:1053A00068F39923B1F3552391F3951B550BBB2754
:1053B000AA2762177307840738F09F5F5F4F220F99
:1053C000331F441FAA1FA9F335D00E2E3AF0E0E890
:1053D00032D091505040E695001CCAF72BD0FE2FDA
:1053E00029D0660F771F881FBB1F2617370748076E
:1053F000AB07B0E809F0BB0B802DBF01FF27935826
:105400005F4F3AF09E3F510578F00C94982A0C9427
:10541000E32A5F3FE4F3983ED4F38695779567954A
:10542000B795F7959F5FC9F7880F911D969587955A
:1054300097F90895E1E0660F771F881FBB1F621779
:1054400073078407BA0720F0621B730B840BBA0B37
:10545000EE1F88F7E09508950E94C82A88F09F57AC
:1054600098F0B92F9927B751B0F0E1F0660F771F88
:10547000881F991F1AF0BA95C9F714C0B13091F07E
:105480000E94E22AB1E008950C94E22A672F782F57
:105490008827B85F39F0B93FCCF386957795679543
:1054A000B395D9F73EF490958095709561957F4FAF
:1054B0008F4F9F4F0895E89409C097FB3EF4909555
:1054C0008095709561957F4F8F4F9F4F9923A9F0DD
:1054D000F92F96E9BB279395F6958795779567956C
:1054E000B795F111F8CFFAF4BB0F11F460FF1BC0B0
:1054F0006F5F7F4F8F4F9F4F16C0882311F096E943
:1055000011C0772321F09EE8872F762F05C06623F0
:1055100071F096E8862F70E060E02AF09A95660FA9
:10552000771F881FDAF7880F9695879597F9089562
:1055300097F99F6780E870E060E008959FEF80EC46
:10554000089500240A9416161706180609060895E9
:1055500000240A9412161306140605060895092E4F
:105560000394000C11F4882352F0BB0F40F4BF2BBE
:1055700011F460FF04C06F5F7F4F8F4F9F4F0895FE
:1055800057FD9058440F551F59F05F3F71F04795F4
:10559000880F97FB991F61F09F3F79F087950895D9
:1055A000121613061406551FF2CF4695F1DF08C0F8
:1055B000161617061806991FF1CF86957105610515
:1055C00008940895E894BB2766277727CB0197F9BD
:1055D00008950E94FC2A0C94AF2A0E94A12A38F058
:1055E0000E94A82A20F0952311F00C94982A0C947C
:1055F0009E2A11240C94E32A0E94C02A70F3959FDE
:10560000C1F3950F50E0551F629FF001729FBB27B9
:10561000F00DB11D639FAA27F00DB11DAA1F649F55
:105620006627B00DA11D661F829F2227B00DA11D08
:10563000621F739FB00DA11D621F839FA00D611D8E
:10564000221F749F3327A00D611D231F849F600DAF
:10565000211D822F762F6A2F11249F5750409AF0D8
:10566000F1F088234AF0EE0FFF1FBB1F661F771F64
:10567000881F91505040A9F79E3F510580F00C942F
:10568000982A0C94E32A5F3FE4F3983ED4F386957E
:1056900077956795B795F795E7959F5FC1F7FE2BCF
:1056A000880F911D9695879597F90895AA1BBB1BA6
:1056B00051E107C0AA1FBB1FA617B70710F0A61B12
:1056C000B70B881F991F5A95A9F780959095BC0133
:1056D000CD010895EE0FFF1F0590F491E02D099480
:0456E000F894FFCF6C
:1056E400881301E23CDE3C0A85083D04006801CDD4
:1056F4003CC73CCDCC4C3D06006801B63CAE3C48B2
:105704008A883D080068019E3C263C0000803F7862
:10571400006801133C233B0000803FF000D00204EA
:105724003B143A0000803FF000D002043ABC399A9E
:1057340099193F48006801AC397C390000003F30BA
:1057440000680163395339488A883D1000D0023F0C
:10575400392F39A987083E100068011C39F8389A96
:1057640099193E2400D002E43854389A99193F908C
:1057740000D0023938E937E3AA2A3F50006801BC57
:1057840037B3379A99193E0900D0028A377237CD58
:10579400CC4C3E180068015737873400004040D095
:1057A40002D0027A344A34CDCCCC3E300068013386
:1057B40034EB339A99193F48006801D4338C339AF7
:1057C40099193F480068017533E5329A99193F9059
:1057D40000D002D13289329A99193F480068017188
:1057E40032E1319A99193F9000D002C83138319A88
:1057F40099193F9000D0022031D0303BAAAA3E50E4
:1058040000D002BB30EB2D0000C040D002D002D348
:105814002DE32C0000803FF000D002C52C7D2C9A93
:1058240099193F48006801692C392CCDCC4C3E3085
:1058340000D0020E2C7E2B9A99193F9000D002556D
:105844002B852800004040D002D0025C288C250023
:10585400004040D002D0026325932200004040D093
:1058640002D0026F22DF219A99993F9000D002C49E
:1058740021F41E00004040D002D002D81E081C00B3
:10588400004040D002D002DC1B941B9A99993E48F8
:1058940000D0025E1B1E1BF888883E4000D002F731
:1058A4001AEF1A0A85883D0800D002C81ABC1ACD1E
:1058B400CCCC3D0C00D002951A851AA987083E105D
:1058C40000D0025F1A7F1800008040E001D0025F20
:1058D40018F7160000C03F6801D002D11641169A8D
:1058E40099193F9000D0022416EC110000C03F38F3
:1058F40004D002D51145119A99193F9000D0023075
:105904001112110000803F1E00D002EB105B10CD7D
:10591400CC4C3F900068014F10BF0F9A99193F90EB
:1059240000D002A60F160F9A99193F9000D002FDDD
:105934000E6D0E9A99193F9000D002540E840B00FC
:10594400004040D002D0027E0BCA0A8941C03FB455
:1059540000D002C10A310A9A99193F9000D0022658
:105964000A560700004040D002D0024607B6069A05
:1059740099193F9000D002AA061A06FA7EAA3E9010
:1059840000D0020D067D05FA7EAA3E9000D0026F7B
:105994000527059A99193F480068011D05B50300BC
:1059A40000C03F6801D002AD03BD020000803FF09B
:1059B40000D002A302B3010000803FF000D0029D9A
:1059C400010D019A99193F9000D002F80068009ADD
:1059D40099193F9000D00200000000BC201C20490F
:0E59E4002009217A2058206C200D0A002C008A
:00000001FF
